{
	"contracts/AccessControl.sol": {
		"BurgerShopAccessControll": {
			"abi": [
				{
					"inputs": [],
					"stateMutability": "nonpayable",
					"type": "constructor"
				},
				{
					"anonymous": false,
					"inputs": [
						{
							"indexed": true,
							"internalType": "address",
							"name": "_from",
							"type": "address"
						},
						{
							"indexed": false,
							"internalType": "uint256",
							"name": "cost",
							"type": "uint256"
						}
					],
					"name": "BoughtBurger",
					"type": "event"
				},
				{
					"inputs": [],
					"name": "burgerShopStatge",
					"outputs": [
						{
							"internalType": "enum BurgerShopAccessControll.Stages",
							"name": "",
							"type": "uint8"
						}
					],
					"stateMutability": "view",
					"type": "function"
				},
				{
					"inputs": [],
					"name": "buyBurger",
					"outputs": [],
					"stateMutability": "payable",
					"type": "function"
				},
				{
					"inputs": [],
					"name": "buyDeluxBurger",
					"outputs": [],
					"stateMutability": "payable",
					"type": "function"
				},
				{
					"inputs": [],
					"name": "claimRefund",
					"outputs": [],
					"stateMutability": "payable",
					"type": "function"
				},
				{
					"inputs": [
						{
							"internalType": "address",
							"name": "",
							"type": "address"
						}
					],
					"name": "customers",
					"outputs": [
						{
							"internalType": "uint256",
							"name": "",
							"type": "uint256"
						}
					],
					"stateMutability": "view",
					"type": "function"
				},
				{
					"inputs": [],
					"name": "deluxCost",
					"outputs": [
						{
							"internalType": "uint256",
							"name": "",
							"type": "uint256"
						}
					],
					"stateMutability": "view",
					"type": "function"
				},
				{
					"inputs": [],
					"name": "getBalance",
					"outputs": [
						{
							"internalType": "uint256",
							"name": "",
							"type": "uint256"
						}
					],
					"stateMutability": "view",
					"type": "function"
				},
				{
					"inputs": [
						{
							"internalType": "uint256",
							"name": "_seed",
							"type": "uint256"
						}
					],
					"name": "getRandomNum",
					"outputs": [
						{
							"internalType": "uint256",
							"name": "",
							"type": "uint256"
						}
					],
					"stateMutability": "view",
					"type": "function"
				},
				{
					"inputs": [],
					"name": "madeBurger",
					"outputs": [],
					"stateMutability": "nonpayable",
					"type": "function"
				},
				{
					"inputs": [],
					"name": "manager",
					"outputs": [
						{
							"internalType": "address",
							"name": "",
							"type": "address"
						}
					],
					"stateMutability": "view",
					"type": "function"
				},
				{
					"inputs": [],
					"name": "normalCost",
					"outputs": [
						{
							"internalType": "uint256",
							"name": "",
							"type": "uint256"
						}
					],
					"stateMutability": "view",
					"type": "function"
				},
				{
					"inputs": [],
					"name": "owner",
					"outputs": [
						{
							"internalType": "address",
							"name": "",
							"type": "address"
						}
					],
					"stateMutability": "view",
					"type": "function"
				},
				{
					"inputs": [],
					"name": "pickupBurger",
					"outputs": [],
					"stateMutability": "nonpayable",
					"type": "function"
				},
				{
					"inputs": [
						{
							"internalType": "address",
							"name": "_to",
							"type": "address"
						},
						{
							"internalType": "uint256",
							"name": "_cost",
							"type": "uint256"
						}
					],
					"name": "refund",
					"outputs": [],
					"stateMutability": "payable",
					"type": "function"
				},
				{
					"inputs": [],
					"name": "startDate",
					"outputs": [
						{
							"internalType": "uint256",
							"name": "",
							"type": "uint256"
						}
					],
					"stateMutability": "view",
					"type": "function"
				},
				{
					"inputs": [
						{
							"internalType": "enum BurgerShopAccessControll.Stages",
							"name": "_stage",
							"type": "uint8"
						}
					],
					"name": "updateStage",
					"outputs": [],
					"stateMutability": "nonpayable",
					"type": "function"
				},
				{
					"inputs": [
						{
							"internalType": "address",
							"name": "",
							"type": "address"
						}
					],
					"name": "userRefund",
					"outputs": [
						{
							"internalType": "uint256",
							"name": "",
							"type": "uint256"
						}
					],
					"stateMutability": "view",
					"type": "function"
				}
			],
			"devdoc": {
				"kind": "dev",
				"methods": {},
				"version": 1
			},
			"evm": {
				"assembly": "    /* \"contracts/AccessControl.sol\":74:4504  contract BurgerShopAccessControll {\r... */\n  mstore(0x40, 0x80)\n    /* \"contracts/AccessControl.sol\":173:182  0.2 ether */\n  0x02c68af0bb140000\n    /* \"contracts/AccessControl.sol\":145:182  uint256 public normalCost = 0.2 ether */\n  0x00\n  sstore\n    /* \"contracts/AccessControl.sol\":216:225  0.4 ether */\n  0x058d15e176280000\n    /* \"contracts/AccessControl.sol\":189:225  uint256 public deluxCost = 0.4 ether */\n  0x01\n  sstore\n    /* \"contracts/AccessControl.sol\":333:343  30 seconds */\n  0x1e\n    /* \"contracts/AccessControl.sol\":315:330  block.timestamp */\n  timestamp\n    /* \"contracts/AccessControl.sol\":315:343  block.timestamp + 30 seconds */\n  tag_1\n  swap2\n  swap1\n  tag_2\n  jump\t// in\ntag_1:\n    /* \"contracts/AccessControl.sol\":288:343  uint256 public startDate = block.timestamp + 30 seconds */\n  0x04\n  sstore\n    /* \"contracts/AccessControl.sol\":847:866  Stages.readyToOrder */\n  0x00\n    /* \"contracts/AccessControl.sol\":814:866  Stages public burgerShopStatge = Stages.readyToOrder */\n  0x07\n  exp(0x0100, 0x00)\n  dup2\n  sload\n  dup2\n  0xff\n  mul\n  not\n  and\n  swap1\n  dup4\n  0x02\n  dup2\n  gt\n  iszero\n  tag_3\n  jumpi\n  tag_4\n  tag_5\n  jump\t// in\ntag_4:\ntag_3:\n  mul\n  or\n  swap1\n  sstore\n  pop\n    /* \"contracts/AccessControl.sol\":455:537  constructor() {\r... */\n  callvalue\n  dup1\n  iszero\n  tag_6\n  jumpi\n  0x00\n  dup1\n  revert\ntag_6:\n  pop\n    /* \"contracts/AccessControl.sol\":488:498  msg.sender */\n  caller\n    /* \"contracts/AccessControl.sol\":480:485  owner */\n  0x03\n  0x00\n    /* \"contracts/AccessControl.sol\":480:498  owner = msg.sender */\n  0x0100\n  exp\n  dup2\n  sload\n  dup2\n  0xffffffffffffffffffffffffffffffffffffffff\n  mul\n  not\n  and\n  swap1\n  dup4\n  0xffffffffffffffffffffffffffffffffffffffff\n  and\n  mul\n  or\n  swap1\n  sstore\n  pop\n    /* \"contracts/AccessControl.sol\":519:529  msg.sender */\n  caller\n    /* \"contracts/AccessControl.sol\":509:516  manager */\n  0x02\n  0x00\n    /* \"contracts/AccessControl.sol\":509:529  manager = msg.sender */\n  0x0100\n  exp\n  dup2\n  sload\n  dup2\n  0xffffffffffffffffffffffffffffffffffffffff\n  mul\n  not\n  and\n  swap1\n  dup4\n  0xffffffffffffffffffffffffffffffffffffffff\n  and\n  mul\n  or\n  swap1\n  sstore\n  pop\n    /* \"contracts/AccessControl.sol\":74:4504  contract BurgerShopAccessControll {\r... */\n  jump(tag_9)\n    /* \"#utility.yul\":7:312   */\ntag_2:\n    /* \"#utility.yul\":47:50   */\n  0x00\n    /* \"#utility.yul\":66:86   */\n  tag_12\n    /* \"#utility.yul\":84:85   */\n  dup3\n    /* \"#utility.yul\":66:86   */\n  tag_13\n  jump\t// in\ntag_12:\n    /* \"#utility.yul\":61:86   */\n  swap2\n  pop\n    /* \"#utility.yul\":100:120   */\n  tag_14\n    /* \"#utility.yul\":118:119   */\n  dup4\n    /* \"#utility.yul\":100:120   */\n  tag_13\n  jump\t// in\ntag_14:\n    /* \"#utility.yul\":95:120   */\n  swap3\n  pop\n    /* \"#utility.yul\":254:255   */\n  dup3\n    /* \"#utility.yul\":186:252   */\n  0xffffffffffffffffffffffffffffffffffffffffffffffffffffffffffffffff\n    /* \"#utility.yul\":182:256   */\n  sub\n    /* \"#utility.yul\":179:180   */\n  dup3\n    /* \"#utility.yul\":176:257   */\n  gt\n    /* \"#utility.yul\":173:280   */\n  iszero\n  tag_15\n  jumpi\n    /* \"#utility.yul\":260:278   */\n  tag_16\n  tag_17\n  jump\t// in\ntag_16:\n    /* \"#utility.yul\":173:280   */\ntag_15:\n    /* \"#utility.yul\":304:305   */\n  dup3\n    /* \"#utility.yul\":301:302   */\n  dup3\n    /* \"#utility.yul\":297:306   */\n  add\n    /* \"#utility.yul\":290:306   */\n  swap1\n  pop\n    /* \"#utility.yul\":7:312   */\n  swap3\n  swap2\n  pop\n  pop\n  jump\t// out\n    /* \"#utility.yul\":318:395   */\ntag_13:\n    /* \"#utility.yul\":355:362   */\n  0x00\n    /* \"#utility.yul\":384:389   */\n  dup2\n    /* \"#utility.yul\":373:389   */\n  swap1\n  pop\n    /* \"#utility.yul\":318:395   */\n  swap2\n  swap1\n  pop\n  jump\t// out\n    /* \"#utility.yul\":401:581   */\ntag_17:\n    /* \"#utility.yul\":449:526   */\n  0x4e487b7100000000000000000000000000000000000000000000000000000000\n    /* \"#utility.yul\":446:447   */\n  0x00\n    /* \"#utility.yul\":439:527   */\n  mstore\n    /* \"#utility.yul\":546:550   */\n  0x11\n    /* \"#utility.yul\":543:544   */\n  0x04\n    /* \"#utility.yul\":536:551   */\n  mstore\n    /* \"#utility.yul\":570:574   */\n  0x24\n    /* \"#utility.yul\":567:568   */\n  0x00\n    /* \"#utility.yul\":560:575   */\n  revert\n    /* \"#utility.yul\":587:767   */\ntag_5:\n    /* \"#utility.yul\":635:712   */\n  0x4e487b7100000000000000000000000000000000000000000000000000000000\n    /* \"#utility.yul\":632:633   */\n  0x00\n    /* \"#utility.yul\":625:713   */\n  mstore\n    /* \"#utility.yul\":732:736   */\n  0x21\n    /* \"#utility.yul\":729:730   */\n  0x04\n    /* \"#utility.yul\":722:737   */\n  mstore\n    /* \"#utility.yul\":756:760   */\n  0x24\n    /* \"#utility.yul\":753:754   */\n  0x00\n    /* \"#utility.yul\":746:761   */\n  revert\n    /* \"contracts/AccessControl.sol\":74:4504  contract BurgerShopAccessControll {\r... */\ntag_9:\n  dataSize(sub_0)\n  dup1\n  dataOffset(sub_0)\n  0x00\n  codecopy\n  0x00\n  return\nstop\n\nsub_0: assembly {\n        /* \"contracts/AccessControl.sol\":74:4504  contract BurgerShopAccessControll {\r... */\n      mstore(0x40, 0x80)\n      jumpi(tag_1, lt(calldatasize, 0x04))\n      shr(0xe0, calldataload(0x00))\n      dup1\n      0xb5545a3c\n      gt\n      tag_19\n      jumpi\n      dup1\n      0xce365cdf\n      gt\n      tag_20\n      jumpi\n      dup1\n      0xce365cdf\n      eq\n      tag_14\n      jumpi\n      dup1\n      0xd1f22eef\n      eq\n      tag_15\n      jumpi\n      dup1\n      0xeb1d1b91\n      eq\n      tag_16\n      jumpi\n      dup1\n      0xf203644a\n      eq\n      tag_17\n      jumpi\n      dup1\n      0xfd445100\n      eq\n      tag_18\n      jumpi\n      jump(tag_1)\n    tag_20:\n      dup1\n      0xb5545a3c\n      eq\n      tag_10\n      jumpi\n      dup1\n      0xb8e53ae7\n      eq\n      tag_11\n      jumpi\n      dup1\n      0xbd083bae\n      eq\n      tag_12\n      jumpi\n      dup1\n      0xc06a56ba\n      eq\n      tag_13\n      jumpi\n      jump(tag_1)\n    tag_19:\n      dup1\n      0x410085df\n      gt\n      tag_21\n      jumpi\n      dup1\n      0x410085df\n      eq\n      tag_6\n      jumpi\n      dup1\n      0x481c6a75\n      eq\n      tag_7\n      jumpi\n      dup1\n      0x8da5cb5b\n      eq\n      tag_8\n      jumpi\n      dup1\n      0x925b8148\n      eq\n      tag_9\n      jumpi\n      jump(tag_1)\n    tag_21:\n      dup1\n      0x0b97bc86\n      eq\n      tag_2\n      jumpi\n      dup1\n      0x12065fe0\n      eq\n      tag_3\n      jumpi\n      dup1\n      0x336989ae\n      eq\n      tag_4\n      jumpi\n      dup1\n      0x34011d28\n      eq\n      tag_5\n      jumpi\n    tag_1:\n      0x00\n      dup1\n      revert\n        /* \"contracts/AccessControl.sol\":288:343  uint256 public startDate = block.timestamp + 30 seconds */\n    tag_2:\n      callvalue\n      dup1\n      iszero\n      tag_22\n      jumpi\n      0x00\n      dup1\n      revert\n    tag_22:\n      pop\n      tag_23\n      tag_24\n      jump\t// in\n    tag_23:\n      mload(0x40)\n      tag_25\n      swap2\n      swap1\n      tag_26\n      jump\t// in\n    tag_25:\n      mload(0x40)\n      dup1\n      swap2\n      sub\n      swap1\n      return\n        /* \"contracts/AccessControl.sol\":3832:3930  function getBalance() public view returns(uint256) {\r... */\n    tag_3:\n      callvalue\n      dup1\n      iszero\n      tag_27\n      jumpi\n      0x00\n      dup1\n      revert\n    tag_27:\n      pop\n      tag_28\n      tag_29\n      jump\t// in\n    tag_28:\n      mload(0x40)\n      tag_30\n      swap2\n      swap1\n      tag_26\n      jump\t// in\n    tag_30:\n      mload(0x40)\n      dup1\n      swap2\n      sub\n      swap1\n      return\n        /* \"contracts/AccessControl.sol\":350:394  mapping(address => uint256) public customers */\n    tag_4:\n      callvalue\n      dup1\n      iszero\n      tag_31\n      jumpi\n      0x00\n      dup1\n      revert\n    tag_31:\n      pop\n      tag_32\n      0x04\n      dup1\n      calldatasize\n      sub\n      dup2\n      add\n      swap1\n      tag_33\n      swap2\n      swap1\n      tag_34\n      jump\t// in\n    tag_33:\n      tag_35\n      jump\t// in\n    tag_32:\n      mload(0x40)\n      tag_36\n      swap2\n      swap1\n      tag_26\n      jump\t// in\n    tag_36:\n      mload(0x40)\n      dup1\n      swap2\n      sub\n      swap1\n      return\n        /* \"contracts/AccessControl.sol\":814:866  Stages public burgerShopStatge = Stages.readyToOrder */\n    tag_5:\n      callvalue\n      dup1\n      iszero\n      tag_37\n      jumpi\n      0x00\n      dup1\n      revert\n    tag_37:\n      pop\n      tag_38\n      tag_39\n      jump\t// in\n    tag_38:\n      mload(0x40)\n      tag_40\n      swap2\n      swap1\n      tag_41\n      jump\t// in\n    tag_40:\n      mload(0x40)\n      dup1\n      swap2\n      sub\n      swap1\n      return\n        /* \"contracts/AccessControl.sol\":2840:3548  function refund(address _to, uint256 _cost) payable public refundAmount(_to, _cost) onlyOwner{\r... */\n    tag_6:\n      tag_42\n      0x04\n      dup1\n      calldatasize\n      sub\n      dup2\n      add\n      swap1\n      tag_43\n      swap2\n      swap1\n      tag_44\n      jump\t// in\n    tag_43:\n      tag_45\n      jump\t// in\n    tag_42:\n      stop\n        /* \"contracts/AccessControl.sol\":232:254  address public manager */\n    tag_7:\n      callvalue\n      dup1\n      iszero\n      tag_46\n      jumpi\n      0x00\n      dup1\n      revert\n    tag_46:\n      pop\n      tag_47\n      tag_48\n      jump\t// in\n    tag_47:\n      mload(0x40)\n      tag_49\n      swap2\n      swap1\n      tag_50\n      jump\t// in\n    tag_49:\n      mload(0x40)\n      dup1\n      swap2\n      sub\n      swap1\n      return\n        /* \"contracts/AccessControl.sol\":261:281  address public owner */\n    tag_8:\n      callvalue\n      dup1\n      iszero\n      tag_51\n      jumpi\n      0x00\n      dup1\n      revert\n    tag_51:\n      pop\n      tag_52\n      tag_53\n      jump\t// in\n    tag_52:\n      mload(0x40)\n      tag_54\n      swap2\n      swap1\n      tag_50\n      jump\t// in\n    tag_54:\n      mload(0x40)\n      dup1\n      swap2\n      sub\n      swap1\n      return\n        /* \"contracts/AccessControl.sol\":189:225  uint256 public deluxCost = 0.4 ether */\n    tag_9:\n      callvalue\n      dup1\n      iszero\n      tag_55\n      jumpi\n      0x00\n      dup1\n      revert\n    tag_55:\n      pop\n      tag_56\n      tag_57\n      jump\t// in\n    tag_56:\n      mload(0x40)\n      tag_58\n      swap2\n      swap1\n      tag_26\n      jump\t// in\n    tag_58:\n      mload(0x40)\n      dup1\n      swap2\n      sub\n      swap1\n      return\n        /* \"contracts/AccessControl.sol\":3556:3824  function claimRefund() payable public {\r... */\n    tag_10:\n      tag_59\n      tag_60\n      jump\t// in\n    tag_59:\n      stop\n        /* \"contracts/AccessControl.sol\":4202:4289  function updateStage(Stages _stage) public {\r... */\n    tag_11:\n      callvalue\n      dup1\n      iszero\n      tag_61\n      jumpi\n      0x00\n      dup1\n      revert\n    tag_61:\n      pop\n      tag_62\n      0x04\n      dup1\n      calldatasize\n      sub\n      dup2\n      add\n      swap1\n      tag_63\n      swap2\n      swap1\n      tag_64\n      jump\t// in\n    tag_63:\n      tag_65\n      jump\t// in\n    tag_62:\n      stop\n        /* \"contracts/AccessControl.sol\":401:446  mapping(address => uint256) public userRefund */\n    tag_12:\n      callvalue\n      dup1\n      iszero\n      tag_66\n      jumpi\n      0x00\n      dup1\n      revert\n    tag_66:\n      pop\n      tag_67\n      0x04\n      dup1\n      calldatasize\n      sub\n      dup2\n      add\n      swap1\n      tag_68\n      swap2\n      swap1\n      tag_34\n      jump\t// in\n    tag_68:\n      tag_69\n      jump\t// in\n    tag_67:\n      mload(0x40)\n      tag_70\n      swap2\n      swap1\n      tag_26\n      jump\t// in\n    tag_70:\n      mload(0x40)\n      dup1\n      swap2\n      sub\n      swap1\n      return\n        /* \"contracts/AccessControl.sol\":3938:4058  function madeBurger() public isAtStage(Stages.makeBurger) shopOpened{\r... */\n    tag_13:\n      callvalue\n      dup1\n      iszero\n      tag_71\n      jumpi\n      0x00\n      dup1\n      revert\n    tag_71:\n      pop\n      tag_72\n      tag_73\n      jump\t// in\n    tag_72:\n      stop\n        /* \"contracts/AccessControl.sol\":4066:4194  function pickupBurger() public isAtStage(Stages.deliverBurger) shopOpened{\r... */\n    tag_14:\n      callvalue\n      dup1\n      iszero\n      tag_74\n      jumpi\n      0x00\n      dup1\n      revert\n    tag_74:\n      pop\n      tag_75\n      tag_76\n      jump\t// in\n    tag_75:\n      stop\n        /* \"contracts/AccessControl.sol\":4297:4493  function getRandomNum(uint256 _seed) public view returns(uint256) {\r... */\n    tag_15:\n      callvalue\n      dup1\n      iszero\n      tag_77\n      jumpi\n      0x00\n      dup1\n      revert\n    tag_77:\n      pop\n      tag_78\n      0x04\n      dup1\n      calldatasize\n      sub\n      dup2\n      add\n      swap1\n      tag_79\n      swap2\n      swap1\n      tag_80\n      jump\t// in\n    tag_79:\n      tag_81\n      jump\t// in\n    tag_78:\n      mload(0x40)\n      tag_82\n      swap2\n      swap1\n      tag_26\n      jump\t// in\n    tag_82:\n      mload(0x40)\n      dup1\n      swap2\n      sub\n      swap1\n      return\n        /* \"contracts/AccessControl.sol\":2361:2832  function buyDeluxBurger() payable public shouldPay(deluxCost) isAtStage(Stages.readyToOrder) shopOpened {\r... */\n    tag_16:\n      tag_83\n      tag_84\n      jump\t// in\n    tag_83:\n      stop\n        /* \"contracts/AccessControl.sol\":145:182  uint256 public normalCost = 0.2 ether */\n    tag_17:\n      callvalue\n      dup1\n      iszero\n      tag_85\n      jumpi\n      0x00\n      dup1\n      revert\n    tag_85:\n      pop\n      tag_86\n      tag_87\n      jump\t// in\n    tag_86:\n      mload(0x40)\n      tag_88\n      swap2\n      swap1\n      tag_26\n      jump\t// in\n    tag_88:\n      mload(0x40)\n      dup1\n      swap2\n      sub\n      swap1\n      return\n        /* \"contracts/AccessControl.sol\":1886:2353  function buyBurger() payable public shouldPay(normalCost) isAtStage(Stages.readyToOrder) shopOpened {\r... */\n    tag_18:\n      tag_89\n      tag_90\n      jump\t// in\n    tag_89:\n      stop\n        /* \"contracts/AccessControl.sol\":288:343  uint256 public startDate = block.timestamp + 30 seconds */\n    tag_24:\n      sload(0x04)\n      dup2\n      jump\t// out\n        /* \"contracts/AccessControl.sol\":3832:3930  function getBalance() public view returns(uint256) {\r... */\n    tag_29:\n        /* \"contracts/AccessControl.sol\":3874:3881  uint256 */\n      0x00\n        /* \"contracts/AccessControl.sol\":3901:3922  address(this).balance */\n      selfbalance\n        /* \"contracts/AccessControl.sol\":3894:3922  return address(this).balance */\n      swap1\n      pop\n        /* \"contracts/AccessControl.sol\":3832:3930  function getBalance() public view returns(uint256) {\r... */\n      swap1\n      jump\t// out\n        /* \"contracts/AccessControl.sol\":350:394  mapping(address => uint256) public customers */\n    tag_35:\n      mstore(0x20, 0x05)\n      dup1\n      0x00\n      mstore\n      keccak256(0x00, 0x40)\n      0x00\n      swap2\n      pop\n      swap1\n      pop\n      sload\n      dup2\n      jump\t// out\n        /* \"contracts/AccessControl.sol\":814:866  Stages public burgerShopStatge = Stages.readyToOrder */\n    tag_39:\n      0x07\n      0x00\n      swap1\n      sload\n      swap1\n      0x0100\n      exp\n      swap1\n      div\n      0xff\n      and\n      dup2\n      jump\t// out\n        /* \"contracts/AccessControl.sol\":2840:3548  function refund(address _to, uint256 _cost) payable public refundAmount(_to, _cost) onlyOwner{\r... */\n    tag_45:\n        /* \"contracts/AccessControl.sol\":2912:2915  _to */\n      dup2\n        /* \"contracts/AccessControl.sol\":2917:2922  _cost */\n      dup2\n        /* \"contracts/AccessControl.sol\":1504:1511  manager */\n      0x02\n      0x00\n      swap1\n      sload\n      swap1\n      0x0100\n      exp\n      swap1\n      div\n      0xffffffffffffffffffffffffffffffffffffffff\n      and\n        /* \"contracts/AccessControl.sol\":1490:1511  msg.sender == manager */\n      0xffffffffffffffffffffffffffffffffffffffff\n      and\n        /* \"contracts/AccessControl.sol\":1490:1500  msg.sender */\n      caller\n        /* \"contracts/AccessControl.sol\":1490:1511  msg.sender == manager */\n      0xffffffffffffffffffffffffffffffffffffffff\n      and\n      eq\n        /* \"contracts/AccessControl.sol\":1482:1560  require(msg.sender == manager, \"The rquest must be initiated by manager only\") */\n      tag_93\n      jumpi\n      mload(0x40)\n      0x08c379a000000000000000000000000000000000000000000000000000000000\n      dup2\n      mstore\n      0x04\n      add\n      tag_94\n      swap1\n      tag_95\n      jump\t// in\n    tag_94:\n      mload(0x40)\n      dup1\n      swap2\n      sub\n      swap1\n      revert\n    tag_93:\n        /* \"contracts/AccessControl.sol\":1628:1638  normalCost */\n      sload(0x00)\n        /* \"contracts/AccessControl.sol\":1619:1624  _cost */\n      dup2\n        /* \"contracts/AccessControl.sol\":1619:1638  _cost == normalCost */\n      eq\n        /* \"contracts/AccessControl.sol\":1619:1660  _cost == normalCost || _cost == deluxCost */\n      dup1\n      tag_96\n      jumpi\n      pop\n        /* \"contracts/AccessControl.sol\":1651:1660  deluxCost */\n      sload(0x01)\n        /* \"contracts/AccessControl.sol\":1642:1647  _cost */\n      dup2\n        /* \"contracts/AccessControl.sol\":1642:1660  _cost == deluxCost */\n      eq\n        /* \"contracts/AccessControl.sol\":1619:1660  _cost == normalCost || _cost == deluxCost */\n    tag_96:\n        /* \"contracts/AccessControl.sol\":1611:1703  require(_cost == normalCost || _cost == deluxCost, \"You are trying to refund werong amount\") */\n      tag_97\n      jumpi\n      mload(0x40)\n      0x08c379a000000000000000000000000000000000000000000000000000000000\n      dup2\n      mstore\n      0x04\n      add\n      tag_98\n      swap1\n      tag_99\n      jump\t// in\n    tag_98:\n      mload(0x40)\n      dup1\n      swap2\n      sub\n      swap1\n      revert\n    tag_97:\n        /* \"contracts/AccessControl.sol\":1811:1816  _cost */\n      dup1\n        /* \"contracts/AccessControl.sol\":1793:1802  customers */\n      0x05\n        /* \"contracts/AccessControl.sol\":1793:1807  customers[_to] */\n      0x00\n        /* \"contracts/AccessControl.sol\":1803:1806  _to */\n      dup5\n        /* \"contracts/AccessControl.sol\":1793:1807  customers[_to] */\n      0xffffffffffffffffffffffffffffffffffffffff\n      and\n      0xffffffffffffffffffffffffffffffffffffffff\n      and\n      dup2\n      mstore\n      0x20\n      add\n      swap1\n      dup2\n      mstore\n      0x20\n      add\n      0x00\n      keccak256\n      sload\n        /* \"contracts/AccessControl.sol\":1793:1816  customers[_to] >= _cost */\n      lt\n      iszero\n        /* \"contracts/AccessControl.sol\":1785:1856  require(customers[_to] >= _cost, \"The receiver dont have enough funds\") */\n      tag_100\n      jumpi\n      mload(0x40)\n      0x08c379a000000000000000000000000000000000000000000000000000000000\n      dup2\n      mstore\n      0x04\n      add\n      tag_101\n      swap1\n      tag_102\n      jump\t// in\n    tag_101:\n      mload(0x40)\n      dup1\n      swap2\n      sub\n      swap1\n      revert\n    tag_100:\n        /* \"contracts/AccessControl.sol\":930:935  owner */\n      0x03\n      0x00\n      swap1\n      sload\n      swap1\n      0x0100\n      exp\n      swap1\n      div\n      0xffffffffffffffffffffffffffffffffffffffff\n      and\n        /* \"contracts/AccessControl.sol\":916:935  msg.sender == owner */\n      0xffffffffffffffffffffffffffffffffffffffff\n      and\n        /* \"contracts/AccessControl.sol\":916:926  msg.sender */\n      caller\n        /* \"contracts/AccessControl.sol\":916:935  msg.sender == owner */\n      0xffffffffffffffffffffffffffffffffffffffff\n      and\n      eq\n        /* \"contracts/AccessControl.sol\":907:953  require( msg.sender == owner, \"Not the owner\") */\n      tag_104\n      jumpi\n      mload(0x40)\n      0x08c379a000000000000000000000000000000000000000000000000000000000\n      dup2\n      mstore\n      0x04\n      add\n      tag_105\n      swap1\n      tag_106\n      jump\t// in\n    tag_105:\n      mload(0x40)\n      dup1\n      swap2\n      sub\n      swap1\n      revert\n    tag_104:\n        /* \"contracts/AccessControl.sol\":2977:2982  _cost */\n      dup3\n        /* \"contracts/AccessControl.sol\":2952:2973  address(this).balance */\n      selfbalance\n        /* \"contracts/AccessControl.sol\":2952:2982  address(this).balance >= _cost */\n      lt\n      iszero\n        /* \"contracts/AccessControl.sol\":2944:3003  require(address(this).balance >= _cost, \"Not Enough Funds\") */\n      tag_108\n      jumpi\n      mload(0x40)\n      0x08c379a000000000000000000000000000000000000000000000000000000000\n      dup2\n      mstore\n      0x04\n      add\n      tag_109\n      swap1\n      tag_110\n      jump\t// in\n    tag_109:\n      mload(0x40)\n      dup1\n      swap2\n      sub\n      swap1\n      revert\n    tag_108:\n        /* \"contracts/AccessControl.sol\":3032:3037  _cost */\n      dup3\n        /* \"contracts/AccessControl.sol\":3014:3024  userRefund */\n      0x06\n        /* \"contracts/AccessControl.sol\":3014:3029  userRefund[_to] */\n      0x00\n        /* \"contracts/AccessControl.sol\":3025:3028  _to */\n      dup7\n        /* \"contracts/AccessControl.sol\":3014:3029  userRefund[_to] */\n      0xffffffffffffffffffffffffffffffffffffffff\n      and\n      0xffffffffffffffffffffffffffffffffffffffff\n      and\n      dup2\n      mstore\n      0x20\n      add\n      swap1\n      dup2\n      mstore\n      0x20\n      add\n      0x00\n      keccak256\n        /* \"contracts/AccessControl.sol\":3014:3037  userRefund[_to] = _cost */\n      dup2\n      swap1\n      sstore\n      pop\n        /* \"contracts/AccessControl.sol\":2840:3548  function refund(address _to, uint256 _cost) payable public refundAmount(_to, _cost) onlyOwner{\r... */\n      pop\n      pop\n      pop\n      pop\n      jump\t// out\n        /* \"contracts/AccessControl.sol\":232:254  address public manager */\n    tag_48:\n      0x02\n      0x00\n      swap1\n      sload\n      swap1\n      0x0100\n      exp\n      swap1\n      div\n      0xffffffffffffffffffffffffffffffffffffffff\n      and\n      dup2\n      jump\t// out\n        /* \"contracts/AccessControl.sol\":261:281  address public owner */\n    tag_53:\n      0x03\n      0x00\n      swap1\n      sload\n      swap1\n      0x0100\n      exp\n      swap1\n      div\n      0xffffffffffffffffffffffffffffffffffffffff\n      and\n      dup2\n      jump\t// out\n        /* \"contracts/AccessControl.sol\":189:225  uint256 public deluxCost = 0.4 ether */\n    tag_57:\n      sload(0x01)\n      dup2\n      jump\t// out\n        /* \"contracts/AccessControl.sol\":3556:3824  function claimRefund() payable public {\r... */\n    tag_60:\n        /* \"contracts/AccessControl.sol\":3605:3618  uint256 value */\n      0x00\n        /* \"contracts/AccessControl.sol\":3621:3630  customers */\n      0x05\n        /* \"contracts/AccessControl.sol\":3621:3642  customers[msg.sender] */\n      0x00\n        /* \"contracts/AccessControl.sol\":3631:3641  msg.sender */\n      caller\n        /* \"contracts/AccessControl.sol\":3621:3642  customers[msg.sender] */\n      0xffffffffffffffffffffffffffffffffffffffff\n      and\n      0xffffffffffffffffffffffffffffffffffffffff\n      and\n      dup2\n      mstore\n      0x20\n      add\n      swap1\n      dup2\n      mstore\n      0x20\n      add\n      0x00\n      keccak256\n      sload\n        /* \"contracts/AccessControl.sol\":3605:3642  uint256 value = customers[msg.sender] */\n      swap1\n      pop\n        /* \"contracts/AccessControl.sol\":3678:3679  0 */\n      0x00\n        /* \"contracts/AccessControl.sol\":3653:3663  userRefund */\n      0x06\n        /* \"contracts/AccessControl.sol\":3653:3675  userRefund[msg.sender] */\n      0x00\n        /* \"contracts/AccessControl.sol\":3664:3674  msg.sender */\n      caller\n        /* \"contracts/AccessControl.sol\":3653:3675  userRefund[msg.sender] */\n      0xffffffffffffffffffffffffffffffffffffffff\n      and\n      0xffffffffffffffffffffffffffffffffffffffff\n      and\n      dup2\n      mstore\n      0x20\n      add\n      swap1\n      dup2\n      mstore\n      0x20\n      add\n      0x00\n      keccak256\n        /* \"contracts/AccessControl.sol\":3653:3679  userRefund[msg.sender] = 0 */\n      dup2\n      swap1\n      sstore\n      pop\n        /* \"contracts/AccessControl.sol\":3714:3715  0 */\n      0x00\n        /* \"contracts/AccessControl.sol\":3690:3699  customers */\n      0x05\n        /* \"contracts/AccessControl.sol\":3690:3711  customers[msg.sender] */\n      0x00\n        /* \"contracts/AccessControl.sol\":3700:3710  msg.sender */\n      caller\n        /* \"contracts/AccessControl.sol\":3690:3711  customers[msg.sender] */\n      0xffffffffffffffffffffffffffffffffffffffff\n      and\n      0xffffffffffffffffffffffffffffffffffffffff\n      and\n      dup2\n      mstore\n      0x20\n      add\n      swap1\n      dup2\n      mstore\n      0x20\n      add\n      0x00\n      keccak256\n        /* \"contracts/AccessControl.sol\":3690:3715  customers[msg.sender] = 0 */\n      dup2\n      swap1\n      sstore\n      pop\n        /* \"contracts/AccessControl.sol\":3727:3739  bool success */\n      0x00\n        /* \"contracts/AccessControl.sol\":3753:3763  msg.sender */\n      caller\n        /* \"contracts/AccessControl.sol\":3745:3769  payable(msg.sender).call */\n      0xffffffffffffffffffffffffffffffffffffffff\n      and\n        /* \"contracts/AccessControl.sol\":3777:3782  value */\n      dup3\n        /* \"contracts/AccessControl.sol\":3745:3787  payable(msg.sender).call{value: value}(\"\") */\n      mload(0x40)\n      tag_112\n      swap1\n      tag_113\n      jump\t// in\n    tag_112:\n      0x00\n      mload(0x40)\n      dup1\n      dup4\n      sub\n      dup2\n      dup6\n      dup8\n      gas\n      call\n      swap3\n      pop\n      pop\n      pop\n      returndatasize\n      dup1\n      0x00\n      dup2\n      eq\n      tag_116\n      jumpi\n      mload(0x40)\n      swap2\n      pop\n      and(add(returndatasize, 0x3f), not(0x1f))\n      dup3\n      add\n      0x40\n      mstore\n      returndatasize\n      dup3\n      mstore\n      returndatasize\n      0x00\n      0x20\n      dup5\n      add\n      returndatacopy\n      jump(tag_115)\n    tag_116:\n      0x60\n      swap2\n      pop\n    tag_115:\n      pop\n        /* \"contracts/AccessControl.sol\":3726:3787  (bool success, ) = payable(msg.sender).call{value: value}(\"\") */\n      pop\n      swap1\n      pop\n        /* \"contracts/AccessControl.sol\":3806:3813  success */\n      dup1\n        /* \"contracts/AccessControl.sol\":3798:3814  require(success) */\n      tag_117\n      jumpi\n      0x00\n      dup1\n      revert\n    tag_117:\n        /* \"contracts/AccessControl.sol\":3594:3824  {\r... */\n      pop\n      pop\n        /* \"contracts/AccessControl.sol\":3556:3824  function claimRefund() payable public {\r... */\n      jump\t// out\n        /* \"contracts/AccessControl.sol\":4202:4289  function updateStage(Stages _stage) public {\r... */\n    tag_65:\n        /* \"contracts/AccessControl.sol\":4275:4281  _stage */\n      dup1\n        /* \"contracts/AccessControl.sol\":4256:4272  burgerShopStatge */\n      0x07\n      0x00\n        /* \"contracts/AccessControl.sol\":4256:4281  burgerShopStatge = _stage */\n      0x0100\n      exp\n      dup2\n      sload\n      dup2\n      0xff\n      mul\n      not\n      and\n      swap1\n      dup4\n      0x02\n      dup2\n      gt\n      iszero\n      tag_119\n      jumpi\n      tag_120\n      tag_121\n      jump\t// in\n    tag_120:\n    tag_119:\n      mul\n      or\n      swap1\n      sstore\n      pop\n        /* \"contracts/AccessControl.sol\":4202:4289  function updateStage(Stages _stage) public {\r... */\n      pop\n      jump\t// out\n        /* \"contracts/AccessControl.sol\":401:446  mapping(address => uint256) public userRefund */\n    tag_69:\n      mstore(0x20, 0x06)\n      dup1\n      0x00\n      mstore\n      keccak256(0x00, 0x40)\n      0x00\n      swap2\n      pop\n      swap1\n      pop\n      sload\n      dup2\n      jump\t// out\n        /* \"contracts/AccessControl.sol\":3938:4058  function madeBurger() public isAtStage(Stages.makeBurger) shopOpened{\r... */\n    tag_73:\n        /* \"contracts/AccessControl.sol\":3977:3994  Stages.makeBurger */\n      0x01\n        /* \"contracts/AccessControl.sol\":1305:1311  _stage */\n      dup1\n        /* \"contracts/AccessControl.sol\":1285:1311  burgerShopStatge == _stage */\n      0x02\n      dup2\n      gt\n      iszero\n      tag_123\n      jumpi\n      tag_124\n      tag_121\n      jump\t// in\n    tag_124:\n    tag_123:\n        /* \"contracts/AccessControl.sol\":1285:1301  burgerShopStatge */\n      0x07\n      0x00\n      swap1\n      sload\n      swap1\n      0x0100\n      exp\n      swap1\n      div\n      0xff\n      and\n        /* \"contracts/AccessControl.sol\":1285:1311  burgerShopStatge == _stage */\n      0x02\n      dup2\n      gt\n      iszero\n      tag_125\n      jumpi\n      tag_126\n      tag_121\n      jump\t// in\n    tag_126:\n    tag_125:\n      eq\n        /* \"contracts/AccessControl.sol\":1276:1336  require( burgerShopStatge == _stage, \"Not At Correct Stage\") */\n      tag_127\n      jumpi\n      mload(0x40)\n      0x08c379a000000000000000000000000000000000000000000000000000000000\n      dup2\n      mstore\n      0x04\n      add\n      tag_128\n      swap1\n      tag_129\n      jump\t// in\n    tag_128:\n      mload(0x40)\n      dup1\n      swap2\n      sub\n      swap1\n      revert\n    tag_127:\n        /* \"contracts/AccessControl.sol\":1041:1050  startDate */\n      sload(0x04)\n        /* \"contracts/AccessControl.sol\":1023:1038  block.timestamp */\n      timestamp\n        /* \"contracts/AccessControl.sol\":1023:1050  block.timestamp > startDate */\n      gt\n        /* \"contracts/AccessControl.sol\":1014:1078  require( block.timestamp > startDate, \"This is not opened yet!\") */\n      tag_131\n      jumpi\n      mload(0x40)\n      0x08c379a000000000000000000000000000000000000000000000000000000000\n      dup2\n      mstore\n      0x04\n      add\n      tag_132\n      swap1\n      tag_133\n      jump\t// in\n    tag_132:\n      mload(0x40)\n      dup1\n      swap2\n      sub\n      swap1\n      revert\n    tag_131:\n        /* \"contracts/AccessControl.sol\":4017:4050  updateStage(Stages.deliverBurger) */\n      tag_135\n        /* \"contracts/AccessControl.sol\":4029:4049  Stages.deliverBurger */\n      0x02\n        /* \"contracts/AccessControl.sol\":4017:4028  updateStage */\n      tag_65\n        /* \"contracts/AccessControl.sol\":4017:4050  updateStage(Stages.deliverBurger) */\n      jump\t// in\n    tag_135:\n        /* \"contracts/AccessControl.sol\":3938:4058  function madeBurger() public isAtStage(Stages.makeBurger) shopOpened{\r... */\n      pop\n      jump\t// out\n        /* \"contracts/AccessControl.sol\":4066:4194  function pickupBurger() public isAtStage(Stages.deliverBurger) shopOpened{\r... */\n    tag_76:\n        /* \"contracts/AccessControl.sol\":4107:4127  Stages.deliverBurger */\n      0x02\n        /* \"contracts/AccessControl.sol\":1305:1311  _stage */\n      dup1\n        /* \"contracts/AccessControl.sol\":1285:1311  burgerShopStatge == _stage */\n      0x02\n      dup2\n      gt\n      iszero\n      tag_137\n      jumpi\n      tag_138\n      tag_121\n      jump\t// in\n    tag_138:\n    tag_137:\n        /* \"contracts/AccessControl.sol\":1285:1301  burgerShopStatge */\n      0x07\n      0x00\n      swap1\n      sload\n      swap1\n      0x0100\n      exp\n      swap1\n      div\n      0xff\n      and\n        /* \"contracts/AccessControl.sol\":1285:1311  burgerShopStatge == _stage */\n      0x02\n      dup2\n      gt\n      iszero\n      tag_139\n      jumpi\n      tag_140\n      tag_121\n      jump\t// in\n    tag_140:\n    tag_139:\n      eq\n        /* \"contracts/AccessControl.sol\":1276:1336  require( burgerShopStatge == _stage, \"Not At Correct Stage\") */\n      tag_141\n      jumpi\n      mload(0x40)\n      0x08c379a000000000000000000000000000000000000000000000000000000000\n      dup2\n      mstore\n      0x04\n      add\n      tag_142\n      swap1\n      tag_129\n      jump\t// in\n    tag_142:\n      mload(0x40)\n      dup1\n      swap2\n      sub\n      swap1\n      revert\n    tag_141:\n        /* \"contracts/AccessControl.sol\":1041:1050  startDate */\n      sload(0x04)\n        /* \"contracts/AccessControl.sol\":1023:1038  block.timestamp */\n      timestamp\n        /* \"contracts/AccessControl.sol\":1023:1050  block.timestamp > startDate */\n      gt\n        /* \"contracts/AccessControl.sol\":1014:1078  require( block.timestamp > startDate, \"This is not opened yet!\") */\n      tag_144\n      jumpi\n      mload(0x40)\n      0x08c379a000000000000000000000000000000000000000000000000000000000\n      dup2\n      mstore\n      0x04\n      add\n      tag_145\n      swap1\n      tag_133\n      jump\t// in\n    tag_145:\n      mload(0x40)\n      dup1\n      swap2\n      sub\n      swap1\n      revert\n    tag_144:\n        /* \"contracts/AccessControl.sol\":4154:4186  updateStage(Stages.readyToOrder) */\n      tag_147\n        /* \"contracts/AccessControl.sol\":4166:4185  Stages.readyToOrder */\n      0x00\n        /* \"contracts/AccessControl.sol\":4154:4165  updateStage */\n      tag_65\n        /* \"contracts/AccessControl.sol\":4154:4186  updateStage(Stages.readyToOrder) */\n      jump\t// in\n    tag_147:\n        /* \"contracts/AccessControl.sol\":4066:4194  function pickupBurger() public isAtStage(Stages.deliverBurger) shopOpened{\r... */\n      pop\n      jump\t// out\n        /* \"contracts/AccessControl.sol\":4297:4493  function getRandomNum(uint256 _seed) public view returns(uint256) {\r... */\n    tag_81:\n        /* \"contracts/AccessControl.sol\":4354:4361  uint256 */\n      0x00\n        /* \"contracts/AccessControl.sol\":4374:4389  uint256 randNum */\n      dup1\n        /* \"contracts/AccessControl.sol\":4459:4460  1 */\n      0x01\n        /* \"contracts/AccessControl.sol\":4455:4457  10 */\n      0x0a\n        /* \"contracts/AccessControl.sol\":4427:4442  block.timestamp */\n      timestamp\n        /* \"contracts/AccessControl.sol\":4444:4449  _seed */\n      dup6\n        /* \"contracts/AccessControl.sol\":4410:4450  abi.encodePacked(block.timestamp, _seed) */\n      add(0x20, mload(0x40))\n      tag_149\n      swap3\n      swap2\n      swap1\n      tag_150\n      jump\t// in\n    tag_149:\n      mload(0x40)\n      0x20\n      dup2\n      dup4\n      sub\n      sub\n      dup2\n      mstore\n      swap1\n      0x40\n      mstore\n        /* \"contracts/AccessControl.sol\":4400:4451  keccak256(abi.encodePacked(block.timestamp, _seed)) */\n      dup1\n      mload\n      swap1\n      0x20\n      add\n      keccak256\n        /* \"contracts/AccessControl.sol\":4392:4452  uint256(keccak256(abi.encodePacked(block.timestamp, _seed))) */\n      0x00\n      shr\n        /* \"contracts/AccessControl.sol\":4392:4457  uint256(keccak256(abi.encodePacked(block.timestamp, _seed))) % 10 */\n      tag_151\n      swap2\n      swap1\n      tag_152\n      jump\t// in\n    tag_151:\n        /* \"contracts/AccessControl.sol\":4392:4460  uint256(keccak256(abi.encodePacked(block.timestamp, _seed))) % 10 +1 */\n      tag_153\n      swap2\n      swap1\n      tag_154\n      jump\t// in\n    tag_153:\n        /* \"contracts/AccessControl.sol\":4374:4460  uint256 randNum = uint256(keccak256(abi.encodePacked(block.timestamp, _seed))) % 10 +1 */\n      swap1\n      pop\n        /* \"contracts/AccessControl.sol\":4478:4485  randNum */\n      dup1\n        /* \"contracts/AccessControl.sol\":4471:4485  return randNum */\n      swap2\n      pop\n      pop\n        /* \"contracts/AccessControl.sol\":4297:4493  function getRandomNum(uint256 _seed) public view returns(uint256) {\r... */\n      swap2\n      swap1\n      pop\n      jump\t// out\n        /* \"contracts/AccessControl.sol\":2361:2832  function buyDeluxBurger() payable public shouldPay(deluxCost) isAtStage(Stages.readyToOrder) shopOpened {\r... */\n    tag_84:\n        /* \"contracts/AccessControl.sol\":2412:2421  deluxCost */\n      sload(0x01)\n        /* \"contracts/AccessControl.sol\":1172:1177  _cost */\n      dup1\n        /* \"contracts/AccessControl.sol\":1159:1168  msg.value */\n      callvalue\n        /* \"contracts/AccessControl.sol\":1159:1177  msg.value >= _cost */\n      lt\n      iszero\n        /* \"contracts/AccessControl.sol\":1151:1203  require(msg.value >= _cost, \"The burger cost more\" ) */\n      tag_156\n      jumpi\n      mload(0x40)\n      0x08c379a000000000000000000000000000000000000000000000000000000000\n      dup2\n      mstore\n      0x04\n      add\n      tag_157\n      swap1\n      tag_158\n      jump\t// in\n    tag_157:\n      mload(0x40)\n      dup1\n      swap2\n      sub\n      swap1\n      revert\n    tag_156:\n        /* \"contracts/AccessControl.sol\":2433:2452  Stages.readyToOrder */\n      0x00\n        /* \"contracts/AccessControl.sol\":1305:1311  _stage */\n      dup1\n        /* \"contracts/AccessControl.sol\":1285:1311  burgerShopStatge == _stage */\n      0x02\n      dup2\n      gt\n      iszero\n      tag_160\n      jumpi\n      tag_161\n      tag_121\n      jump\t// in\n    tag_161:\n    tag_160:\n        /* \"contracts/AccessControl.sol\":1285:1301  burgerShopStatge */\n      0x07\n      0x00\n      swap1\n      sload\n      swap1\n      0x0100\n      exp\n      swap1\n      div\n      0xff\n      and\n        /* \"contracts/AccessControl.sol\":1285:1311  burgerShopStatge == _stage */\n      0x02\n      dup2\n      gt\n      iszero\n      tag_162\n      jumpi\n      tag_163\n      tag_121\n      jump\t// in\n    tag_163:\n    tag_162:\n      eq\n        /* \"contracts/AccessControl.sol\":1276:1336  require( burgerShopStatge == _stage, \"Not At Correct Stage\") */\n      tag_164\n      jumpi\n      mload(0x40)\n      0x08c379a000000000000000000000000000000000000000000000000000000000\n      dup2\n      mstore\n      0x04\n      add\n      tag_165\n      swap1\n      tag_129\n      jump\t// in\n    tag_165:\n      mload(0x40)\n      dup1\n      swap2\n      sub\n      swap1\n      revert\n    tag_164:\n        /* \"contracts/AccessControl.sol\":1041:1050  startDate */\n      sload(0x04)\n        /* \"contracts/AccessControl.sol\":1023:1038  block.timestamp */\n      timestamp\n        /* \"contracts/AccessControl.sol\":1023:1050  block.timestamp > startDate */\n      gt\n        /* \"contracts/AccessControl.sol\":1014:1078  require( block.timestamp > startDate, \"This is not opened yet!\") */\n      tag_167\n      jumpi\n      mload(0x40)\n      0x08c379a000000000000000000000000000000000000000000000000000000000\n      dup2\n      mstore\n      0x04\n      add\n      tag_168\n      swap1\n      tag_133\n      jump\t// in\n    tag_168:\n      mload(0x40)\n      dup1\n      swap2\n      sub\n      swap1\n      revert\n    tag_167:\n        /* \"contracts/AccessControl.sol\":2569:2570  0 */\n      0x00\n        /* \"contracts/AccessControl.sol\":2544:2553  customers */\n      0x05\n        /* \"contracts/AccessControl.sol\":2544:2565  customers[msg.sender] */\n      0x00\n        /* \"contracts/AccessControl.sol\":2554:2564  msg.sender */\n      caller\n        /* \"contracts/AccessControl.sol\":2544:2565  customers[msg.sender] */\n      0xffffffffffffffffffffffffffffffffffffffff\n      and\n      0xffffffffffffffffffffffffffffffffffffffff\n      and\n      dup2\n      mstore\n      0x20\n      add\n      swap1\n      dup2\n      mstore\n      0x20\n      add\n      0x00\n      keccak256\n      sload\n        /* \"contracts/AccessControl.sol\":2544:2570  customers[msg.sender] != 0 */\n      eq\n        /* \"contracts/AccessControl.sol\":2541:2732  if(customers[msg.sender] != 0){\r... */\n      tag_170\n      jumpi\n        /* \"contracts/AccessControl.sol\":2634:2643  msg.value */\n      callvalue\n        /* \"contracts/AccessControl.sol\":2610:2619  customers */\n      0x05\n        /* \"contracts/AccessControl.sol\":2610:2631  customers[msg.sender] */\n      0x00\n        /* \"contracts/AccessControl.sol\":2620:2630  msg.sender */\n      caller\n        /* \"contracts/AccessControl.sol\":2610:2631  customers[msg.sender] */\n      0xffffffffffffffffffffffffffffffffffffffff\n      and\n      0xffffffffffffffffffffffffffffffffffffffff\n      and\n      dup2\n      mstore\n      0x20\n      add\n      swap1\n      dup2\n      mstore\n      0x20\n      add\n      0x00\n      keccak256\n      sload\n        /* \"contracts/AccessControl.sol\":2610:2643  customers[msg.sender] + msg.value */\n      tag_171\n      swap2\n      swap1\n      tag_154\n      jump\t// in\n    tag_171:\n        /* \"contracts/AccessControl.sol\":2586:2595  customers */\n      0x05\n        /* \"contracts/AccessControl.sol\":2586:2607  customers[msg.sender] */\n      0x00\n        /* \"contracts/AccessControl.sol\":2596:2606  msg.sender */\n      caller\n        /* \"contracts/AccessControl.sol\":2586:2607  customers[msg.sender] */\n      0xffffffffffffffffffffffffffffffffffffffff\n      and\n      0xffffffffffffffffffffffffffffffffffffffff\n      and\n      dup2\n      mstore\n      0x20\n      add\n      swap1\n      dup2\n      mstore\n      0x20\n      add\n      0x00\n      keccak256\n        /* \"contracts/AccessControl.sol\":2586:2643  customers[msg.sender] = customers[msg.sender] + msg.value */\n      dup2\n      swap1\n      sstore\n      pop\n        /* \"contracts/AccessControl.sol\":2541:2732  if(customers[msg.sender] != 0){\r... */\n      jump(tag_172)\n    tag_170:\n        /* \"contracts/AccessControl.sol\":2710:2719  msg.value */\n      callvalue\n        /* \"contracts/AccessControl.sol\":2686:2695  customers */\n      0x05\n        /* \"contracts/AccessControl.sol\":2686:2707  customers[msg.sender] */\n      0x00\n        /* \"contracts/AccessControl.sol\":2696:2706  msg.sender */\n      caller\n        /* \"contracts/AccessControl.sol\":2686:2707  customers[msg.sender] */\n      0xffffffffffffffffffffffffffffffffffffffff\n      and\n      0xffffffffffffffffffffffffffffffffffffffff\n      and\n      dup2\n      mstore\n      0x20\n      add\n      swap1\n      dup2\n      mstore\n      0x20\n      add\n      0x00\n      keccak256\n        /* \"contracts/AccessControl.sol\":2686:2719  customers[msg.sender] = msg.value */\n      dup2\n      swap1\n      sstore\n      pop\n        /* \"contracts/AccessControl.sol\":2541:2732  if(customers[msg.sender] != 0){\r... */\n    tag_172:\n        /* \"contracts/AccessControl.sol\":2742:2772  updateStage(Stages.makeBurger) */\n      tag_173\n        /* \"contracts/AccessControl.sol\":2754:2771  Stages.makeBurger */\n      0x01\n        /* \"contracts/AccessControl.sol\":2742:2753  updateStage */\n      tag_65\n        /* \"contracts/AccessControl.sol\":2742:2772  updateStage(Stages.makeBurger) */\n      jump\t// in\n    tag_173:\n        /* \"contracts/AccessControl.sol\":2801:2811  msg.sender */\n      caller\n        /* \"contracts/AccessControl.sol\":2788:2824  BoughtBurger(msg.sender, normalCost) */\n      0xffffffffffffffffffffffffffffffffffffffff\n      and\n      0xc63d5e450f470dcc6536476b6fd78a0f261765ef92b25631875b0a35eaa095bf\n        /* \"contracts/AccessControl.sol\":2813:2823  normalCost */\n      sload(0x00)\n        /* \"contracts/AccessControl.sol\":2788:2824  BoughtBurger(msg.sender, normalCost) */\n      mload(0x40)\n      tag_174\n      swap2\n      swap1\n      tag_26\n      jump\t// in\n    tag_174:\n      mload(0x40)\n      dup1\n      swap2\n      sub\n      swap1\n      log2\n        /* \"contracts/AccessControl.sol\":1214:1215  _ */\n      pop\n        /* \"contracts/AccessControl.sol\":2361:2832  function buyDeluxBurger() payable public shouldPay(deluxCost) isAtStage(Stages.readyToOrder) shopOpened {\r... */\n      pop\n      jump\t// out\n        /* \"contracts/AccessControl.sol\":145:182  uint256 public normalCost = 0.2 ether */\n    tag_87:\n      sload(0x00)\n      dup2\n      jump\t// out\n        /* \"contracts/AccessControl.sol\":1886:2353  function buyBurger() payable public shouldPay(normalCost) isAtStage(Stages.readyToOrder) shopOpened {\r... */\n    tag_90:\n        /* \"contracts/AccessControl.sol\":1932:1942  normalCost */\n      sload(0x00)\n        /* \"contracts/AccessControl.sol\":1172:1177  _cost */\n      dup1\n        /* \"contracts/AccessControl.sol\":1159:1168  msg.value */\n      callvalue\n        /* \"contracts/AccessControl.sol\":1159:1177  msg.value >= _cost */\n      lt\n      iszero\n        /* \"contracts/AccessControl.sol\":1151:1203  require(msg.value >= _cost, \"The burger cost more\" ) */\n      tag_176\n      jumpi\n      mload(0x40)\n      0x08c379a000000000000000000000000000000000000000000000000000000000\n      dup2\n      mstore\n      0x04\n      add\n      tag_177\n      swap1\n      tag_158\n      jump\t// in\n    tag_177:\n      mload(0x40)\n      dup1\n      swap2\n      sub\n      swap1\n      revert\n    tag_176:\n        /* \"contracts/AccessControl.sol\":1954:1973  Stages.readyToOrder */\n      0x00\n        /* \"contracts/AccessControl.sol\":1305:1311  _stage */\n      dup1\n        /* \"contracts/AccessControl.sol\":1285:1311  burgerShopStatge == _stage */\n      0x02\n      dup2\n      gt\n      iszero\n      tag_179\n      jumpi\n      tag_180\n      tag_121\n      jump\t// in\n    tag_180:\n    tag_179:\n        /* \"contracts/AccessControl.sol\":1285:1301  burgerShopStatge */\n      0x07\n      0x00\n      swap1\n      sload\n      swap1\n      0x0100\n      exp\n      swap1\n      div\n      0xff\n      and\n        /* \"contracts/AccessControl.sol\":1285:1311  burgerShopStatge == _stage */\n      0x02\n      dup2\n      gt\n      iszero\n      tag_181\n      jumpi\n      tag_182\n      tag_121\n      jump\t// in\n    tag_182:\n    tag_181:\n      eq\n        /* \"contracts/AccessControl.sol\":1276:1336  require( burgerShopStatge == _stage, \"Not At Correct Stage\") */\n      tag_183\n      jumpi\n      mload(0x40)\n      0x08c379a000000000000000000000000000000000000000000000000000000000\n      dup2\n      mstore\n      0x04\n      add\n      tag_184\n      swap1\n      tag_129\n      jump\t// in\n    tag_184:\n      mload(0x40)\n      dup1\n      swap2\n      sub\n      swap1\n      revert\n    tag_183:\n        /* \"contracts/AccessControl.sol\":1041:1050  startDate */\n      sload(0x04)\n        /* \"contracts/AccessControl.sol\":1023:1038  block.timestamp */\n      timestamp\n        /* \"contracts/AccessControl.sol\":1023:1050  block.timestamp > startDate */\n      gt\n        /* \"contracts/AccessControl.sol\":1014:1078  require( block.timestamp > startDate, \"This is not opened yet!\") */\n      tag_186\n      jumpi\n      mload(0x40)\n      0x08c379a000000000000000000000000000000000000000000000000000000000\n      dup2\n      mstore\n      0x04\n      add\n      tag_187\n      swap1\n      tag_133\n      jump\t// in\n    tag_187:\n      mload(0x40)\n      dup1\n      swap2\n      sub\n      swap1\n      revert\n    tag_186:\n        /* \"contracts/AccessControl.sol\":2090:2091  0 */\n      0x00\n        /* \"contracts/AccessControl.sol\":2065:2074  customers */\n      0x05\n        /* \"contracts/AccessControl.sol\":2065:2086  customers[msg.sender] */\n      0x00\n        /* \"contracts/AccessControl.sol\":2075:2085  msg.sender */\n      caller\n        /* \"contracts/AccessControl.sol\":2065:2086  customers[msg.sender] */\n      0xffffffffffffffffffffffffffffffffffffffff\n      and\n      0xffffffffffffffffffffffffffffffffffffffff\n      and\n      dup2\n      mstore\n      0x20\n      add\n      swap1\n      dup2\n      mstore\n      0x20\n      add\n      0x00\n      keccak256\n      sload\n        /* \"contracts/AccessControl.sol\":2065:2091  customers[msg.sender] != 0 */\n      eq\n        /* \"contracts/AccessControl.sol\":2062:2253  if(customers[msg.sender] != 0){\r... */\n      tag_189\n      jumpi\n        /* \"contracts/AccessControl.sol\":2155:2164  msg.value */\n      callvalue\n        /* \"contracts/AccessControl.sol\":2131:2140  customers */\n      0x05\n        /* \"contracts/AccessControl.sol\":2131:2152  customers[msg.sender] */\n      0x00\n        /* \"contracts/AccessControl.sol\":2141:2151  msg.sender */\n      caller\n        /* \"contracts/AccessControl.sol\":2131:2152  customers[msg.sender] */\n      0xffffffffffffffffffffffffffffffffffffffff\n      and\n      0xffffffffffffffffffffffffffffffffffffffff\n      and\n      dup2\n      mstore\n      0x20\n      add\n      swap1\n      dup2\n      mstore\n      0x20\n      add\n      0x00\n      keccak256\n      sload\n        /* \"contracts/AccessControl.sol\":2131:2164  customers[msg.sender] + msg.value */\n      tag_190\n      swap2\n      swap1\n      tag_154\n      jump\t// in\n    tag_190:\n        /* \"contracts/AccessControl.sol\":2107:2116  customers */\n      0x05\n        /* \"contracts/AccessControl.sol\":2107:2128  customers[msg.sender] */\n      0x00\n        /* \"contracts/AccessControl.sol\":2117:2127  msg.sender */\n      caller\n        /* \"contracts/AccessControl.sol\":2107:2128  customers[msg.sender] */\n      0xffffffffffffffffffffffffffffffffffffffff\n      and\n      0xffffffffffffffffffffffffffffffffffffffff\n      and\n      dup2\n      mstore\n      0x20\n      add\n      swap1\n      dup2\n      mstore\n      0x20\n      add\n      0x00\n      keccak256\n        /* \"contracts/AccessControl.sol\":2107:2164  customers[msg.sender] = customers[msg.sender] + msg.value */\n      dup2\n      swap1\n      sstore\n      pop\n        /* \"contracts/AccessControl.sol\":2062:2253  if(customers[msg.sender] != 0){\r... */\n      jump(tag_191)\n    tag_189:\n        /* \"contracts/AccessControl.sol\":2231:2240  msg.value */\n      callvalue\n        /* \"contracts/AccessControl.sol\":2207:2216  customers */\n      0x05\n        /* \"contracts/AccessControl.sol\":2207:2228  customers[msg.sender] */\n      0x00\n        /* \"contracts/AccessControl.sol\":2217:2227  msg.sender */\n      caller\n        /* \"contracts/AccessControl.sol\":2207:2228  customers[msg.sender] */\n      0xffffffffffffffffffffffffffffffffffffffff\n      and\n      0xffffffffffffffffffffffffffffffffffffffff\n      and\n      dup2\n      mstore\n      0x20\n      add\n      swap1\n      dup2\n      mstore\n      0x20\n      add\n      0x00\n      keccak256\n        /* \"contracts/AccessControl.sol\":2207:2240  customers[msg.sender] = msg.value */\n      dup2\n      swap1\n      sstore\n      pop\n        /* \"contracts/AccessControl.sol\":2062:2253  if(customers[msg.sender] != 0){\r... */\n    tag_191:\n        /* \"contracts/AccessControl.sol\":2263:2293  updateStage(Stages.makeBurger) */\n      tag_192\n        /* \"contracts/AccessControl.sol\":2275:2292  Stages.makeBurger */\n      0x01\n        /* \"contracts/AccessControl.sol\":2263:2274  updateStage */\n      tag_65\n        /* \"contracts/AccessControl.sol\":2263:2293  updateStage(Stages.makeBurger) */\n      jump\t// in\n    tag_192:\n        /* \"contracts/AccessControl.sol\":2322:2332  msg.sender */\n      caller\n        /* \"contracts/AccessControl.sol\":2309:2345  BoughtBurger(msg.sender, normalCost) */\n      0xffffffffffffffffffffffffffffffffffffffff\n      and\n      0xc63d5e450f470dcc6536476b6fd78a0f261765ef92b25631875b0a35eaa095bf\n        /* \"contracts/AccessControl.sol\":2334:2344  normalCost */\n      sload(0x00)\n        /* \"contracts/AccessControl.sol\":2309:2345  BoughtBurger(msg.sender, normalCost) */\n      mload(0x40)\n      tag_193\n      swap2\n      swap1\n      tag_26\n      jump\t// in\n    tag_193:\n      mload(0x40)\n      dup1\n      swap2\n      sub\n      swap1\n      log2\n        /* \"contracts/AccessControl.sol\":1214:1215  _ */\n      pop\n        /* \"contracts/AccessControl.sol\":1886:2353  function buyBurger() payable public shouldPay(normalCost) isAtStage(Stages.readyToOrder) shopOpened {\r... */\n      pop\n      jump\t// out\n        /* \"#utility.yul\":7:146   */\n    tag_195:\n        /* \"#utility.yul\":53:58   */\n      0x00\n        /* \"#utility.yul\":91:97   */\n      dup2\n        /* \"#utility.yul\":78:98   */\n      calldataload\n        /* \"#utility.yul\":69:98   */\n      swap1\n      pop\n        /* \"#utility.yul\":107:140   */\n      tag_197\n        /* \"#utility.yul\":134:139   */\n      dup2\n        /* \"#utility.yul\":107:140   */\n      tag_198\n      jump\t// in\n    tag_197:\n        /* \"#utility.yul\":7:146   */\n      swap3\n      swap2\n      pop\n      pop\n      jump\t// out\n        /* \"#utility.yul\":152:309   */\n    tag_199:\n        /* \"#utility.yul\":207:212   */\n      0x00\n        /* \"#utility.yul\":245:251   */\n      dup2\n        /* \"#utility.yul\":232:252   */\n      calldataload\n        /* \"#utility.yul\":223:252   */\n      swap1\n      pop\n        /* \"#utility.yul\":261:303   */\n      tag_201\n        /* \"#utility.yul\":297:302   */\n      dup2\n        /* \"#utility.yul\":261:303   */\n      tag_202\n      jump\t// in\n    tag_201:\n        /* \"#utility.yul\":152:309   */\n      swap3\n      swap2\n      pop\n      pop\n      jump\t// out\n        /* \"#utility.yul\":315:454   */\n    tag_203:\n        /* \"#utility.yul\":361:366   */\n      0x00\n        /* \"#utility.yul\":399:405   */\n      dup2\n        /* \"#utility.yul\":386:406   */\n      calldataload\n        /* \"#utility.yul\":377:406   */\n      swap1\n      pop\n        /* \"#utility.yul\":415:448   */\n      tag_205\n        /* \"#utility.yul\":442:447   */\n      dup2\n        /* \"#utility.yul\":415:448   */\n      tag_206\n      jump\t// in\n    tag_205:\n        /* \"#utility.yul\":315:454   */\n      swap3\n      swap2\n      pop\n      pop\n      jump\t// out\n        /* \"#utility.yul\":460:789   */\n    tag_34:\n        /* \"#utility.yul\":519:525   */\n      0x00\n        /* \"#utility.yul\":568:570   */\n      0x20\n        /* \"#utility.yul\":556:565   */\n      dup3\n        /* \"#utility.yul\":547:554   */\n      dup5\n        /* \"#utility.yul\":543:566   */\n      sub\n        /* \"#utility.yul\":539:571   */\n      slt\n        /* \"#utility.yul\":536:655   */\n      iszero\n      tag_208\n      jumpi\n        /* \"#utility.yul\":574:653   */\n      tag_209\n      tag_210\n      jump\t// in\n    tag_209:\n        /* \"#utility.yul\":536:655   */\n    tag_208:\n        /* \"#utility.yul\":694:695   */\n      0x00\n        /* \"#utility.yul\":719:772   */\n      tag_211\n        /* \"#utility.yul\":764:771   */\n      dup5\n        /* \"#utility.yul\":755:761   */\n      dup3\n        /* \"#utility.yul\":744:753   */\n      dup6\n        /* \"#utility.yul\":740:762   */\n      add\n        /* \"#utility.yul\":719:772   */\n      tag_195\n      jump\t// in\n    tag_211:\n        /* \"#utility.yul\":709:772   */\n      swap2\n      pop\n        /* \"#utility.yul\":665:782   */\n      pop\n        /* \"#utility.yul\":460:789   */\n      swap3\n      swap2\n      pop\n      pop\n      jump\t// out\n        /* \"#utility.yul\":795:1269   */\n    tag_44:\n        /* \"#utility.yul\":863:869   */\n      0x00\n        /* \"#utility.yul\":871:877   */\n      dup1\n        /* \"#utility.yul\":920:922   */\n      0x40\n        /* \"#utility.yul\":908:917   */\n      dup4\n        /* \"#utility.yul\":899:906   */\n      dup6\n        /* \"#utility.yul\":895:918   */\n      sub\n        /* \"#utility.yul\":891:923   */\n      slt\n        /* \"#utility.yul\":888:1007   */\n      iszero\n      tag_213\n      jumpi\n        /* \"#utility.yul\":926:1005   */\n      tag_214\n      tag_210\n      jump\t// in\n    tag_214:\n        /* \"#utility.yul\":888:1007   */\n    tag_213:\n        /* \"#utility.yul\":1046:1047   */\n      0x00\n        /* \"#utility.yul\":1071:1124   */\n      tag_215\n        /* \"#utility.yul\":1116:1123   */\n      dup6\n        /* \"#utility.yul\":1107:1113   */\n      dup3\n        /* \"#utility.yul\":1096:1105   */\n      dup7\n        /* \"#utility.yul\":1092:1114   */\n      add\n        /* \"#utility.yul\":1071:1124   */\n      tag_195\n      jump\t// in\n    tag_215:\n        /* \"#utility.yul\":1061:1124   */\n      swap3\n      pop\n        /* \"#utility.yul\":1017:1134   */\n      pop\n        /* \"#utility.yul\":1173:1175   */\n      0x20\n        /* \"#utility.yul\":1199:1252   */\n      tag_216\n        /* \"#utility.yul\":1244:1251   */\n      dup6\n        /* \"#utility.yul\":1235:1241   */\n      dup3\n        /* \"#utility.yul\":1224:1233   */\n      dup7\n        /* \"#utility.yul\":1220:1242   */\n      add\n        /* \"#utility.yul\":1199:1252   */\n      tag_203\n      jump\t// in\n    tag_216:\n        /* \"#utility.yul\":1189:1252   */\n      swap2\n      pop\n        /* \"#utility.yul\":1144:1262   */\n      pop\n        /* \"#utility.yul\":795:1269   */\n      swap3\n      pop\n      swap3\n      swap1\n      pop\n      jump\t// out\n        /* \"#utility.yul\":1275:1622   */\n    tag_64:\n        /* \"#utility.yul\":1343:1349   */\n      0x00\n        /* \"#utility.yul\":1392:1394   */\n      0x20\n        /* \"#utility.yul\":1380:1389   */\n      dup3\n        /* \"#utility.yul\":1371:1378   */\n      dup5\n        /* \"#utility.yul\":1367:1390   */\n      sub\n        /* \"#utility.yul\":1363:1395   */\n      slt\n        /* \"#utility.yul\":1360:1479   */\n      iszero\n      tag_218\n      jumpi\n        /* \"#utility.yul\":1398:1477   */\n      tag_219\n      tag_210\n      jump\t// in\n    tag_219:\n        /* \"#utility.yul\":1360:1479   */\n    tag_218:\n        /* \"#utility.yul\":1518:1519   */\n      0x00\n        /* \"#utility.yul\":1543:1605   */\n      tag_220\n        /* \"#utility.yul\":1597:1604   */\n      dup5\n        /* \"#utility.yul\":1588:1594   */\n      dup3\n        /* \"#utility.yul\":1577:1586   */\n      dup6\n        /* \"#utility.yul\":1573:1595   */\n      add\n        /* \"#utility.yul\":1543:1605   */\n      tag_199\n      jump\t// in\n    tag_220:\n        /* \"#utility.yul\":1533:1605   */\n      swap2\n      pop\n        /* \"#utility.yul\":1489:1615   */\n      pop\n        /* \"#utility.yul\":1275:1622   */\n      swap3\n      swap2\n      pop\n      pop\n      jump\t// out\n        /* \"#utility.yul\":1628:1957   */\n    tag_80:\n        /* \"#utility.yul\":1687:1693   */\n      0x00\n        /* \"#utility.yul\":1736:1738   */\n      0x20\n        /* \"#utility.yul\":1724:1733   */\n      dup3\n        /* \"#utility.yul\":1715:1722   */\n      dup5\n        /* \"#utility.yul\":1711:1734   */\n      sub\n        /* \"#utility.yul\":1707:1739   */\n      slt\n        /* \"#utility.yul\":1704:1823   */\n      iszero\n      tag_222\n      jumpi\n        /* \"#utility.yul\":1742:1821   */\n      tag_223\n      tag_210\n      jump\t// in\n    tag_223:\n        /* \"#utility.yul\":1704:1823   */\n    tag_222:\n        /* \"#utility.yul\":1862:1863   */\n      0x00\n        /* \"#utility.yul\":1887:1940   */\n      tag_224\n        /* \"#utility.yul\":1932:1939   */\n      dup5\n        /* \"#utility.yul\":1923:1929   */\n      dup3\n        /* \"#utility.yul\":1912:1921   */\n      dup6\n        /* \"#utility.yul\":1908:1930   */\n      add\n        /* \"#utility.yul\":1887:1940   */\n      tag_203\n      jump\t// in\n    tag_224:\n        /* \"#utility.yul\":1877:1940   */\n      swap2\n      pop\n        /* \"#utility.yul\":1833:1950   */\n      pop\n        /* \"#utility.yul\":1628:1957   */\n      swap3\n      swap2\n      pop\n      pop\n      jump\t// out\n        /* \"#utility.yul\":1963:2081   */\n    tag_225:\n        /* \"#utility.yul\":2050:2074   */\n      tag_227\n        /* \"#utility.yul\":2068:2073   */\n      dup2\n        /* \"#utility.yul\":2050:2074   */\n      tag_228\n      jump\t// in\n    tag_227:\n        /* \"#utility.yul\":2045:2048   */\n      dup3\n        /* \"#utility.yul\":2038:2075   */\n      mstore\n        /* \"#utility.yul\":1963:2081   */\n      pop\n      pop\n      jump\t// out\n        /* \"#utility.yul\":2087:2232   */\n    tag_229:\n        /* \"#utility.yul\":2181:2225   */\n      tag_231\n        /* \"#utility.yul\":2219:2224   */\n      dup2\n        /* \"#utility.yul\":2181:2225   */\n      tag_232\n      jump\t// in\n    tag_231:\n        /* \"#utility.yul\":2176:2179   */\n      dup3\n        /* \"#utility.yul\":2169:2226   */\n      mstore\n        /* \"#utility.yul\":2087:2232   */\n      pop\n      pop\n      jump\t// out\n        /* \"#utility.yul\":2238:2604   */\n    tag_233:\n        /* \"#utility.yul\":2380:2383   */\n      0x00\n        /* \"#utility.yul\":2401:2468   */\n      tag_235\n        /* \"#utility.yul\":2465:2467   */\n      0x14\n        /* \"#utility.yul\":2460:2463   */\n      dup4\n        /* \"#utility.yul\":2401:2468   */\n      tag_236\n      jump\t// in\n    tag_235:\n        /* \"#utility.yul\":2394:2468   */\n      swap2\n      pop\n        /* \"#utility.yul\":2477:2570   */\n      tag_237\n        /* \"#utility.yul\":2566:2569   */\n      dup3\n        /* \"#utility.yul\":2477:2570   */\n      tag_238\n      jump\t// in\n    tag_237:\n        /* \"#utility.yul\":2595:2597   */\n      0x20\n        /* \"#utility.yul\":2590:2593   */\n      dup3\n        /* \"#utility.yul\":2586:2598   */\n      add\n        /* \"#utility.yul\":2579:2598   */\n      swap1\n      pop\n        /* \"#utility.yul\":2238:2604   */\n      swap2\n      swap1\n      pop\n      jump\t// out\n        /* \"#utility.yul\":2610:2976   */\n    tag_239:\n        /* \"#utility.yul\":2752:2755   */\n      0x00\n        /* \"#utility.yul\":2773:2840   */\n      tag_241\n        /* \"#utility.yul\":2837:2839   */\n      0x17\n        /* \"#utility.yul\":2832:2835   */\n      dup4\n        /* \"#utility.yul\":2773:2840   */\n      tag_236\n      jump\t// in\n    tag_241:\n        /* \"#utility.yul\":2766:2840   */\n      swap2\n      pop\n        /* \"#utility.yul\":2849:2942   */\n      tag_242\n        /* \"#utility.yul\":2938:2941   */\n      dup3\n        /* \"#utility.yul\":2849:2942   */\n      tag_243\n      jump\t// in\n    tag_242:\n        /* \"#utility.yul\":2967:2969   */\n      0x20\n        /* \"#utility.yul\":2962:2965   */\n      dup3\n        /* \"#utility.yul\":2958:2970   */\n      add\n        /* \"#utility.yul\":2951:2970   */\n      swap1\n      pop\n        /* \"#utility.yul\":2610:2976   */\n      swap2\n      swap1\n      pop\n      jump\t// out\n        /* \"#utility.yul\":2982:3348   */\n    tag_244:\n        /* \"#utility.yul\":3124:3127   */\n      0x00\n        /* \"#utility.yul\":3145:3212   */\n      tag_246\n        /* \"#utility.yul\":3209:3211   */\n      0x10\n        /* \"#utility.yul\":3204:3207   */\n      dup4\n        /* \"#utility.yul\":3145:3212   */\n      tag_236\n      jump\t// in\n    tag_246:\n        /* \"#utility.yul\":3138:3212   */\n      swap2\n      pop\n        /* \"#utility.yul\":3221:3314   */\n      tag_247\n        /* \"#utility.yul\":3310:3313   */\n      dup3\n        /* \"#utility.yul\":3221:3314   */\n      tag_248\n      jump\t// in\n    tag_247:\n        /* \"#utility.yul\":3339:3341   */\n      0x20\n        /* \"#utility.yul\":3334:3337   */\n      dup3\n        /* \"#utility.yul\":3330:3342   */\n      add\n        /* \"#utility.yul\":3323:3342   */\n      swap1\n      pop\n        /* \"#utility.yul\":2982:3348   */\n      swap2\n      swap1\n      pop\n      jump\t// out\n        /* \"#utility.yul\":3354:3720   */\n    tag_249:\n        /* \"#utility.yul\":3496:3499   */\n      0x00\n        /* \"#utility.yul\":3517:3584   */\n      tag_251\n        /* \"#utility.yul\":3581:3583   */\n      0x0d\n        /* \"#utility.yul\":3576:3579   */\n      dup4\n        /* \"#utility.yul\":3517:3584   */\n      tag_236\n      jump\t// in\n    tag_251:\n        /* \"#utility.yul\":3510:3584   */\n      swap2\n      pop\n        /* \"#utility.yul\":3593:3686   */\n      tag_252\n        /* \"#utility.yul\":3682:3685   */\n      dup3\n        /* \"#utility.yul\":3593:3686   */\n      tag_253\n      jump\t// in\n    tag_252:\n        /* \"#utility.yul\":3711:3713   */\n      0x20\n        /* \"#utility.yul\":3706:3709   */\n      dup3\n        /* \"#utility.yul\":3702:3714   */\n      add\n        /* \"#utility.yul\":3695:3714   */\n      swap1\n      pop\n        /* \"#utility.yul\":3354:3720   */\n      swap2\n      swap1\n      pop\n      jump\t// out\n        /* \"#utility.yul\":3726:4092   */\n    tag_254:\n        /* \"#utility.yul\":3868:3871   */\n      0x00\n        /* \"#utility.yul\":3889:3956   */\n      tag_256\n        /* \"#utility.yul\":3953:3955   */\n      0x23\n        /* \"#utility.yul\":3948:3951   */\n      dup4\n        /* \"#utility.yul\":3889:3956   */\n      tag_236\n      jump\t// in\n    tag_256:\n        /* \"#utility.yul\":3882:3956   */\n      swap2\n      pop\n        /* \"#utility.yul\":3965:4058   */\n      tag_257\n        /* \"#utility.yul\":4054:4057   */\n      dup3\n        /* \"#utility.yul\":3965:4058   */\n      tag_258\n      jump\t// in\n    tag_257:\n        /* \"#utility.yul\":4083:4085   */\n      0x40\n        /* \"#utility.yul\":4078:4081   */\n      dup3\n        /* \"#utility.yul\":4074:4086   */\n      add\n        /* \"#utility.yul\":4067:4086   */\n      swap1\n      pop\n        /* \"#utility.yul\":3726:4092   */\n      swap2\n      swap1\n      pop\n      jump\t// out\n        /* \"#utility.yul\":4098:4464   */\n    tag_259:\n        /* \"#utility.yul\":4240:4243   */\n      0x00\n        /* \"#utility.yul\":4261:4328   */\n      tag_261\n        /* \"#utility.yul\":4325:4327   */\n      0x26\n        /* \"#utility.yul\":4320:4323   */\n      dup4\n        /* \"#utility.yul\":4261:4328   */\n      tag_236\n      jump\t// in\n    tag_261:\n        /* \"#utility.yul\":4254:4328   */\n      swap2\n      pop\n        /* \"#utility.yul\":4337:4430   */\n      tag_262\n        /* \"#utility.yul\":4426:4429   */\n      dup3\n        /* \"#utility.yul\":4337:4430   */\n      tag_263\n      jump\t// in\n    tag_262:\n        /* \"#utility.yul\":4455:4457   */\n      0x40\n        /* \"#utility.yul\":4450:4453   */\n      dup3\n        /* \"#utility.yul\":4446:4458   */\n      add\n        /* \"#utility.yul\":4439:4458   */\n      swap1\n      pop\n        /* \"#utility.yul\":4098:4464   */\n      swap2\n      swap1\n      pop\n      jump\t// out\n        /* \"#utility.yul\":4470:4868   */\n    tag_264:\n        /* \"#utility.yul\":4629:4632   */\n      0x00\n        /* \"#utility.yul\":4650:4733   */\n      tag_266\n        /* \"#utility.yul\":4731:4732   */\n      0x00\n        /* \"#utility.yul\":4726:4729   */\n      dup4\n        /* \"#utility.yul\":4650:4733   */\n      tag_267\n      jump\t// in\n    tag_266:\n        /* \"#utility.yul\":4643:4733   */\n      swap2\n      pop\n        /* \"#utility.yul\":4742:4835   */\n      tag_268\n        /* \"#utility.yul\":4831:4834   */\n      dup3\n        /* \"#utility.yul\":4742:4835   */\n      tag_269\n      jump\t// in\n    tag_268:\n        /* \"#utility.yul\":4860:4861   */\n      0x00\n        /* \"#utility.yul\":4855:4858   */\n      dup3\n        /* \"#utility.yul\":4851:4862   */\n      add\n        /* \"#utility.yul\":4844:4862   */\n      swap1\n      pop\n        /* \"#utility.yul\":4470:4868   */\n      swap2\n      swap1\n      pop\n      jump\t// out\n        /* \"#utility.yul\":4874:5240   */\n    tag_270:\n        /* \"#utility.yul\":5016:5019   */\n      0x00\n        /* \"#utility.yul\":5037:5104   */\n      tag_272\n        /* \"#utility.yul\":5101:5103   */\n      0x14\n        /* \"#utility.yul\":5096:5099   */\n      dup4\n        /* \"#utility.yul\":5037:5104   */\n      tag_236\n      jump\t// in\n    tag_272:\n        /* \"#utility.yul\":5030:5104   */\n      swap2\n      pop\n        /* \"#utility.yul\":5113:5206   */\n      tag_273\n        /* \"#utility.yul\":5202:5205   */\n      dup3\n        /* \"#utility.yul\":5113:5206   */\n      tag_274\n      jump\t// in\n    tag_273:\n        /* \"#utility.yul\":5231:5233   */\n      0x20\n        /* \"#utility.yul\":5226:5229   */\n      dup3\n        /* \"#utility.yul\":5222:5234   */\n      add\n        /* \"#utility.yul\":5215:5234   */\n      swap1\n      pop\n        /* \"#utility.yul\":4874:5240   */\n      swap2\n      swap1\n      pop\n      jump\t// out\n        /* \"#utility.yul\":5246:5612   */\n    tag_275:\n        /* \"#utility.yul\":5388:5391   */\n      0x00\n        /* \"#utility.yul\":5409:5476   */\n      tag_277\n        /* \"#utility.yul\":5473:5475   */\n      0x2c\n        /* \"#utility.yul\":5468:5471   */\n      dup4\n        /* \"#utility.yul\":5409:5476   */\n      tag_236\n      jump\t// in\n    tag_277:\n        /* \"#utility.yul\":5402:5476   */\n      swap2\n      pop\n        /* \"#utility.yul\":5485:5578   */\n      tag_278\n        /* \"#utility.yul\":5574:5577   */\n      dup3\n        /* \"#utility.yul\":5485:5578   */\n      tag_279\n      jump\t// in\n    tag_278:\n        /* \"#utility.yul\":5603:5605   */\n      0x40\n        /* \"#utility.yul\":5598:5601   */\n      dup3\n        /* \"#utility.yul\":5594:5606   */\n      add\n        /* \"#utility.yul\":5587:5606   */\n      swap1\n      pop\n        /* \"#utility.yul\":5246:5612   */\n      swap2\n      swap1\n      pop\n      jump\t// out\n        /* \"#utility.yul\":5618:5736   */\n    tag_280:\n        /* \"#utility.yul\":5705:5729   */\n      tag_282\n        /* \"#utility.yul\":5723:5728   */\n      dup2\n        /* \"#utility.yul\":5705:5729   */\n      tag_283\n      jump\t// in\n    tag_282:\n        /* \"#utility.yul\":5700:5703   */\n      dup3\n        /* \"#utility.yul\":5693:5730   */\n      mstore\n        /* \"#utility.yul\":5618:5736   */\n      pop\n      pop\n      jump\t// out\n        /* \"#utility.yul\":5742:5899   */\n    tag_284:\n        /* \"#utility.yul\":5847:5892   */\n      tag_286\n        /* \"#utility.yul\":5867:5891   */\n      tag_287\n        /* \"#utility.yul\":5885:5890   */\n      dup3\n        /* \"#utility.yul\":5867:5891   */\n      tag_283\n      jump\t// in\n    tag_287:\n        /* \"#utility.yul\":5847:5892   */\n      tag_288\n      jump\t// in\n    tag_286:\n        /* \"#utility.yul\":5842:5845   */\n      dup3\n        /* \"#utility.yul\":5835:5893   */\n      mstore\n        /* \"#utility.yul\":5742:5899   */\n      pop\n      pop\n      jump\t// out\n        /* \"#utility.yul\":5905:6284   */\n    tag_113:\n        /* \"#utility.yul\":6089:6092   */\n      0x00\n        /* \"#utility.yul\":6111:6258   */\n      tag_290\n        /* \"#utility.yul\":6254:6257   */\n      dup3\n        /* \"#utility.yul\":6111:6258   */\n      tag_264\n      jump\t// in\n    tag_290:\n        /* \"#utility.yul\":6104:6258   */\n      swap2\n      pop\n        /* \"#utility.yul\":6275:6278   */\n      dup2\n        /* \"#utility.yul\":6268:6278   */\n      swap1\n      pop\n        /* \"#utility.yul\":5905:6284   */\n      swap2\n      swap1\n      pop\n      jump\t// out\n        /* \"#utility.yul\":6290:6687   */\n    tag_150:\n        /* \"#utility.yul\":6430:6433   */\n      0x00\n        /* \"#utility.yul\":6445:6520   */\n      tag_292\n        /* \"#utility.yul\":6516:6519   */\n      dup3\n        /* \"#utility.yul\":6507:6513   */\n      dup6\n        /* \"#utility.yul\":6445:6520   */\n      tag_284\n      jump\t// in\n    tag_292:\n        /* \"#utility.yul\":6545:6547   */\n      0x20\n        /* \"#utility.yul\":6540:6543   */\n      dup3\n        /* \"#utility.yul\":6536:6548   */\n      add\n        /* \"#utility.yul\":6529:6548   */\n      swap2\n      pop\n        /* \"#utility.yul\":6558:6633   */\n      tag_293\n        /* \"#utility.yul\":6629:6632   */\n      dup3\n        /* \"#utility.yul\":6620:6626   */\n      dup5\n        /* \"#utility.yul\":6558:6633   */\n      tag_284\n      jump\t// in\n    tag_293:\n        /* \"#utility.yul\":6658:6660   */\n      0x20\n        /* \"#utility.yul\":6653:6656   */\n      dup3\n        /* \"#utility.yul\":6649:6661   */\n      add\n        /* \"#utility.yul\":6642:6661   */\n      swap2\n      pop\n        /* \"#utility.yul\":6678:6681   */\n      dup2\n        /* \"#utility.yul\":6671:6681   */\n      swap1\n      pop\n        /* \"#utility.yul\":6290:6687   */\n      swap4\n      swap3\n      pop\n      pop\n      pop\n      jump\t// out\n        /* \"#utility.yul\":6693:6915   */\n    tag_50:\n        /* \"#utility.yul\":6786:6790   */\n      0x00\n        /* \"#utility.yul\":6824:6826   */\n      0x20\n        /* \"#utility.yul\":6813:6822   */\n      dup3\n        /* \"#utility.yul\":6809:6827   */\n      add\n        /* \"#utility.yul\":6801:6827   */\n      swap1\n      pop\n        /* \"#utility.yul\":6837:6908   */\n      tag_295\n        /* \"#utility.yul\":6905:6906   */\n      0x00\n        /* \"#utility.yul\":6894:6903   */\n      dup4\n        /* \"#utility.yul\":6890:6907   */\n      add\n        /* \"#utility.yul\":6881:6887   */\n      dup5\n        /* \"#utility.yul\":6837:6908   */\n      tag_225\n      jump\t// in\n    tag_295:\n        /* \"#utility.yul\":6693:6915   */\n      swap3\n      swap2\n      pop\n      pop\n      jump\t// out\n        /* \"#utility.yul\":6921:7157   */\n    tag_41:\n        /* \"#utility.yul\":7021:7025   */\n      0x00\n        /* \"#utility.yul\":7059:7061   */\n      0x20\n        /* \"#utility.yul\":7048:7057   */\n      dup3\n        /* \"#utility.yul\":7044:7062   */\n      add\n        /* \"#utility.yul\":7036:7062   */\n      swap1\n      pop\n        /* \"#utility.yul\":7072:7150   */\n      tag_297\n        /* \"#utility.yul\":7147:7148   */\n      0x00\n        /* \"#utility.yul\":7136:7145   */\n      dup4\n        /* \"#utility.yul\":7132:7149   */\n      add\n        /* \"#utility.yul\":7123:7129   */\n      dup5\n        /* \"#utility.yul\":7072:7150   */\n      tag_229\n      jump\t// in\n    tag_297:\n        /* \"#utility.yul\":6921:7157   */\n      swap3\n      swap2\n      pop\n      pop\n      jump\t// out\n        /* \"#utility.yul\":7163:7582   */\n    tag_158:\n        /* \"#utility.yul\":7329:7333   */\n      0x00\n        /* \"#utility.yul\":7367:7369   */\n      0x20\n        /* \"#utility.yul\":7356:7365   */\n      dup3\n        /* \"#utility.yul\":7352:7370   */\n      add\n        /* \"#utility.yul\":7344:7370   */\n      swap1\n      pop\n        /* \"#utility.yul\":7416:7425   */\n      dup2\n        /* \"#utility.yul\":7410:7414   */\n      dup2\n        /* \"#utility.yul\":7406:7426   */\n      sub\n        /* \"#utility.yul\":7402:7403   */\n      0x00\n        /* \"#utility.yul\":7391:7400   */\n      dup4\n        /* \"#utility.yul\":7387:7404   */\n      add\n        /* \"#utility.yul\":7380:7427   */\n      mstore\n        /* \"#utility.yul\":7444:7575   */\n      tag_299\n        /* \"#utility.yul\":7570:7574   */\n      dup2\n        /* \"#utility.yul\":7444:7575   */\n      tag_233\n      jump\t// in\n    tag_299:\n        /* \"#utility.yul\":7436:7575   */\n      swap1\n      pop\n        /* \"#utility.yul\":7163:7582   */\n      swap2\n      swap1\n      pop\n      jump\t// out\n        /* \"#utility.yul\":7588:8007   */\n    tag_133:\n        /* \"#utility.yul\":7754:7758   */\n      0x00\n        /* \"#utility.yul\":7792:7794   */\n      0x20\n        /* \"#utility.yul\":7781:7790   */\n      dup3\n        /* \"#utility.yul\":7777:7795   */\n      add\n        /* \"#utility.yul\":7769:7795   */\n      swap1\n      pop\n        /* \"#utility.yul\":7841:7850   */\n      dup2\n        /* \"#utility.yul\":7835:7839   */\n      dup2\n        /* \"#utility.yul\":7831:7851   */\n      sub\n        /* \"#utility.yul\":7827:7828   */\n      0x00\n        /* \"#utility.yul\":7816:7825   */\n      dup4\n        /* \"#utility.yul\":7812:7829   */\n      add\n        /* \"#utility.yul\":7805:7852   */\n      mstore\n        /* \"#utility.yul\":7869:8000   */\n      tag_301\n        /* \"#utility.yul\":7995:7999   */\n      dup2\n        /* \"#utility.yul\":7869:8000   */\n      tag_239\n      jump\t// in\n    tag_301:\n        /* \"#utility.yul\":7861:8000   */\n      swap1\n      pop\n        /* \"#utility.yul\":7588:8007   */\n      swap2\n      swap1\n      pop\n      jump\t// out\n        /* \"#utility.yul\":8013:8432   */\n    tag_110:\n        /* \"#utility.yul\":8179:8183   */\n      0x00\n        /* \"#utility.yul\":8217:8219   */\n      0x20\n        /* \"#utility.yul\":8206:8215   */\n      dup3\n        /* \"#utility.yul\":8202:8220   */\n      add\n        /* \"#utility.yul\":8194:8220   */\n      swap1\n      pop\n        /* \"#utility.yul\":8266:8275   */\n      dup2\n        /* \"#utility.yul\":8260:8264   */\n      dup2\n        /* \"#utility.yul\":8256:8276   */\n      sub\n        /* \"#utility.yul\":8252:8253   */\n      0x00\n        /* \"#utility.yul\":8241:8250   */\n      dup4\n        /* \"#utility.yul\":8237:8254   */\n      add\n        /* \"#utility.yul\":8230:8277   */\n      mstore\n        /* \"#utility.yul\":8294:8425   */\n      tag_303\n        /* \"#utility.yul\":8420:8424   */\n      dup2\n        /* \"#utility.yul\":8294:8425   */\n      tag_244\n      jump\t// in\n    tag_303:\n        /* \"#utility.yul\":8286:8425   */\n      swap1\n      pop\n        /* \"#utility.yul\":8013:8432   */\n      swap2\n      swap1\n      pop\n      jump\t// out\n        /* \"#utility.yul\":8438:8857   */\n    tag_106:\n        /* \"#utility.yul\":8604:8608   */\n      0x00\n        /* \"#utility.yul\":8642:8644   */\n      0x20\n        /* \"#utility.yul\":8631:8640   */\n      dup3\n        /* \"#utility.yul\":8627:8645   */\n      add\n        /* \"#utility.yul\":8619:8645   */\n      swap1\n      pop\n        /* \"#utility.yul\":8691:8700   */\n      dup2\n        /* \"#utility.yul\":8685:8689   */\n      dup2\n        /* \"#utility.yul\":8681:8701   */\n      sub\n        /* \"#utility.yul\":8677:8678   */\n      0x00\n        /* \"#utility.yul\":8666:8675   */\n      dup4\n        /* \"#utility.yul\":8662:8679   */\n      add\n        /* \"#utility.yul\":8655:8702   */\n      mstore\n        /* \"#utility.yul\":8719:8850   */\n      tag_305\n        /* \"#utility.yul\":8845:8849   */\n      dup2\n        /* \"#utility.yul\":8719:8850   */\n      tag_249\n      jump\t// in\n    tag_305:\n        /* \"#utility.yul\":8711:8850   */\n      swap1\n      pop\n        /* \"#utility.yul\":8438:8857   */\n      swap2\n      swap1\n      pop\n      jump\t// out\n        /* \"#utility.yul\":8863:9282   */\n    tag_102:\n        /* \"#utility.yul\":9029:9033   */\n      0x00\n        /* \"#utility.yul\":9067:9069   */\n      0x20\n        /* \"#utility.yul\":9056:9065   */\n      dup3\n        /* \"#utility.yul\":9052:9070   */\n      add\n        /* \"#utility.yul\":9044:9070   */\n      swap1\n      pop\n        /* \"#utility.yul\":9116:9125   */\n      dup2\n        /* \"#utility.yul\":9110:9114   */\n      dup2\n        /* \"#utility.yul\":9106:9126   */\n      sub\n        /* \"#utility.yul\":9102:9103   */\n      0x00\n        /* \"#utility.yul\":9091:9100   */\n      dup4\n        /* \"#utility.yul\":9087:9104   */\n      add\n        /* \"#utility.yul\":9080:9127   */\n      mstore\n        /* \"#utility.yul\":9144:9275   */\n      tag_307\n        /* \"#utility.yul\":9270:9274   */\n      dup2\n        /* \"#utility.yul\":9144:9275   */\n      tag_254\n      jump\t// in\n    tag_307:\n        /* \"#utility.yul\":9136:9275   */\n      swap1\n      pop\n        /* \"#utility.yul\":8863:9282   */\n      swap2\n      swap1\n      pop\n      jump\t// out\n        /* \"#utility.yul\":9288:9707   */\n    tag_99:\n        /* \"#utility.yul\":9454:9458   */\n      0x00\n        /* \"#utility.yul\":9492:9494   */\n      0x20\n        /* \"#utility.yul\":9481:9490   */\n      dup3\n        /* \"#utility.yul\":9477:9495   */\n      add\n        /* \"#utility.yul\":9469:9495   */\n      swap1\n      pop\n        /* \"#utility.yul\":9541:9550   */\n      dup2\n        /* \"#utility.yul\":9535:9539   */\n      dup2\n        /* \"#utility.yul\":9531:9551   */\n      sub\n        /* \"#utility.yul\":9527:9528   */\n      0x00\n        /* \"#utility.yul\":9516:9525   */\n      dup4\n        /* \"#utility.yul\":9512:9529   */\n      add\n        /* \"#utility.yul\":9505:9552   */\n      mstore\n        /* \"#utility.yul\":9569:9700   */\n      tag_309\n        /* \"#utility.yul\":9695:9699   */\n      dup2\n        /* \"#utility.yul\":9569:9700   */\n      tag_259\n      jump\t// in\n    tag_309:\n        /* \"#utility.yul\":9561:9700   */\n      swap1\n      pop\n        /* \"#utility.yul\":9288:9707   */\n      swap2\n      swap1\n      pop\n      jump\t// out\n        /* \"#utility.yul\":9713:10132   */\n    tag_129:\n        /* \"#utility.yul\":9879:9883   */\n      0x00\n        /* \"#utility.yul\":9917:9919   */\n      0x20\n        /* \"#utility.yul\":9906:9915   */\n      dup3\n        /* \"#utility.yul\":9902:9920   */\n      add\n        /* \"#utility.yul\":9894:9920   */\n      swap1\n      pop\n        /* \"#utility.yul\":9966:9975   */\n      dup2\n        /* \"#utility.yul\":9960:9964   */\n      dup2\n        /* \"#utility.yul\":9956:9976   */\n      sub\n        /* \"#utility.yul\":9952:9953   */\n      0x00\n        /* \"#utility.yul\":9941:9950   */\n      dup4\n        /* \"#utility.yul\":9937:9954   */\n      add\n        /* \"#utility.yul\":9930:9977   */\n      mstore\n        /* \"#utility.yul\":9994:10125   */\n      tag_311\n        /* \"#utility.yul\":10120:10124   */\n      dup2\n        /* \"#utility.yul\":9994:10125   */\n      tag_270\n      jump\t// in\n    tag_311:\n        /* \"#utility.yul\":9986:10125   */\n      swap1\n      pop\n        /* \"#utility.yul\":9713:10132   */\n      swap2\n      swap1\n      pop\n      jump\t// out\n        /* \"#utility.yul\":10138:10557   */\n    tag_95:\n        /* \"#utility.yul\":10304:10308   */\n      0x00\n        /* \"#utility.yul\":10342:10344   */\n      0x20\n        /* \"#utility.yul\":10331:10340   */\n      dup3\n        /* \"#utility.yul\":10327:10345   */\n      add\n        /* \"#utility.yul\":10319:10345   */\n      swap1\n      pop\n        /* \"#utility.yul\":10391:10400   */\n      dup2\n        /* \"#utility.yul\":10385:10389   */\n      dup2\n        /* \"#utility.yul\":10381:10401   */\n      sub\n        /* \"#utility.yul\":10377:10378   */\n      0x00\n        /* \"#utility.yul\":10366:10375   */\n      dup4\n        /* \"#utility.yul\":10362:10379   */\n      add\n        /* \"#utility.yul\":10355:10402   */\n      mstore\n        /* \"#utility.yul\":10419:10550   */\n      tag_313\n        /* \"#utility.yul\":10545:10549   */\n      dup2\n        /* \"#utility.yul\":10419:10550   */\n      tag_275\n      jump\t// in\n    tag_313:\n        /* \"#utility.yul\":10411:10550   */\n      swap1\n      pop\n        /* \"#utility.yul\":10138:10557   */\n      swap2\n      swap1\n      pop\n      jump\t// out\n        /* \"#utility.yul\":10563:10785   */\n    tag_26:\n        /* \"#utility.yul\":10656:10660   */\n      0x00\n        /* \"#utility.yul\":10694:10696   */\n      0x20\n        /* \"#utility.yul\":10683:10692   */\n      dup3\n        /* \"#utility.yul\":10679:10697   */\n      add\n        /* \"#utility.yul\":10671:10697   */\n      swap1\n      pop\n        /* \"#utility.yul\":10707:10778   */\n      tag_315\n        /* \"#utility.yul\":10775:10776   */\n      0x00\n        /* \"#utility.yul\":10764:10773   */\n      dup4\n        /* \"#utility.yul\":10760:10777   */\n      add\n        /* \"#utility.yul\":10751:10757   */\n      dup5\n        /* \"#utility.yul\":10707:10778   */\n      tag_280\n      jump\t// in\n    tag_315:\n        /* \"#utility.yul\":10563:10785   */\n      swap3\n      swap2\n      pop\n      pop\n      jump\t// out\n        /* \"#utility.yul\":10872:11019   */\n    tag_267:\n        /* \"#utility.yul\":10973:10984   */\n      0x00\n        /* \"#utility.yul\":11010:11013   */\n      dup2\n        /* \"#utility.yul\":10995:11013   */\n      swap1\n      pop\n        /* \"#utility.yul\":10872:11019   */\n      swap3\n      swap2\n      pop\n      pop\n      jump\t// out\n        /* \"#utility.yul\":11025:11194   */\n    tag_236:\n        /* \"#utility.yul\":11109:11120   */\n      0x00\n        /* \"#utility.yul\":11143:11149   */\n      dup3\n        /* \"#utility.yul\":11138:11141   */\n      dup3\n        /* \"#utility.yul\":11131:11150   */\n      mstore\n        /* \"#utility.yul\":11183:11187   */\n      0x20\n        /* \"#utility.yul\":11178:11181   */\n      dup3\n        /* \"#utility.yul\":11174:11188   */\n      add\n        /* \"#utility.yul\":11159:11188   */\n      swap1\n      pop\n        /* \"#utility.yul\":11025:11194   */\n      swap3\n      swap2\n      pop\n      pop\n      jump\t// out\n        /* \"#utility.yul\":11200:11505   */\n    tag_154:\n        /* \"#utility.yul\":11240:11243   */\n      0x00\n        /* \"#utility.yul\":11259:11279   */\n      tag_321\n        /* \"#utility.yul\":11277:11278   */\n      dup3\n        /* \"#utility.yul\":11259:11279   */\n      tag_283\n      jump\t// in\n    tag_321:\n        /* \"#utility.yul\":11254:11279   */\n      swap2\n      pop\n        /* \"#utility.yul\":11293:11313   */\n      tag_322\n        /* \"#utility.yul\":11311:11312   */\n      dup4\n        /* \"#utility.yul\":11293:11313   */\n      tag_283\n      jump\t// in\n    tag_322:\n        /* \"#utility.yul\":11288:11313   */\n      swap3\n      pop\n        /* \"#utility.yul\":11447:11448   */\n      dup3\n        /* \"#utility.yul\":11379:11445   */\n      0xffffffffffffffffffffffffffffffffffffffffffffffffffffffffffffffff\n        /* \"#utility.yul\":11375:11449   */\n      sub\n        /* \"#utility.yul\":11372:11373   */\n      dup3\n        /* \"#utility.yul\":11369:11450   */\n      gt\n        /* \"#utility.yul\":11366:11473   */\n      iszero\n      tag_323\n      jumpi\n        /* \"#utility.yul\":11453:11471   */\n      tag_324\n      tag_325\n      jump\t// in\n    tag_324:\n        /* \"#utility.yul\":11366:11473   */\n    tag_323:\n        /* \"#utility.yul\":11497:11498   */\n      dup3\n        /* \"#utility.yul\":11494:11495   */\n      dup3\n        /* \"#utility.yul\":11490:11499   */\n      add\n        /* \"#utility.yul\":11483:11499   */\n      swap1\n      pop\n        /* \"#utility.yul\":11200:11505   */\n      swap3\n      swap2\n      pop\n      pop\n      jump\t// out\n        /* \"#utility.yul\":11511:11607   */\n    tag_228:\n        /* \"#utility.yul\":11548:11555   */\n      0x00\n        /* \"#utility.yul\":11577:11601   */\n      tag_327\n        /* \"#utility.yul\":11595:11600   */\n      dup3\n        /* \"#utility.yul\":11577:11601   */\n      tag_328\n      jump\t// in\n    tag_327:\n        /* \"#utility.yul\":11566:11601   */\n      swap1\n      pop\n        /* \"#utility.yul\":11511:11607   */\n      swap2\n      swap1\n      pop\n      jump\t// out\n        /* \"#utility.yul\":11613:11742   */\n    tag_329:\n        /* \"#utility.yul\":11659:11666   */\n      0x00\n        /* \"#utility.yul\":11688:11693   */\n      dup2\n        /* \"#utility.yul\":11677:11693   */\n      swap1\n      pop\n        /* \"#utility.yul\":11694:11736   */\n      tag_331\n        /* \"#utility.yul\":11730:11735   */\n      dup3\n        /* \"#utility.yul\":11694:11736   */\n      tag_332\n      jump\t// in\n    tag_331:\n        /* \"#utility.yul\":11613:11742   */\n      swap2\n      swap1\n      pop\n      jump\t// out\n        /* \"#utility.yul\":11748:11874   */\n    tag_328:\n        /* \"#utility.yul\":11785:11792   */\n      0x00\n        /* \"#utility.yul\":11825:11867   */\n      0xffffffffffffffffffffffffffffffffffffffff\n        /* \"#utility.yul\":11818:11823   */\n      dup3\n        /* \"#utility.yul\":11814:11868   */\n      and\n        /* \"#utility.yul\":11803:11868   */\n      swap1\n      pop\n        /* \"#utility.yul\":11748:11874   */\n      swap2\n      swap1\n      pop\n      jump\t// out\n        /* \"#utility.yul\":11880:11957   */\n    tag_283:\n        /* \"#utility.yul\":11917:11924   */\n      0x00\n        /* \"#utility.yul\":11946:11951   */\n      dup2\n        /* \"#utility.yul\":11935:11951   */\n      swap1\n      pop\n        /* \"#utility.yul\":11880:11957   */\n      swap2\n      swap1\n      pop\n      jump\t// out\n        /* \"#utility.yul\":11963:12092   */\n    tag_232:\n        /* \"#utility.yul\":12020:12029   */\n      0x00\n        /* \"#utility.yul\":12053:12086   */\n      tag_336\n        /* \"#utility.yul\":12080:12085   */\n      dup3\n        /* \"#utility.yul\":12053:12086   */\n      tag_329\n      jump\t// in\n    tag_336:\n        /* \"#utility.yul\":12040:12086   */\n      swap1\n      pop\n        /* \"#utility.yul\":11963:12092   */\n      swap2\n      swap1\n      pop\n      jump\t// out\n        /* \"#utility.yul\":12098:12177   */\n    tag_288:\n        /* \"#utility.yul\":12137:12144   */\n      0x00\n        /* \"#utility.yul\":12166:12171   */\n      dup2\n        /* \"#utility.yul\":12155:12171   */\n      swap1\n      pop\n        /* \"#utility.yul\":12098:12177   */\n      swap2\n      swap1\n      pop\n      jump\t// out\n        /* \"#utility.yul\":12183:12359   */\n    tag_152:\n        /* \"#utility.yul\":12215:12216   */\n      0x00\n        /* \"#utility.yul\":12232:12252   */\n      tag_339\n        /* \"#utility.yul\":12250:12251   */\n      dup3\n        /* \"#utility.yul\":12232:12252   */\n      tag_283\n      jump\t// in\n    tag_339:\n        /* \"#utility.yul\":12227:12252   */\n      swap2\n      pop\n        /* \"#utility.yul\":12266:12286   */\n      tag_340\n        /* \"#utility.yul\":12284:12285   */\n      dup4\n        /* \"#utility.yul\":12266:12286   */\n      tag_283\n      jump\t// in\n    tag_340:\n        /* \"#utility.yul\":12261:12286   */\n      swap3\n      pop\n        /* \"#utility.yul\":12305:12306   */\n      dup3\n        /* \"#utility.yul\":12295:12330   */\n      tag_341\n      jumpi\n        /* \"#utility.yul\":12310:12328   */\n      tag_342\n      tag_343\n      jump\t// in\n    tag_342:\n        /* \"#utility.yul\":12295:12330   */\n    tag_341:\n        /* \"#utility.yul\":12351:12352   */\n      dup3\n        /* \"#utility.yul\":12348:12349   */\n      dup3\n        /* \"#utility.yul\":12344:12353   */\n      mod\n        /* \"#utility.yul\":12339:12353   */\n      swap1\n      pop\n        /* \"#utility.yul\":12183:12359   */\n      swap3\n      swap2\n      pop\n      pop\n      jump\t// out\n        /* \"#utility.yul\":12365:12545   */\n    tag_325:\n        /* \"#utility.yul\":12413:12490   */\n      0x4e487b7100000000000000000000000000000000000000000000000000000000\n        /* \"#utility.yul\":12410:12411   */\n      0x00\n        /* \"#utility.yul\":12403:12491   */\n      mstore\n        /* \"#utility.yul\":12510:12514   */\n      0x11\n        /* \"#utility.yul\":12507:12508   */\n      0x04\n        /* \"#utility.yul\":12500:12515   */\n      mstore\n        /* \"#utility.yul\":12534:12538   */\n      0x24\n        /* \"#utility.yul\":12531:12532   */\n      0x00\n        /* \"#utility.yul\":12524:12539   */\n      revert\n        /* \"#utility.yul\":12551:12731   */\n    tag_343:\n        /* \"#utility.yul\":12599:12676   */\n      0x4e487b7100000000000000000000000000000000000000000000000000000000\n        /* \"#utility.yul\":12596:12597   */\n      0x00\n        /* \"#utility.yul\":12589:12677   */\n      mstore\n        /* \"#utility.yul\":12696:12700   */\n      0x12\n        /* \"#utility.yul\":12693:12694   */\n      0x04\n        /* \"#utility.yul\":12686:12701   */\n      mstore\n        /* \"#utility.yul\":12720:12724   */\n      0x24\n        /* \"#utility.yul\":12717:12718   */\n      0x00\n        /* \"#utility.yul\":12710:12725   */\n      revert\n        /* \"#utility.yul\":12737:12917   */\n    tag_121:\n        /* \"#utility.yul\":12785:12862   */\n      0x4e487b7100000000000000000000000000000000000000000000000000000000\n        /* \"#utility.yul\":12782:12783   */\n      0x00\n        /* \"#utility.yul\":12775:12863   */\n      mstore\n        /* \"#utility.yul\":12882:12886   */\n      0x21\n        /* \"#utility.yul\":12879:12880   */\n      0x04\n        /* \"#utility.yul\":12872:12887   */\n      mstore\n        /* \"#utility.yul\":12906:12910   */\n      0x24\n        /* \"#utility.yul\":12903:12904   */\n      0x00\n        /* \"#utility.yul\":12896:12911   */\n      revert\n        /* \"#utility.yul\":13046:13163   */\n    tag_210:\n        /* \"#utility.yul\":13155:13156   */\n      0x00\n        /* \"#utility.yul\":13152:13153   */\n      dup1\n        /* \"#utility.yul\":13145:13157   */\n      revert\n        /* \"#utility.yul\":13169:13339   */\n    tag_238:\n        /* \"#utility.yul\":13309:13331   */\n      0x5468652062757267657220636f7374206d6f7265000000000000000000000000\n        /* \"#utility.yul\":13305:13306   */\n      0x00\n        /* \"#utility.yul\":13297:13303   */\n      dup3\n        /* \"#utility.yul\":13293:13307   */\n      add\n        /* \"#utility.yul\":13286:13332   */\n      mstore\n        /* \"#utility.yul\":13169:13339   */\n      pop\n      jump\t// out\n        /* \"#utility.yul\":13345:13518   */\n    tag_243:\n        /* \"#utility.yul\":13485:13510   */\n      0x54686973206973206e6f74206f70656e65642079657421000000000000000000\n        /* \"#utility.yul\":13481:13482   */\n      0x00\n        /* \"#utility.yul\":13473:13479   */\n      dup3\n        /* \"#utility.yul\":13469:13483   */\n      add\n        /* \"#utility.yul\":13462:13511   */\n      mstore\n        /* \"#utility.yul\":13345:13518   */\n      pop\n      jump\t// out\n        /* \"#utility.yul\":13524:13690   */\n    tag_248:\n        /* \"#utility.yul\":13664:13682   */\n      0x4e6f7420456e6f7567682046756e647300000000000000000000000000000000\n        /* \"#utility.yul\":13660:13661   */\n      0x00\n        /* \"#utility.yul\":13652:13658   */\n      dup3\n        /* \"#utility.yul\":13648:13662   */\n      add\n        /* \"#utility.yul\":13641:13683   */\n      mstore\n        /* \"#utility.yul\":13524:13690   */\n      pop\n      jump\t// out\n        /* \"#utility.yul\":13696:13859   */\n    tag_253:\n        /* \"#utility.yul\":13836:13851   */\n      0x4e6f7420746865206f776e657200000000000000000000000000000000000000\n        /* \"#utility.yul\":13832:13833   */\n      0x00\n        /* \"#utility.yul\":13824:13830   */\n      dup3\n        /* \"#utility.yul\":13820:13834   */\n      add\n        /* \"#utility.yul\":13813:13852   */\n      mstore\n        /* \"#utility.yul\":13696:13859   */\n      pop\n      jump\t// out\n        /* \"#utility.yul\":13865:14087   */\n    tag_258:\n        /* \"#utility.yul\":14005:14039   */\n      0x54686520726563656976657220646f6e74206861766520656e6f756768206675\n        /* \"#utility.yul\":14001:14002   */\n      0x00\n        /* \"#utility.yul\":13993:13999   */\n      dup3\n        /* \"#utility.yul\":13989:14003   */\n      add\n        /* \"#utility.yul\":13982:14040   */\n      mstore\n        /* \"#utility.yul\":14074:14079   */\n      0x6e64730000000000000000000000000000000000000000000000000000000000\n        /* \"#utility.yul\":14069:14071   */\n      0x20\n        /* \"#utility.yul\":14061:14067   */\n      dup3\n        /* \"#utility.yul\":14057:14072   */\n      add\n        /* \"#utility.yul\":14050:14080   */\n      mstore\n        /* \"#utility.yul\":13865:14087   */\n      pop\n      jump\t// out\n        /* \"#utility.yul\":14093:14318   */\n    tag_263:\n        /* \"#utility.yul\":14233:14267   */\n      0x596f752061726520747279696e6720746f20726566756e64207765726f6e6720\n        /* \"#utility.yul\":14229:14230   */\n      0x00\n        /* \"#utility.yul\":14221:14227   */\n      dup3\n        /* \"#utility.yul\":14217:14231   */\n      add\n        /* \"#utility.yul\":14210:14268   */\n      mstore\n        /* \"#utility.yul\":14302:14310   */\n      0x616d6f756e740000000000000000000000000000000000000000000000000000\n        /* \"#utility.yul\":14297:14299   */\n      0x20\n        /* \"#utility.yul\":14289:14295   */\n      dup3\n        /* \"#utility.yul\":14285:14300   */\n      add\n        /* \"#utility.yul\":14278:14311   */\n      mstore\n        /* \"#utility.yul\":14093:14318   */\n      pop\n      jump\t// out\n        /* \"#utility.yul\":14324:14438   */\n    tag_269:\n      pop\n      jump\t// out\n        /* \"#utility.yul\":14444:14614   */\n    tag_274:\n        /* \"#utility.yul\":14584:14606   */\n      0x4e6f7420417420436f7272656374205374616765000000000000000000000000\n        /* \"#utility.yul\":14580:14581   */\n      0x00\n        /* \"#utility.yul\":14572:14578   */\n      dup3\n        /* \"#utility.yul\":14568:14582   */\n      add\n        /* \"#utility.yul\":14561:14607   */\n      mstore\n        /* \"#utility.yul\":14444:14614   */\n      pop\n      jump\t// out\n        /* \"#utility.yul\":14620:14851   */\n    tag_279:\n        /* \"#utility.yul\":14760:14794   */\n      0x54686520727175657374206d75737420626520696e6974696174656420627920\n        /* \"#utility.yul\":14756:14757   */\n      0x00\n        /* \"#utility.yul\":14748:14754   */\n      dup3\n        /* \"#utility.yul\":14744:14758   */\n      add\n        /* \"#utility.yul\":14737:14795   */\n      mstore\n        /* \"#utility.yul\":14829:14843   */\n      0x6d616e61676572206f6e6c790000000000000000000000000000000000000000\n        /* \"#utility.yul\":14824:14826   */\n      0x20\n        /* \"#utility.yul\":14816:14822   */\n      dup3\n        /* \"#utility.yul\":14812:14827   */\n      add\n        /* \"#utility.yul\":14805:14844   */\n      mstore\n        /* \"#utility.yul\":14620:14851   */\n      pop\n      jump\t// out\n        /* \"#utility.yul\":14857:14971   */\n    tag_332:\n        /* \"#utility.yul\":14939:14940   */\n      0x03\n        /* \"#utility.yul\":14932:14937   */\n      dup2\n        /* \"#utility.yul\":14929:14941   */\n      lt\n        /* \"#utility.yul\":14919:14965   */\n      tag_360\n      jumpi\n        /* \"#utility.yul\":14945:14963   */\n      tag_361\n      tag_121\n      jump\t// in\n    tag_361:\n        /* \"#utility.yul\":14919:14965   */\n    tag_360:\n        /* \"#utility.yul\":14857:14971   */\n      pop\n      jump\t// out\n        /* \"#utility.yul\":14977:15099   */\n    tag_198:\n        /* \"#utility.yul\":15050:15074   */\n      tag_363\n        /* \"#utility.yul\":15068:15073   */\n      dup2\n        /* \"#utility.yul\":15050:15074   */\n      tag_228\n      jump\t// in\n    tag_363:\n        /* \"#utility.yul\":15043:15048   */\n      dup2\n        /* \"#utility.yul\":15040:15075   */\n      eq\n        /* \"#utility.yul\":15030:15093   */\n      tag_364\n      jumpi\n        /* \"#utility.yul\":15089:15090   */\n      0x00\n        /* \"#utility.yul\":15086:15087   */\n      dup1\n        /* \"#utility.yul\":15079:15091   */\n      revert\n        /* \"#utility.yul\":15030:15093   */\n    tag_364:\n        /* \"#utility.yul\":14977:15099   */\n      pop\n      jump\t// out\n        /* \"#utility.yul\":15105:15213   */\n    tag_202:\n        /* \"#utility.yul\":15187:15188   */\n      0x03\n        /* \"#utility.yul\":15180:15185   */\n      dup2\n        /* \"#utility.yul\":15177:15189   */\n      lt\n        /* \"#utility.yul\":15167:15207   */\n      tag_366\n      jumpi\n        /* \"#utility.yul\":15203:15204   */\n      0x00\n        /* \"#utility.yul\":15200:15201   */\n      dup1\n        /* \"#utility.yul\":15193:15205   */\n      revert\n        /* \"#utility.yul\":15167:15207   */\n    tag_366:\n        /* \"#utility.yul\":15105:15213   */\n      pop\n      jump\t// out\n        /* \"#utility.yul\":15219:15341   */\n    tag_206:\n        /* \"#utility.yul\":15292:15316   */\n      tag_368\n        /* \"#utility.yul\":15310:15315   */\n      dup2\n        /* \"#utility.yul\":15292:15316   */\n      tag_283\n      jump\t// in\n    tag_368:\n        /* \"#utility.yul\":15285:15290   */\n      dup2\n        /* \"#utility.yul\":15282:15317   */\n      eq\n        /* \"#utility.yul\":15272:15335   */\n      tag_369\n      jumpi\n        /* \"#utility.yul\":15331:15332   */\n      0x00\n        /* \"#utility.yul\":15328:15329   */\n      dup1\n        /* \"#utility.yul\":15321:15333   */\n      revert\n        /* \"#utility.yul\":15272:15335   */\n    tag_369:\n        /* \"#utility.yul\":15219:15341   */\n      pop\n      jump\t// out\n\n    auxdata: 0xa2646970667358221220c3a89c56d5bd8c1936e56f40bb7b33d75eaf4c86457a2d344420fb1e1d5d83f964736f6c63430008070033\n}\n",
				"bytecode": {
					"linkReferences": {},
					"object": "60806040526702c68af0bb14000060005567058d15e176280000600155601e426200002b9190620000f2565b6004556000600760006101000a81548160ff0219169083600281111562000057576200005662000188565b5b02179055503480156200006957600080fd5b5033600360006101000a81548173ffffffffffffffffffffffffffffffffffffffff021916908373ffffffffffffffffffffffffffffffffffffffff16021790555033600260006101000a81548173ffffffffffffffffffffffffffffffffffffffff021916908373ffffffffffffffffffffffffffffffffffffffff160217905550620001b7565b6000620000ff826200014f565b91506200010c836200014f565b9250827fffffffffffffffffffffffffffffffffffffffffffffffffffffffffffffffff0382111562000144576200014362000159565b5b828201905092915050565b6000819050919050565b7f4e487b7100000000000000000000000000000000000000000000000000000000600052601160045260246000fd5b7f4e487b7100000000000000000000000000000000000000000000000000000000600052602160045260246000fd5b6116f180620001c76000396000f3fe6080604052600436106100fe5760003560e01c8063b5545a3c11610095578063ce365cdf11610064578063ce365cdf146102e5578063d1f22eef146102fc578063eb1d1b9114610339578063f203644a14610343578063fd4451001461036e576100fe565b8063b5545a3c1461025e578063b8e53ae714610268578063bd083bae14610291578063c06a56ba146102ce576100fe565b8063410085df116100d1578063410085df146101c1578063481c6a75146101dd5780638da5cb5b14610208578063925b814814610233576100fe565b80630b97bc861461010357806312065fe01461012e578063336989ae1461015957806334011d2814610196575b600080fd5b34801561010f57600080fd5b50610118610378565b60405161012591906112f1565b60405180910390f35b34801561013a57600080fd5b5061014361037e565b60405161015091906112f1565b60405180910390f35b34801561016557600080fd5b50610180600480360381019061017b9190610f34565b610386565b60405161018d91906112f1565b60405180910390f35b3480156101a257600080fd5b506101ab61039e565b6040516101b891906111d6565b60405180910390f35b6101db60048036038101906101d69190610f61565b6103b1565b005b3480156101e957600080fd5b506101f2610632565b6040516101ff91906111bb565b60405180910390f35b34801561021457600080fd5b5061021d610658565b60405161022a91906111bb565b60405180910390f35b34801561023f57600080fd5b5061024861067e565b60405161025591906112f1565b60405180910390f35b610266610684565b005b34801561027457600080fd5b5061028f600480360381019061028a9190610fa1565b6107cc565b005b34801561029d57600080fd5b506102b860048036038101906102b39190610f34565b6107f9565b6040516102c591906112f1565b60405180910390f35b3480156102da57600080fd5b506102e3610811565b005b3480156102f157600080fd5b506102fa6108d9565b005b34801561030857600080fd5b50610323600480360381019061031e9190610fce565b6109a1565b60405161033091906112f1565b60405180910390f35b6103416109f3565b005b34801561034f57600080fd5b50610358610c71565b60405161036591906112f1565b60405180910390f35b610376610c77565b005b60045481565b600047905090565b60056020528060005260406000206000915090505481565b600760009054906101000a900460ff1681565b8181600260009054906101000a900473ffffffffffffffffffffffffffffffffffffffff1673ffffffffffffffffffffffffffffffffffffffff163373ffffffffffffffffffffffffffffffffffffffff1614610443576040517f08c379a000000000000000000000000000000000000000000000000000000000815260040161043a906112d1565b60405180910390fd5b600054811480610454575060015481145b610493576040517f08c379a000000000000000000000000000000000000000000000000000000000815260040161048a90611291565b60405180910390fd5b80600560008473ffffffffffffffffffffffffffffffffffffffff1673ffffffffffffffffffffffffffffffffffffffff168152602001908152602001600020541015610515576040517f08c379a000000000000000000000000000000000000000000000000000000000815260040161050c90611271565b60405180910390fd5b600360009054906101000a900473ffffffffffffffffffffffffffffffffffffffff1673ffffffffffffffffffffffffffffffffffffffff163373ffffffffffffffffffffffffffffffffffffffff16146105a5576040517f08c379a000000000000000000000000000000000000000000000000000000000815260040161059c90611251565b60405180910390fd5b824710156105e8576040517f08c379a00000000000000000000000000000000000000000000000000000000081526004016105df90611231565b60405180910390fd5b82600660008673ffffffffffffffffffffffffffffffffffffffff1673ffffffffffffffffffffffffffffffffffffffff1681526020019081526020016000208190555050505050565b600260009054906101000a900473ffffffffffffffffffffffffffffffffffffffff1681565b600360009054906101000a900473ffffffffffffffffffffffffffffffffffffffff1681565b60015481565b6000600560003373ffffffffffffffffffffffffffffffffffffffff1673ffffffffffffffffffffffffffffffffffffffff1681526020019081526020016000205490506000600660003373ffffffffffffffffffffffffffffffffffffffff1673ffffffffffffffffffffffffffffffffffffffff168152602001908152602001600020819055506000600560003373ffffffffffffffffffffffffffffffffffffffff1673ffffffffffffffffffffffffffffffffffffffff1681526020019081526020016000208190555060003373ffffffffffffffffffffffffffffffffffffffff16826040516107789061117a565b60006040518083038185875af1925050503d80600081146107b5576040519150601f19603f3d011682016040523d82523d6000602084013e6107ba565b606091505b50509050806107c857600080fd5b5050565b80600760006101000a81548160ff021916908360028111156107f1576107f0611478565b5b021790555050565b60066020528060005260406000206000915090505481565b600180600281111561082657610825611478565b5b600760009054906101000a900460ff16600281111561084857610847611478565b5b14610888576040517f08c379a000000000000000000000000000000000000000000000000000000000815260040161087f906112b1565b60405180910390fd5b60045442116108cc576040517f08c379a00000000000000000000000000000000000000000000000000000000081526004016108c390611211565b60405180910390fd5b6108d660026107cc565b50565b60028060028111156108ee576108ed611478565b5b600760009054906101000a900460ff1660028111156109105761090f611478565b5b14610950576040517f08c379a0000000000000000000000000000000000000000000000000000000008152600401610947906112b1565b60405180910390fd5b6004544211610994576040517f08c379a000000000000000000000000000000000000000000000000000000000815260040161098b90611211565b60405180910390fd5b61099e60006107cc565b50565b6000806001600a42856040516020016109bb92919061118f565b6040516020818303038152906040528051906020012060001c6109de91906113e9565b6109e89190611328565b905080915050919050565b60015480341015610a39576040517f08c379a0000000000000000000000000000000000000000000000000000000008152600401610a30906111f1565b60405180910390fd5b6000806002811115610a4e57610a4d611478565b5b600760009054906101000a900460ff166002811115610a7057610a6f611478565b5b14610ab0576040517f08c379a0000000000000000000000000000000000000000000000000000000008152600401610aa7906112b1565b60405180910390fd5b6004544211610af4576040517f08c379a0000000000000000000000000000000000000000000000000000000008152600401610aeb90611211565b60405180910390fd5b6000600560003373ffffffffffffffffffffffffffffffffffffffff1673ffffffffffffffffffffffffffffffffffffffff1681526020019081526020016000205414610bce5734600560003373ffffffffffffffffffffffffffffffffffffffff1673ffffffffffffffffffffffffffffffffffffffff16815260200190815260200160002054610b869190611328565b600560003373ffffffffffffffffffffffffffffffffffffffff1673ffffffffffffffffffffffffffffffffffffffff16815260200190815260200160002081905550610c13565b34600560003373ffffffffffffffffffffffffffffffffffffffff1673ffffffffffffffffffffffffffffffffffffffff168152602001908152602001600020819055505b610c1d60016107cc565b3373ffffffffffffffffffffffffffffffffffffffff167fc63d5e450f470dcc6536476b6fd78a0f261765ef92b25631875b0a35eaa095bf600054604051610c6591906112f1565b60405180910390a25050565b60005481565b60005480341015610cbd576040517f08c379a0000000000000000000000000000000000000000000000000000000008152600401610cb4906111f1565b60405180910390fd5b6000806002811115610cd257610cd1611478565b5b600760009054906101000a900460ff166002811115610cf457610cf3611478565b5b14610d34576040517f08c379a0000000000000000000000000000000000000000000000000000000008152600401610d2b906112b1565b60405180910390fd5b6004544211610d78576040517f08c379a0000000000000000000000000000000000000000000000000000000008152600401610d6f90611211565b60405180910390fd5b6000600560003373ffffffffffffffffffffffffffffffffffffffff1673ffffffffffffffffffffffffffffffffffffffff1681526020019081526020016000205414610e525734600560003373ffffffffffffffffffffffffffffffffffffffff1673ffffffffffffffffffffffffffffffffffffffff16815260200190815260200160002054610e0a9190611328565b600560003373ffffffffffffffffffffffffffffffffffffffff1673ffffffffffffffffffffffffffffffffffffffff16815260200190815260200160002081905550610e97565b34600560003373ffffffffffffffffffffffffffffffffffffffff1673ffffffffffffffffffffffffffffffffffffffff168152602001908152602001600020819055505b610ea160016107cc565b3373ffffffffffffffffffffffffffffffffffffffff167fc63d5e450f470dcc6536476b6fd78a0f261765ef92b25631875b0a35eaa095bf600054604051610ee991906112f1565b60405180910390a25050565b600081359050610f048161167d565b92915050565b600081359050610f1981611694565b92915050565b600081359050610f2e816116a4565b92915050565b600060208284031215610f4a57610f496114a7565b5b6000610f5884828501610ef5565b91505092915050565b60008060408385031215610f7857610f776114a7565b5b6000610f8685828601610ef5565b9250506020610f9785828601610f1f565b9150509250929050565b600060208284031215610fb757610fb66114a7565b5b6000610fc584828501610f0a565b91505092915050565b600060208284031215610fe457610fe36114a7565b5b6000610ff284828501610f1f565b91505092915050565b6110048161137e565b82525050565b611013816113cd565b82525050565b6000611026601483611317565b9150611031826114ac565b602082019050919050565b6000611049601783611317565b9150611054826114d5565b602082019050919050565b600061106c601083611317565b9150611077826114fe565b602082019050919050565b600061108f600d83611317565b915061109a82611527565b602082019050919050565b60006110b2602383611317565b91506110bd82611550565b604082019050919050565b60006110d5602683611317565b91506110e08261159f565b604082019050919050565b60006110f860008361130c565b9150611103826115ee565b600082019050919050565b600061111b601483611317565b9150611126826115f1565b602082019050919050565b600061113e602c83611317565b91506111498261161a565b604082019050919050565b61115d816113c3565b82525050565b61117461116f826113c3565b6113df565b82525050565b6000611185826110eb565b9150819050919050565b600061119b8285611163565b6020820191506111ab8284611163565b6020820191508190509392505050565b60006020820190506111d06000830184610ffb565b92915050565b60006020820190506111eb600083018461100a565b92915050565b6000602082019050818103600083015261120a81611019565b9050919050565b6000602082019050818103600083015261122a8161103c565b9050919050565b6000602082019050818103600083015261124a8161105f565b9050919050565b6000602082019050818103600083015261126a81611082565b9050919050565b6000602082019050818103600083015261128a816110a5565b9050919050565b600060208201905081810360008301526112aa816110c8565b9050919050565b600060208201905081810360008301526112ca8161110e565b9050919050565b600060208201905081810360008301526112ea81611131565b9050919050565b60006020820190506113066000830184611154565b92915050565b600081905092915050565b600082825260208201905092915050565b6000611333826113c3565b915061133e836113c3565b9250827fffffffffffffffffffffffffffffffffffffffffffffffffffffffffffffffff038211156113735761137261141a565b5b828201905092915050565b6000611389826113a3565b9050919050565b600081905061139e82611669565b919050565b600073ffffffffffffffffffffffffffffffffffffffff82169050919050565b6000819050919050565b60006113d882611390565b9050919050565b6000819050919050565b60006113f4826113c3565b91506113ff836113c3565b92508261140f5761140e611449565b5b828206905092915050565b7f4e487b7100000000000000000000000000000000000000000000000000000000600052601160045260246000fd5b7f4e487b7100000000000000000000000000000000000000000000000000000000600052601260045260246000fd5b7f4e487b7100000000000000000000000000000000000000000000000000000000600052602160045260246000fd5b600080fd5b7f5468652062757267657220636f7374206d6f7265000000000000000000000000600082015250565b7f54686973206973206e6f74206f70656e65642079657421000000000000000000600082015250565b7f4e6f7420456e6f7567682046756e647300000000000000000000000000000000600082015250565b7f4e6f7420746865206f776e657200000000000000000000000000000000000000600082015250565b7f54686520726563656976657220646f6e74206861766520656e6f75676820667560008201527f6e64730000000000000000000000000000000000000000000000000000000000602082015250565b7f596f752061726520747279696e6720746f20726566756e64207765726f6e672060008201527f616d6f756e740000000000000000000000000000000000000000000000000000602082015250565b50565b7f4e6f7420417420436f7272656374205374616765000000000000000000000000600082015250565b7f54686520727175657374206d75737420626520696e697469617465642062792060008201527f6d616e61676572206f6e6c790000000000000000000000000000000000000000602082015250565b6003811061167a57611679611478565b5b50565b6116868161137e565b811461169157600080fd5b50565b600381106116a157600080fd5b50565b6116ad816113c3565b81146116b857600080fd5b5056fea2646970667358221220c3a89c56d5bd8c1936e56f40bb7b33d75eaf4c86457a2d344420fb1e1d5d83f964736f6c63430008070033",
					"opcodes": "PUSH1 0x80 PUSH1 0x40 MSTORE PUSH8 0x2C68AF0BB140000 PUSH1 0x0 SSTORE PUSH8 0x58D15E176280000 PUSH1 0x1 SSTORE PUSH1 0x1E TIMESTAMP PUSH3 0x2B SWAP2 SWAP1 PUSH3 0xF2 JUMP JUMPDEST PUSH1 0x4 SSTORE PUSH1 0x0 PUSH1 0x7 PUSH1 0x0 PUSH2 0x100 EXP DUP2 SLOAD DUP2 PUSH1 0xFF MUL NOT AND SWAP1 DUP4 PUSH1 0x2 DUP2 GT ISZERO PUSH3 0x57 JUMPI PUSH3 0x56 PUSH3 0x188 JUMP JUMPDEST JUMPDEST MUL OR SWAP1 SSTORE POP CALLVALUE DUP1 ISZERO PUSH3 0x69 JUMPI PUSH1 0x0 DUP1 REVERT JUMPDEST POP CALLER PUSH1 0x3 PUSH1 0x0 PUSH2 0x100 EXP DUP2 SLOAD DUP2 PUSH20 0xFFFFFFFFFFFFFFFFFFFFFFFFFFFFFFFFFFFFFFFF MUL NOT AND SWAP1 DUP4 PUSH20 0xFFFFFFFFFFFFFFFFFFFFFFFFFFFFFFFFFFFFFFFF AND MUL OR SWAP1 SSTORE POP CALLER PUSH1 0x2 PUSH1 0x0 PUSH2 0x100 EXP DUP2 SLOAD DUP2 PUSH20 0xFFFFFFFFFFFFFFFFFFFFFFFFFFFFFFFFFFFFFFFF MUL NOT AND SWAP1 DUP4 PUSH20 0xFFFFFFFFFFFFFFFFFFFFFFFFFFFFFFFFFFFFFFFF AND MUL OR SWAP1 SSTORE POP PUSH3 0x1B7 JUMP JUMPDEST PUSH1 0x0 PUSH3 0xFF DUP3 PUSH3 0x14F JUMP JUMPDEST SWAP2 POP PUSH3 0x10C DUP4 PUSH3 0x14F JUMP JUMPDEST SWAP3 POP DUP3 PUSH32 0xFFFFFFFFFFFFFFFFFFFFFFFFFFFFFFFFFFFFFFFFFFFFFFFFFFFFFFFFFFFFFFFF SUB DUP3 GT ISZERO PUSH3 0x144 JUMPI PUSH3 0x143 PUSH3 0x159 JUMP JUMPDEST JUMPDEST DUP3 DUP3 ADD SWAP1 POP SWAP3 SWAP2 POP POP JUMP JUMPDEST PUSH1 0x0 DUP2 SWAP1 POP SWAP2 SWAP1 POP JUMP JUMPDEST PUSH32 0x4E487B7100000000000000000000000000000000000000000000000000000000 PUSH1 0x0 MSTORE PUSH1 0x11 PUSH1 0x4 MSTORE PUSH1 0x24 PUSH1 0x0 REVERT JUMPDEST PUSH32 0x4E487B7100000000000000000000000000000000000000000000000000000000 PUSH1 0x0 MSTORE PUSH1 0x21 PUSH1 0x4 MSTORE PUSH1 0x24 PUSH1 0x0 REVERT JUMPDEST PUSH2 0x16F1 DUP1 PUSH3 0x1C7 PUSH1 0x0 CODECOPY PUSH1 0x0 RETURN INVALID PUSH1 0x80 PUSH1 0x40 MSTORE PUSH1 0x4 CALLDATASIZE LT PUSH2 0xFE JUMPI PUSH1 0x0 CALLDATALOAD PUSH1 0xE0 SHR DUP1 PUSH4 0xB5545A3C GT PUSH2 0x95 JUMPI DUP1 PUSH4 0xCE365CDF GT PUSH2 0x64 JUMPI DUP1 PUSH4 0xCE365CDF EQ PUSH2 0x2E5 JUMPI DUP1 PUSH4 0xD1F22EEF EQ PUSH2 0x2FC JUMPI DUP1 PUSH4 0xEB1D1B91 EQ PUSH2 0x339 JUMPI DUP1 PUSH4 0xF203644A EQ PUSH2 0x343 JUMPI DUP1 PUSH4 0xFD445100 EQ PUSH2 0x36E JUMPI PUSH2 0xFE JUMP JUMPDEST DUP1 PUSH4 0xB5545A3C EQ PUSH2 0x25E JUMPI DUP1 PUSH4 0xB8E53AE7 EQ PUSH2 0x268 JUMPI DUP1 PUSH4 0xBD083BAE EQ PUSH2 0x291 JUMPI DUP1 PUSH4 0xC06A56BA EQ PUSH2 0x2CE JUMPI PUSH2 0xFE JUMP JUMPDEST DUP1 PUSH4 0x410085DF GT PUSH2 0xD1 JUMPI DUP1 PUSH4 0x410085DF EQ PUSH2 0x1C1 JUMPI DUP1 PUSH4 0x481C6A75 EQ PUSH2 0x1DD JUMPI DUP1 PUSH4 0x8DA5CB5B EQ PUSH2 0x208 JUMPI DUP1 PUSH4 0x925B8148 EQ PUSH2 0x233 JUMPI PUSH2 0xFE JUMP JUMPDEST DUP1 PUSH4 0xB97BC86 EQ PUSH2 0x103 JUMPI DUP1 PUSH4 0x12065FE0 EQ PUSH2 0x12E JUMPI DUP1 PUSH4 0x336989AE EQ PUSH2 0x159 JUMPI DUP1 PUSH4 0x34011D28 EQ PUSH2 0x196 JUMPI JUMPDEST PUSH1 0x0 DUP1 REVERT JUMPDEST CALLVALUE DUP1 ISZERO PUSH2 0x10F JUMPI PUSH1 0x0 DUP1 REVERT JUMPDEST POP PUSH2 0x118 PUSH2 0x378 JUMP JUMPDEST PUSH1 0x40 MLOAD PUSH2 0x125 SWAP2 SWAP1 PUSH2 0x12F1 JUMP JUMPDEST PUSH1 0x40 MLOAD DUP1 SWAP2 SUB SWAP1 RETURN JUMPDEST CALLVALUE DUP1 ISZERO PUSH2 0x13A JUMPI PUSH1 0x0 DUP1 REVERT JUMPDEST POP PUSH2 0x143 PUSH2 0x37E JUMP JUMPDEST PUSH1 0x40 MLOAD PUSH2 0x150 SWAP2 SWAP1 PUSH2 0x12F1 JUMP JUMPDEST PUSH1 0x40 MLOAD DUP1 SWAP2 SUB SWAP1 RETURN JUMPDEST CALLVALUE DUP1 ISZERO PUSH2 0x165 JUMPI PUSH1 0x0 DUP1 REVERT JUMPDEST POP PUSH2 0x180 PUSH1 0x4 DUP1 CALLDATASIZE SUB DUP2 ADD SWAP1 PUSH2 0x17B SWAP2 SWAP1 PUSH2 0xF34 JUMP JUMPDEST PUSH2 0x386 JUMP JUMPDEST PUSH1 0x40 MLOAD PUSH2 0x18D SWAP2 SWAP1 PUSH2 0x12F1 JUMP JUMPDEST PUSH1 0x40 MLOAD DUP1 SWAP2 SUB SWAP1 RETURN JUMPDEST CALLVALUE DUP1 ISZERO PUSH2 0x1A2 JUMPI PUSH1 0x0 DUP1 REVERT JUMPDEST POP PUSH2 0x1AB PUSH2 0x39E JUMP JUMPDEST PUSH1 0x40 MLOAD PUSH2 0x1B8 SWAP2 SWAP1 PUSH2 0x11D6 JUMP JUMPDEST PUSH1 0x40 MLOAD DUP1 SWAP2 SUB SWAP1 RETURN JUMPDEST PUSH2 0x1DB PUSH1 0x4 DUP1 CALLDATASIZE SUB DUP2 ADD SWAP1 PUSH2 0x1D6 SWAP2 SWAP1 PUSH2 0xF61 JUMP JUMPDEST PUSH2 0x3B1 JUMP JUMPDEST STOP JUMPDEST CALLVALUE DUP1 ISZERO PUSH2 0x1E9 JUMPI PUSH1 0x0 DUP1 REVERT JUMPDEST POP PUSH2 0x1F2 PUSH2 0x632 JUMP JUMPDEST PUSH1 0x40 MLOAD PUSH2 0x1FF SWAP2 SWAP1 PUSH2 0x11BB JUMP JUMPDEST PUSH1 0x40 MLOAD DUP1 SWAP2 SUB SWAP1 RETURN JUMPDEST CALLVALUE DUP1 ISZERO PUSH2 0x214 JUMPI PUSH1 0x0 DUP1 REVERT JUMPDEST POP PUSH2 0x21D PUSH2 0x658 JUMP JUMPDEST PUSH1 0x40 MLOAD PUSH2 0x22A SWAP2 SWAP1 PUSH2 0x11BB JUMP JUMPDEST PUSH1 0x40 MLOAD DUP1 SWAP2 SUB SWAP1 RETURN JUMPDEST CALLVALUE DUP1 ISZERO PUSH2 0x23F JUMPI PUSH1 0x0 DUP1 REVERT JUMPDEST POP PUSH2 0x248 PUSH2 0x67E JUMP JUMPDEST PUSH1 0x40 MLOAD PUSH2 0x255 SWAP2 SWAP1 PUSH2 0x12F1 JUMP JUMPDEST PUSH1 0x40 MLOAD DUP1 SWAP2 SUB SWAP1 RETURN JUMPDEST PUSH2 0x266 PUSH2 0x684 JUMP JUMPDEST STOP JUMPDEST CALLVALUE DUP1 ISZERO PUSH2 0x274 JUMPI PUSH1 0x0 DUP1 REVERT JUMPDEST POP PUSH2 0x28F PUSH1 0x4 DUP1 CALLDATASIZE SUB DUP2 ADD SWAP1 PUSH2 0x28A SWAP2 SWAP1 PUSH2 0xFA1 JUMP JUMPDEST PUSH2 0x7CC JUMP JUMPDEST STOP JUMPDEST CALLVALUE DUP1 ISZERO PUSH2 0x29D JUMPI PUSH1 0x0 DUP1 REVERT JUMPDEST POP PUSH2 0x2B8 PUSH1 0x4 DUP1 CALLDATASIZE SUB DUP2 ADD SWAP1 PUSH2 0x2B3 SWAP2 SWAP1 PUSH2 0xF34 JUMP JUMPDEST PUSH2 0x7F9 JUMP JUMPDEST PUSH1 0x40 MLOAD PUSH2 0x2C5 SWAP2 SWAP1 PUSH2 0x12F1 JUMP JUMPDEST PUSH1 0x40 MLOAD DUP1 SWAP2 SUB SWAP1 RETURN JUMPDEST CALLVALUE DUP1 ISZERO PUSH2 0x2DA JUMPI PUSH1 0x0 DUP1 REVERT JUMPDEST POP PUSH2 0x2E3 PUSH2 0x811 JUMP JUMPDEST STOP JUMPDEST CALLVALUE DUP1 ISZERO PUSH2 0x2F1 JUMPI PUSH1 0x0 DUP1 REVERT JUMPDEST POP PUSH2 0x2FA PUSH2 0x8D9 JUMP JUMPDEST STOP JUMPDEST CALLVALUE DUP1 ISZERO PUSH2 0x308 JUMPI PUSH1 0x0 DUP1 REVERT JUMPDEST POP PUSH2 0x323 PUSH1 0x4 DUP1 CALLDATASIZE SUB DUP2 ADD SWAP1 PUSH2 0x31E SWAP2 SWAP1 PUSH2 0xFCE JUMP JUMPDEST PUSH2 0x9A1 JUMP JUMPDEST PUSH1 0x40 MLOAD PUSH2 0x330 SWAP2 SWAP1 PUSH2 0x12F1 JUMP JUMPDEST PUSH1 0x40 MLOAD DUP1 SWAP2 SUB SWAP1 RETURN JUMPDEST PUSH2 0x341 PUSH2 0x9F3 JUMP JUMPDEST STOP JUMPDEST CALLVALUE DUP1 ISZERO PUSH2 0x34F JUMPI PUSH1 0x0 DUP1 REVERT JUMPDEST POP PUSH2 0x358 PUSH2 0xC71 JUMP JUMPDEST PUSH1 0x40 MLOAD PUSH2 0x365 SWAP2 SWAP1 PUSH2 0x12F1 JUMP JUMPDEST PUSH1 0x40 MLOAD DUP1 SWAP2 SUB SWAP1 RETURN JUMPDEST PUSH2 0x376 PUSH2 0xC77 JUMP JUMPDEST STOP JUMPDEST PUSH1 0x4 SLOAD DUP2 JUMP JUMPDEST PUSH1 0x0 SELFBALANCE SWAP1 POP SWAP1 JUMP JUMPDEST PUSH1 0x5 PUSH1 0x20 MSTORE DUP1 PUSH1 0x0 MSTORE PUSH1 0x40 PUSH1 0x0 KECCAK256 PUSH1 0x0 SWAP2 POP SWAP1 POP SLOAD DUP2 JUMP JUMPDEST PUSH1 0x7 PUSH1 0x0 SWAP1 SLOAD SWAP1 PUSH2 0x100 EXP SWAP1 DIV PUSH1 0xFF AND DUP2 JUMP JUMPDEST DUP2 DUP2 PUSH1 0x2 PUSH1 0x0 SWAP1 SLOAD SWAP1 PUSH2 0x100 EXP SWAP1 DIV PUSH20 0xFFFFFFFFFFFFFFFFFFFFFFFFFFFFFFFFFFFFFFFF AND PUSH20 0xFFFFFFFFFFFFFFFFFFFFFFFFFFFFFFFFFFFFFFFF AND CALLER PUSH20 0xFFFFFFFFFFFFFFFFFFFFFFFFFFFFFFFFFFFFFFFF AND EQ PUSH2 0x443 JUMPI PUSH1 0x40 MLOAD PUSH32 0x8C379A000000000000000000000000000000000000000000000000000000000 DUP2 MSTORE PUSH1 0x4 ADD PUSH2 0x43A SWAP1 PUSH2 0x12D1 JUMP JUMPDEST PUSH1 0x40 MLOAD DUP1 SWAP2 SUB SWAP1 REVERT JUMPDEST PUSH1 0x0 SLOAD DUP2 EQ DUP1 PUSH2 0x454 JUMPI POP PUSH1 0x1 SLOAD DUP2 EQ JUMPDEST PUSH2 0x493 JUMPI PUSH1 0x40 MLOAD PUSH32 0x8C379A000000000000000000000000000000000000000000000000000000000 DUP2 MSTORE PUSH1 0x4 ADD PUSH2 0x48A SWAP1 PUSH2 0x1291 JUMP JUMPDEST PUSH1 0x40 MLOAD DUP1 SWAP2 SUB SWAP1 REVERT JUMPDEST DUP1 PUSH1 0x5 PUSH1 0x0 DUP5 PUSH20 0xFFFFFFFFFFFFFFFFFFFFFFFFFFFFFFFFFFFFFFFF AND PUSH20 0xFFFFFFFFFFFFFFFFFFFFFFFFFFFFFFFFFFFFFFFF AND DUP2 MSTORE PUSH1 0x20 ADD SWAP1 DUP2 MSTORE PUSH1 0x20 ADD PUSH1 0x0 KECCAK256 SLOAD LT ISZERO PUSH2 0x515 JUMPI PUSH1 0x40 MLOAD PUSH32 0x8C379A000000000000000000000000000000000000000000000000000000000 DUP2 MSTORE PUSH1 0x4 ADD PUSH2 0x50C SWAP1 PUSH2 0x1271 JUMP JUMPDEST PUSH1 0x40 MLOAD DUP1 SWAP2 SUB SWAP1 REVERT JUMPDEST PUSH1 0x3 PUSH1 0x0 SWAP1 SLOAD SWAP1 PUSH2 0x100 EXP SWAP1 DIV PUSH20 0xFFFFFFFFFFFFFFFFFFFFFFFFFFFFFFFFFFFFFFFF AND PUSH20 0xFFFFFFFFFFFFFFFFFFFFFFFFFFFFFFFFFFFFFFFF AND CALLER PUSH20 0xFFFFFFFFFFFFFFFFFFFFFFFFFFFFFFFFFFFFFFFF AND EQ PUSH2 0x5A5 JUMPI PUSH1 0x40 MLOAD PUSH32 0x8C379A000000000000000000000000000000000000000000000000000000000 DUP2 MSTORE PUSH1 0x4 ADD PUSH2 0x59C SWAP1 PUSH2 0x1251 JUMP JUMPDEST PUSH1 0x40 MLOAD DUP1 SWAP2 SUB SWAP1 REVERT JUMPDEST DUP3 SELFBALANCE LT ISZERO PUSH2 0x5E8 JUMPI PUSH1 0x40 MLOAD PUSH32 0x8C379A000000000000000000000000000000000000000000000000000000000 DUP2 MSTORE PUSH1 0x4 ADD PUSH2 0x5DF SWAP1 PUSH2 0x1231 JUMP JUMPDEST PUSH1 0x40 MLOAD DUP1 SWAP2 SUB SWAP1 REVERT JUMPDEST DUP3 PUSH1 0x6 PUSH1 0x0 DUP7 PUSH20 0xFFFFFFFFFFFFFFFFFFFFFFFFFFFFFFFFFFFFFFFF AND PUSH20 0xFFFFFFFFFFFFFFFFFFFFFFFFFFFFFFFFFFFFFFFF AND DUP2 MSTORE PUSH1 0x20 ADD SWAP1 DUP2 MSTORE PUSH1 0x20 ADD PUSH1 0x0 KECCAK256 DUP2 SWAP1 SSTORE POP POP POP POP POP JUMP JUMPDEST PUSH1 0x2 PUSH1 0x0 SWAP1 SLOAD SWAP1 PUSH2 0x100 EXP SWAP1 DIV PUSH20 0xFFFFFFFFFFFFFFFFFFFFFFFFFFFFFFFFFFFFFFFF AND DUP2 JUMP JUMPDEST PUSH1 0x3 PUSH1 0x0 SWAP1 SLOAD SWAP1 PUSH2 0x100 EXP SWAP1 DIV PUSH20 0xFFFFFFFFFFFFFFFFFFFFFFFFFFFFFFFFFFFFFFFF AND DUP2 JUMP JUMPDEST PUSH1 0x1 SLOAD DUP2 JUMP JUMPDEST PUSH1 0x0 PUSH1 0x5 PUSH1 0x0 CALLER PUSH20 0xFFFFFFFFFFFFFFFFFFFFFFFFFFFFFFFFFFFFFFFF AND PUSH20 0xFFFFFFFFFFFFFFFFFFFFFFFFFFFFFFFFFFFFFFFF AND DUP2 MSTORE PUSH1 0x20 ADD SWAP1 DUP2 MSTORE PUSH1 0x20 ADD PUSH1 0x0 KECCAK256 SLOAD SWAP1 POP PUSH1 0x0 PUSH1 0x6 PUSH1 0x0 CALLER PUSH20 0xFFFFFFFFFFFFFFFFFFFFFFFFFFFFFFFFFFFFFFFF AND PUSH20 0xFFFFFFFFFFFFFFFFFFFFFFFFFFFFFFFFFFFFFFFF AND DUP2 MSTORE PUSH1 0x20 ADD SWAP1 DUP2 MSTORE PUSH1 0x20 ADD PUSH1 0x0 KECCAK256 DUP2 SWAP1 SSTORE POP PUSH1 0x0 PUSH1 0x5 PUSH1 0x0 CALLER PUSH20 0xFFFFFFFFFFFFFFFFFFFFFFFFFFFFFFFFFFFFFFFF AND PUSH20 0xFFFFFFFFFFFFFFFFFFFFFFFFFFFFFFFFFFFFFFFF AND DUP2 MSTORE PUSH1 0x20 ADD SWAP1 DUP2 MSTORE PUSH1 0x20 ADD PUSH1 0x0 KECCAK256 DUP2 SWAP1 SSTORE POP PUSH1 0x0 CALLER PUSH20 0xFFFFFFFFFFFFFFFFFFFFFFFFFFFFFFFFFFFFFFFF AND DUP3 PUSH1 0x40 MLOAD PUSH2 0x778 SWAP1 PUSH2 0x117A JUMP JUMPDEST PUSH1 0x0 PUSH1 0x40 MLOAD DUP1 DUP4 SUB DUP2 DUP6 DUP8 GAS CALL SWAP3 POP POP POP RETURNDATASIZE DUP1 PUSH1 0x0 DUP2 EQ PUSH2 0x7B5 JUMPI PUSH1 0x40 MLOAD SWAP2 POP PUSH1 0x1F NOT PUSH1 0x3F RETURNDATASIZE ADD AND DUP3 ADD PUSH1 0x40 MSTORE RETURNDATASIZE DUP3 MSTORE RETURNDATASIZE PUSH1 0x0 PUSH1 0x20 DUP5 ADD RETURNDATACOPY PUSH2 0x7BA JUMP JUMPDEST PUSH1 0x60 SWAP2 POP JUMPDEST POP POP SWAP1 POP DUP1 PUSH2 0x7C8 JUMPI PUSH1 0x0 DUP1 REVERT JUMPDEST POP POP JUMP JUMPDEST DUP1 PUSH1 0x7 PUSH1 0x0 PUSH2 0x100 EXP DUP2 SLOAD DUP2 PUSH1 0xFF MUL NOT AND SWAP1 DUP4 PUSH1 0x2 DUP2 GT ISZERO PUSH2 0x7F1 JUMPI PUSH2 0x7F0 PUSH2 0x1478 JUMP JUMPDEST JUMPDEST MUL OR SWAP1 SSTORE POP POP JUMP JUMPDEST PUSH1 0x6 PUSH1 0x20 MSTORE DUP1 PUSH1 0x0 MSTORE PUSH1 0x40 PUSH1 0x0 KECCAK256 PUSH1 0x0 SWAP2 POP SWAP1 POP SLOAD DUP2 JUMP JUMPDEST PUSH1 0x1 DUP1 PUSH1 0x2 DUP2 GT ISZERO PUSH2 0x826 JUMPI PUSH2 0x825 PUSH2 0x1478 JUMP JUMPDEST JUMPDEST PUSH1 0x7 PUSH1 0x0 SWAP1 SLOAD SWAP1 PUSH2 0x100 EXP SWAP1 DIV PUSH1 0xFF AND PUSH1 0x2 DUP2 GT ISZERO PUSH2 0x848 JUMPI PUSH2 0x847 PUSH2 0x1478 JUMP JUMPDEST JUMPDEST EQ PUSH2 0x888 JUMPI PUSH1 0x40 MLOAD PUSH32 0x8C379A000000000000000000000000000000000000000000000000000000000 DUP2 MSTORE PUSH1 0x4 ADD PUSH2 0x87F SWAP1 PUSH2 0x12B1 JUMP JUMPDEST PUSH1 0x40 MLOAD DUP1 SWAP2 SUB SWAP1 REVERT JUMPDEST PUSH1 0x4 SLOAD TIMESTAMP GT PUSH2 0x8CC JUMPI PUSH1 0x40 MLOAD PUSH32 0x8C379A000000000000000000000000000000000000000000000000000000000 DUP2 MSTORE PUSH1 0x4 ADD PUSH2 0x8C3 SWAP1 PUSH2 0x1211 JUMP JUMPDEST PUSH1 0x40 MLOAD DUP1 SWAP2 SUB SWAP1 REVERT JUMPDEST PUSH2 0x8D6 PUSH1 0x2 PUSH2 0x7CC JUMP JUMPDEST POP JUMP JUMPDEST PUSH1 0x2 DUP1 PUSH1 0x2 DUP2 GT ISZERO PUSH2 0x8EE JUMPI PUSH2 0x8ED PUSH2 0x1478 JUMP JUMPDEST JUMPDEST PUSH1 0x7 PUSH1 0x0 SWAP1 SLOAD SWAP1 PUSH2 0x100 EXP SWAP1 DIV PUSH1 0xFF AND PUSH1 0x2 DUP2 GT ISZERO PUSH2 0x910 JUMPI PUSH2 0x90F PUSH2 0x1478 JUMP JUMPDEST JUMPDEST EQ PUSH2 0x950 JUMPI PUSH1 0x40 MLOAD PUSH32 0x8C379A000000000000000000000000000000000000000000000000000000000 DUP2 MSTORE PUSH1 0x4 ADD PUSH2 0x947 SWAP1 PUSH2 0x12B1 JUMP JUMPDEST PUSH1 0x40 MLOAD DUP1 SWAP2 SUB SWAP1 REVERT JUMPDEST PUSH1 0x4 SLOAD TIMESTAMP GT PUSH2 0x994 JUMPI PUSH1 0x40 MLOAD PUSH32 0x8C379A000000000000000000000000000000000000000000000000000000000 DUP2 MSTORE PUSH1 0x4 ADD PUSH2 0x98B SWAP1 PUSH2 0x1211 JUMP JUMPDEST PUSH1 0x40 MLOAD DUP1 SWAP2 SUB SWAP1 REVERT JUMPDEST PUSH2 0x99E PUSH1 0x0 PUSH2 0x7CC JUMP JUMPDEST POP JUMP JUMPDEST PUSH1 0x0 DUP1 PUSH1 0x1 PUSH1 0xA TIMESTAMP DUP6 PUSH1 0x40 MLOAD PUSH1 0x20 ADD PUSH2 0x9BB SWAP3 SWAP2 SWAP1 PUSH2 0x118F JUMP JUMPDEST PUSH1 0x40 MLOAD PUSH1 0x20 DUP2 DUP4 SUB SUB DUP2 MSTORE SWAP1 PUSH1 0x40 MSTORE DUP1 MLOAD SWAP1 PUSH1 0x20 ADD KECCAK256 PUSH1 0x0 SHR PUSH2 0x9DE SWAP2 SWAP1 PUSH2 0x13E9 JUMP JUMPDEST PUSH2 0x9E8 SWAP2 SWAP1 PUSH2 0x1328 JUMP JUMPDEST SWAP1 POP DUP1 SWAP2 POP POP SWAP2 SWAP1 POP JUMP JUMPDEST PUSH1 0x1 SLOAD DUP1 CALLVALUE LT ISZERO PUSH2 0xA39 JUMPI PUSH1 0x40 MLOAD PUSH32 0x8C379A000000000000000000000000000000000000000000000000000000000 DUP2 MSTORE PUSH1 0x4 ADD PUSH2 0xA30 SWAP1 PUSH2 0x11F1 JUMP JUMPDEST PUSH1 0x40 MLOAD DUP1 SWAP2 SUB SWAP1 REVERT JUMPDEST PUSH1 0x0 DUP1 PUSH1 0x2 DUP2 GT ISZERO PUSH2 0xA4E JUMPI PUSH2 0xA4D PUSH2 0x1478 JUMP JUMPDEST JUMPDEST PUSH1 0x7 PUSH1 0x0 SWAP1 SLOAD SWAP1 PUSH2 0x100 EXP SWAP1 DIV PUSH1 0xFF AND PUSH1 0x2 DUP2 GT ISZERO PUSH2 0xA70 JUMPI PUSH2 0xA6F PUSH2 0x1478 JUMP JUMPDEST JUMPDEST EQ PUSH2 0xAB0 JUMPI PUSH1 0x40 MLOAD PUSH32 0x8C379A000000000000000000000000000000000000000000000000000000000 DUP2 MSTORE PUSH1 0x4 ADD PUSH2 0xAA7 SWAP1 PUSH2 0x12B1 JUMP JUMPDEST PUSH1 0x40 MLOAD DUP1 SWAP2 SUB SWAP1 REVERT JUMPDEST PUSH1 0x4 SLOAD TIMESTAMP GT PUSH2 0xAF4 JUMPI PUSH1 0x40 MLOAD PUSH32 0x8C379A000000000000000000000000000000000000000000000000000000000 DUP2 MSTORE PUSH1 0x4 ADD PUSH2 0xAEB SWAP1 PUSH2 0x1211 JUMP JUMPDEST PUSH1 0x40 MLOAD DUP1 SWAP2 SUB SWAP1 REVERT JUMPDEST PUSH1 0x0 PUSH1 0x5 PUSH1 0x0 CALLER PUSH20 0xFFFFFFFFFFFFFFFFFFFFFFFFFFFFFFFFFFFFFFFF AND PUSH20 0xFFFFFFFFFFFFFFFFFFFFFFFFFFFFFFFFFFFFFFFF AND DUP2 MSTORE PUSH1 0x20 ADD SWAP1 DUP2 MSTORE PUSH1 0x20 ADD PUSH1 0x0 KECCAK256 SLOAD EQ PUSH2 0xBCE JUMPI CALLVALUE PUSH1 0x5 PUSH1 0x0 CALLER PUSH20 0xFFFFFFFFFFFFFFFFFFFFFFFFFFFFFFFFFFFFFFFF AND PUSH20 0xFFFFFFFFFFFFFFFFFFFFFFFFFFFFFFFFFFFFFFFF AND DUP2 MSTORE PUSH1 0x20 ADD SWAP1 DUP2 MSTORE PUSH1 0x20 ADD PUSH1 0x0 KECCAK256 SLOAD PUSH2 0xB86 SWAP2 SWAP1 PUSH2 0x1328 JUMP JUMPDEST PUSH1 0x5 PUSH1 0x0 CALLER PUSH20 0xFFFFFFFFFFFFFFFFFFFFFFFFFFFFFFFFFFFFFFFF AND PUSH20 0xFFFFFFFFFFFFFFFFFFFFFFFFFFFFFFFFFFFFFFFF AND DUP2 MSTORE PUSH1 0x20 ADD SWAP1 DUP2 MSTORE PUSH1 0x20 ADD PUSH1 0x0 KECCAK256 DUP2 SWAP1 SSTORE POP PUSH2 0xC13 JUMP JUMPDEST CALLVALUE PUSH1 0x5 PUSH1 0x0 CALLER PUSH20 0xFFFFFFFFFFFFFFFFFFFFFFFFFFFFFFFFFFFFFFFF AND PUSH20 0xFFFFFFFFFFFFFFFFFFFFFFFFFFFFFFFFFFFFFFFF AND DUP2 MSTORE PUSH1 0x20 ADD SWAP1 DUP2 MSTORE PUSH1 0x20 ADD PUSH1 0x0 KECCAK256 DUP2 SWAP1 SSTORE POP JUMPDEST PUSH2 0xC1D PUSH1 0x1 PUSH2 0x7CC JUMP JUMPDEST CALLER PUSH20 0xFFFFFFFFFFFFFFFFFFFFFFFFFFFFFFFFFFFFFFFF AND PUSH32 0xC63D5E450F470DCC6536476B6FD78A0F261765EF92B25631875B0A35EAA095BF PUSH1 0x0 SLOAD PUSH1 0x40 MLOAD PUSH2 0xC65 SWAP2 SWAP1 PUSH2 0x12F1 JUMP JUMPDEST PUSH1 0x40 MLOAD DUP1 SWAP2 SUB SWAP1 LOG2 POP POP JUMP JUMPDEST PUSH1 0x0 SLOAD DUP2 JUMP JUMPDEST PUSH1 0x0 SLOAD DUP1 CALLVALUE LT ISZERO PUSH2 0xCBD JUMPI PUSH1 0x40 MLOAD PUSH32 0x8C379A000000000000000000000000000000000000000000000000000000000 DUP2 MSTORE PUSH1 0x4 ADD PUSH2 0xCB4 SWAP1 PUSH2 0x11F1 JUMP JUMPDEST PUSH1 0x40 MLOAD DUP1 SWAP2 SUB SWAP1 REVERT JUMPDEST PUSH1 0x0 DUP1 PUSH1 0x2 DUP2 GT ISZERO PUSH2 0xCD2 JUMPI PUSH2 0xCD1 PUSH2 0x1478 JUMP JUMPDEST JUMPDEST PUSH1 0x7 PUSH1 0x0 SWAP1 SLOAD SWAP1 PUSH2 0x100 EXP SWAP1 DIV PUSH1 0xFF AND PUSH1 0x2 DUP2 GT ISZERO PUSH2 0xCF4 JUMPI PUSH2 0xCF3 PUSH2 0x1478 JUMP JUMPDEST JUMPDEST EQ PUSH2 0xD34 JUMPI PUSH1 0x40 MLOAD PUSH32 0x8C379A000000000000000000000000000000000000000000000000000000000 DUP2 MSTORE PUSH1 0x4 ADD PUSH2 0xD2B SWAP1 PUSH2 0x12B1 JUMP JUMPDEST PUSH1 0x40 MLOAD DUP1 SWAP2 SUB SWAP1 REVERT JUMPDEST PUSH1 0x4 SLOAD TIMESTAMP GT PUSH2 0xD78 JUMPI PUSH1 0x40 MLOAD PUSH32 0x8C379A000000000000000000000000000000000000000000000000000000000 DUP2 MSTORE PUSH1 0x4 ADD PUSH2 0xD6F SWAP1 PUSH2 0x1211 JUMP JUMPDEST PUSH1 0x40 MLOAD DUP1 SWAP2 SUB SWAP1 REVERT JUMPDEST PUSH1 0x0 PUSH1 0x5 PUSH1 0x0 CALLER PUSH20 0xFFFFFFFFFFFFFFFFFFFFFFFFFFFFFFFFFFFFFFFF AND PUSH20 0xFFFFFFFFFFFFFFFFFFFFFFFFFFFFFFFFFFFFFFFF AND DUP2 MSTORE PUSH1 0x20 ADD SWAP1 DUP2 MSTORE PUSH1 0x20 ADD PUSH1 0x0 KECCAK256 SLOAD EQ PUSH2 0xE52 JUMPI CALLVALUE PUSH1 0x5 PUSH1 0x0 CALLER PUSH20 0xFFFFFFFFFFFFFFFFFFFFFFFFFFFFFFFFFFFFFFFF AND PUSH20 0xFFFFFFFFFFFFFFFFFFFFFFFFFFFFFFFFFFFFFFFF AND DUP2 MSTORE PUSH1 0x20 ADD SWAP1 DUP2 MSTORE PUSH1 0x20 ADD PUSH1 0x0 KECCAK256 SLOAD PUSH2 0xE0A SWAP2 SWAP1 PUSH2 0x1328 JUMP JUMPDEST PUSH1 0x5 PUSH1 0x0 CALLER PUSH20 0xFFFFFFFFFFFFFFFFFFFFFFFFFFFFFFFFFFFFFFFF AND PUSH20 0xFFFFFFFFFFFFFFFFFFFFFFFFFFFFFFFFFFFFFFFF AND DUP2 MSTORE PUSH1 0x20 ADD SWAP1 DUP2 MSTORE PUSH1 0x20 ADD PUSH1 0x0 KECCAK256 DUP2 SWAP1 SSTORE POP PUSH2 0xE97 JUMP JUMPDEST CALLVALUE PUSH1 0x5 PUSH1 0x0 CALLER PUSH20 0xFFFFFFFFFFFFFFFFFFFFFFFFFFFFFFFFFFFFFFFF AND PUSH20 0xFFFFFFFFFFFFFFFFFFFFFFFFFFFFFFFFFFFFFFFF AND DUP2 MSTORE PUSH1 0x20 ADD SWAP1 DUP2 MSTORE PUSH1 0x20 ADD PUSH1 0x0 KECCAK256 DUP2 SWAP1 SSTORE POP JUMPDEST PUSH2 0xEA1 PUSH1 0x1 PUSH2 0x7CC JUMP JUMPDEST CALLER PUSH20 0xFFFFFFFFFFFFFFFFFFFFFFFFFFFFFFFFFFFFFFFF AND PUSH32 0xC63D5E450F470DCC6536476B6FD78A0F261765EF92B25631875B0A35EAA095BF PUSH1 0x0 SLOAD PUSH1 0x40 MLOAD PUSH2 0xEE9 SWAP2 SWAP1 PUSH2 0x12F1 JUMP JUMPDEST PUSH1 0x40 MLOAD DUP1 SWAP2 SUB SWAP1 LOG2 POP POP JUMP JUMPDEST PUSH1 0x0 DUP2 CALLDATALOAD SWAP1 POP PUSH2 0xF04 DUP2 PUSH2 0x167D JUMP JUMPDEST SWAP3 SWAP2 POP POP JUMP JUMPDEST PUSH1 0x0 DUP2 CALLDATALOAD SWAP1 POP PUSH2 0xF19 DUP2 PUSH2 0x1694 JUMP JUMPDEST SWAP3 SWAP2 POP POP JUMP JUMPDEST PUSH1 0x0 DUP2 CALLDATALOAD SWAP1 POP PUSH2 0xF2E DUP2 PUSH2 0x16A4 JUMP JUMPDEST SWAP3 SWAP2 POP POP JUMP JUMPDEST PUSH1 0x0 PUSH1 0x20 DUP3 DUP5 SUB SLT ISZERO PUSH2 0xF4A JUMPI PUSH2 0xF49 PUSH2 0x14A7 JUMP JUMPDEST JUMPDEST PUSH1 0x0 PUSH2 0xF58 DUP5 DUP3 DUP6 ADD PUSH2 0xEF5 JUMP JUMPDEST SWAP2 POP POP SWAP3 SWAP2 POP POP JUMP JUMPDEST PUSH1 0x0 DUP1 PUSH1 0x40 DUP4 DUP6 SUB SLT ISZERO PUSH2 0xF78 JUMPI PUSH2 0xF77 PUSH2 0x14A7 JUMP JUMPDEST JUMPDEST PUSH1 0x0 PUSH2 0xF86 DUP6 DUP3 DUP7 ADD PUSH2 0xEF5 JUMP JUMPDEST SWAP3 POP POP PUSH1 0x20 PUSH2 0xF97 DUP6 DUP3 DUP7 ADD PUSH2 0xF1F JUMP JUMPDEST SWAP2 POP POP SWAP3 POP SWAP3 SWAP1 POP JUMP JUMPDEST PUSH1 0x0 PUSH1 0x20 DUP3 DUP5 SUB SLT ISZERO PUSH2 0xFB7 JUMPI PUSH2 0xFB6 PUSH2 0x14A7 JUMP JUMPDEST JUMPDEST PUSH1 0x0 PUSH2 0xFC5 DUP5 DUP3 DUP6 ADD PUSH2 0xF0A JUMP JUMPDEST SWAP2 POP POP SWAP3 SWAP2 POP POP JUMP JUMPDEST PUSH1 0x0 PUSH1 0x20 DUP3 DUP5 SUB SLT ISZERO PUSH2 0xFE4 JUMPI PUSH2 0xFE3 PUSH2 0x14A7 JUMP JUMPDEST JUMPDEST PUSH1 0x0 PUSH2 0xFF2 DUP5 DUP3 DUP6 ADD PUSH2 0xF1F JUMP JUMPDEST SWAP2 POP POP SWAP3 SWAP2 POP POP JUMP JUMPDEST PUSH2 0x1004 DUP2 PUSH2 0x137E JUMP JUMPDEST DUP3 MSTORE POP POP JUMP JUMPDEST PUSH2 0x1013 DUP2 PUSH2 0x13CD JUMP JUMPDEST DUP3 MSTORE POP POP JUMP JUMPDEST PUSH1 0x0 PUSH2 0x1026 PUSH1 0x14 DUP4 PUSH2 0x1317 JUMP JUMPDEST SWAP2 POP PUSH2 0x1031 DUP3 PUSH2 0x14AC JUMP JUMPDEST PUSH1 0x20 DUP3 ADD SWAP1 POP SWAP2 SWAP1 POP JUMP JUMPDEST PUSH1 0x0 PUSH2 0x1049 PUSH1 0x17 DUP4 PUSH2 0x1317 JUMP JUMPDEST SWAP2 POP PUSH2 0x1054 DUP3 PUSH2 0x14D5 JUMP JUMPDEST PUSH1 0x20 DUP3 ADD SWAP1 POP SWAP2 SWAP1 POP JUMP JUMPDEST PUSH1 0x0 PUSH2 0x106C PUSH1 0x10 DUP4 PUSH2 0x1317 JUMP JUMPDEST SWAP2 POP PUSH2 0x1077 DUP3 PUSH2 0x14FE JUMP JUMPDEST PUSH1 0x20 DUP3 ADD SWAP1 POP SWAP2 SWAP1 POP JUMP JUMPDEST PUSH1 0x0 PUSH2 0x108F PUSH1 0xD DUP4 PUSH2 0x1317 JUMP JUMPDEST SWAP2 POP PUSH2 0x109A DUP3 PUSH2 0x1527 JUMP JUMPDEST PUSH1 0x20 DUP3 ADD SWAP1 POP SWAP2 SWAP1 POP JUMP JUMPDEST PUSH1 0x0 PUSH2 0x10B2 PUSH1 0x23 DUP4 PUSH2 0x1317 JUMP JUMPDEST SWAP2 POP PUSH2 0x10BD DUP3 PUSH2 0x1550 JUMP JUMPDEST PUSH1 0x40 DUP3 ADD SWAP1 POP SWAP2 SWAP1 POP JUMP JUMPDEST PUSH1 0x0 PUSH2 0x10D5 PUSH1 0x26 DUP4 PUSH2 0x1317 JUMP JUMPDEST SWAP2 POP PUSH2 0x10E0 DUP3 PUSH2 0x159F JUMP JUMPDEST PUSH1 0x40 DUP3 ADD SWAP1 POP SWAP2 SWAP1 POP JUMP JUMPDEST PUSH1 0x0 PUSH2 0x10F8 PUSH1 0x0 DUP4 PUSH2 0x130C JUMP JUMPDEST SWAP2 POP PUSH2 0x1103 DUP3 PUSH2 0x15EE JUMP JUMPDEST PUSH1 0x0 DUP3 ADD SWAP1 POP SWAP2 SWAP1 POP JUMP JUMPDEST PUSH1 0x0 PUSH2 0x111B PUSH1 0x14 DUP4 PUSH2 0x1317 JUMP JUMPDEST SWAP2 POP PUSH2 0x1126 DUP3 PUSH2 0x15F1 JUMP JUMPDEST PUSH1 0x20 DUP3 ADD SWAP1 POP SWAP2 SWAP1 POP JUMP JUMPDEST PUSH1 0x0 PUSH2 0x113E PUSH1 0x2C DUP4 PUSH2 0x1317 JUMP JUMPDEST SWAP2 POP PUSH2 0x1149 DUP3 PUSH2 0x161A JUMP JUMPDEST PUSH1 0x40 DUP3 ADD SWAP1 POP SWAP2 SWAP1 POP JUMP JUMPDEST PUSH2 0x115D DUP2 PUSH2 0x13C3 JUMP JUMPDEST DUP3 MSTORE POP POP JUMP JUMPDEST PUSH2 0x1174 PUSH2 0x116F DUP3 PUSH2 0x13C3 JUMP JUMPDEST PUSH2 0x13DF JUMP JUMPDEST DUP3 MSTORE POP POP JUMP JUMPDEST PUSH1 0x0 PUSH2 0x1185 DUP3 PUSH2 0x10EB JUMP JUMPDEST SWAP2 POP DUP2 SWAP1 POP SWAP2 SWAP1 POP JUMP JUMPDEST PUSH1 0x0 PUSH2 0x119B DUP3 DUP6 PUSH2 0x1163 JUMP JUMPDEST PUSH1 0x20 DUP3 ADD SWAP2 POP PUSH2 0x11AB DUP3 DUP5 PUSH2 0x1163 JUMP JUMPDEST PUSH1 0x20 DUP3 ADD SWAP2 POP DUP2 SWAP1 POP SWAP4 SWAP3 POP POP POP JUMP JUMPDEST PUSH1 0x0 PUSH1 0x20 DUP3 ADD SWAP1 POP PUSH2 0x11D0 PUSH1 0x0 DUP4 ADD DUP5 PUSH2 0xFFB JUMP JUMPDEST SWAP3 SWAP2 POP POP JUMP JUMPDEST PUSH1 0x0 PUSH1 0x20 DUP3 ADD SWAP1 POP PUSH2 0x11EB PUSH1 0x0 DUP4 ADD DUP5 PUSH2 0x100A JUMP JUMPDEST SWAP3 SWAP2 POP POP JUMP JUMPDEST PUSH1 0x0 PUSH1 0x20 DUP3 ADD SWAP1 POP DUP2 DUP2 SUB PUSH1 0x0 DUP4 ADD MSTORE PUSH2 0x120A DUP2 PUSH2 0x1019 JUMP JUMPDEST SWAP1 POP SWAP2 SWAP1 POP JUMP JUMPDEST PUSH1 0x0 PUSH1 0x20 DUP3 ADD SWAP1 POP DUP2 DUP2 SUB PUSH1 0x0 DUP4 ADD MSTORE PUSH2 0x122A DUP2 PUSH2 0x103C JUMP JUMPDEST SWAP1 POP SWAP2 SWAP1 POP JUMP JUMPDEST PUSH1 0x0 PUSH1 0x20 DUP3 ADD SWAP1 POP DUP2 DUP2 SUB PUSH1 0x0 DUP4 ADD MSTORE PUSH2 0x124A DUP2 PUSH2 0x105F JUMP JUMPDEST SWAP1 POP SWAP2 SWAP1 POP JUMP JUMPDEST PUSH1 0x0 PUSH1 0x20 DUP3 ADD SWAP1 POP DUP2 DUP2 SUB PUSH1 0x0 DUP4 ADD MSTORE PUSH2 0x126A DUP2 PUSH2 0x1082 JUMP JUMPDEST SWAP1 POP SWAP2 SWAP1 POP JUMP JUMPDEST PUSH1 0x0 PUSH1 0x20 DUP3 ADD SWAP1 POP DUP2 DUP2 SUB PUSH1 0x0 DUP4 ADD MSTORE PUSH2 0x128A DUP2 PUSH2 0x10A5 JUMP JUMPDEST SWAP1 POP SWAP2 SWAP1 POP JUMP JUMPDEST PUSH1 0x0 PUSH1 0x20 DUP3 ADD SWAP1 POP DUP2 DUP2 SUB PUSH1 0x0 DUP4 ADD MSTORE PUSH2 0x12AA DUP2 PUSH2 0x10C8 JUMP JUMPDEST SWAP1 POP SWAP2 SWAP1 POP JUMP JUMPDEST PUSH1 0x0 PUSH1 0x20 DUP3 ADD SWAP1 POP DUP2 DUP2 SUB PUSH1 0x0 DUP4 ADD MSTORE PUSH2 0x12CA DUP2 PUSH2 0x110E JUMP JUMPDEST SWAP1 POP SWAP2 SWAP1 POP JUMP JUMPDEST PUSH1 0x0 PUSH1 0x20 DUP3 ADD SWAP1 POP DUP2 DUP2 SUB PUSH1 0x0 DUP4 ADD MSTORE PUSH2 0x12EA DUP2 PUSH2 0x1131 JUMP JUMPDEST SWAP1 POP SWAP2 SWAP1 POP JUMP JUMPDEST PUSH1 0x0 PUSH1 0x20 DUP3 ADD SWAP1 POP PUSH2 0x1306 PUSH1 0x0 DUP4 ADD DUP5 PUSH2 0x1154 JUMP JUMPDEST SWAP3 SWAP2 POP POP JUMP JUMPDEST PUSH1 0x0 DUP2 SWAP1 POP SWAP3 SWAP2 POP POP JUMP JUMPDEST PUSH1 0x0 DUP3 DUP3 MSTORE PUSH1 0x20 DUP3 ADD SWAP1 POP SWAP3 SWAP2 POP POP JUMP JUMPDEST PUSH1 0x0 PUSH2 0x1333 DUP3 PUSH2 0x13C3 JUMP JUMPDEST SWAP2 POP PUSH2 0x133E DUP4 PUSH2 0x13C3 JUMP JUMPDEST SWAP3 POP DUP3 PUSH32 0xFFFFFFFFFFFFFFFFFFFFFFFFFFFFFFFFFFFFFFFFFFFFFFFFFFFFFFFFFFFFFFFF SUB DUP3 GT ISZERO PUSH2 0x1373 JUMPI PUSH2 0x1372 PUSH2 0x141A JUMP JUMPDEST JUMPDEST DUP3 DUP3 ADD SWAP1 POP SWAP3 SWAP2 POP POP JUMP JUMPDEST PUSH1 0x0 PUSH2 0x1389 DUP3 PUSH2 0x13A3 JUMP JUMPDEST SWAP1 POP SWAP2 SWAP1 POP JUMP JUMPDEST PUSH1 0x0 DUP2 SWAP1 POP PUSH2 0x139E DUP3 PUSH2 0x1669 JUMP JUMPDEST SWAP2 SWAP1 POP JUMP JUMPDEST PUSH1 0x0 PUSH20 0xFFFFFFFFFFFFFFFFFFFFFFFFFFFFFFFFFFFFFFFF DUP3 AND SWAP1 POP SWAP2 SWAP1 POP JUMP JUMPDEST PUSH1 0x0 DUP2 SWAP1 POP SWAP2 SWAP1 POP JUMP JUMPDEST PUSH1 0x0 PUSH2 0x13D8 DUP3 PUSH2 0x1390 JUMP JUMPDEST SWAP1 POP SWAP2 SWAP1 POP JUMP JUMPDEST PUSH1 0x0 DUP2 SWAP1 POP SWAP2 SWAP1 POP JUMP JUMPDEST PUSH1 0x0 PUSH2 0x13F4 DUP3 PUSH2 0x13C3 JUMP JUMPDEST SWAP2 POP PUSH2 0x13FF DUP4 PUSH2 0x13C3 JUMP JUMPDEST SWAP3 POP DUP3 PUSH2 0x140F JUMPI PUSH2 0x140E PUSH2 0x1449 JUMP JUMPDEST JUMPDEST DUP3 DUP3 MOD SWAP1 POP SWAP3 SWAP2 POP POP JUMP JUMPDEST PUSH32 0x4E487B7100000000000000000000000000000000000000000000000000000000 PUSH1 0x0 MSTORE PUSH1 0x11 PUSH1 0x4 MSTORE PUSH1 0x24 PUSH1 0x0 REVERT JUMPDEST PUSH32 0x4E487B7100000000000000000000000000000000000000000000000000000000 PUSH1 0x0 MSTORE PUSH1 0x12 PUSH1 0x4 MSTORE PUSH1 0x24 PUSH1 0x0 REVERT JUMPDEST PUSH32 0x4E487B7100000000000000000000000000000000000000000000000000000000 PUSH1 0x0 MSTORE PUSH1 0x21 PUSH1 0x4 MSTORE PUSH1 0x24 PUSH1 0x0 REVERT JUMPDEST PUSH1 0x0 DUP1 REVERT JUMPDEST PUSH32 0x5468652062757267657220636F7374206D6F7265000000000000000000000000 PUSH1 0x0 DUP3 ADD MSTORE POP JUMP JUMPDEST PUSH32 0x54686973206973206E6F74206F70656E65642079657421000000000000000000 PUSH1 0x0 DUP3 ADD MSTORE POP JUMP JUMPDEST PUSH32 0x4E6F7420456E6F7567682046756E647300000000000000000000000000000000 PUSH1 0x0 DUP3 ADD MSTORE POP JUMP JUMPDEST PUSH32 0x4E6F7420746865206F776E657200000000000000000000000000000000000000 PUSH1 0x0 DUP3 ADD MSTORE POP JUMP JUMPDEST PUSH32 0x54686520726563656976657220646F6E74206861766520656E6F756768206675 PUSH1 0x0 DUP3 ADD MSTORE PUSH32 0x6E64730000000000000000000000000000000000000000000000000000000000 PUSH1 0x20 DUP3 ADD MSTORE POP JUMP JUMPDEST PUSH32 0x596F752061726520747279696E6720746F20726566756E64207765726F6E6720 PUSH1 0x0 DUP3 ADD MSTORE PUSH32 0x616D6F756E740000000000000000000000000000000000000000000000000000 PUSH1 0x20 DUP3 ADD MSTORE POP JUMP JUMPDEST POP JUMP JUMPDEST PUSH32 0x4E6F7420417420436F7272656374205374616765000000000000000000000000 PUSH1 0x0 DUP3 ADD MSTORE POP JUMP JUMPDEST PUSH32 0x54686520727175657374206D75737420626520696E6974696174656420627920 PUSH1 0x0 DUP3 ADD MSTORE PUSH32 0x6D616E61676572206F6E6C790000000000000000000000000000000000000000 PUSH1 0x20 DUP3 ADD MSTORE POP JUMP JUMPDEST PUSH1 0x3 DUP2 LT PUSH2 0x167A JUMPI PUSH2 0x1679 PUSH2 0x1478 JUMP JUMPDEST JUMPDEST POP JUMP JUMPDEST PUSH2 0x1686 DUP2 PUSH2 0x137E JUMP JUMPDEST DUP2 EQ PUSH2 0x1691 JUMPI PUSH1 0x0 DUP1 REVERT JUMPDEST POP JUMP JUMPDEST PUSH1 0x3 DUP2 LT PUSH2 0x16A1 JUMPI PUSH1 0x0 DUP1 REVERT JUMPDEST POP JUMP JUMPDEST PUSH2 0x16AD DUP2 PUSH2 0x13C3 JUMP JUMPDEST DUP2 EQ PUSH2 0x16B8 JUMPI PUSH1 0x0 DUP1 REVERT JUMPDEST POP JUMP INVALID LOG2 PUSH5 0x6970667358 0x22 SLT KECCAK256 0xC3 0xA8 SWAP13 JUMP 0xD5 0xBD DUP13 NOT CALLDATASIZE 0xE5 PUSH16 0x40BB7B33D75EAF4C86457A2D344420FB 0x1E SAR 0x5D DUP4 0xF9 PUSH5 0x736F6C6343 STOP ADDMOD SMOD STOP CALLER "
				},
				"gasEstimates": {
					"creation": {
						"codeDepositCost": "1174600",
						"executionCost": "infinite",
						"totalCost": "infinite"
					},
					"external": {
						"burgerShopStatge()": "2650",
						"buyBurger()": "infinite",
						"buyDeluxBurger()": "infinite",
						"claimRefund()": "infinite",
						"customers(address)": "2882",
						"deluxCost()": "2518",
						"getBalance()": "385",
						"getRandomNum(uint256)": "infinite",
						"madeBurger()": "28887",
						"manager()": "2559",
						"normalCost()": "2517",
						"owner()": "2581",
						"pickupBurger()": "28820",
						"refund(address,uint256)": "33676",
						"startDate()": "2453",
						"updateStage(uint8)": "24695",
						"userRefund(address)": "2881"
					}
				},
				"methodIdentifiers": {
					"burgerShopStatge()": "34011d28",
					"buyBurger()": "fd445100",
					"buyDeluxBurger()": "eb1d1b91",
					"claimRefund()": "b5545a3c",
					"customers(address)": "336989ae",
					"deluxCost()": "925b8148",
					"getBalance()": "12065fe0",
					"getRandomNum(uint256)": "d1f22eef",
					"madeBurger()": "c06a56ba",
					"manager()": "481c6a75",
					"normalCost()": "f203644a",
					"owner()": "8da5cb5b",
					"pickupBurger()": "ce365cdf",
					"refund(address,uint256)": "410085df",
					"startDate()": "0b97bc86",
					"updateStage(uint8)": "b8e53ae7",
					"userRefund(address)": "bd083bae"
				}
			},
			"storageLayout": {
				"storage": [
					{
						"astId": 4,
						"contract": "contracts/AccessControl.sol:BurgerShopAccessControll",
						"label": "normalCost",
						"offset": 0,
						"slot": "0",
						"type": "t_uint256"
					},
					{
						"astId": 7,
						"contract": "contracts/AccessControl.sol:BurgerShopAccessControll",
						"label": "deluxCost",
						"offset": 0,
						"slot": "1",
						"type": "t_uint256"
					},
					{
						"astId": 9,
						"contract": "contracts/AccessControl.sol:BurgerShopAccessControll",
						"label": "manager",
						"offset": 0,
						"slot": "2",
						"type": "t_address"
					},
					{
						"astId": 11,
						"contract": "contracts/AccessControl.sol:BurgerShopAccessControll",
						"label": "owner",
						"offset": 0,
						"slot": "3",
						"type": "t_address"
					},
					{
						"astId": 17,
						"contract": "contracts/AccessControl.sol:BurgerShopAccessControll",
						"label": "startDate",
						"offset": 0,
						"slot": "4",
						"type": "t_uint256"
					},
					{
						"astId": 21,
						"contract": "contracts/AccessControl.sol:BurgerShopAccessControll",
						"label": "customers",
						"offset": 0,
						"slot": "5",
						"type": "t_mapping(t_address,t_uint256)"
					},
					{
						"astId": 25,
						"contract": "contracts/AccessControl.sol:BurgerShopAccessControll",
						"label": "userRefund",
						"offset": 0,
						"slot": "6",
						"type": "t_mapping(t_address,t_uint256)"
					},
					{
						"astId": 54,
						"contract": "contracts/AccessControl.sol:BurgerShopAccessControll",
						"label": "burgerShopStatge",
						"offset": 0,
						"slot": "7",
						"type": "t_enum(Stages)49"
					}
				],
				"types": {
					"t_address": {
						"encoding": "inplace",
						"label": "address",
						"numberOfBytes": "20"
					},
					"t_enum(Stages)49": {
						"encoding": "inplace",
						"label": "enum BurgerShopAccessControll.Stages",
						"numberOfBytes": "1"
					},
					"t_mapping(t_address,t_uint256)": {
						"encoding": "mapping",
						"key": "t_address",
						"label": "mapping(address => uint256)",
						"numberOfBytes": "32",
						"value": "t_uint256"
					},
					"t_uint256": {
						"encoding": "inplace",
						"label": "uint256",
						"numberOfBytes": "32"
					}
				}
			},
			"userdoc": {
				"kind": "user",
				"methods": {},
				"version": 1
			}
		}
	}
}