{
	"contracts/BurgerShop.sol": {
		"BurgerShop": {
			"abi": [
				{
					"inputs": [],
					"stateMutability": "nonpayable",
					"type": "constructor"
				},
				{
					"anonymous": false,
					"inputs": [
						{
							"indexed": true,
							"internalType": "address",
							"name": "_from",
							"type": "address"
						},
						{
							"indexed": false,
							"internalType": "uint256",
							"name": "cost",
							"type": "uint256"
						}
					],
					"name": "BoughtBurger",
					"type": "event"
				},
				{
					"inputs": [],
					"name": "burgerShopStatge",
					"outputs": [
						{
							"internalType": "enum BurgerShop.Stages",
							"name": "",
							"type": "uint8"
						}
					],
					"stateMutability": "view",
					"type": "function"
				},
				{
					"inputs": [
						{
							"internalType": "uint256",
							"name": "_price",
							"type": "uint256"
						}
					],
					"name": "buyBurger",
					"outputs": [],
					"stateMutability": "payable",
					"type": "function"
				},
				{
					"inputs": [],
					"name": "claimRefund",
					"outputs": [],
					"stateMutability": "payable",
					"type": "function"
				},
				{
					"inputs": [
						{
							"internalType": "address",
							"name": "",
							"type": "address"
						}
					],
					"name": "customers",
					"outputs": [
						{
							"internalType": "uint256",
							"name": "",
							"type": "uint256"
						}
					],
					"stateMutability": "view",
					"type": "function"
				},
				{
					"inputs": [],
					"name": "deluxCost",
					"outputs": [
						{
							"internalType": "uint256",
							"name": "",
							"type": "uint256"
						}
					],
					"stateMutability": "view",
					"type": "function"
				},
				{
					"inputs": [],
					"name": "getBalance",
					"outputs": [
						{
							"internalType": "uint256",
							"name": "",
							"type": "uint256"
						}
					],
					"stateMutability": "view",
					"type": "function"
				},
				{
					"inputs": [
						{
							"internalType": "uint256",
							"name": "_seed",
							"type": "uint256"
						}
					],
					"name": "getRandomNum",
					"outputs": [
						{
							"internalType": "uint256",
							"name": "",
							"type": "uint256"
						}
					],
					"stateMutability": "view",
					"type": "function"
				},
				{
					"inputs": [],
					"name": "madeBurger",
					"outputs": [],
					"stateMutability": "nonpayable",
					"type": "function"
				},
				{
					"inputs": [],
					"name": "manager",
					"outputs": [
						{
							"internalType": "address",
							"name": "",
							"type": "address"
						}
					],
					"stateMutability": "view",
					"type": "function"
				},
				{
					"inputs": [],
					"name": "normalCost",
					"outputs": [
						{
							"internalType": "uint256",
							"name": "",
							"type": "uint256"
						}
					],
					"stateMutability": "view",
					"type": "function"
				},
				{
					"inputs": [],
					"name": "owner",
					"outputs": [
						{
							"internalType": "address",
							"name": "",
							"type": "address"
						}
					],
					"stateMutability": "view",
					"type": "function"
				},
				{
					"inputs": [
						{
							"internalType": "bool",
							"name": "_state",
							"type": "bool"
						}
					],
					"name": "pause",
					"outputs": [],
					"stateMutability": "nonpayable",
					"type": "function"
				},
				{
					"inputs": [],
					"name": "paused",
					"outputs": [
						{
							"internalType": "bool",
							"name": "",
							"type": "bool"
						}
					],
					"stateMutability": "view",
					"type": "function"
				},
				{
					"inputs": [],
					"name": "pickupBurger",
					"outputs": [],
					"stateMutability": "nonpayable",
					"type": "function"
				},
				{
					"inputs": [
						{
							"internalType": "address",
							"name": "_to",
							"type": "address"
						},
						{
							"internalType": "uint256",
							"name": "_cost",
							"type": "uint256"
						}
					],
					"name": "refund",
					"outputs": [],
					"stateMutability": "payable",
					"type": "function"
				},
				{
					"inputs": [],
					"name": "startDate",
					"outputs": [
						{
							"internalType": "uint256",
							"name": "",
							"type": "uint256"
						}
					],
					"stateMutability": "view",
					"type": "function"
				},
				{
					"inputs": [
						{
							"internalType": "enum BurgerShop.Stages",
							"name": "_stage",
							"type": "uint8"
						}
					],
					"name": "updateStage",
					"outputs": [],
					"stateMutability": "nonpayable",
					"type": "function"
				},
				{
					"inputs": [
						{
							"internalType": "address",
							"name": "",
							"type": "address"
						}
					],
					"name": "userRefund",
					"outputs": [
						{
							"internalType": "uint256",
							"name": "",
							"type": "uint256"
						}
					],
					"stateMutability": "view",
					"type": "function"
				}
			],
			"devdoc": {
				"kind": "dev",
				"methods": {},
				"version": 1
			},
			"evm": {
				"assembly": "    /* \"contracts/BurgerShop.sol\":74:4282  contract BurgerShop {\r... */\n  mstore(0x40, 0x80)\n    /* \"contracts/BurgerShop.sol\":159:168  0.2 ether */\n  0x02c68af0bb140000\n    /* \"contracts/BurgerShop.sol\":131:168  uint256 public normalCost = 0.2 ether */\n  0x00\n  sstore\n    /* \"contracts/BurgerShop.sol\":202:211  0.4 ether */\n  0x058d15e176280000\n    /* \"contracts/BurgerShop.sol\":175:211  uint256 public deluxCost = 0.4 ether */\n  0x01\n  sstore\n    /* \"contracts/BurgerShop.sol\":319:328  5 seconds */\n  0x05\n    /* \"contracts/BurgerShop.sol\":301:316  block.timestamp */\n  timestamp\n    /* \"contracts/BurgerShop.sol\":301:328  block.timestamp + 5 seconds */\n  tag_1\n  swap2\n  swap1\n  tag_2\n  jump\t// in\ntag_1:\n    /* \"contracts/BurgerShop.sol\":274:328  uint256 public startDate = block.timestamp + 5 seconds */\n  0x04\n  sstore\n    /* \"contracts/BurgerShop.sol\":459:464  false */\n  0x00\n    /* \"contracts/BurgerShop.sol\":438:464  bool public paused = false */\n  0x07\n  exp(0x0100, 0x00)\n  dup2\n  sload\n  dup2\n  0xff\n  mul\n  not\n  and\n  swap1\n  dup4\n  iszero\n  iszero\n  mul\n  or\n  swap1\n  sstore\n  pop\n    /* \"contracts/BurgerShop.sol\":865:884  Stages.readyToOrder */\n  0x00\n    /* \"contracts/BurgerShop.sol\":832:884  Stages public burgerShopStatge = Stages.readyToOrder */\n  0x07\n  exp(0x0100, 0x01)\n  dup2\n  sload\n  dup2\n  0xff\n  mul\n  not\n  and\n  swap1\n  dup4\n  0x02\n  dup2\n  gt\n  iszero\n  tag_3\n  jumpi\n  tag_4\n  tag_5\n  jump\t// in\ntag_4:\ntag_3:\n  mul\n  or\n  swap1\n  sstore\n  pop\n    /* \"contracts/BurgerShop.sol\":473:555  constructor() {\r... */\n  callvalue\n  dup1\n  iszero\n  tag_6\n  jumpi\n  0x00\n  dup1\n  revert\ntag_6:\n  pop\n    /* \"contracts/BurgerShop.sol\":506:516  msg.sender */\n  caller\n    /* \"contracts/BurgerShop.sol\":498:503  owner */\n  0x03\n  0x00\n    /* \"contracts/BurgerShop.sol\":498:516  owner = msg.sender */\n  0x0100\n  exp\n  dup2\n  sload\n  dup2\n  0xffffffffffffffffffffffffffffffffffffffff\n  mul\n  not\n  and\n  swap1\n  dup4\n  0xffffffffffffffffffffffffffffffffffffffff\n  and\n  mul\n  or\n  swap1\n  sstore\n  pop\n    /* \"contracts/BurgerShop.sol\":537:547  msg.sender */\n  caller\n    /* \"contracts/BurgerShop.sol\":527:534  manager */\n  0x02\n  0x00\n    /* \"contracts/BurgerShop.sol\":527:547  manager = msg.sender */\n  0x0100\n  exp\n  dup2\n  sload\n  dup2\n  0xffffffffffffffffffffffffffffffffffffffff\n  mul\n  not\n  and\n  swap1\n  dup4\n  0xffffffffffffffffffffffffffffffffffffffff\n  and\n  mul\n  or\n  swap1\n  sstore\n  pop\n    /* \"contracts/BurgerShop.sol\":74:4282  contract BurgerShop {\r... */\n  jump(tag_9)\n    /* \"#utility.yul\":7:312   */\ntag_2:\n    /* \"#utility.yul\":47:50   */\n  0x00\n    /* \"#utility.yul\":66:86   */\n  tag_12\n    /* \"#utility.yul\":84:85   */\n  dup3\n    /* \"#utility.yul\":66:86   */\n  tag_13\n  jump\t// in\ntag_12:\n    /* \"#utility.yul\":61:86   */\n  swap2\n  pop\n    /* \"#utility.yul\":100:120   */\n  tag_14\n    /* \"#utility.yul\":118:119   */\n  dup4\n    /* \"#utility.yul\":100:120   */\n  tag_13\n  jump\t// in\ntag_14:\n    /* \"#utility.yul\":95:120   */\n  swap3\n  pop\n    /* \"#utility.yul\":254:255   */\n  dup3\n    /* \"#utility.yul\":186:252   */\n  0xffffffffffffffffffffffffffffffffffffffffffffffffffffffffffffffff\n    /* \"#utility.yul\":182:256   */\n  sub\n    /* \"#utility.yul\":179:180   */\n  dup3\n    /* \"#utility.yul\":176:257   */\n  gt\n    /* \"#utility.yul\":173:280   */\n  iszero\n  tag_15\n  jumpi\n    /* \"#utility.yul\":260:278   */\n  tag_16\n  tag_17\n  jump\t// in\ntag_16:\n    /* \"#utility.yul\":173:280   */\ntag_15:\n    /* \"#utility.yul\":304:305   */\n  dup3\n    /* \"#utility.yul\":301:302   */\n  dup3\n    /* \"#utility.yul\":297:306   */\n  add\n    /* \"#utility.yul\":290:306   */\n  swap1\n  pop\n    /* \"#utility.yul\":7:312   */\n  swap3\n  swap2\n  pop\n  pop\n  jump\t// out\n    /* \"#utility.yul\":318:395   */\ntag_13:\n    /* \"#utility.yul\":355:362   */\n  0x00\n    /* \"#utility.yul\":384:389   */\n  dup2\n    /* \"#utility.yul\":373:389   */\n  swap1\n  pop\n    /* \"#utility.yul\":318:395   */\n  swap2\n  swap1\n  pop\n  jump\t// out\n    /* \"#utility.yul\":401:581   */\ntag_17:\n    /* \"#utility.yul\":449:526   */\n  0x4e487b7100000000000000000000000000000000000000000000000000000000\n    /* \"#utility.yul\":446:447   */\n  0x00\n    /* \"#utility.yul\":439:527   */\n  mstore\n    /* \"#utility.yul\":546:550   */\n  0x11\n    /* \"#utility.yul\":543:544   */\n  0x04\n    /* \"#utility.yul\":536:551   */\n  mstore\n    /* \"#utility.yul\":570:574   */\n  0x24\n    /* \"#utility.yul\":567:568   */\n  0x00\n    /* \"#utility.yul\":560:575   */\n  revert\n    /* \"#utility.yul\":587:767   */\ntag_5:\n    /* \"#utility.yul\":635:712   */\n  0x4e487b7100000000000000000000000000000000000000000000000000000000\n    /* \"#utility.yul\":632:633   */\n  0x00\n    /* \"#utility.yul\":625:713   */\n  mstore\n    /* \"#utility.yul\":732:736   */\n  0x21\n    /* \"#utility.yul\":729:730   */\n  0x04\n    /* \"#utility.yul\":722:737   */\n  mstore\n    /* \"#utility.yul\":756:760   */\n  0x24\n    /* \"#utility.yul\":753:754   */\n  0x00\n    /* \"#utility.yul\":746:761   */\n  revert\n    /* \"contracts/BurgerShop.sol\":74:4282  contract BurgerShop {\r... */\ntag_9:\n  dataSize(sub_0)\n  dup1\n  dataOffset(sub_0)\n  0x00\n  codecopy\n  0x00\n  return\nstop\n\nsub_0: assembly {\n        /* \"contracts/BurgerShop.sol\":74:4282  contract BurgerShop {\r... */\n      mstore(0x40, 0x80)\n      jumpi(tag_1, lt(calldatasize, 0x04))\n      shr(0xe0, calldataload(0x00))\n      dup1\n      0x8da5cb5b\n      gt\n      tag_20\n      jumpi\n      dup1\n      0xbd083bae\n      gt\n      tag_21\n      jumpi\n      dup1\n      0xbd083bae\n      eq\n      tag_15\n      jumpi\n      dup1\n      0xc06a56ba\n      eq\n      tag_16\n      jumpi\n      dup1\n      0xce365cdf\n      eq\n      tag_17\n      jumpi\n      dup1\n      0xd1f22eef\n      eq\n      tag_18\n      jumpi\n      dup1\n      0xf203644a\n      eq\n      tag_19\n      jumpi\n      jump(tag_1)\n    tag_21:\n      dup1\n      0x8da5cb5b\n      eq\n      tag_11\n      jumpi\n      dup1\n      0x925b8148\n      eq\n      tag_12\n      jumpi\n      dup1\n      0xb5545a3c\n      eq\n      tag_13\n      jumpi\n      dup1\n      0xb8e53ae7\n      eq\n      tag_14\n      jumpi\n      jump(tag_1)\n    tag_20:\n      dup1\n      0x34011d28\n      gt\n      tag_22\n      jumpi\n      dup1\n      0x34011d28\n      eq\n      tag_6\n      jumpi\n      dup1\n      0x410085df\n      eq\n      tag_7\n      jumpi\n      dup1\n      0x481c6a75\n      eq\n      tag_8\n      jumpi\n      dup1\n      0x59588d52\n      eq\n      tag_9\n      jumpi\n      dup1\n      0x5c975abb\n      eq\n      tag_10\n      jumpi\n      jump(tag_1)\n    tag_22:\n      dup1\n      0x02329a29\n      eq\n      tag_2\n      jumpi\n      dup1\n      0x0b97bc86\n      eq\n      tag_3\n      jumpi\n      dup1\n      0x12065fe0\n      eq\n      tag_4\n      jumpi\n      dup1\n      0x336989ae\n      eq\n      tag_5\n      jumpi\n    tag_1:\n      0x00\n      dup1\n      revert\n        /* \"contracts/BurgerShop.sol\":4198:4277  function pause(bool _state) public onlyOwner {\r... */\n    tag_2:\n      callvalue\n      dup1\n      iszero\n      tag_23\n      jumpi\n      0x00\n      dup1\n      revert\n    tag_23:\n      pop\n      tag_24\n      0x04\n      dup1\n      calldatasize\n      sub\n      dup2\n      add\n      swap1\n      tag_25\n      swap2\n      swap1\n      tag_26\n      jump\t// in\n    tag_25:\n      tag_27\n      jump\t// in\n    tag_24:\n      stop\n        /* \"contracts/BurgerShop.sol\":274:328  uint256 public startDate = block.timestamp + 5 seconds */\n    tag_3:\n      callvalue\n      dup1\n      iszero\n      tag_28\n      jumpi\n      0x00\n      dup1\n      revert\n    tag_28:\n      pop\n      tag_29\n      tag_30\n      jump\t// in\n    tag_29:\n      mload(0x40)\n      tag_31\n      swap2\n      swap1\n      tag_32\n      jump\t// in\n    tag_31:\n      mload(0x40)\n      dup1\n      swap2\n      sub\n      swap1\n      return\n        /* \"contracts/BurgerShop.sol\":3523:3621  function getBalance() public view returns(uint256) {\r... */\n    tag_4:\n      callvalue\n      dup1\n      iszero\n      tag_33\n      jumpi\n      0x00\n      dup1\n      revert\n    tag_33:\n      pop\n      tag_34\n      tag_35\n      jump\t// in\n    tag_34:\n      mload(0x40)\n      tag_36\n      swap2\n      swap1\n      tag_32\n      jump\t// in\n    tag_36:\n      mload(0x40)\n      dup1\n      swap2\n      sub\n      swap1\n      return\n        /* \"contracts/BurgerShop.sol\":335:379  mapping(address => uint256) public customers */\n    tag_5:\n      callvalue\n      dup1\n      iszero\n      tag_37\n      jumpi\n      0x00\n      dup1\n      revert\n    tag_37:\n      pop\n      tag_38\n      0x04\n      dup1\n      calldatasize\n      sub\n      dup2\n      add\n      swap1\n      tag_39\n      swap2\n      swap1\n      tag_40\n      jump\t// in\n    tag_39:\n      tag_41\n      jump\t// in\n    tag_38:\n      mload(0x40)\n      tag_42\n      swap2\n      swap1\n      tag_32\n      jump\t// in\n    tag_42:\n      mload(0x40)\n      dup1\n      swap2\n      sub\n      swap1\n      return\n        /* \"contracts/BurgerShop.sol\":832:884  Stages public burgerShopStatge = Stages.readyToOrder */\n    tag_6:\n      callvalue\n      dup1\n      iszero\n      tag_43\n      jumpi\n      0x00\n      dup1\n      revert\n    tag_43:\n      pop\n      tag_44\n      tag_45\n      jump\t// in\n    tag_44:\n      mload(0x40)\n      tag_46\n      swap2\n      swap1\n      tag_47\n      jump\t// in\n    tag_46:\n      mload(0x40)\n      dup1\n      swap2\n      sub\n      swap1\n      return\n        /* \"contracts/BurgerShop.sol\":2531:3239  function refund(address _to, uint256 _cost) payable public refundAmount(_to, _cost) onlyOwner{\r... */\n    tag_7:\n      tag_48\n      0x04\n      dup1\n      calldatasize\n      sub\n      dup2\n      add\n      swap1\n      tag_49\n      swap2\n      swap1\n      tag_50\n      jump\t// in\n    tag_49:\n      tag_51\n      jump\t// in\n    tag_48:\n      stop\n        /* \"contracts/BurgerShop.sol\":218:240  address public manager */\n    tag_8:\n      callvalue\n      dup1\n      iszero\n      tag_52\n      jumpi\n      0x00\n      dup1\n      revert\n    tag_52:\n      pop\n      tag_53\n      tag_54\n      jump\t// in\n    tag_53:\n      mload(0x40)\n      tag_55\n      swap2\n      swap1\n      tag_56\n      jump\t// in\n    tag_55:\n      mload(0x40)\n      dup1\n      swap2\n      sub\n      swap1\n      return\n        /* \"contracts/BurgerShop.sol\":2043:2523  function buyBurger(uint256 _price) payable public correctAmount() isAtStage(Stages.readyToOrder) shopOpened notPaused{\r... */\n    tag_9:\n      tag_57\n      0x04\n      dup1\n      calldatasize\n      sub\n      dup2\n      add\n      swap1\n      tag_58\n      swap2\n      swap1\n      tag_59\n      jump\t// in\n    tag_58:\n      tag_60\n      jump\t// in\n    tag_57:\n      stop\n        /* \"contracts/BurgerShop.sol\":438:464  bool public paused = false */\n    tag_10:\n      callvalue\n      dup1\n      iszero\n      tag_61\n      jumpi\n      0x00\n      dup1\n      revert\n    tag_61:\n      pop\n      tag_62\n      tag_63\n      jump\t// in\n    tag_62:\n      mload(0x40)\n      tag_64\n      swap2\n      swap1\n      tag_65\n      jump\t// in\n    tag_64:\n      mload(0x40)\n      dup1\n      swap2\n      sub\n      swap1\n      return\n        /* \"contracts/BurgerShop.sol\":247:267  address public owner */\n    tag_11:\n      callvalue\n      dup1\n      iszero\n      tag_66\n      jumpi\n      0x00\n      dup1\n      revert\n    tag_66:\n      pop\n      tag_67\n      tag_68\n      jump\t// in\n    tag_67:\n      mload(0x40)\n      tag_69\n      swap2\n      swap1\n      tag_56\n      jump\t// in\n    tag_69:\n      mload(0x40)\n      dup1\n      swap2\n      sub\n      swap1\n      return\n        /* \"contracts/BurgerShop.sol\":175:211  uint256 public deluxCost = 0.4 ether */\n    tag_12:\n      callvalue\n      dup1\n      iszero\n      tag_70\n      jumpi\n      0x00\n      dup1\n      revert\n    tag_70:\n      pop\n      tag_71\n      tag_72\n      jump\t// in\n    tag_71:\n      mload(0x40)\n      tag_73\n      swap2\n      swap1\n      tag_32\n      jump\t// in\n    tag_73:\n      mload(0x40)\n      dup1\n      swap2\n      sub\n      swap1\n      return\n        /* \"contracts/BurgerShop.sol\":3247:3515  function claimRefund() payable public {\r... */\n    tag_13:\n      tag_74\n      tag_75\n      jump\t// in\n    tag_74:\n      stop\n        /* \"contracts/BurgerShop.sol\":3893:3980  function updateStage(Stages _stage) public {\r... */\n    tag_14:\n      callvalue\n      dup1\n      iszero\n      tag_76\n      jumpi\n      0x00\n      dup1\n      revert\n    tag_76:\n      pop\n      tag_77\n      0x04\n      dup1\n      calldatasize\n      sub\n      dup2\n      add\n      swap1\n      tag_78\n      swap2\n      swap1\n      tag_79\n      jump\t// in\n    tag_78:\n      tag_80\n      jump\t// in\n    tag_77:\n      stop\n        /* \"contracts/BurgerShop.sol\":386:431  mapping(address => uint256) public userRefund */\n    tag_15:\n      callvalue\n      dup1\n      iszero\n      tag_81\n      jumpi\n      0x00\n      dup1\n      revert\n    tag_81:\n      pop\n      tag_82\n      0x04\n      dup1\n      calldatasize\n      sub\n      dup2\n      add\n      swap1\n      tag_83\n      swap2\n      swap1\n      tag_40\n      jump\t// in\n    tag_83:\n      tag_84\n      jump\t// in\n    tag_82:\n      mload(0x40)\n      tag_85\n      swap2\n      swap1\n      tag_32\n      jump\t// in\n    tag_85:\n      mload(0x40)\n      dup1\n      swap2\n      sub\n      swap1\n      return\n        /* \"contracts/BurgerShop.sol\":3629:3749  function madeBurger() public isAtStage(Stages.makeBurger) shopOpened{\r... */\n    tag_16:\n      callvalue\n      dup1\n      iszero\n      tag_86\n      jumpi\n      0x00\n      dup1\n      revert\n    tag_86:\n      pop\n      tag_87\n      tag_88\n      jump\t// in\n    tag_87:\n      stop\n        /* \"contracts/BurgerShop.sol\":3757:3885  function pickupBurger() public isAtStage(Stages.deliverBurger) shopOpened{\r... */\n    tag_17:\n      callvalue\n      dup1\n      iszero\n      tag_89\n      jumpi\n      0x00\n      dup1\n      revert\n    tag_89:\n      pop\n      tag_90\n      tag_91\n      jump\t// in\n    tag_90:\n      stop\n        /* \"contracts/BurgerShop.sol\":3988:4184  function getRandomNum(uint256 _seed) public view returns(uint256) {\r... */\n    tag_18:\n      callvalue\n      dup1\n      iszero\n      tag_92\n      jumpi\n      0x00\n      dup1\n      revert\n    tag_92:\n      pop\n      tag_93\n      0x04\n      dup1\n      calldatasize\n      sub\n      dup2\n      add\n      swap1\n      tag_94\n      swap2\n      swap1\n      tag_59\n      jump\t// in\n    tag_94:\n      tag_95\n      jump\t// in\n    tag_93:\n      mload(0x40)\n      tag_96\n      swap2\n      swap1\n      tag_32\n      jump\t// in\n    tag_96:\n      mload(0x40)\n      dup1\n      swap2\n      sub\n      swap1\n      return\n        /* \"contracts/BurgerShop.sol\":131:168  uint256 public normalCost = 0.2 ether */\n    tag_19:\n      callvalue\n      dup1\n      iszero\n      tag_97\n      jumpi\n      0x00\n      dup1\n      revert\n    tag_97:\n      pop\n      tag_98\n      tag_99\n      jump\t// in\n    tag_98:\n      mload(0x40)\n      tag_100\n      swap2\n      swap1\n      tag_32\n      jump\t// in\n    tag_100:\n      mload(0x40)\n      dup1\n      swap2\n      sub\n      swap1\n      return\n        /* \"contracts/BurgerShop.sol\":4198:4277  function pause(bool _state) public onlyOwner {\r... */\n    tag_27:\n        /* \"contracts/BurgerShop.sol\":948:953  owner */\n      0x03\n      0x00\n      swap1\n      sload\n      swap1\n      0x0100\n      exp\n      swap1\n      div\n      0xffffffffffffffffffffffffffffffffffffffff\n      and\n        /* \"contracts/BurgerShop.sol\":934:953  msg.sender == owner */\n      0xffffffffffffffffffffffffffffffffffffffff\n      and\n        /* \"contracts/BurgerShop.sol\":934:944  msg.sender */\n      caller\n        /* \"contracts/BurgerShop.sol\":934:953  msg.sender == owner */\n      0xffffffffffffffffffffffffffffffffffffffff\n      and\n      eq\n        /* \"contracts/BurgerShop.sol\":925:971  require( msg.sender == owner, \"Not the owner\") */\n      tag_102\n      jumpi\n      mload(0x40)\n      0x08c379a000000000000000000000000000000000000000000000000000000000\n      dup2\n      mstore\n      0x04\n      add\n      tag_103\n      swap1\n      tag_104\n      jump\t// in\n    tag_103:\n      mload(0x40)\n      dup1\n      swap2\n      sub\n      swap1\n      revert\n    tag_102:\n        /* \"contracts/BurgerShop.sol\":4263:4269  _state */\n      dup1\n        /* \"contracts/BurgerShop.sol\":4254:4260  paused */\n      0x07\n      0x00\n        /* \"contracts/BurgerShop.sol\":4254:4269  paused = _state */\n      0x0100\n      exp\n      dup2\n      sload\n      dup2\n      0xff\n      mul\n      not\n      and\n      swap1\n      dup4\n      iszero\n      iszero\n      mul\n      or\n      swap1\n      sstore\n      pop\n        /* \"contracts/BurgerShop.sol\":4198:4277  function pause(bool _state) public onlyOwner {\r... */\n      pop\n      jump\t// out\n        /* \"contracts/BurgerShop.sol\":274:328  uint256 public startDate = block.timestamp + 5 seconds */\n    tag_30:\n      sload(0x04)\n      dup2\n      jump\t// out\n        /* \"contracts/BurgerShop.sol\":3523:3621  function getBalance() public view returns(uint256) {\r... */\n    tag_35:\n        /* \"contracts/BurgerShop.sol\":3565:3572  uint256 */\n      0x00\n        /* \"contracts/BurgerShop.sol\":3592:3613  address(this).balance */\n      selfbalance\n        /* \"contracts/BurgerShop.sol\":3585:3613  return address(this).balance */\n      swap1\n      pop\n        /* \"contracts/BurgerShop.sol\":3523:3621  function getBalance() public view returns(uint256) {\r... */\n      swap1\n      jump\t// out\n        /* \"contracts/BurgerShop.sol\":335:379  mapping(address => uint256) public customers */\n    tag_41:\n      mstore(0x20, 0x05)\n      dup1\n      0x00\n      mstore\n      keccak256(0x00, 0x40)\n      0x00\n      swap2\n      pop\n      swap1\n      pop\n      sload\n      dup2\n      jump\t// out\n        /* \"contracts/BurgerShop.sol\":832:884  Stages public burgerShopStatge = Stages.readyToOrder */\n    tag_45:\n      0x07\n      0x01\n      swap1\n      sload\n      swap1\n      0x0100\n      exp\n      swap1\n      div\n      0xff\n      and\n      dup2\n      jump\t// out\n        /* \"contracts/BurgerShop.sol\":2531:3239  function refund(address _to, uint256 _cost) payable public refundAmount(_to, _cost) onlyOwner{\r... */\n    tag_51:\n        /* \"contracts/BurgerShop.sol\":2603:2606  _to */\n      dup2\n        /* \"contracts/BurgerShop.sol\":2608:2613  _cost */\n      dup2\n        /* \"contracts/BurgerShop.sol\":1661:1668  manager */\n      0x02\n      0x00\n      swap1\n      sload\n      swap1\n      0x0100\n      exp\n      swap1\n      div\n      0xffffffffffffffffffffffffffffffffffffffff\n      and\n        /* \"contracts/BurgerShop.sol\":1647:1668  msg.sender == manager */\n      0xffffffffffffffffffffffffffffffffffffffff\n      and\n        /* \"contracts/BurgerShop.sol\":1647:1657  msg.sender */\n      caller\n        /* \"contracts/BurgerShop.sol\":1647:1668  msg.sender == manager */\n      0xffffffffffffffffffffffffffffffffffffffff\n      and\n      eq\n        /* \"contracts/BurgerShop.sol\":1639:1717  require(msg.sender == manager, \"The rquest must be initiated by manager only\") */\n      tag_108\n      jumpi\n      mload(0x40)\n      0x08c379a000000000000000000000000000000000000000000000000000000000\n      dup2\n      mstore\n      0x04\n      add\n      tag_109\n      swap1\n      tag_110\n      jump\t// in\n    tag_109:\n      mload(0x40)\n      dup1\n      swap2\n      sub\n      swap1\n      revert\n    tag_108:\n        /* \"contracts/BurgerShop.sol\":1785:1795  normalCost */\n      sload(0x00)\n        /* \"contracts/BurgerShop.sol\":1776:1781  _cost */\n      dup2\n        /* \"contracts/BurgerShop.sol\":1776:1795  _cost == normalCost */\n      eq\n        /* \"contracts/BurgerShop.sol\":1776:1817  _cost == normalCost || _cost == deluxCost */\n      dup1\n      tag_111\n      jumpi\n      pop\n        /* \"contracts/BurgerShop.sol\":1808:1817  deluxCost */\n      sload(0x01)\n        /* \"contracts/BurgerShop.sol\":1799:1804  _cost */\n      dup2\n        /* \"contracts/BurgerShop.sol\":1799:1817  _cost == deluxCost */\n      eq\n        /* \"contracts/BurgerShop.sol\":1776:1817  _cost == normalCost || _cost == deluxCost */\n    tag_111:\n        /* \"contracts/BurgerShop.sol\":1768:1860  require(_cost == normalCost || _cost == deluxCost, \"You are trying to refund werong amount\") */\n      tag_112\n      jumpi\n      mload(0x40)\n      0x08c379a000000000000000000000000000000000000000000000000000000000\n      dup2\n      mstore\n      0x04\n      add\n      tag_113\n      swap1\n      tag_114\n      jump\t// in\n    tag_113:\n      mload(0x40)\n      dup1\n      swap2\n      sub\n      swap1\n      revert\n    tag_112:\n        /* \"contracts/BurgerShop.sol\":1968:1973  _cost */\n      dup1\n        /* \"contracts/BurgerShop.sol\":1950:1959  customers */\n      0x05\n        /* \"contracts/BurgerShop.sol\":1950:1964  customers[_to] */\n      0x00\n        /* \"contracts/BurgerShop.sol\":1960:1963  _to */\n      dup5\n        /* \"contracts/BurgerShop.sol\":1950:1964  customers[_to] */\n      0xffffffffffffffffffffffffffffffffffffffff\n      and\n      0xffffffffffffffffffffffffffffffffffffffff\n      and\n      dup2\n      mstore\n      0x20\n      add\n      swap1\n      dup2\n      mstore\n      0x20\n      add\n      0x00\n      keccak256\n      sload\n        /* \"contracts/BurgerShop.sol\":1950:1973  customers[_to] >= _cost */\n      lt\n      iszero\n        /* \"contracts/BurgerShop.sol\":1942:2013  require(customers[_to] >= _cost, \"The receiver dont have enough funds\") */\n      tag_115\n      jumpi\n      mload(0x40)\n      0x08c379a000000000000000000000000000000000000000000000000000000000\n      dup2\n      mstore\n      0x04\n      add\n      tag_116\n      swap1\n      tag_117\n      jump\t// in\n    tag_116:\n      mload(0x40)\n      dup1\n      swap2\n      sub\n      swap1\n      revert\n    tag_115:\n        /* \"contracts/BurgerShop.sol\":948:953  owner */\n      0x03\n      0x00\n      swap1\n      sload\n      swap1\n      0x0100\n      exp\n      swap1\n      div\n      0xffffffffffffffffffffffffffffffffffffffff\n      and\n        /* \"contracts/BurgerShop.sol\":934:953  msg.sender == owner */\n      0xffffffffffffffffffffffffffffffffffffffff\n      and\n        /* \"contracts/BurgerShop.sol\":934:944  msg.sender */\n      caller\n        /* \"contracts/BurgerShop.sol\":934:953  msg.sender == owner */\n      0xffffffffffffffffffffffffffffffffffffffff\n      and\n      eq\n        /* \"contracts/BurgerShop.sol\":925:971  require( msg.sender == owner, \"Not the owner\") */\n      tag_119\n      jumpi\n      mload(0x40)\n      0x08c379a000000000000000000000000000000000000000000000000000000000\n      dup2\n      mstore\n      0x04\n      add\n      tag_120\n      swap1\n      tag_104\n      jump\t// in\n    tag_120:\n      mload(0x40)\n      dup1\n      swap2\n      sub\n      swap1\n      revert\n    tag_119:\n        /* \"contracts/BurgerShop.sol\":2668:2673  _cost */\n      dup3\n        /* \"contracts/BurgerShop.sol\":2643:2664  address(this).balance */\n      selfbalance\n        /* \"contracts/BurgerShop.sol\":2643:2673  address(this).balance >= _cost */\n      lt\n      iszero\n        /* \"contracts/BurgerShop.sol\":2635:2694  require(address(this).balance >= _cost, \"Not Enough Funds\") */\n      tag_122\n      jumpi\n      mload(0x40)\n      0x08c379a000000000000000000000000000000000000000000000000000000000\n      dup2\n      mstore\n      0x04\n      add\n      tag_123\n      swap1\n      tag_124\n      jump\t// in\n    tag_123:\n      mload(0x40)\n      dup1\n      swap2\n      sub\n      swap1\n      revert\n    tag_122:\n        /* \"contracts/BurgerShop.sol\":2723:2728  _cost */\n      dup3\n        /* \"contracts/BurgerShop.sol\":2705:2715  userRefund */\n      0x06\n        /* \"contracts/BurgerShop.sol\":2705:2720  userRefund[_to] */\n      0x00\n        /* \"contracts/BurgerShop.sol\":2716:2719  _to */\n      dup7\n        /* \"contracts/BurgerShop.sol\":2705:2720  userRefund[_to] */\n      0xffffffffffffffffffffffffffffffffffffffff\n      and\n      0xffffffffffffffffffffffffffffffffffffffff\n      and\n      dup2\n      mstore\n      0x20\n      add\n      swap1\n      dup2\n      mstore\n      0x20\n      add\n      0x00\n      keccak256\n        /* \"contracts/BurgerShop.sol\":2705:2728  userRefund[_to] = _cost */\n      dup2\n      swap1\n      sstore\n      pop\n        /* \"contracts/BurgerShop.sol\":2531:3239  function refund(address _to, uint256 _cost) payable public refundAmount(_to, _cost) onlyOwner{\r... */\n      pop\n      pop\n      pop\n      pop\n      jump\t// out\n        /* \"contracts/BurgerShop.sol\":218:240  address public manager */\n    tag_54:\n      0x02\n      0x00\n      swap1\n      sload\n      swap1\n      0x0100\n      exp\n      swap1\n      div\n      0xffffffffffffffffffffffffffffffffffffffff\n      and\n      dup2\n      jump\t// out\n        /* \"contracts/BurgerShop.sol\":2043:2523  function buyBurger(uint256 _price) payable public correctAmount() isAtStage(Stages.readyToOrder) shopOpened notPaused{\r... */\n    tag_60:\n        /* \"contracts/BurgerShop.sol\":1181:1191  normalCost */\n      sload(0x00)\n        /* \"contracts/BurgerShop.sol\":1168:1177  msg.value */\n      callvalue\n        /* \"contracts/BurgerShop.sol\":1168:1191  msg.value == normalCost */\n      eq\n        /* \"contracts/BurgerShop.sol\":1168:1218  msg.value == normalCost  || msg.value == deluxCost */\n      dup1\n      tag_126\n      jumpi\n      pop\n        /* \"contracts/BurgerShop.sol\":1209:1218  deluxCost */\n      sload(0x01)\n        /* \"contracts/BurgerShop.sol\":1196:1205  msg.value */\n      callvalue\n        /* \"contracts/BurgerShop.sol\":1196:1218  msg.value == deluxCost */\n      eq\n        /* \"contracts/BurgerShop.sol\":1168:1218  msg.value == normalCost  || msg.value == deluxCost */\n    tag_126:\n        /* \"contracts/BurgerShop.sol\":1160:1246  require(msg.value == normalCost  || msg.value == deluxCost, \"Not the correct amount\" ) */\n      tag_127\n      jumpi\n      mload(0x40)\n      0x08c379a000000000000000000000000000000000000000000000000000000000\n      dup2\n      mstore\n      0x04\n      add\n      tag_128\n      swap1\n      tag_129\n      jump\t// in\n    tag_128:\n      mload(0x40)\n      dup1\n      swap2\n      sub\n      swap1\n      revert\n    tag_127:\n        /* \"contracts/BurgerShop.sol\":2119:2138  Stages.readyToOrder */\n      0x00\n        /* \"contracts/BurgerShop.sol\":1348:1354  _stage */\n      dup1\n        /* \"contracts/BurgerShop.sol\":1328:1354  burgerShopStatge == _stage */\n      0x02\n      dup2\n      gt\n      iszero\n      tag_131\n      jumpi\n      tag_132\n      tag_133\n      jump\t// in\n    tag_132:\n    tag_131:\n        /* \"contracts/BurgerShop.sol\":1328:1344  burgerShopStatge */\n      0x07\n      0x01\n      swap1\n      sload\n      swap1\n      0x0100\n      exp\n      swap1\n      div\n      0xff\n      and\n        /* \"contracts/BurgerShop.sol\":1328:1354  burgerShopStatge == _stage */\n      0x02\n      dup2\n      gt\n      iszero\n      tag_134\n      jumpi\n      tag_135\n      tag_133\n      jump\t// in\n    tag_135:\n    tag_134:\n      eq\n        /* \"contracts/BurgerShop.sol\":1319:1379  require( burgerShopStatge == _stage, \"Not At Correct Stage\") */\n      tag_136\n      jumpi\n      mload(0x40)\n      0x08c379a000000000000000000000000000000000000000000000000000000000\n      dup2\n      mstore\n      0x04\n      add\n      tag_137\n      swap1\n      tag_138\n      jump\t// in\n    tag_137:\n      mload(0x40)\n      dup1\n      swap2\n      sub\n      swap1\n      revert\n    tag_136:\n        /* \"contracts/BurgerShop.sol\":1059:1068  startDate */\n      sload(0x04)\n        /* \"contracts/BurgerShop.sol\":1041:1056  block.timestamp */\n      timestamp\n        /* \"contracts/BurgerShop.sol\":1041:1068  block.timestamp > startDate */\n      gt\n        /* \"contracts/BurgerShop.sol\":1032:1096  require( block.timestamp > startDate, \"This is not opened yet!\") */\n      tag_140\n      jumpi\n      mload(0x40)\n      0x08c379a000000000000000000000000000000000000000000000000000000000\n      dup2\n      mstore\n      0x04\n      add\n      tag_141\n      swap1\n      tag_142\n      jump\t// in\n    tag_141:\n      mload(0x40)\n      dup1\n      swap2\n      sub\n      swap1\n      revert\n    tag_140:\n        /* \"contracts/BurgerShop.sol\":1458:1463  false */\n      0x00\n        /* \"contracts/BurgerShop.sol\":1448:1463  paused == false */\n      iszero\n      iszero\n        /* \"contracts/BurgerShop.sol\":1448:1454  paused */\n      0x07\n      0x00\n      swap1\n      sload\n      swap1\n      0x0100\n      exp\n      swap1\n      div\n      0xff\n      and\n        /* \"contracts/BurgerShop.sol\":1448:1463  paused == false */\n      iszero\n      iszero\n      eq\n        /* \"contracts/BurgerShop.sol\":1439:1493  require( paused == false, \"Contract is in pause mode\") */\n      tag_144\n      jumpi\n      mload(0x40)\n      0x08c379a000000000000000000000000000000000000000000000000000000000\n      dup2\n      mstore\n      0x04\n      add\n      tag_145\n      swap1\n      tag_146\n      jump\t// in\n    tag_145:\n      mload(0x40)\n      dup1\n      swap2\n      sub\n      swap1\n      revert\n    tag_144:\n        /* \"contracts/BurgerShop.sol\":2264:2265  0 */\n      0x00\n        /* \"contracts/BurgerShop.sol\":2239:2248  customers */\n      0x05\n        /* \"contracts/BurgerShop.sol\":2239:2260  customers[msg.sender] */\n      0x00\n        /* \"contracts/BurgerShop.sol\":2249:2259  msg.sender */\n      caller\n        /* \"contracts/BurgerShop.sol\":2239:2260  customers[msg.sender] */\n      0xffffffffffffffffffffffffffffffffffffffff\n      and\n      0xffffffffffffffffffffffffffffffffffffffff\n      and\n      dup2\n      mstore\n      0x20\n      add\n      swap1\n      dup2\n      mstore\n      0x20\n      add\n      0x00\n      keccak256\n      sload\n        /* \"contracts/BurgerShop.sol\":2239:2265  customers[msg.sender] != 0 */\n      eq\n        /* \"contracts/BurgerShop.sol\":2236:2427  if(customers[msg.sender] != 0){\r... */\n      tag_148\n      jumpi\n        /* \"contracts/BurgerShop.sol\":2329:2338  msg.value */\n      callvalue\n        /* \"contracts/BurgerShop.sol\":2305:2314  customers */\n      0x05\n        /* \"contracts/BurgerShop.sol\":2305:2326  customers[msg.sender] */\n      0x00\n        /* \"contracts/BurgerShop.sol\":2315:2325  msg.sender */\n      caller\n        /* \"contracts/BurgerShop.sol\":2305:2326  customers[msg.sender] */\n      0xffffffffffffffffffffffffffffffffffffffff\n      and\n      0xffffffffffffffffffffffffffffffffffffffff\n      and\n      dup2\n      mstore\n      0x20\n      add\n      swap1\n      dup2\n      mstore\n      0x20\n      add\n      0x00\n      keccak256\n      sload\n        /* \"contracts/BurgerShop.sol\":2305:2338  customers[msg.sender] + msg.value */\n      tag_149\n      swap2\n      swap1\n      tag_150\n      jump\t// in\n    tag_149:\n        /* \"contracts/BurgerShop.sol\":2281:2290  customers */\n      0x05\n        /* \"contracts/BurgerShop.sol\":2281:2302  customers[msg.sender] */\n      0x00\n        /* \"contracts/BurgerShop.sol\":2291:2301  msg.sender */\n      caller\n        /* \"contracts/BurgerShop.sol\":2281:2302  customers[msg.sender] */\n      0xffffffffffffffffffffffffffffffffffffffff\n      and\n      0xffffffffffffffffffffffffffffffffffffffff\n      and\n      dup2\n      mstore\n      0x20\n      add\n      swap1\n      dup2\n      mstore\n      0x20\n      add\n      0x00\n      keccak256\n        /* \"contracts/BurgerShop.sol\":2281:2338  customers[msg.sender] = customers[msg.sender] + msg.value */\n      dup2\n      swap1\n      sstore\n      pop\n        /* \"contracts/BurgerShop.sol\":2236:2427  if(customers[msg.sender] != 0){\r... */\n      jump(tag_151)\n    tag_148:\n        /* \"contracts/BurgerShop.sol\":2405:2414  msg.value */\n      callvalue\n        /* \"contracts/BurgerShop.sol\":2381:2390  customers */\n      0x05\n        /* \"contracts/BurgerShop.sol\":2381:2402  customers[msg.sender] */\n      0x00\n        /* \"contracts/BurgerShop.sol\":2391:2401  msg.sender */\n      caller\n        /* \"contracts/BurgerShop.sol\":2381:2402  customers[msg.sender] */\n      0xffffffffffffffffffffffffffffffffffffffff\n      and\n      0xffffffffffffffffffffffffffffffffffffffff\n      and\n      dup2\n      mstore\n      0x20\n      add\n      swap1\n      dup2\n      mstore\n      0x20\n      add\n      0x00\n      keccak256\n        /* \"contracts/BurgerShop.sol\":2381:2414  customers[msg.sender] = msg.value */\n      dup2\n      swap1\n      sstore\n      pop\n        /* \"contracts/BurgerShop.sol\":2236:2427  if(customers[msg.sender] != 0){\r... */\n    tag_151:\n        /* \"contracts/BurgerShop.sol\":2437:2467  updateStage(Stages.makeBurger) */\n      tag_152\n        /* \"contracts/BurgerShop.sol\":2449:2466  Stages.makeBurger */\n      0x01\n        /* \"contracts/BurgerShop.sol\":2437:2448  updateStage */\n      tag_80\n        /* \"contracts/BurgerShop.sol\":2437:2467  updateStage(Stages.makeBurger) */\n      jump\t// in\n    tag_152:\n        /* \"contracts/BurgerShop.sol\":2496:2506  msg.sender */\n      caller\n        /* \"contracts/BurgerShop.sol\":2483:2515  BoughtBurger(msg.sender, _price) */\n      0xffffffffffffffffffffffffffffffffffffffff\n      and\n      0xc63d5e450f470dcc6536476b6fd78a0f261765ef92b25631875b0a35eaa095bf\n        /* \"contracts/BurgerShop.sol\":2508:2514  _price */\n      dup4\n        /* \"contracts/BurgerShop.sol\":2483:2515  BoughtBurger(msg.sender, _price) */\n      mload(0x40)\n      tag_153\n      swap2\n      swap1\n      tag_32\n      jump\t// in\n    tag_153:\n      mload(0x40)\n      dup1\n      swap2\n      sub\n      swap1\n      log2\n        /* \"contracts/BurgerShop.sol\":1257:1258  _ */\n      pop\n        /* \"contracts/BurgerShop.sol\":2043:2523  function buyBurger(uint256 _price) payable public correctAmount() isAtStage(Stages.readyToOrder) shopOpened notPaused{\r... */\n      pop\n      jump\t// out\n        /* \"contracts/BurgerShop.sol\":438:464  bool public paused = false */\n    tag_63:\n      0x07\n      0x00\n      swap1\n      sload\n      swap1\n      0x0100\n      exp\n      swap1\n      div\n      0xff\n      and\n      dup2\n      jump\t// out\n        /* \"contracts/BurgerShop.sol\":247:267  address public owner */\n    tag_68:\n      0x03\n      0x00\n      swap1\n      sload\n      swap1\n      0x0100\n      exp\n      swap1\n      div\n      0xffffffffffffffffffffffffffffffffffffffff\n      and\n      dup2\n      jump\t// out\n        /* \"contracts/BurgerShop.sol\":175:211  uint256 public deluxCost = 0.4 ether */\n    tag_72:\n      sload(0x01)\n      dup2\n      jump\t// out\n        /* \"contracts/BurgerShop.sol\":3247:3515  function claimRefund() payable public {\r... */\n    tag_75:\n        /* \"contracts/BurgerShop.sol\":3296:3309  uint256 value */\n      0x00\n        /* \"contracts/BurgerShop.sol\":3312:3321  customers */\n      0x05\n        /* \"contracts/BurgerShop.sol\":3312:3333  customers[msg.sender] */\n      0x00\n        /* \"contracts/BurgerShop.sol\":3322:3332  msg.sender */\n      caller\n        /* \"contracts/BurgerShop.sol\":3312:3333  customers[msg.sender] */\n      0xffffffffffffffffffffffffffffffffffffffff\n      and\n      0xffffffffffffffffffffffffffffffffffffffff\n      and\n      dup2\n      mstore\n      0x20\n      add\n      swap1\n      dup2\n      mstore\n      0x20\n      add\n      0x00\n      keccak256\n      sload\n        /* \"contracts/BurgerShop.sol\":3296:3333  uint256 value = customers[msg.sender] */\n      swap1\n      pop\n        /* \"contracts/BurgerShop.sol\":3369:3370  0 */\n      0x00\n        /* \"contracts/BurgerShop.sol\":3344:3354  userRefund */\n      0x06\n        /* \"contracts/BurgerShop.sol\":3344:3366  userRefund[msg.sender] */\n      0x00\n        /* \"contracts/BurgerShop.sol\":3355:3365  msg.sender */\n      caller\n        /* \"contracts/BurgerShop.sol\":3344:3366  userRefund[msg.sender] */\n      0xffffffffffffffffffffffffffffffffffffffff\n      and\n      0xffffffffffffffffffffffffffffffffffffffff\n      and\n      dup2\n      mstore\n      0x20\n      add\n      swap1\n      dup2\n      mstore\n      0x20\n      add\n      0x00\n      keccak256\n        /* \"contracts/BurgerShop.sol\":3344:3370  userRefund[msg.sender] = 0 */\n      dup2\n      swap1\n      sstore\n      pop\n        /* \"contracts/BurgerShop.sol\":3405:3406  0 */\n      0x00\n        /* \"contracts/BurgerShop.sol\":3381:3390  customers */\n      0x05\n        /* \"contracts/BurgerShop.sol\":3381:3402  customers[msg.sender] */\n      0x00\n        /* \"contracts/BurgerShop.sol\":3391:3401  msg.sender */\n      caller\n        /* \"contracts/BurgerShop.sol\":3381:3402  customers[msg.sender] */\n      0xffffffffffffffffffffffffffffffffffffffff\n      and\n      0xffffffffffffffffffffffffffffffffffffffff\n      and\n      dup2\n      mstore\n      0x20\n      add\n      swap1\n      dup2\n      mstore\n      0x20\n      add\n      0x00\n      keccak256\n        /* \"contracts/BurgerShop.sol\":3381:3406  customers[msg.sender] = 0 */\n      dup2\n      swap1\n      sstore\n      pop\n        /* \"contracts/BurgerShop.sol\":3418:3430  bool success */\n      0x00\n        /* \"contracts/BurgerShop.sol\":3444:3454  msg.sender */\n      caller\n        /* \"contracts/BurgerShop.sol\":3436:3460  payable(msg.sender).call */\n      0xffffffffffffffffffffffffffffffffffffffff\n      and\n        /* \"contracts/BurgerShop.sol\":3468:3473  value */\n      dup3\n        /* \"contracts/BurgerShop.sol\":3436:3478  payable(msg.sender).call{value: value}(\"\") */\n      mload(0x40)\n      tag_155\n      swap1\n      tag_156\n      jump\t// in\n    tag_155:\n      0x00\n      mload(0x40)\n      dup1\n      dup4\n      sub\n      dup2\n      dup6\n      dup8\n      gas\n      call\n      swap3\n      pop\n      pop\n      pop\n      returndatasize\n      dup1\n      0x00\n      dup2\n      eq\n      tag_159\n      jumpi\n      mload(0x40)\n      swap2\n      pop\n      and(add(returndatasize, 0x3f), not(0x1f))\n      dup3\n      add\n      0x40\n      mstore\n      returndatasize\n      dup3\n      mstore\n      returndatasize\n      0x00\n      0x20\n      dup5\n      add\n      returndatacopy\n      jump(tag_158)\n    tag_159:\n      0x60\n      swap2\n      pop\n    tag_158:\n      pop\n        /* \"contracts/BurgerShop.sol\":3417:3478  (bool success, ) = payable(msg.sender).call{value: value}(\"\") */\n      pop\n      swap1\n      pop\n        /* \"contracts/BurgerShop.sol\":3497:3504  success */\n      dup1\n        /* \"contracts/BurgerShop.sol\":3489:3505  require(success) */\n      tag_160\n      jumpi\n      0x00\n      dup1\n      revert\n    tag_160:\n        /* \"contracts/BurgerShop.sol\":3285:3515  {\r... */\n      pop\n      pop\n        /* \"contracts/BurgerShop.sol\":3247:3515  function claimRefund() payable public {\r... */\n      jump\t// out\n        /* \"contracts/BurgerShop.sol\":3893:3980  function updateStage(Stages _stage) public {\r... */\n    tag_80:\n        /* \"contracts/BurgerShop.sol\":3966:3972  _stage */\n      dup1\n        /* \"contracts/BurgerShop.sol\":3947:3963  burgerShopStatge */\n      0x07\n      0x01\n        /* \"contracts/BurgerShop.sol\":3947:3972  burgerShopStatge = _stage */\n      0x0100\n      exp\n      dup2\n      sload\n      dup2\n      0xff\n      mul\n      not\n      and\n      swap1\n      dup4\n      0x02\n      dup2\n      gt\n      iszero\n      tag_162\n      jumpi\n      tag_163\n      tag_133\n      jump\t// in\n    tag_163:\n    tag_162:\n      mul\n      or\n      swap1\n      sstore\n      pop\n        /* \"contracts/BurgerShop.sol\":3893:3980  function updateStage(Stages _stage) public {\r... */\n      pop\n      jump\t// out\n        /* \"contracts/BurgerShop.sol\":386:431  mapping(address => uint256) public userRefund */\n    tag_84:\n      mstore(0x20, 0x06)\n      dup1\n      0x00\n      mstore\n      keccak256(0x00, 0x40)\n      0x00\n      swap2\n      pop\n      swap1\n      pop\n      sload\n      dup2\n      jump\t// out\n        /* \"contracts/BurgerShop.sol\":3629:3749  function madeBurger() public isAtStage(Stages.makeBurger) shopOpened{\r... */\n    tag_88:\n        /* \"contracts/BurgerShop.sol\":3668:3685  Stages.makeBurger */\n      0x01\n        /* \"contracts/BurgerShop.sol\":1348:1354  _stage */\n      dup1\n        /* \"contracts/BurgerShop.sol\":1328:1354  burgerShopStatge == _stage */\n      0x02\n      dup2\n      gt\n      iszero\n      tag_165\n      jumpi\n      tag_166\n      tag_133\n      jump\t// in\n    tag_166:\n    tag_165:\n        /* \"contracts/BurgerShop.sol\":1328:1344  burgerShopStatge */\n      0x07\n      0x01\n      swap1\n      sload\n      swap1\n      0x0100\n      exp\n      swap1\n      div\n      0xff\n      and\n        /* \"contracts/BurgerShop.sol\":1328:1354  burgerShopStatge == _stage */\n      0x02\n      dup2\n      gt\n      iszero\n      tag_167\n      jumpi\n      tag_168\n      tag_133\n      jump\t// in\n    tag_168:\n    tag_167:\n      eq\n        /* \"contracts/BurgerShop.sol\":1319:1379  require( burgerShopStatge == _stage, \"Not At Correct Stage\") */\n      tag_169\n      jumpi\n      mload(0x40)\n      0x08c379a000000000000000000000000000000000000000000000000000000000\n      dup2\n      mstore\n      0x04\n      add\n      tag_170\n      swap1\n      tag_138\n      jump\t// in\n    tag_170:\n      mload(0x40)\n      dup1\n      swap2\n      sub\n      swap1\n      revert\n    tag_169:\n        /* \"contracts/BurgerShop.sol\":1059:1068  startDate */\n      sload(0x04)\n        /* \"contracts/BurgerShop.sol\":1041:1056  block.timestamp */\n      timestamp\n        /* \"contracts/BurgerShop.sol\":1041:1068  block.timestamp > startDate */\n      gt\n        /* \"contracts/BurgerShop.sol\":1032:1096  require( block.timestamp > startDate, \"This is not opened yet!\") */\n      tag_172\n      jumpi\n      mload(0x40)\n      0x08c379a000000000000000000000000000000000000000000000000000000000\n      dup2\n      mstore\n      0x04\n      add\n      tag_173\n      swap1\n      tag_142\n      jump\t// in\n    tag_173:\n      mload(0x40)\n      dup1\n      swap2\n      sub\n      swap1\n      revert\n    tag_172:\n        /* \"contracts/BurgerShop.sol\":3708:3741  updateStage(Stages.deliverBurger) */\n      tag_175\n        /* \"contracts/BurgerShop.sol\":3720:3740  Stages.deliverBurger */\n      0x02\n        /* \"contracts/BurgerShop.sol\":3708:3719  updateStage */\n      tag_80\n        /* \"contracts/BurgerShop.sol\":3708:3741  updateStage(Stages.deliverBurger) */\n      jump\t// in\n    tag_175:\n        /* \"contracts/BurgerShop.sol\":3629:3749  function madeBurger() public isAtStage(Stages.makeBurger) shopOpened{\r... */\n      pop\n      jump\t// out\n        /* \"contracts/BurgerShop.sol\":3757:3885  function pickupBurger() public isAtStage(Stages.deliverBurger) shopOpened{\r... */\n    tag_91:\n        /* \"contracts/BurgerShop.sol\":3798:3818  Stages.deliverBurger */\n      0x02\n        /* \"contracts/BurgerShop.sol\":1348:1354  _stage */\n      dup1\n        /* \"contracts/BurgerShop.sol\":1328:1354  burgerShopStatge == _stage */\n      0x02\n      dup2\n      gt\n      iszero\n      tag_177\n      jumpi\n      tag_178\n      tag_133\n      jump\t// in\n    tag_178:\n    tag_177:\n        /* \"contracts/BurgerShop.sol\":1328:1344  burgerShopStatge */\n      0x07\n      0x01\n      swap1\n      sload\n      swap1\n      0x0100\n      exp\n      swap1\n      div\n      0xff\n      and\n        /* \"contracts/BurgerShop.sol\":1328:1354  burgerShopStatge == _stage */\n      0x02\n      dup2\n      gt\n      iszero\n      tag_179\n      jumpi\n      tag_180\n      tag_133\n      jump\t// in\n    tag_180:\n    tag_179:\n      eq\n        /* \"contracts/BurgerShop.sol\":1319:1379  require( burgerShopStatge == _stage, \"Not At Correct Stage\") */\n      tag_181\n      jumpi\n      mload(0x40)\n      0x08c379a000000000000000000000000000000000000000000000000000000000\n      dup2\n      mstore\n      0x04\n      add\n      tag_182\n      swap1\n      tag_138\n      jump\t// in\n    tag_182:\n      mload(0x40)\n      dup1\n      swap2\n      sub\n      swap1\n      revert\n    tag_181:\n        /* \"contracts/BurgerShop.sol\":1059:1068  startDate */\n      sload(0x04)\n        /* \"contracts/BurgerShop.sol\":1041:1056  block.timestamp */\n      timestamp\n        /* \"contracts/BurgerShop.sol\":1041:1068  block.timestamp > startDate */\n      gt\n        /* \"contracts/BurgerShop.sol\":1032:1096  require( block.timestamp > startDate, \"This is not opened yet!\") */\n      tag_184\n      jumpi\n      mload(0x40)\n      0x08c379a000000000000000000000000000000000000000000000000000000000\n      dup2\n      mstore\n      0x04\n      add\n      tag_185\n      swap1\n      tag_142\n      jump\t// in\n    tag_185:\n      mload(0x40)\n      dup1\n      swap2\n      sub\n      swap1\n      revert\n    tag_184:\n        /* \"contracts/BurgerShop.sol\":3845:3877  updateStage(Stages.readyToOrder) */\n      tag_187\n        /* \"contracts/BurgerShop.sol\":3857:3876  Stages.readyToOrder */\n      0x00\n        /* \"contracts/BurgerShop.sol\":3845:3856  updateStage */\n      tag_80\n        /* \"contracts/BurgerShop.sol\":3845:3877  updateStage(Stages.readyToOrder) */\n      jump\t// in\n    tag_187:\n        /* \"contracts/BurgerShop.sol\":3757:3885  function pickupBurger() public isAtStage(Stages.deliverBurger) shopOpened{\r... */\n      pop\n      jump\t// out\n        /* \"contracts/BurgerShop.sol\":3988:4184  function getRandomNum(uint256 _seed) public view returns(uint256) {\r... */\n    tag_95:\n        /* \"contracts/BurgerShop.sol\":4045:4052  uint256 */\n      0x00\n        /* \"contracts/BurgerShop.sol\":4065:4080  uint256 randNum */\n      dup1\n        /* \"contracts/BurgerShop.sol\":4150:4151  1 */\n      0x01\n        /* \"contracts/BurgerShop.sol\":4146:4148  10 */\n      0x0a\n        /* \"contracts/BurgerShop.sol\":4118:4133  block.timestamp */\n      timestamp\n        /* \"contracts/BurgerShop.sol\":4135:4140  _seed */\n      dup6\n        /* \"contracts/BurgerShop.sol\":4101:4141  abi.encodePacked(block.timestamp, _seed) */\n      add(0x20, mload(0x40))\n      tag_189\n      swap3\n      swap2\n      swap1\n      tag_190\n      jump\t// in\n    tag_189:\n      mload(0x40)\n      0x20\n      dup2\n      dup4\n      sub\n      sub\n      dup2\n      mstore\n      swap1\n      0x40\n      mstore\n        /* \"contracts/BurgerShop.sol\":4091:4142  keccak256(abi.encodePacked(block.timestamp, _seed)) */\n      dup1\n      mload\n      swap1\n      0x20\n      add\n      keccak256\n        /* \"contracts/BurgerShop.sol\":4083:4143  uint256(keccak256(abi.encodePacked(block.timestamp, _seed))) */\n      0x00\n      shr\n        /* \"contracts/BurgerShop.sol\":4083:4148  uint256(keccak256(abi.encodePacked(block.timestamp, _seed))) % 10 */\n      tag_191\n      swap2\n      swap1\n      tag_192\n      jump\t// in\n    tag_191:\n        /* \"contracts/BurgerShop.sol\":4083:4151  uint256(keccak256(abi.encodePacked(block.timestamp, _seed))) % 10 +1 */\n      tag_193\n      swap2\n      swap1\n      tag_150\n      jump\t// in\n    tag_193:\n        /* \"contracts/BurgerShop.sol\":4065:4151  uint256 randNum = uint256(keccak256(abi.encodePacked(block.timestamp, _seed))) % 10 +1 */\n      swap1\n      pop\n        /* \"contracts/BurgerShop.sol\":4169:4176  randNum */\n      dup1\n        /* \"contracts/BurgerShop.sol\":4162:4176  return randNum */\n      swap2\n      pop\n      pop\n        /* \"contracts/BurgerShop.sol\":3988:4184  function getRandomNum(uint256 _seed) public view returns(uint256) {\r... */\n      swap2\n      swap1\n      pop\n      jump\t// out\n        /* \"contracts/BurgerShop.sol\":131:168  uint256 public normalCost = 0.2 ether */\n    tag_99:\n      sload(0x00)\n      dup2\n      jump\t// out\n        /* \"#utility.yul\":7:146   */\n    tag_195:\n        /* \"#utility.yul\":53:58   */\n      0x00\n        /* \"#utility.yul\":91:97   */\n      dup2\n        /* \"#utility.yul\":78:98   */\n      calldataload\n        /* \"#utility.yul\":69:98   */\n      swap1\n      pop\n        /* \"#utility.yul\":107:140   */\n      tag_197\n        /* \"#utility.yul\":134:139   */\n      dup2\n        /* \"#utility.yul\":107:140   */\n      tag_198\n      jump\t// in\n    tag_197:\n        /* \"#utility.yul\":7:146   */\n      swap3\n      swap2\n      pop\n      pop\n      jump\t// out\n        /* \"#utility.yul\":152:285   */\n    tag_199:\n        /* \"#utility.yul\":195:200   */\n      0x00\n        /* \"#utility.yul\":233:239   */\n      dup2\n        /* \"#utility.yul\":220:240   */\n      calldataload\n        /* \"#utility.yul\":211:240   */\n      swap1\n      pop\n        /* \"#utility.yul\":249:279   */\n      tag_201\n        /* \"#utility.yul\":273:278   */\n      dup2\n        /* \"#utility.yul\":249:279   */\n      tag_202\n      jump\t// in\n    tag_201:\n        /* \"#utility.yul\":152:285   */\n      swap3\n      swap2\n      pop\n      pop\n      jump\t// out\n        /* \"#utility.yul\":291:448   */\n    tag_203:\n        /* \"#utility.yul\":346:351   */\n      0x00\n        /* \"#utility.yul\":384:390   */\n      dup2\n        /* \"#utility.yul\":371:391   */\n      calldataload\n        /* \"#utility.yul\":362:391   */\n      swap1\n      pop\n        /* \"#utility.yul\":400:442   */\n      tag_205\n        /* \"#utility.yul\":436:441   */\n      dup2\n        /* \"#utility.yul\":400:442   */\n      tag_206\n      jump\t// in\n    tag_205:\n        /* \"#utility.yul\":291:448   */\n      swap3\n      swap2\n      pop\n      pop\n      jump\t// out\n        /* \"#utility.yul\":454:593   */\n    tag_207:\n        /* \"#utility.yul\":500:505   */\n      0x00\n        /* \"#utility.yul\":538:544   */\n      dup2\n        /* \"#utility.yul\":525:545   */\n      calldataload\n        /* \"#utility.yul\":516:545   */\n      swap1\n      pop\n        /* \"#utility.yul\":554:587   */\n      tag_209\n        /* \"#utility.yul\":581:586   */\n      dup2\n        /* \"#utility.yul\":554:587   */\n      tag_210\n      jump\t// in\n    tag_209:\n        /* \"#utility.yul\":454:593   */\n      swap3\n      swap2\n      pop\n      pop\n      jump\t// out\n        /* \"#utility.yul\":599:928   */\n    tag_40:\n        /* \"#utility.yul\":658:664   */\n      0x00\n        /* \"#utility.yul\":707:709   */\n      0x20\n        /* \"#utility.yul\":695:704   */\n      dup3\n        /* \"#utility.yul\":686:693   */\n      dup5\n        /* \"#utility.yul\":682:705   */\n      sub\n        /* \"#utility.yul\":678:710   */\n      slt\n        /* \"#utility.yul\":675:794   */\n      iszero\n      tag_212\n      jumpi\n        /* \"#utility.yul\":713:792   */\n      tag_213\n      tag_214\n      jump\t// in\n    tag_213:\n        /* \"#utility.yul\":675:794   */\n    tag_212:\n        /* \"#utility.yul\":833:834   */\n      0x00\n        /* \"#utility.yul\":858:911   */\n      tag_215\n        /* \"#utility.yul\":903:910   */\n      dup5\n        /* \"#utility.yul\":894:900   */\n      dup3\n        /* \"#utility.yul\":883:892   */\n      dup6\n        /* \"#utility.yul\":879:901   */\n      add\n        /* \"#utility.yul\":858:911   */\n      tag_195\n      jump\t// in\n    tag_215:\n        /* \"#utility.yul\":848:911   */\n      swap2\n      pop\n        /* \"#utility.yul\":804:921   */\n      pop\n        /* \"#utility.yul\":599:928   */\n      swap3\n      swap2\n      pop\n      pop\n      jump\t// out\n        /* \"#utility.yul\":934:1408   */\n    tag_50:\n        /* \"#utility.yul\":1002:1008   */\n      0x00\n        /* \"#utility.yul\":1010:1016   */\n      dup1\n        /* \"#utility.yul\":1059:1061   */\n      0x40\n        /* \"#utility.yul\":1047:1056   */\n      dup4\n        /* \"#utility.yul\":1038:1045   */\n      dup6\n        /* \"#utility.yul\":1034:1057   */\n      sub\n        /* \"#utility.yul\":1030:1062   */\n      slt\n        /* \"#utility.yul\":1027:1146   */\n      iszero\n      tag_217\n      jumpi\n        /* \"#utility.yul\":1065:1144   */\n      tag_218\n      tag_214\n      jump\t// in\n    tag_218:\n        /* \"#utility.yul\":1027:1146   */\n    tag_217:\n        /* \"#utility.yul\":1185:1186   */\n      0x00\n        /* \"#utility.yul\":1210:1263   */\n      tag_219\n        /* \"#utility.yul\":1255:1262   */\n      dup6\n        /* \"#utility.yul\":1246:1252   */\n      dup3\n        /* \"#utility.yul\":1235:1244   */\n      dup7\n        /* \"#utility.yul\":1231:1253   */\n      add\n        /* \"#utility.yul\":1210:1263   */\n      tag_195\n      jump\t// in\n    tag_219:\n        /* \"#utility.yul\":1200:1263   */\n      swap3\n      pop\n        /* \"#utility.yul\":1156:1273   */\n      pop\n        /* \"#utility.yul\":1312:1314   */\n      0x20\n        /* \"#utility.yul\":1338:1391   */\n      tag_220\n        /* \"#utility.yul\":1383:1390   */\n      dup6\n        /* \"#utility.yul\":1374:1380   */\n      dup3\n        /* \"#utility.yul\":1363:1372   */\n      dup7\n        /* \"#utility.yul\":1359:1381   */\n      add\n        /* \"#utility.yul\":1338:1391   */\n      tag_207\n      jump\t// in\n    tag_220:\n        /* \"#utility.yul\":1328:1391   */\n      swap2\n      pop\n        /* \"#utility.yul\":1283:1401   */\n      pop\n        /* \"#utility.yul\":934:1408   */\n      swap3\n      pop\n      swap3\n      swap1\n      pop\n      jump\t// out\n        /* \"#utility.yul\":1414:1737   */\n    tag_26:\n        /* \"#utility.yul\":1470:1476   */\n      0x00\n        /* \"#utility.yul\":1519:1521   */\n      0x20\n        /* \"#utility.yul\":1507:1516   */\n      dup3\n        /* \"#utility.yul\":1498:1505   */\n      dup5\n        /* \"#utility.yul\":1494:1517   */\n      sub\n        /* \"#utility.yul\":1490:1522   */\n      slt\n        /* \"#utility.yul\":1487:1606   */\n      iszero\n      tag_222\n      jumpi\n        /* \"#utility.yul\":1525:1604   */\n      tag_223\n      tag_214\n      jump\t// in\n    tag_223:\n        /* \"#utility.yul\":1487:1606   */\n    tag_222:\n        /* \"#utility.yul\":1645:1646   */\n      0x00\n        /* \"#utility.yul\":1670:1720   */\n      tag_224\n        /* \"#utility.yul\":1712:1719   */\n      dup5\n        /* \"#utility.yul\":1703:1709   */\n      dup3\n        /* \"#utility.yul\":1692:1701   */\n      dup6\n        /* \"#utility.yul\":1688:1710   */\n      add\n        /* \"#utility.yul\":1670:1720   */\n      tag_199\n      jump\t// in\n    tag_224:\n        /* \"#utility.yul\":1660:1720   */\n      swap2\n      pop\n        /* \"#utility.yul\":1616:1730   */\n      pop\n        /* \"#utility.yul\":1414:1737   */\n      swap3\n      swap2\n      pop\n      pop\n      jump\t// out\n        /* \"#utility.yul\":1743:2090   */\n    tag_79:\n        /* \"#utility.yul\":1811:1817   */\n      0x00\n        /* \"#utility.yul\":1860:1862   */\n      0x20\n        /* \"#utility.yul\":1848:1857   */\n      dup3\n        /* \"#utility.yul\":1839:1846   */\n      dup5\n        /* \"#utility.yul\":1835:1858   */\n      sub\n        /* \"#utility.yul\":1831:1863   */\n      slt\n        /* \"#utility.yul\":1828:1947   */\n      iszero\n      tag_226\n      jumpi\n        /* \"#utility.yul\":1866:1945   */\n      tag_227\n      tag_214\n      jump\t// in\n    tag_227:\n        /* \"#utility.yul\":1828:1947   */\n    tag_226:\n        /* \"#utility.yul\":1986:1987   */\n      0x00\n        /* \"#utility.yul\":2011:2073   */\n      tag_228\n        /* \"#utility.yul\":2065:2072   */\n      dup5\n        /* \"#utility.yul\":2056:2062   */\n      dup3\n        /* \"#utility.yul\":2045:2054   */\n      dup6\n        /* \"#utility.yul\":2041:2063   */\n      add\n        /* \"#utility.yul\":2011:2073   */\n      tag_203\n      jump\t// in\n    tag_228:\n        /* \"#utility.yul\":2001:2073   */\n      swap2\n      pop\n        /* \"#utility.yul\":1957:2083   */\n      pop\n        /* \"#utility.yul\":1743:2090   */\n      swap3\n      swap2\n      pop\n      pop\n      jump\t// out\n        /* \"#utility.yul\":2096:2425   */\n    tag_59:\n        /* \"#utility.yul\":2155:2161   */\n      0x00\n        /* \"#utility.yul\":2204:2206   */\n      0x20\n        /* \"#utility.yul\":2192:2201   */\n      dup3\n        /* \"#utility.yul\":2183:2190   */\n      dup5\n        /* \"#utility.yul\":2179:2202   */\n      sub\n        /* \"#utility.yul\":2175:2207   */\n      slt\n        /* \"#utility.yul\":2172:2291   */\n      iszero\n      tag_230\n      jumpi\n        /* \"#utility.yul\":2210:2289   */\n      tag_231\n      tag_214\n      jump\t// in\n    tag_231:\n        /* \"#utility.yul\":2172:2291   */\n    tag_230:\n        /* \"#utility.yul\":2330:2331   */\n      0x00\n        /* \"#utility.yul\":2355:2408   */\n      tag_232\n        /* \"#utility.yul\":2400:2407   */\n      dup5\n        /* \"#utility.yul\":2391:2397   */\n      dup3\n        /* \"#utility.yul\":2380:2389   */\n      dup6\n        /* \"#utility.yul\":2376:2398   */\n      add\n        /* \"#utility.yul\":2355:2408   */\n      tag_207\n      jump\t// in\n    tag_232:\n        /* \"#utility.yul\":2345:2408   */\n      swap2\n      pop\n        /* \"#utility.yul\":2301:2418   */\n      pop\n        /* \"#utility.yul\":2096:2425   */\n      swap3\n      swap2\n      pop\n      pop\n      jump\t// out\n        /* \"#utility.yul\":2431:2549   */\n    tag_233:\n        /* \"#utility.yul\":2518:2542   */\n      tag_235\n        /* \"#utility.yul\":2536:2541   */\n      dup2\n        /* \"#utility.yul\":2518:2542   */\n      tag_236\n      jump\t// in\n    tag_235:\n        /* \"#utility.yul\":2513:2516   */\n      dup3\n        /* \"#utility.yul\":2506:2543   */\n      mstore\n        /* \"#utility.yul\":2431:2549   */\n      pop\n      pop\n      jump\t// out\n        /* \"#utility.yul\":2555:2664   */\n    tag_237:\n        /* \"#utility.yul\":2636:2657   */\n      tag_239\n        /* \"#utility.yul\":2651:2656   */\n      dup2\n        /* \"#utility.yul\":2636:2657   */\n      tag_240\n      jump\t// in\n    tag_239:\n        /* \"#utility.yul\":2631:2634   */\n      dup3\n        /* \"#utility.yul\":2624:2658   */\n      mstore\n        /* \"#utility.yul\":2555:2664   */\n      pop\n      pop\n      jump\t// out\n        /* \"#utility.yul\":2670:2815   */\n    tag_241:\n        /* \"#utility.yul\":2764:2808   */\n      tag_243\n        /* \"#utility.yul\":2802:2807   */\n      dup2\n        /* \"#utility.yul\":2764:2808   */\n      tag_244\n      jump\t// in\n    tag_243:\n        /* \"#utility.yul\":2759:2762   */\n      dup3\n        /* \"#utility.yul\":2752:2809   */\n      mstore\n        /* \"#utility.yul\":2670:2815   */\n      pop\n      pop\n      jump\t// out\n        /* \"#utility.yul\":2821:3187   */\n    tag_245:\n        /* \"#utility.yul\":2963:2966   */\n      0x00\n        /* \"#utility.yul\":2984:3051   */\n      tag_247\n        /* \"#utility.yul\":3048:3050   */\n      0x17\n        /* \"#utility.yul\":3043:3046   */\n      dup4\n        /* \"#utility.yul\":2984:3051   */\n      tag_248\n      jump\t// in\n    tag_247:\n        /* \"#utility.yul\":2977:3051   */\n      swap2\n      pop\n        /* \"#utility.yul\":3060:3153   */\n      tag_249\n        /* \"#utility.yul\":3149:3152   */\n      dup3\n        /* \"#utility.yul\":3060:3153   */\n      tag_250\n      jump\t// in\n    tag_249:\n        /* \"#utility.yul\":3178:3180   */\n      0x20\n        /* \"#utility.yul\":3173:3176   */\n      dup3\n        /* \"#utility.yul\":3169:3181   */\n      add\n        /* \"#utility.yul\":3162:3181   */\n      swap1\n      pop\n        /* \"#utility.yul\":2821:3187   */\n      swap2\n      swap1\n      pop\n      jump\t// out\n        /* \"#utility.yul\":3193:3559   */\n    tag_251:\n        /* \"#utility.yul\":3335:3338   */\n      0x00\n        /* \"#utility.yul\":3356:3423   */\n      tag_253\n        /* \"#utility.yul\":3420:3422   */\n      0x19\n        /* \"#utility.yul\":3415:3418   */\n      dup4\n        /* \"#utility.yul\":3356:3423   */\n      tag_248\n      jump\t// in\n    tag_253:\n        /* \"#utility.yul\":3349:3423   */\n      swap2\n      pop\n        /* \"#utility.yul\":3432:3525   */\n      tag_254\n        /* \"#utility.yul\":3521:3524   */\n      dup3\n        /* \"#utility.yul\":3432:3525   */\n      tag_255\n      jump\t// in\n    tag_254:\n        /* \"#utility.yul\":3550:3552   */\n      0x20\n        /* \"#utility.yul\":3545:3548   */\n      dup3\n        /* \"#utility.yul\":3541:3553   */\n      add\n        /* \"#utility.yul\":3534:3553   */\n      swap1\n      pop\n        /* \"#utility.yul\":3193:3559   */\n      swap2\n      swap1\n      pop\n      jump\t// out\n        /* \"#utility.yul\":3565:3931   */\n    tag_256:\n        /* \"#utility.yul\":3707:3710   */\n      0x00\n        /* \"#utility.yul\":3728:3795   */\n      tag_258\n        /* \"#utility.yul\":3792:3794   */\n      0x10\n        /* \"#utility.yul\":3787:3790   */\n      dup4\n        /* \"#utility.yul\":3728:3795   */\n      tag_248\n      jump\t// in\n    tag_258:\n        /* \"#utility.yul\":3721:3795   */\n      swap2\n      pop\n        /* \"#utility.yul\":3804:3897   */\n      tag_259\n        /* \"#utility.yul\":3893:3896   */\n      dup3\n        /* \"#utility.yul\":3804:3897   */\n      tag_260\n      jump\t// in\n    tag_259:\n        /* \"#utility.yul\":3922:3924   */\n      0x20\n        /* \"#utility.yul\":3917:3920   */\n      dup3\n        /* \"#utility.yul\":3913:3925   */\n      add\n        /* \"#utility.yul\":3906:3925   */\n      swap1\n      pop\n        /* \"#utility.yul\":3565:3931   */\n      swap2\n      swap1\n      pop\n      jump\t// out\n        /* \"#utility.yul\":3937:4303   */\n    tag_261:\n        /* \"#utility.yul\":4079:4082   */\n      0x00\n        /* \"#utility.yul\":4100:4167   */\n      tag_263\n        /* \"#utility.yul\":4164:4166   */\n      0x0d\n        /* \"#utility.yul\":4159:4162   */\n      dup4\n        /* \"#utility.yul\":4100:4167   */\n      tag_248\n      jump\t// in\n    tag_263:\n        /* \"#utility.yul\":4093:4167   */\n      swap2\n      pop\n        /* \"#utility.yul\":4176:4269   */\n      tag_264\n        /* \"#utility.yul\":4265:4268   */\n      dup3\n        /* \"#utility.yul\":4176:4269   */\n      tag_265\n      jump\t// in\n    tag_264:\n        /* \"#utility.yul\":4294:4296   */\n      0x20\n        /* \"#utility.yul\":4289:4292   */\n      dup3\n        /* \"#utility.yul\":4285:4297   */\n      add\n        /* \"#utility.yul\":4278:4297   */\n      swap1\n      pop\n        /* \"#utility.yul\":3937:4303   */\n      swap2\n      swap1\n      pop\n      jump\t// out\n        /* \"#utility.yul\":4309:4675   */\n    tag_266:\n        /* \"#utility.yul\":4451:4454   */\n      0x00\n        /* \"#utility.yul\":4472:4539   */\n      tag_268\n        /* \"#utility.yul\":4536:4538   */\n      0x23\n        /* \"#utility.yul\":4531:4534   */\n      dup4\n        /* \"#utility.yul\":4472:4539   */\n      tag_248\n      jump\t// in\n    tag_268:\n        /* \"#utility.yul\":4465:4539   */\n      swap2\n      pop\n        /* \"#utility.yul\":4548:4641   */\n      tag_269\n        /* \"#utility.yul\":4637:4640   */\n      dup3\n        /* \"#utility.yul\":4548:4641   */\n      tag_270\n      jump\t// in\n    tag_269:\n        /* \"#utility.yul\":4666:4668   */\n      0x40\n        /* \"#utility.yul\":4661:4664   */\n      dup3\n        /* \"#utility.yul\":4657:4669   */\n      add\n        /* \"#utility.yul\":4650:4669   */\n      swap1\n      pop\n        /* \"#utility.yul\":4309:4675   */\n      swap2\n      swap1\n      pop\n      jump\t// out\n        /* \"#utility.yul\":4681:5047   */\n    tag_271:\n        /* \"#utility.yul\":4823:4826   */\n      0x00\n        /* \"#utility.yul\":4844:4911   */\n      tag_273\n        /* \"#utility.yul\":4908:4910   */\n      0x16\n        /* \"#utility.yul\":4903:4906   */\n      dup4\n        /* \"#utility.yul\":4844:4911   */\n      tag_248\n      jump\t// in\n    tag_273:\n        /* \"#utility.yul\":4837:4911   */\n      swap2\n      pop\n        /* \"#utility.yul\":4920:5013   */\n      tag_274\n        /* \"#utility.yul\":5009:5012   */\n      dup3\n        /* \"#utility.yul\":4920:5013   */\n      tag_275\n      jump\t// in\n    tag_274:\n        /* \"#utility.yul\":5038:5040   */\n      0x20\n        /* \"#utility.yul\":5033:5036   */\n      dup3\n        /* \"#utility.yul\":5029:5041   */\n      add\n        /* \"#utility.yul\":5022:5041   */\n      swap1\n      pop\n        /* \"#utility.yul\":4681:5047   */\n      swap2\n      swap1\n      pop\n      jump\t// out\n        /* \"#utility.yul\":5053:5419   */\n    tag_276:\n        /* \"#utility.yul\":5195:5198   */\n      0x00\n        /* \"#utility.yul\":5216:5283   */\n      tag_278\n        /* \"#utility.yul\":5280:5282   */\n      0x26\n        /* \"#utility.yul\":5275:5278   */\n      dup4\n        /* \"#utility.yul\":5216:5283   */\n      tag_248\n      jump\t// in\n    tag_278:\n        /* \"#utility.yul\":5209:5283   */\n      swap2\n      pop\n        /* \"#utility.yul\":5292:5385   */\n      tag_279\n        /* \"#utility.yul\":5381:5384   */\n      dup3\n        /* \"#utility.yul\":5292:5385   */\n      tag_280\n      jump\t// in\n    tag_279:\n        /* \"#utility.yul\":5410:5412   */\n      0x40\n        /* \"#utility.yul\":5405:5408   */\n      dup3\n        /* \"#utility.yul\":5401:5413   */\n      add\n        /* \"#utility.yul\":5394:5413   */\n      swap1\n      pop\n        /* \"#utility.yul\":5053:5419   */\n      swap2\n      swap1\n      pop\n      jump\t// out\n        /* \"#utility.yul\":5425:5823   */\n    tag_281:\n        /* \"#utility.yul\":5584:5587   */\n      0x00\n        /* \"#utility.yul\":5605:5688   */\n      tag_283\n        /* \"#utility.yul\":5686:5687   */\n      0x00\n        /* \"#utility.yul\":5681:5684   */\n      dup4\n        /* \"#utility.yul\":5605:5688   */\n      tag_284\n      jump\t// in\n    tag_283:\n        /* \"#utility.yul\":5598:5688   */\n      swap2\n      pop\n        /* \"#utility.yul\":5697:5790   */\n      tag_285\n        /* \"#utility.yul\":5786:5789   */\n      dup3\n        /* \"#utility.yul\":5697:5790   */\n      tag_286\n      jump\t// in\n    tag_285:\n        /* \"#utility.yul\":5815:5816   */\n      0x00\n        /* \"#utility.yul\":5810:5813   */\n      dup3\n        /* \"#utility.yul\":5806:5817   */\n      add\n        /* \"#utility.yul\":5799:5817   */\n      swap1\n      pop\n        /* \"#utility.yul\":5425:5823   */\n      swap2\n      swap1\n      pop\n      jump\t// out\n        /* \"#utility.yul\":5829:6195   */\n    tag_287:\n        /* \"#utility.yul\":5971:5974   */\n      0x00\n        /* \"#utility.yul\":5992:6059   */\n      tag_289\n        /* \"#utility.yul\":6056:6058   */\n      0x14\n        /* \"#utility.yul\":6051:6054   */\n      dup4\n        /* \"#utility.yul\":5992:6059   */\n      tag_248\n      jump\t// in\n    tag_289:\n        /* \"#utility.yul\":5985:6059   */\n      swap2\n      pop\n        /* \"#utility.yul\":6068:6161   */\n      tag_290\n        /* \"#utility.yul\":6157:6160   */\n      dup3\n        /* \"#utility.yul\":6068:6161   */\n      tag_291\n      jump\t// in\n    tag_290:\n        /* \"#utility.yul\":6186:6188   */\n      0x20\n        /* \"#utility.yul\":6181:6184   */\n      dup3\n        /* \"#utility.yul\":6177:6189   */\n      add\n        /* \"#utility.yul\":6170:6189   */\n      swap1\n      pop\n        /* \"#utility.yul\":5829:6195   */\n      swap2\n      swap1\n      pop\n      jump\t// out\n        /* \"#utility.yul\":6201:6567   */\n    tag_292:\n        /* \"#utility.yul\":6343:6346   */\n      0x00\n        /* \"#utility.yul\":6364:6431   */\n      tag_294\n        /* \"#utility.yul\":6428:6430   */\n      0x2c\n        /* \"#utility.yul\":6423:6426   */\n      dup4\n        /* \"#utility.yul\":6364:6431   */\n      tag_248\n      jump\t// in\n    tag_294:\n        /* \"#utility.yul\":6357:6431   */\n      swap2\n      pop\n        /* \"#utility.yul\":6440:6533   */\n      tag_295\n        /* \"#utility.yul\":6529:6532   */\n      dup3\n        /* \"#utility.yul\":6440:6533   */\n      tag_296\n      jump\t// in\n    tag_295:\n        /* \"#utility.yul\":6558:6560   */\n      0x40\n        /* \"#utility.yul\":6553:6556   */\n      dup3\n        /* \"#utility.yul\":6549:6561   */\n      add\n        /* \"#utility.yul\":6542:6561   */\n      swap1\n      pop\n        /* \"#utility.yul\":6201:6567   */\n      swap2\n      swap1\n      pop\n      jump\t// out\n        /* \"#utility.yul\":6573:6691   */\n    tag_297:\n        /* \"#utility.yul\":6660:6684   */\n      tag_299\n        /* \"#utility.yul\":6678:6683   */\n      dup2\n        /* \"#utility.yul\":6660:6684   */\n      tag_300\n      jump\t// in\n    tag_299:\n        /* \"#utility.yul\":6655:6658   */\n      dup3\n        /* \"#utility.yul\":6648:6685   */\n      mstore\n        /* \"#utility.yul\":6573:6691   */\n      pop\n      pop\n      jump\t// out\n        /* \"#utility.yul\":6697:6854   */\n    tag_301:\n        /* \"#utility.yul\":6802:6847   */\n      tag_303\n        /* \"#utility.yul\":6822:6846   */\n      tag_304\n        /* \"#utility.yul\":6840:6845   */\n      dup3\n        /* \"#utility.yul\":6822:6846   */\n      tag_300\n      jump\t// in\n    tag_304:\n        /* \"#utility.yul\":6802:6847   */\n      tag_305\n      jump\t// in\n    tag_303:\n        /* \"#utility.yul\":6797:6800   */\n      dup3\n        /* \"#utility.yul\":6790:6848   */\n      mstore\n        /* \"#utility.yul\":6697:6854   */\n      pop\n      pop\n      jump\t// out\n        /* \"#utility.yul\":6860:7239   */\n    tag_156:\n        /* \"#utility.yul\":7044:7047   */\n      0x00\n        /* \"#utility.yul\":7066:7213   */\n      tag_307\n        /* \"#utility.yul\":7209:7212   */\n      dup3\n        /* \"#utility.yul\":7066:7213   */\n      tag_281\n      jump\t// in\n    tag_307:\n        /* \"#utility.yul\":7059:7213   */\n      swap2\n      pop\n        /* \"#utility.yul\":7230:7233   */\n      dup2\n        /* \"#utility.yul\":7223:7233   */\n      swap1\n      pop\n        /* \"#utility.yul\":6860:7239   */\n      swap2\n      swap1\n      pop\n      jump\t// out\n        /* \"#utility.yul\":7245:7642   */\n    tag_190:\n        /* \"#utility.yul\":7385:7388   */\n      0x00\n        /* \"#utility.yul\":7400:7475   */\n      tag_309\n        /* \"#utility.yul\":7471:7474   */\n      dup3\n        /* \"#utility.yul\":7462:7468   */\n      dup6\n        /* \"#utility.yul\":7400:7475   */\n      tag_301\n      jump\t// in\n    tag_309:\n        /* \"#utility.yul\":7500:7502   */\n      0x20\n        /* \"#utility.yul\":7495:7498   */\n      dup3\n        /* \"#utility.yul\":7491:7503   */\n      add\n        /* \"#utility.yul\":7484:7503   */\n      swap2\n      pop\n        /* \"#utility.yul\":7513:7588   */\n      tag_310\n        /* \"#utility.yul\":7584:7587   */\n      dup3\n        /* \"#utility.yul\":7575:7581   */\n      dup5\n        /* \"#utility.yul\":7513:7588   */\n      tag_301\n      jump\t// in\n    tag_310:\n        /* \"#utility.yul\":7613:7615   */\n      0x20\n        /* \"#utility.yul\":7608:7611   */\n      dup3\n        /* \"#utility.yul\":7604:7616   */\n      add\n        /* \"#utility.yul\":7597:7616   */\n      swap2\n      pop\n        /* \"#utility.yul\":7633:7636   */\n      dup2\n        /* \"#utility.yul\":7626:7636   */\n      swap1\n      pop\n        /* \"#utility.yul\":7245:7642   */\n      swap4\n      swap3\n      pop\n      pop\n      pop\n      jump\t// out\n        /* \"#utility.yul\":7648:7870   */\n    tag_56:\n        /* \"#utility.yul\":7741:7745   */\n      0x00\n        /* \"#utility.yul\":7779:7781   */\n      0x20\n        /* \"#utility.yul\":7768:7777   */\n      dup3\n        /* \"#utility.yul\":7764:7782   */\n      add\n        /* \"#utility.yul\":7756:7782   */\n      swap1\n      pop\n        /* \"#utility.yul\":7792:7863   */\n      tag_312\n        /* \"#utility.yul\":7860:7861   */\n      0x00\n        /* \"#utility.yul\":7849:7858   */\n      dup4\n        /* \"#utility.yul\":7845:7862   */\n      add\n        /* \"#utility.yul\":7836:7842   */\n      dup5\n        /* \"#utility.yul\":7792:7863   */\n      tag_233\n      jump\t// in\n    tag_312:\n        /* \"#utility.yul\":7648:7870   */\n      swap3\n      swap2\n      pop\n      pop\n      jump\t// out\n        /* \"#utility.yul\":7876:8086   */\n    tag_65:\n        /* \"#utility.yul\":7963:7967   */\n      0x00\n        /* \"#utility.yul\":8001:8003   */\n      0x20\n        /* \"#utility.yul\":7990:7999   */\n      dup3\n        /* \"#utility.yul\":7986:8004   */\n      add\n        /* \"#utility.yul\":7978:8004   */\n      swap1\n      pop\n        /* \"#utility.yul\":8014:8079   */\n      tag_314\n        /* \"#utility.yul\":8076:8077   */\n      0x00\n        /* \"#utility.yul\":8065:8074   */\n      dup4\n        /* \"#utility.yul\":8061:8078   */\n      add\n        /* \"#utility.yul\":8052:8058   */\n      dup5\n        /* \"#utility.yul\":8014:8079   */\n      tag_237\n      jump\t// in\n    tag_314:\n        /* \"#utility.yul\":7876:8086   */\n      swap3\n      swap2\n      pop\n      pop\n      jump\t// out\n        /* \"#utility.yul\":8092:8328   */\n    tag_47:\n        /* \"#utility.yul\":8192:8196   */\n      0x00\n        /* \"#utility.yul\":8230:8232   */\n      0x20\n        /* \"#utility.yul\":8219:8228   */\n      dup3\n        /* \"#utility.yul\":8215:8233   */\n      add\n        /* \"#utility.yul\":8207:8233   */\n      swap1\n      pop\n        /* \"#utility.yul\":8243:8321   */\n      tag_316\n        /* \"#utility.yul\":8318:8319   */\n      0x00\n        /* \"#utility.yul\":8307:8316   */\n      dup4\n        /* \"#utility.yul\":8303:8320   */\n      add\n        /* \"#utility.yul\":8294:8300   */\n      dup5\n        /* \"#utility.yul\":8243:8321   */\n      tag_241\n      jump\t// in\n    tag_316:\n        /* \"#utility.yul\":8092:8328   */\n      swap3\n      swap2\n      pop\n      pop\n      jump\t// out\n        /* \"#utility.yul\":8334:8753   */\n    tag_142:\n        /* \"#utility.yul\":8500:8504   */\n      0x00\n        /* \"#utility.yul\":8538:8540   */\n      0x20\n        /* \"#utility.yul\":8527:8536   */\n      dup3\n        /* \"#utility.yul\":8523:8541   */\n      add\n        /* \"#utility.yul\":8515:8541   */\n      swap1\n      pop\n        /* \"#utility.yul\":8587:8596   */\n      dup2\n        /* \"#utility.yul\":8581:8585   */\n      dup2\n        /* \"#utility.yul\":8577:8597   */\n      sub\n        /* \"#utility.yul\":8573:8574   */\n      0x00\n        /* \"#utility.yul\":8562:8571   */\n      dup4\n        /* \"#utility.yul\":8558:8575   */\n      add\n        /* \"#utility.yul\":8551:8598   */\n      mstore\n        /* \"#utility.yul\":8615:8746   */\n      tag_318\n        /* \"#utility.yul\":8741:8745   */\n      dup2\n        /* \"#utility.yul\":8615:8746   */\n      tag_245\n      jump\t// in\n    tag_318:\n        /* \"#utility.yul\":8607:8746   */\n      swap1\n      pop\n        /* \"#utility.yul\":8334:8753   */\n      swap2\n      swap1\n      pop\n      jump\t// out\n        /* \"#utility.yul\":8759:9178   */\n    tag_146:\n        /* \"#utility.yul\":8925:8929   */\n      0x00\n        /* \"#utility.yul\":8963:8965   */\n      0x20\n        /* \"#utility.yul\":8952:8961   */\n      dup3\n        /* \"#utility.yul\":8948:8966   */\n      add\n        /* \"#utility.yul\":8940:8966   */\n      swap1\n      pop\n        /* \"#utility.yul\":9012:9021   */\n      dup2\n        /* \"#utility.yul\":9006:9010   */\n      dup2\n        /* \"#utility.yul\":9002:9022   */\n      sub\n        /* \"#utility.yul\":8998:8999   */\n      0x00\n        /* \"#utility.yul\":8987:8996   */\n      dup4\n        /* \"#utility.yul\":8983:9000   */\n      add\n        /* \"#utility.yul\":8976:9023   */\n      mstore\n        /* \"#utility.yul\":9040:9171   */\n      tag_320\n        /* \"#utility.yul\":9166:9170   */\n      dup2\n        /* \"#utility.yul\":9040:9171   */\n      tag_251\n      jump\t// in\n    tag_320:\n        /* \"#utility.yul\":9032:9171   */\n      swap1\n      pop\n        /* \"#utility.yul\":8759:9178   */\n      swap2\n      swap1\n      pop\n      jump\t// out\n        /* \"#utility.yul\":9184:9603   */\n    tag_124:\n        /* \"#utility.yul\":9350:9354   */\n      0x00\n        /* \"#utility.yul\":9388:9390   */\n      0x20\n        /* \"#utility.yul\":9377:9386   */\n      dup3\n        /* \"#utility.yul\":9373:9391   */\n      add\n        /* \"#utility.yul\":9365:9391   */\n      swap1\n      pop\n        /* \"#utility.yul\":9437:9446   */\n      dup2\n        /* \"#utility.yul\":9431:9435   */\n      dup2\n        /* \"#utility.yul\":9427:9447   */\n      sub\n        /* \"#utility.yul\":9423:9424   */\n      0x00\n        /* \"#utility.yul\":9412:9421   */\n      dup4\n        /* \"#utility.yul\":9408:9425   */\n      add\n        /* \"#utility.yul\":9401:9448   */\n      mstore\n        /* \"#utility.yul\":9465:9596   */\n      tag_322\n        /* \"#utility.yul\":9591:9595   */\n      dup2\n        /* \"#utility.yul\":9465:9596   */\n      tag_256\n      jump\t// in\n    tag_322:\n        /* \"#utility.yul\":9457:9596   */\n      swap1\n      pop\n        /* \"#utility.yul\":9184:9603   */\n      swap2\n      swap1\n      pop\n      jump\t// out\n        /* \"#utility.yul\":9609:10028   */\n    tag_104:\n        /* \"#utility.yul\":9775:9779   */\n      0x00\n        /* \"#utility.yul\":9813:9815   */\n      0x20\n        /* \"#utility.yul\":9802:9811   */\n      dup3\n        /* \"#utility.yul\":9798:9816   */\n      add\n        /* \"#utility.yul\":9790:9816   */\n      swap1\n      pop\n        /* \"#utility.yul\":9862:9871   */\n      dup2\n        /* \"#utility.yul\":9856:9860   */\n      dup2\n        /* \"#utility.yul\":9852:9872   */\n      sub\n        /* \"#utility.yul\":9848:9849   */\n      0x00\n        /* \"#utility.yul\":9837:9846   */\n      dup4\n        /* \"#utility.yul\":9833:9850   */\n      add\n        /* \"#utility.yul\":9826:9873   */\n      mstore\n        /* \"#utility.yul\":9890:10021   */\n      tag_324\n        /* \"#utility.yul\":10016:10020   */\n      dup2\n        /* \"#utility.yul\":9890:10021   */\n      tag_261\n      jump\t// in\n    tag_324:\n        /* \"#utility.yul\":9882:10021   */\n      swap1\n      pop\n        /* \"#utility.yul\":9609:10028   */\n      swap2\n      swap1\n      pop\n      jump\t// out\n        /* \"#utility.yul\":10034:10453   */\n    tag_117:\n        /* \"#utility.yul\":10200:10204   */\n      0x00\n        /* \"#utility.yul\":10238:10240   */\n      0x20\n        /* \"#utility.yul\":10227:10236   */\n      dup3\n        /* \"#utility.yul\":10223:10241   */\n      add\n        /* \"#utility.yul\":10215:10241   */\n      swap1\n      pop\n        /* \"#utility.yul\":10287:10296   */\n      dup2\n        /* \"#utility.yul\":10281:10285   */\n      dup2\n        /* \"#utility.yul\":10277:10297   */\n      sub\n        /* \"#utility.yul\":10273:10274   */\n      0x00\n        /* \"#utility.yul\":10262:10271   */\n      dup4\n        /* \"#utility.yul\":10258:10275   */\n      add\n        /* \"#utility.yul\":10251:10298   */\n      mstore\n        /* \"#utility.yul\":10315:10446   */\n      tag_326\n        /* \"#utility.yul\":10441:10445   */\n      dup2\n        /* \"#utility.yul\":10315:10446   */\n      tag_266\n      jump\t// in\n    tag_326:\n        /* \"#utility.yul\":10307:10446   */\n      swap1\n      pop\n        /* \"#utility.yul\":10034:10453   */\n      swap2\n      swap1\n      pop\n      jump\t// out\n        /* \"#utility.yul\":10459:10878   */\n    tag_129:\n        /* \"#utility.yul\":10625:10629   */\n      0x00\n        /* \"#utility.yul\":10663:10665   */\n      0x20\n        /* \"#utility.yul\":10652:10661   */\n      dup3\n        /* \"#utility.yul\":10648:10666   */\n      add\n        /* \"#utility.yul\":10640:10666   */\n      swap1\n      pop\n        /* \"#utility.yul\":10712:10721   */\n      dup2\n        /* \"#utility.yul\":10706:10710   */\n      dup2\n        /* \"#utility.yul\":10702:10722   */\n      sub\n        /* \"#utility.yul\":10698:10699   */\n      0x00\n        /* \"#utility.yul\":10687:10696   */\n      dup4\n        /* \"#utility.yul\":10683:10700   */\n      add\n        /* \"#utility.yul\":10676:10723   */\n      mstore\n        /* \"#utility.yul\":10740:10871   */\n      tag_328\n        /* \"#utility.yul\":10866:10870   */\n      dup2\n        /* \"#utility.yul\":10740:10871   */\n      tag_271\n      jump\t// in\n    tag_328:\n        /* \"#utility.yul\":10732:10871   */\n      swap1\n      pop\n        /* \"#utility.yul\":10459:10878   */\n      swap2\n      swap1\n      pop\n      jump\t// out\n        /* \"#utility.yul\":10884:11303   */\n    tag_114:\n        /* \"#utility.yul\":11050:11054   */\n      0x00\n        /* \"#utility.yul\":11088:11090   */\n      0x20\n        /* \"#utility.yul\":11077:11086   */\n      dup3\n        /* \"#utility.yul\":11073:11091   */\n      add\n        /* \"#utility.yul\":11065:11091   */\n      swap1\n      pop\n        /* \"#utility.yul\":11137:11146   */\n      dup2\n        /* \"#utility.yul\":11131:11135   */\n      dup2\n        /* \"#utility.yul\":11127:11147   */\n      sub\n        /* \"#utility.yul\":11123:11124   */\n      0x00\n        /* \"#utility.yul\":11112:11121   */\n      dup4\n        /* \"#utility.yul\":11108:11125   */\n      add\n        /* \"#utility.yul\":11101:11148   */\n      mstore\n        /* \"#utility.yul\":11165:11296   */\n      tag_330\n        /* \"#utility.yul\":11291:11295   */\n      dup2\n        /* \"#utility.yul\":11165:11296   */\n      tag_276\n      jump\t// in\n    tag_330:\n        /* \"#utility.yul\":11157:11296   */\n      swap1\n      pop\n        /* \"#utility.yul\":10884:11303   */\n      swap2\n      swap1\n      pop\n      jump\t// out\n        /* \"#utility.yul\":11309:11728   */\n    tag_138:\n        /* \"#utility.yul\":11475:11479   */\n      0x00\n        /* \"#utility.yul\":11513:11515   */\n      0x20\n        /* \"#utility.yul\":11502:11511   */\n      dup3\n        /* \"#utility.yul\":11498:11516   */\n      add\n        /* \"#utility.yul\":11490:11516   */\n      swap1\n      pop\n        /* \"#utility.yul\":11562:11571   */\n      dup2\n        /* \"#utility.yul\":11556:11560   */\n      dup2\n        /* \"#utility.yul\":11552:11572   */\n      sub\n        /* \"#utility.yul\":11548:11549   */\n      0x00\n        /* \"#utility.yul\":11537:11546   */\n      dup4\n        /* \"#utility.yul\":11533:11550   */\n      add\n        /* \"#utility.yul\":11526:11573   */\n      mstore\n        /* \"#utility.yul\":11590:11721   */\n      tag_332\n        /* \"#utility.yul\":11716:11720   */\n      dup2\n        /* \"#utility.yul\":11590:11721   */\n      tag_287\n      jump\t// in\n    tag_332:\n        /* \"#utility.yul\":11582:11721   */\n      swap1\n      pop\n        /* \"#utility.yul\":11309:11728   */\n      swap2\n      swap1\n      pop\n      jump\t// out\n        /* \"#utility.yul\":11734:12153   */\n    tag_110:\n        /* \"#utility.yul\":11900:11904   */\n      0x00\n        /* \"#utility.yul\":11938:11940   */\n      0x20\n        /* \"#utility.yul\":11927:11936   */\n      dup3\n        /* \"#utility.yul\":11923:11941   */\n      add\n        /* \"#utility.yul\":11915:11941   */\n      swap1\n      pop\n        /* \"#utility.yul\":11987:11996   */\n      dup2\n        /* \"#utility.yul\":11981:11985   */\n      dup2\n        /* \"#utility.yul\":11977:11997   */\n      sub\n        /* \"#utility.yul\":11973:11974   */\n      0x00\n        /* \"#utility.yul\":11962:11971   */\n      dup4\n        /* \"#utility.yul\":11958:11975   */\n      add\n        /* \"#utility.yul\":11951:11998   */\n      mstore\n        /* \"#utility.yul\":12015:12146   */\n      tag_334\n        /* \"#utility.yul\":12141:12145   */\n      dup2\n        /* \"#utility.yul\":12015:12146   */\n      tag_292\n      jump\t// in\n    tag_334:\n        /* \"#utility.yul\":12007:12146   */\n      swap1\n      pop\n        /* \"#utility.yul\":11734:12153   */\n      swap2\n      swap1\n      pop\n      jump\t// out\n        /* \"#utility.yul\":12159:12381   */\n    tag_32:\n        /* \"#utility.yul\":12252:12256   */\n      0x00\n        /* \"#utility.yul\":12290:12292   */\n      0x20\n        /* \"#utility.yul\":12279:12288   */\n      dup3\n        /* \"#utility.yul\":12275:12293   */\n      add\n        /* \"#utility.yul\":12267:12293   */\n      swap1\n      pop\n        /* \"#utility.yul\":12303:12374   */\n      tag_336\n        /* \"#utility.yul\":12371:12372   */\n      0x00\n        /* \"#utility.yul\":12360:12369   */\n      dup4\n        /* \"#utility.yul\":12356:12373   */\n      add\n        /* \"#utility.yul\":12347:12353   */\n      dup5\n        /* \"#utility.yul\":12303:12374   */\n      tag_297\n      jump\t// in\n    tag_336:\n        /* \"#utility.yul\":12159:12381   */\n      swap3\n      swap2\n      pop\n      pop\n      jump\t// out\n        /* \"#utility.yul\":12468:12615   */\n    tag_284:\n        /* \"#utility.yul\":12569:12580   */\n      0x00\n        /* \"#utility.yul\":12606:12609   */\n      dup2\n        /* \"#utility.yul\":12591:12609   */\n      swap1\n      pop\n        /* \"#utility.yul\":12468:12615   */\n      swap3\n      swap2\n      pop\n      pop\n      jump\t// out\n        /* \"#utility.yul\":12621:12790   */\n    tag_248:\n        /* \"#utility.yul\":12705:12716   */\n      0x00\n        /* \"#utility.yul\":12739:12745   */\n      dup3\n        /* \"#utility.yul\":12734:12737   */\n      dup3\n        /* \"#utility.yul\":12727:12746   */\n      mstore\n        /* \"#utility.yul\":12779:12783   */\n      0x20\n        /* \"#utility.yul\":12774:12777   */\n      dup3\n        /* \"#utility.yul\":12770:12784   */\n      add\n        /* \"#utility.yul\":12755:12784   */\n      swap1\n      pop\n        /* \"#utility.yul\":12621:12790   */\n      swap3\n      swap2\n      pop\n      pop\n      jump\t// out\n        /* \"#utility.yul\":12796:13101   */\n    tag_150:\n        /* \"#utility.yul\":12836:12839   */\n      0x00\n        /* \"#utility.yul\":12855:12875   */\n      tag_342\n        /* \"#utility.yul\":12873:12874   */\n      dup3\n        /* \"#utility.yul\":12855:12875   */\n      tag_300\n      jump\t// in\n    tag_342:\n        /* \"#utility.yul\":12850:12875   */\n      swap2\n      pop\n        /* \"#utility.yul\":12889:12909   */\n      tag_343\n        /* \"#utility.yul\":12907:12908   */\n      dup4\n        /* \"#utility.yul\":12889:12909   */\n      tag_300\n      jump\t// in\n    tag_343:\n        /* \"#utility.yul\":12884:12909   */\n      swap3\n      pop\n        /* \"#utility.yul\":13043:13044   */\n      dup3\n        /* \"#utility.yul\":12975:13041   */\n      0xffffffffffffffffffffffffffffffffffffffffffffffffffffffffffffffff\n        /* \"#utility.yul\":12971:13045   */\n      sub\n        /* \"#utility.yul\":12968:12969   */\n      dup3\n        /* \"#utility.yul\":12965:13046   */\n      gt\n        /* \"#utility.yul\":12962:13069   */\n      iszero\n      tag_344\n      jumpi\n        /* \"#utility.yul\":13049:13067   */\n      tag_345\n      tag_346\n      jump\t// in\n    tag_345:\n        /* \"#utility.yul\":12962:13069   */\n    tag_344:\n        /* \"#utility.yul\":13093:13094   */\n      dup3\n        /* \"#utility.yul\":13090:13091   */\n      dup3\n        /* \"#utility.yul\":13086:13095   */\n      add\n        /* \"#utility.yul\":13079:13095   */\n      swap1\n      pop\n        /* \"#utility.yul\":12796:13101   */\n      swap3\n      swap2\n      pop\n      pop\n      jump\t// out\n        /* \"#utility.yul\":13107:13203   */\n    tag_236:\n        /* \"#utility.yul\":13144:13151   */\n      0x00\n        /* \"#utility.yul\":13173:13197   */\n      tag_348\n        /* \"#utility.yul\":13191:13196   */\n      dup3\n        /* \"#utility.yul\":13173:13197   */\n      tag_349\n      jump\t// in\n    tag_348:\n        /* \"#utility.yul\":13162:13197   */\n      swap1\n      pop\n        /* \"#utility.yul\":13107:13203   */\n      swap2\n      swap1\n      pop\n      jump\t// out\n        /* \"#utility.yul\":13209:13299   */\n    tag_240:\n        /* \"#utility.yul\":13243:13250   */\n      0x00\n        /* \"#utility.yul\":13286:13291   */\n      dup2\n        /* \"#utility.yul\":13279:13292   */\n      iszero\n        /* \"#utility.yul\":13272:13293   */\n      iszero\n        /* \"#utility.yul\":13261:13293   */\n      swap1\n      pop\n        /* \"#utility.yul\":13209:13299   */\n      swap2\n      swap1\n      pop\n      jump\t// out\n        /* \"#utility.yul\":13305:13434   */\n    tag_351:\n        /* \"#utility.yul\":13351:13358   */\n      0x00\n        /* \"#utility.yul\":13380:13385   */\n      dup2\n        /* \"#utility.yul\":13369:13385   */\n      swap1\n      pop\n        /* \"#utility.yul\":13386:13428   */\n      tag_353\n        /* \"#utility.yul\":13422:13427   */\n      dup3\n        /* \"#utility.yul\":13386:13428   */\n      tag_354\n      jump\t// in\n    tag_353:\n        /* \"#utility.yul\":13305:13434   */\n      swap2\n      swap1\n      pop\n      jump\t// out\n        /* \"#utility.yul\":13440:13566   */\n    tag_349:\n        /* \"#utility.yul\":13477:13484   */\n      0x00\n        /* \"#utility.yul\":13517:13559   */\n      0xffffffffffffffffffffffffffffffffffffffff\n        /* \"#utility.yul\":13510:13515   */\n      dup3\n        /* \"#utility.yul\":13506:13560   */\n      and\n        /* \"#utility.yul\":13495:13560   */\n      swap1\n      pop\n        /* \"#utility.yul\":13440:13566   */\n      swap2\n      swap1\n      pop\n      jump\t// out\n        /* \"#utility.yul\":13572:13649   */\n    tag_300:\n        /* \"#utility.yul\":13609:13616   */\n      0x00\n        /* \"#utility.yul\":13638:13643   */\n      dup2\n        /* \"#utility.yul\":13627:13643   */\n      swap1\n      pop\n        /* \"#utility.yul\":13572:13649   */\n      swap2\n      swap1\n      pop\n      jump\t// out\n        /* \"#utility.yul\":13655:13784   */\n    tag_244:\n        /* \"#utility.yul\":13712:13721   */\n      0x00\n        /* \"#utility.yul\":13745:13778   */\n      tag_358\n        /* \"#utility.yul\":13772:13777   */\n      dup3\n        /* \"#utility.yul\":13745:13778   */\n      tag_351\n      jump\t// in\n    tag_358:\n        /* \"#utility.yul\":13732:13778   */\n      swap1\n      pop\n        /* \"#utility.yul\":13655:13784   */\n      swap2\n      swap1\n      pop\n      jump\t// out\n        /* \"#utility.yul\":13790:13869   */\n    tag_305:\n        /* \"#utility.yul\":13829:13836   */\n      0x00\n        /* \"#utility.yul\":13858:13863   */\n      dup2\n        /* \"#utility.yul\":13847:13863   */\n      swap1\n      pop\n        /* \"#utility.yul\":13790:13869   */\n      swap2\n      swap1\n      pop\n      jump\t// out\n        /* \"#utility.yul\":13875:14051   */\n    tag_192:\n        /* \"#utility.yul\":13907:13908   */\n      0x00\n        /* \"#utility.yul\":13924:13944   */\n      tag_361\n        /* \"#utility.yul\":13942:13943   */\n      dup3\n        /* \"#utility.yul\":13924:13944   */\n      tag_300\n      jump\t// in\n    tag_361:\n        /* \"#utility.yul\":13919:13944   */\n      swap2\n      pop\n        /* \"#utility.yul\":13958:13978   */\n      tag_362\n        /* \"#utility.yul\":13976:13977   */\n      dup4\n        /* \"#utility.yul\":13958:13978   */\n      tag_300\n      jump\t// in\n    tag_362:\n        /* \"#utility.yul\":13953:13978   */\n      swap3\n      pop\n        /* \"#utility.yul\":13997:13998   */\n      dup3\n        /* \"#utility.yul\":13987:14022   */\n      tag_363\n      jumpi\n        /* \"#utility.yul\":14002:14020   */\n      tag_364\n      tag_365\n      jump\t// in\n    tag_364:\n        /* \"#utility.yul\":13987:14022   */\n    tag_363:\n        /* \"#utility.yul\":14043:14044   */\n      dup3\n        /* \"#utility.yul\":14040:14041   */\n      dup3\n        /* \"#utility.yul\":14036:14045   */\n      mod\n        /* \"#utility.yul\":14031:14045   */\n      swap1\n      pop\n        /* \"#utility.yul\":13875:14051   */\n      swap3\n      swap2\n      pop\n      pop\n      jump\t// out\n        /* \"#utility.yul\":14057:14237   */\n    tag_346:\n        /* \"#utility.yul\":14105:14182   */\n      0x4e487b7100000000000000000000000000000000000000000000000000000000\n        /* \"#utility.yul\":14102:14103   */\n      0x00\n        /* \"#utility.yul\":14095:14183   */\n      mstore\n        /* \"#utility.yul\":14202:14206   */\n      0x11\n        /* \"#utility.yul\":14199:14200   */\n      0x04\n        /* \"#utility.yul\":14192:14207   */\n      mstore\n        /* \"#utility.yul\":14226:14230   */\n      0x24\n        /* \"#utility.yul\":14223:14224   */\n      0x00\n        /* \"#utility.yul\":14216:14231   */\n      revert\n        /* \"#utility.yul\":14243:14423   */\n    tag_365:\n        /* \"#utility.yul\":14291:14368   */\n      0x4e487b7100000000000000000000000000000000000000000000000000000000\n        /* \"#utility.yul\":14288:14289   */\n      0x00\n        /* \"#utility.yul\":14281:14369   */\n      mstore\n        /* \"#utility.yul\":14388:14392   */\n      0x12\n        /* \"#utility.yul\":14385:14386   */\n      0x04\n        /* \"#utility.yul\":14378:14393   */\n      mstore\n        /* \"#utility.yul\":14412:14416   */\n      0x24\n        /* \"#utility.yul\":14409:14410   */\n      0x00\n        /* \"#utility.yul\":14402:14417   */\n      revert\n        /* \"#utility.yul\":14429:14609   */\n    tag_133:\n        /* \"#utility.yul\":14477:14554   */\n      0x4e487b7100000000000000000000000000000000000000000000000000000000\n        /* \"#utility.yul\":14474:14475   */\n      0x00\n        /* \"#utility.yul\":14467:14555   */\n      mstore\n        /* \"#utility.yul\":14574:14578   */\n      0x21\n        /* \"#utility.yul\":14571:14572   */\n      0x04\n        /* \"#utility.yul\":14564:14579   */\n      mstore\n        /* \"#utility.yul\":14598:14602   */\n      0x24\n        /* \"#utility.yul\":14595:14596   */\n      0x00\n        /* \"#utility.yul\":14588:14603   */\n      revert\n        /* \"#utility.yul\":14738:14855   */\n    tag_214:\n        /* \"#utility.yul\":14847:14848   */\n      0x00\n        /* \"#utility.yul\":14844:14845   */\n      dup1\n        /* \"#utility.yul\":14837:14849   */\n      revert\n        /* \"#utility.yul\":14861:15034   */\n    tag_250:\n        /* \"#utility.yul\":15001:15026   */\n      0x54686973206973206e6f74206f70656e65642079657421000000000000000000\n        /* \"#utility.yul\":14997:14998   */\n      0x00\n        /* \"#utility.yul\":14989:14995   */\n      dup3\n        /* \"#utility.yul\":14985:14999   */\n      add\n        /* \"#utility.yul\":14978:15027   */\n      mstore\n        /* \"#utility.yul\":14861:15034   */\n      pop\n      jump\t// out\n        /* \"#utility.yul\":15040:15215   */\n    tag_255:\n        /* \"#utility.yul\":15180:15207   */\n      0x436f6e747261637420697320696e207061757365206d6f646500000000000000\n        /* \"#utility.yul\":15176:15177   */\n      0x00\n        /* \"#utility.yul\":15168:15174   */\n      dup3\n        /* \"#utility.yul\":15164:15178   */\n      add\n        /* \"#utility.yul\":15157:15208   */\n      mstore\n        /* \"#utility.yul\":15040:15215   */\n      pop\n      jump\t// out\n        /* \"#utility.yul\":15221:15387   */\n    tag_260:\n        /* \"#utility.yul\":15361:15379   */\n      0x4e6f7420456e6f7567682046756e647300000000000000000000000000000000\n        /* \"#utility.yul\":15357:15358   */\n      0x00\n        /* \"#utility.yul\":15349:15355   */\n      dup3\n        /* \"#utility.yul\":15345:15359   */\n      add\n        /* \"#utility.yul\":15338:15380   */\n      mstore\n        /* \"#utility.yul\":15221:15387   */\n      pop\n      jump\t// out\n        /* \"#utility.yul\":15393:15556   */\n    tag_265:\n        /* \"#utility.yul\":15533:15548   */\n      0x4e6f7420746865206f776e657200000000000000000000000000000000000000\n        /* \"#utility.yul\":15529:15530   */\n      0x00\n        /* \"#utility.yul\":15521:15527   */\n      dup3\n        /* \"#utility.yul\":15517:15531   */\n      add\n        /* \"#utility.yul\":15510:15549   */\n      mstore\n        /* \"#utility.yul\":15393:15556   */\n      pop\n      jump\t// out\n        /* \"#utility.yul\":15562:15784   */\n    tag_270:\n        /* \"#utility.yul\":15702:15736   */\n      0x54686520726563656976657220646f6e74206861766520656e6f756768206675\n        /* \"#utility.yul\":15698:15699   */\n      0x00\n        /* \"#utility.yul\":15690:15696   */\n      dup3\n        /* \"#utility.yul\":15686:15700   */\n      add\n        /* \"#utility.yul\":15679:15737   */\n      mstore\n        /* \"#utility.yul\":15771:15776   */\n      0x6e64730000000000000000000000000000000000000000000000000000000000\n        /* \"#utility.yul\":15766:15768   */\n      0x20\n        /* \"#utility.yul\":15758:15764   */\n      dup3\n        /* \"#utility.yul\":15754:15769   */\n      add\n        /* \"#utility.yul\":15747:15777   */\n      mstore\n        /* \"#utility.yul\":15562:15784   */\n      pop\n      jump\t// out\n        /* \"#utility.yul\":15790:15962   */\n    tag_275:\n        /* \"#utility.yul\":15930:15954   */\n      0x4e6f742074686520636f727265637420616d6f756e7400000000000000000000\n        /* \"#utility.yul\":15926:15927   */\n      0x00\n        /* \"#utility.yul\":15918:15924   */\n      dup3\n        /* \"#utility.yul\":15914:15928   */\n      add\n        /* \"#utility.yul\":15907:15955   */\n      mstore\n        /* \"#utility.yul\":15790:15962   */\n      pop\n      jump\t// out\n        /* \"#utility.yul\":15968:16193   */\n    tag_280:\n        /* \"#utility.yul\":16108:16142   */\n      0x596f752061726520747279696e6720746f20726566756e64207765726f6e6720\n        /* \"#utility.yul\":16104:16105   */\n      0x00\n        /* \"#utility.yul\":16096:16102   */\n      dup3\n        /* \"#utility.yul\":16092:16106   */\n      add\n        /* \"#utility.yul\":16085:16143   */\n      mstore\n        /* \"#utility.yul\":16177:16185   */\n      0x616d6f756e740000000000000000000000000000000000000000000000000000\n        /* \"#utility.yul\":16172:16174   */\n      0x20\n        /* \"#utility.yul\":16164:16170   */\n      dup3\n        /* \"#utility.yul\":16160:16175   */\n      add\n        /* \"#utility.yul\":16153:16186   */\n      mstore\n        /* \"#utility.yul\":15968:16193   */\n      pop\n      jump\t// out\n        /* \"#utility.yul\":16199:16313   */\n    tag_286:\n      pop\n      jump\t// out\n        /* \"#utility.yul\":16319:16489   */\n    tag_291:\n        /* \"#utility.yul\":16459:16481   */\n      0x4e6f7420417420436f7272656374205374616765000000000000000000000000\n        /* \"#utility.yul\":16455:16456   */\n      0x00\n        /* \"#utility.yul\":16447:16453   */\n      dup3\n        /* \"#utility.yul\":16443:16457   */\n      add\n        /* \"#utility.yul\":16436:16482   */\n      mstore\n        /* \"#utility.yul\":16319:16489   */\n      pop\n      jump\t// out\n        /* \"#utility.yul\":16495:16726   */\n    tag_296:\n        /* \"#utility.yul\":16635:16669   */\n      0x54686520727175657374206d75737420626520696e6974696174656420627920\n        /* \"#utility.yul\":16631:16632   */\n      0x00\n        /* \"#utility.yul\":16623:16629   */\n      dup3\n        /* \"#utility.yul\":16619:16633   */\n      add\n        /* \"#utility.yul\":16612:16670   */\n      mstore\n        /* \"#utility.yul\":16704:16718   */\n      0x6d616e61676572206f6e6c790000000000000000000000000000000000000000\n        /* \"#utility.yul\":16699:16701   */\n      0x20\n        /* \"#utility.yul\":16691:16697   */\n      dup3\n        /* \"#utility.yul\":16687:16702   */\n      add\n        /* \"#utility.yul\":16680:16719   */\n      mstore\n        /* \"#utility.yul\":16495:16726   */\n      pop\n      jump\t// out\n        /* \"#utility.yul\":16732:16846   */\n    tag_354:\n        /* \"#utility.yul\":16814:16815   */\n      0x03\n        /* \"#utility.yul\":16807:16812   */\n      dup2\n        /* \"#utility.yul\":16804:16816   */\n      lt\n        /* \"#utility.yul\":16794:16840   */\n      tag_383\n      jumpi\n        /* \"#utility.yul\":16820:16838   */\n      tag_384\n      tag_133\n      jump\t// in\n    tag_384:\n        /* \"#utility.yul\":16794:16840   */\n    tag_383:\n        /* \"#utility.yul\":16732:16846   */\n      pop\n      jump\t// out\n        /* \"#utility.yul\":16852:16974   */\n    tag_198:\n        /* \"#utility.yul\":16925:16949   */\n      tag_386\n        /* \"#utility.yul\":16943:16948   */\n      dup2\n        /* \"#utility.yul\":16925:16949   */\n      tag_236\n      jump\t// in\n    tag_386:\n        /* \"#utility.yul\":16918:16923   */\n      dup2\n        /* \"#utility.yul\":16915:16950   */\n      eq\n        /* \"#utility.yul\":16905:16968   */\n      tag_387\n      jumpi\n        /* \"#utility.yul\":16964:16965   */\n      0x00\n        /* \"#utility.yul\":16961:16962   */\n      dup1\n        /* \"#utility.yul\":16954:16966   */\n      revert\n        /* \"#utility.yul\":16905:16968   */\n    tag_387:\n        /* \"#utility.yul\":16852:16974   */\n      pop\n      jump\t// out\n        /* \"#utility.yul\":16980:17096   */\n    tag_202:\n        /* \"#utility.yul\":17050:17071   */\n      tag_389\n        /* \"#utility.yul\":17065:17070   */\n      dup2\n        /* \"#utility.yul\":17050:17071   */\n      tag_240\n      jump\t// in\n    tag_389:\n        /* \"#utility.yul\":17043:17048   */\n      dup2\n        /* \"#utility.yul\":17040:17072   */\n      eq\n        /* \"#utility.yul\":17030:17090   */\n      tag_390\n      jumpi\n        /* \"#utility.yul\":17086:17087   */\n      0x00\n        /* \"#utility.yul\":17083:17084   */\n      dup1\n        /* \"#utility.yul\":17076:17088   */\n      revert\n        /* \"#utility.yul\":17030:17090   */\n    tag_390:\n        /* \"#utility.yul\":16980:17096   */\n      pop\n      jump\t// out\n        /* \"#utility.yul\":17102:17210   */\n    tag_206:\n        /* \"#utility.yul\":17184:17185   */\n      0x03\n        /* \"#utility.yul\":17177:17182   */\n      dup2\n        /* \"#utility.yul\":17174:17186   */\n      lt\n        /* \"#utility.yul\":17164:17204   */\n      tag_392\n      jumpi\n        /* \"#utility.yul\":17200:17201   */\n      0x00\n        /* \"#utility.yul\":17197:17198   */\n      dup1\n        /* \"#utility.yul\":17190:17202   */\n      revert\n        /* \"#utility.yul\":17164:17204   */\n    tag_392:\n        /* \"#utility.yul\":17102:17210   */\n      pop\n      jump\t// out\n        /* \"#utility.yul\":17216:17338   */\n    tag_210:\n        /* \"#utility.yul\":17289:17313   */\n      tag_394\n        /* \"#utility.yul\":17307:17312   */\n      dup2\n        /* \"#utility.yul\":17289:17313   */\n      tag_300\n      jump\t// in\n    tag_394:\n        /* \"#utility.yul\":17282:17287   */\n      dup2\n        /* \"#utility.yul\":17279:17314   */\n      eq\n        /* \"#utility.yul\":17269:17332   */\n      tag_395\n      jumpi\n        /* \"#utility.yul\":17328:17329   */\n      0x00\n        /* \"#utility.yul\":17325:17326   */\n      dup1\n        /* \"#utility.yul\":17318:17330   */\n      revert\n        /* \"#utility.yul\":17269:17332   */\n    tag_395:\n        /* \"#utility.yul\":17216:17338   */\n      pop\n      jump\t// out\n\n    auxdata: 0xa26469706673582212205f7d6391a5da3f3d02c8629b9ee429d77ee2d9a30463f24d9670a176e85da1d964736f6c63430008070033\n}\n",
				"bytecode": {
					"linkReferences": {},
					"object": "60806040526702c68af0bb14000060005567058d15e1762800006001556005426200002b91906200010d565b6004556000600760006101000a81548160ff0219169083151502179055506000600760016101000a81548160ff02191690836002811115620000725762000071620001a3565b5b02179055503480156200008457600080fd5b5033600360006101000a81548173ffffffffffffffffffffffffffffffffffffffff021916908373ffffffffffffffffffffffffffffffffffffffff16021790555033600260006101000a81548173ffffffffffffffffffffffffffffffffffffffff021916908373ffffffffffffffffffffffffffffffffffffffff160217905550620001d2565b60006200011a826200016a565b915062000127836200016a565b9250827fffffffffffffffffffffffffffffffffffffffffffffffffffffffffffffffff038211156200015f576200015e62000174565b5b828201905092915050565b6000819050919050565b7f4e487b7100000000000000000000000000000000000000000000000000000000600052601160045260246000fd5b7f4e487b7100000000000000000000000000000000000000000000000000000000600052602160045260246000fd5b6116f380620001e26000396000f3fe6080604052600436106101095760003560e01c80638da5cb5b11610095578063bd083bae11610064578063bd083bae1461030c578063c06a56ba14610349578063ce365cdf14610360578063d1f22eef14610377578063f203644a146103b457610109565b80638da5cb5b14610283578063925b8148146102ae578063b5545a3c146102d9578063b8e53ae7146102e357610109565b806334011d28116100dc57806334011d28146101ca578063410085df146101f5578063481c6a751461021157806359588d521461023c5780635c975abb1461025857610109565b806302329a291461010e5780630b97bc861461013757806312065fe014610162578063336989ae1461018d575b600080fd5b34801561011a57600080fd5b5061013560048036038101906101309190610ebd565b6103df565b005b34801561014357600080fd5b5061014c61048c565b60405161015991906112a7565b60405180910390f35b34801561016e57600080fd5b50610177610492565b60405161018491906112a7565b60405180910390f35b34801561019957600080fd5b506101b460048036038101906101af9190610e50565b61049a565b6040516101c191906112a7565b60405180910390f35b3480156101d657600080fd5b506101df6104b2565b6040516101ec919061116c565b60405180910390f35b61020f600480360381019061020a9190610e7d565b6104c5565b005b34801561021d57600080fd5b50610226610746565b6040516102339190611136565b60405180910390f35b61025660048036038101906102519190610f17565b61076c565b005b34801561026457600080fd5b5061026d610a48565b60405161027a9190611151565b60405180910390f35b34801561028f57600080fd5b50610298610a5b565b6040516102a59190611136565b60405180910390f35b3480156102ba57600080fd5b506102c3610a81565b6040516102d091906112a7565b60405180910390f35b6102e1610a87565b005b3480156102ef57600080fd5b5061030a60048036038101906103059190610eea565b610bcf565b005b34801561031857600080fd5b50610333600480360381019061032e9190610e50565b610bfc565b60405161034091906112a7565b60405180910390f35b34801561035557600080fd5b5061035e610c14565b005b34801561036c57600080fd5b50610375610cdc565b005b34801561038357600080fd5b5061039e60048036038101906103999190610f17565b610da4565b6040516103ab91906112a7565b60405180910390f35b3480156103c057600080fd5b506103c9610df6565b6040516103d691906112a7565b60405180910390f35b600360009054906101000a900473ffffffffffffffffffffffffffffffffffffffff1673ffffffffffffffffffffffffffffffffffffffff163373ffffffffffffffffffffffffffffffffffffffff161461046f576040517f08c379a0000000000000000000000000000000000000000000000000000000008152600401610466906111e7565b60405180910390fd5b80600760006101000a81548160ff02191690831515021790555050565b60045481565b600047905090565b60056020528060005260406000206000915090505481565b600760019054906101000a900460ff1681565b8181600260009054906101000a900473ffffffffffffffffffffffffffffffffffffffff1673ffffffffffffffffffffffffffffffffffffffff163373ffffffffffffffffffffffffffffffffffffffff1614610557576040517f08c379a000000000000000000000000000000000000000000000000000000000815260040161054e90611287565b60405180910390fd5b600054811480610568575060015481145b6105a7576040517f08c379a000000000000000000000000000000000000000000000000000000000815260040161059e90611247565b60405180910390fd5b80600560008473ffffffffffffffffffffffffffffffffffffffff1673ffffffffffffffffffffffffffffffffffffffff168152602001908152602001600020541015610629576040517f08c379a000000000000000000000000000000000000000000000000000000000815260040161062090611207565b60405180910390fd5b600360009054906101000a900473ffffffffffffffffffffffffffffffffffffffff1673ffffffffffffffffffffffffffffffffffffffff163373ffffffffffffffffffffffffffffffffffffffff16146106b9576040517f08c379a00000000000000000000000000000000000000000000000000000000081526004016106b0906111e7565b60405180910390fd5b824710156106fc576040517f08c379a00000000000000000000000000000000000000000000000000000000081526004016106f3906111c7565b60405180910390fd5b82600660008673ffffffffffffffffffffffffffffffffffffffff1673ffffffffffffffffffffffffffffffffffffffff1681526020019081526020016000208190555050505050565b600260009054906101000a900473ffffffffffffffffffffffffffffffffffffffff1681565b60005434148061077d575060015434145b6107bc576040517f08c379a00000000000000000000000000000000000000000000000000000000081526004016107b390611227565b60405180910390fd5b60008060028111156107d1576107d061143a565b5b600760019054906101000a900460ff1660028111156107f3576107f261143a565b5b14610833576040517f08c379a000000000000000000000000000000000000000000000000000000000815260040161082a90611267565b60405180910390fd5b6004544211610877576040517f08c379a000000000000000000000000000000000000000000000000000000000815260040161086e90611187565b60405180910390fd5b60001515600760009054906101000a900460ff161515146108cd576040517f08c379a00000000000000000000000000000000000000000000000000000000081526004016108c4906111a7565b60405180910390fd5b6000600560003373ffffffffffffffffffffffffffffffffffffffff1673ffffffffffffffffffffffffffffffffffffffff16815260200190815260200160002054146109a75734600560003373ffffffffffffffffffffffffffffffffffffffff1673ffffffffffffffffffffffffffffffffffffffff1681526020019081526020016000205461095f91906112de565b600560003373ffffffffffffffffffffffffffffffffffffffff1673ffffffffffffffffffffffffffffffffffffffff168152602001908152602001600020819055506109ec565b34600560003373ffffffffffffffffffffffffffffffffffffffff1673ffffffffffffffffffffffffffffffffffffffff168152602001908152602001600020819055505b6109f66001610bcf565b3373ffffffffffffffffffffffffffffffffffffffff167fc63d5e450f470dcc6536476b6fd78a0f261765ef92b25631875b0a35eaa095bf83604051610a3c91906112a7565b60405180910390a25050565b600760009054906101000a900460ff1681565b600360009054906101000a900473ffffffffffffffffffffffffffffffffffffffff1681565b60015481565b6000600560003373ffffffffffffffffffffffffffffffffffffffff1673ffffffffffffffffffffffffffffffffffffffff1681526020019081526020016000205490506000600660003373ffffffffffffffffffffffffffffffffffffffff1673ffffffffffffffffffffffffffffffffffffffff168152602001908152602001600020819055506000600560003373ffffffffffffffffffffffffffffffffffffffff1673ffffffffffffffffffffffffffffffffffffffff1681526020019081526020016000208190555060003373ffffffffffffffffffffffffffffffffffffffff1682604051610b7b906110f5565b60006040518083038185875af1925050503d8060008114610bb8576040519150601f19603f3d011682016040523d82523d6000602084013e610bbd565b606091505b5050905080610bcb57600080fd5b5050565b80600760016101000a81548160ff02191690836002811115610bf457610bf361143a565b5b021790555050565b60066020528060005260406000206000915090505481565b6001806002811115610c2957610c2861143a565b5b600760019054906101000a900460ff166002811115610c4b57610c4a61143a565b5b14610c8b576040517f08c379a0000000000000000000000000000000000000000000000000000000008152600401610c8290611267565b60405180910390fd5b6004544211610ccf576040517f08c379a0000000000000000000000000000000000000000000000000000000008152600401610cc690611187565b60405180910390fd5b610cd96002610bcf565b50565b6002806002811115610cf157610cf061143a565b5b600760019054906101000a900460ff166002811115610d1357610d1261143a565b5b14610d53576040517f08c379a0000000000000000000000000000000000000000000000000000000008152600401610d4a90611267565b60405180910390fd5b6004544211610d97576040517f08c379a0000000000000000000000000000000000000000000000000000000008152600401610d8e90611187565b60405180910390fd5b610da16000610bcf565b50565b6000806001600a4285604051602001610dbe92919061110a565b6040516020818303038152906040528051906020012060001c610de191906113ab565b610deb91906112de565b905080915050919050565b60005481565b600081359050610e0b81611668565b92915050565b600081359050610e208161167f565b92915050565b600081359050610e3581611696565b92915050565b600081359050610e4a816116a6565b92915050565b600060208284031215610e6657610e65611469565b5b6000610e7484828501610dfc565b91505092915050565b60008060408385031215610e9457610e93611469565b5b6000610ea285828601610dfc565b9250506020610eb385828601610e3b565b9150509250929050565b600060208284031215610ed357610ed2611469565b5b6000610ee184828501610e11565b91505092915050565b600060208284031215610f0057610eff611469565b5b6000610f0e84828501610e26565b91505092915050565b600060208284031215610f2d57610f2c611469565b5b6000610f3b84828501610e3b565b91505092915050565b610f4d81611334565b82525050565b610f5c81611346565b82525050565b610f6b8161138f565b82525050565b6000610f7e6017836112cd565b9150610f898261146e565b602082019050919050565b6000610fa16019836112cd565b9150610fac82611497565b602082019050919050565b6000610fc46010836112cd565b9150610fcf826114c0565b602082019050919050565b6000610fe7600d836112cd565b9150610ff2826114e9565b602082019050919050565b600061100a6023836112cd565b915061101582611512565b604082019050919050565b600061102d6016836112cd565b915061103882611561565b602082019050919050565b60006110506026836112cd565b915061105b8261158a565b604082019050919050565b60006110736000836112c2565b915061107e826115d9565b600082019050919050565b60006110966014836112cd565b91506110a1826115dc565b602082019050919050565b60006110b9602c836112cd565b91506110c482611605565b604082019050919050565b6110d881611385565b82525050565b6110ef6110ea82611385565b6113a1565b82525050565b600061110082611066565b9150819050919050565b600061111682856110de565b60208201915061112682846110de565b6020820191508190509392505050565b600060208201905061114b6000830184610f44565b92915050565b60006020820190506111666000830184610f53565b92915050565b60006020820190506111816000830184610f62565b92915050565b600060208201905081810360008301526111a081610f71565b9050919050565b600060208201905081810360008301526111c081610f94565b9050919050565b600060208201905081810360008301526111e081610fb7565b9050919050565b6000602082019050818103600083015261120081610fda565b9050919050565b6000602082019050818103600083015261122081610ffd565b9050919050565b6000602082019050818103600083015261124081611020565b9050919050565b6000602082019050818103600083015261126081611043565b9050919050565b6000602082019050818103600083015261128081611089565b9050919050565b600060208201905081810360008301526112a0816110ac565b9050919050565b60006020820190506112bc60008301846110cf565b92915050565b600081905092915050565b600082825260208201905092915050565b60006112e982611385565b91506112f483611385565b9250827fffffffffffffffffffffffffffffffffffffffffffffffffffffffffffffffff03821115611329576113286113dc565b5b828201905092915050565b600061133f82611365565b9050919050565b60008115159050919050565b600081905061136082611654565b919050565b600073ffffffffffffffffffffffffffffffffffffffff82169050919050565b6000819050919050565b600061139a82611352565b9050919050565b6000819050919050565b60006113b682611385565b91506113c183611385565b9250826113d1576113d061140b565b5b828206905092915050565b7f4e487b7100000000000000000000000000000000000000000000000000000000600052601160045260246000fd5b7f4e487b7100000000000000000000000000000000000000000000000000000000600052601260045260246000fd5b7f4e487b7100000000000000000000000000000000000000000000000000000000600052602160045260246000fd5b600080fd5b7f54686973206973206e6f74206f70656e65642079657421000000000000000000600082015250565b7f436f6e747261637420697320696e207061757365206d6f646500000000000000600082015250565b7f4e6f7420456e6f7567682046756e647300000000000000000000000000000000600082015250565b7f4e6f7420746865206f776e657200000000000000000000000000000000000000600082015250565b7f54686520726563656976657220646f6e74206861766520656e6f75676820667560008201527f6e64730000000000000000000000000000000000000000000000000000000000602082015250565b7f4e6f742074686520636f727265637420616d6f756e7400000000000000000000600082015250565b7f596f752061726520747279696e6720746f20726566756e64207765726f6e672060008201527f616d6f756e740000000000000000000000000000000000000000000000000000602082015250565b50565b7f4e6f7420417420436f7272656374205374616765000000000000000000000000600082015250565b7f54686520727175657374206d75737420626520696e697469617465642062792060008201527f6d616e61676572206f6e6c790000000000000000000000000000000000000000602082015250565b600381106116655761166461143a565b5b50565b61167181611334565b811461167c57600080fd5b50565b61168881611346565b811461169357600080fd5b50565b600381106116a357600080fd5b50565b6116af81611385565b81146116ba57600080fd5b5056fea26469706673582212205f7d6391a5da3f3d02c8629b9ee429d77ee2d9a30463f24d9670a176e85da1d964736f6c63430008070033",
					"opcodes": "PUSH1 0x80 PUSH1 0x40 MSTORE PUSH8 0x2C68AF0BB140000 PUSH1 0x0 SSTORE PUSH8 0x58D15E176280000 PUSH1 0x1 SSTORE PUSH1 0x5 TIMESTAMP PUSH3 0x2B SWAP2 SWAP1 PUSH3 0x10D JUMP JUMPDEST PUSH1 0x4 SSTORE PUSH1 0x0 PUSH1 0x7 PUSH1 0x0 PUSH2 0x100 EXP DUP2 SLOAD DUP2 PUSH1 0xFF MUL NOT AND SWAP1 DUP4 ISZERO ISZERO MUL OR SWAP1 SSTORE POP PUSH1 0x0 PUSH1 0x7 PUSH1 0x1 PUSH2 0x100 EXP DUP2 SLOAD DUP2 PUSH1 0xFF MUL NOT AND SWAP1 DUP4 PUSH1 0x2 DUP2 GT ISZERO PUSH3 0x72 JUMPI PUSH3 0x71 PUSH3 0x1A3 JUMP JUMPDEST JUMPDEST MUL OR SWAP1 SSTORE POP CALLVALUE DUP1 ISZERO PUSH3 0x84 JUMPI PUSH1 0x0 DUP1 REVERT JUMPDEST POP CALLER PUSH1 0x3 PUSH1 0x0 PUSH2 0x100 EXP DUP2 SLOAD DUP2 PUSH20 0xFFFFFFFFFFFFFFFFFFFFFFFFFFFFFFFFFFFFFFFF MUL NOT AND SWAP1 DUP4 PUSH20 0xFFFFFFFFFFFFFFFFFFFFFFFFFFFFFFFFFFFFFFFF AND MUL OR SWAP1 SSTORE POP CALLER PUSH1 0x2 PUSH1 0x0 PUSH2 0x100 EXP DUP2 SLOAD DUP2 PUSH20 0xFFFFFFFFFFFFFFFFFFFFFFFFFFFFFFFFFFFFFFFF MUL NOT AND SWAP1 DUP4 PUSH20 0xFFFFFFFFFFFFFFFFFFFFFFFFFFFFFFFFFFFFFFFF AND MUL OR SWAP1 SSTORE POP PUSH3 0x1D2 JUMP JUMPDEST PUSH1 0x0 PUSH3 0x11A DUP3 PUSH3 0x16A JUMP JUMPDEST SWAP2 POP PUSH3 0x127 DUP4 PUSH3 0x16A JUMP JUMPDEST SWAP3 POP DUP3 PUSH32 0xFFFFFFFFFFFFFFFFFFFFFFFFFFFFFFFFFFFFFFFFFFFFFFFFFFFFFFFFFFFFFFFF SUB DUP3 GT ISZERO PUSH3 0x15F JUMPI PUSH3 0x15E PUSH3 0x174 JUMP JUMPDEST JUMPDEST DUP3 DUP3 ADD SWAP1 POP SWAP3 SWAP2 POP POP JUMP JUMPDEST PUSH1 0x0 DUP2 SWAP1 POP SWAP2 SWAP1 POP JUMP JUMPDEST PUSH32 0x4E487B7100000000000000000000000000000000000000000000000000000000 PUSH1 0x0 MSTORE PUSH1 0x11 PUSH1 0x4 MSTORE PUSH1 0x24 PUSH1 0x0 REVERT JUMPDEST PUSH32 0x4E487B7100000000000000000000000000000000000000000000000000000000 PUSH1 0x0 MSTORE PUSH1 0x21 PUSH1 0x4 MSTORE PUSH1 0x24 PUSH1 0x0 REVERT JUMPDEST PUSH2 0x16F3 DUP1 PUSH3 0x1E2 PUSH1 0x0 CODECOPY PUSH1 0x0 RETURN INVALID PUSH1 0x80 PUSH1 0x40 MSTORE PUSH1 0x4 CALLDATASIZE LT PUSH2 0x109 JUMPI PUSH1 0x0 CALLDATALOAD PUSH1 0xE0 SHR DUP1 PUSH4 0x8DA5CB5B GT PUSH2 0x95 JUMPI DUP1 PUSH4 0xBD083BAE GT PUSH2 0x64 JUMPI DUP1 PUSH4 0xBD083BAE EQ PUSH2 0x30C JUMPI DUP1 PUSH4 0xC06A56BA EQ PUSH2 0x349 JUMPI DUP1 PUSH4 0xCE365CDF EQ PUSH2 0x360 JUMPI DUP1 PUSH4 0xD1F22EEF EQ PUSH2 0x377 JUMPI DUP1 PUSH4 0xF203644A EQ PUSH2 0x3B4 JUMPI PUSH2 0x109 JUMP JUMPDEST DUP1 PUSH4 0x8DA5CB5B EQ PUSH2 0x283 JUMPI DUP1 PUSH4 0x925B8148 EQ PUSH2 0x2AE JUMPI DUP1 PUSH4 0xB5545A3C EQ PUSH2 0x2D9 JUMPI DUP1 PUSH4 0xB8E53AE7 EQ PUSH2 0x2E3 JUMPI PUSH2 0x109 JUMP JUMPDEST DUP1 PUSH4 0x34011D28 GT PUSH2 0xDC JUMPI DUP1 PUSH4 0x34011D28 EQ PUSH2 0x1CA JUMPI DUP1 PUSH4 0x410085DF EQ PUSH2 0x1F5 JUMPI DUP1 PUSH4 0x481C6A75 EQ PUSH2 0x211 JUMPI DUP1 PUSH4 0x59588D52 EQ PUSH2 0x23C JUMPI DUP1 PUSH4 0x5C975ABB EQ PUSH2 0x258 JUMPI PUSH2 0x109 JUMP JUMPDEST DUP1 PUSH4 0x2329A29 EQ PUSH2 0x10E JUMPI DUP1 PUSH4 0xB97BC86 EQ PUSH2 0x137 JUMPI DUP1 PUSH4 0x12065FE0 EQ PUSH2 0x162 JUMPI DUP1 PUSH4 0x336989AE EQ PUSH2 0x18D JUMPI JUMPDEST PUSH1 0x0 DUP1 REVERT JUMPDEST CALLVALUE DUP1 ISZERO PUSH2 0x11A JUMPI PUSH1 0x0 DUP1 REVERT JUMPDEST POP PUSH2 0x135 PUSH1 0x4 DUP1 CALLDATASIZE SUB DUP2 ADD SWAP1 PUSH2 0x130 SWAP2 SWAP1 PUSH2 0xEBD JUMP JUMPDEST PUSH2 0x3DF JUMP JUMPDEST STOP JUMPDEST CALLVALUE DUP1 ISZERO PUSH2 0x143 JUMPI PUSH1 0x0 DUP1 REVERT JUMPDEST POP PUSH2 0x14C PUSH2 0x48C JUMP JUMPDEST PUSH1 0x40 MLOAD PUSH2 0x159 SWAP2 SWAP1 PUSH2 0x12A7 JUMP JUMPDEST PUSH1 0x40 MLOAD DUP1 SWAP2 SUB SWAP1 RETURN JUMPDEST CALLVALUE DUP1 ISZERO PUSH2 0x16E JUMPI PUSH1 0x0 DUP1 REVERT JUMPDEST POP PUSH2 0x177 PUSH2 0x492 JUMP JUMPDEST PUSH1 0x40 MLOAD PUSH2 0x184 SWAP2 SWAP1 PUSH2 0x12A7 JUMP JUMPDEST PUSH1 0x40 MLOAD DUP1 SWAP2 SUB SWAP1 RETURN JUMPDEST CALLVALUE DUP1 ISZERO PUSH2 0x199 JUMPI PUSH1 0x0 DUP1 REVERT JUMPDEST POP PUSH2 0x1B4 PUSH1 0x4 DUP1 CALLDATASIZE SUB DUP2 ADD SWAP1 PUSH2 0x1AF SWAP2 SWAP1 PUSH2 0xE50 JUMP JUMPDEST PUSH2 0x49A JUMP JUMPDEST PUSH1 0x40 MLOAD PUSH2 0x1C1 SWAP2 SWAP1 PUSH2 0x12A7 JUMP JUMPDEST PUSH1 0x40 MLOAD DUP1 SWAP2 SUB SWAP1 RETURN JUMPDEST CALLVALUE DUP1 ISZERO PUSH2 0x1D6 JUMPI PUSH1 0x0 DUP1 REVERT JUMPDEST POP PUSH2 0x1DF PUSH2 0x4B2 JUMP JUMPDEST PUSH1 0x40 MLOAD PUSH2 0x1EC SWAP2 SWAP1 PUSH2 0x116C JUMP JUMPDEST PUSH1 0x40 MLOAD DUP1 SWAP2 SUB SWAP1 RETURN JUMPDEST PUSH2 0x20F PUSH1 0x4 DUP1 CALLDATASIZE SUB DUP2 ADD SWAP1 PUSH2 0x20A SWAP2 SWAP1 PUSH2 0xE7D JUMP JUMPDEST PUSH2 0x4C5 JUMP JUMPDEST STOP JUMPDEST CALLVALUE DUP1 ISZERO PUSH2 0x21D JUMPI PUSH1 0x0 DUP1 REVERT JUMPDEST POP PUSH2 0x226 PUSH2 0x746 JUMP JUMPDEST PUSH1 0x40 MLOAD PUSH2 0x233 SWAP2 SWAP1 PUSH2 0x1136 JUMP JUMPDEST PUSH1 0x40 MLOAD DUP1 SWAP2 SUB SWAP1 RETURN JUMPDEST PUSH2 0x256 PUSH1 0x4 DUP1 CALLDATASIZE SUB DUP2 ADD SWAP1 PUSH2 0x251 SWAP2 SWAP1 PUSH2 0xF17 JUMP JUMPDEST PUSH2 0x76C JUMP JUMPDEST STOP JUMPDEST CALLVALUE DUP1 ISZERO PUSH2 0x264 JUMPI PUSH1 0x0 DUP1 REVERT JUMPDEST POP PUSH2 0x26D PUSH2 0xA48 JUMP JUMPDEST PUSH1 0x40 MLOAD PUSH2 0x27A SWAP2 SWAP1 PUSH2 0x1151 JUMP JUMPDEST PUSH1 0x40 MLOAD DUP1 SWAP2 SUB SWAP1 RETURN JUMPDEST CALLVALUE DUP1 ISZERO PUSH2 0x28F JUMPI PUSH1 0x0 DUP1 REVERT JUMPDEST POP PUSH2 0x298 PUSH2 0xA5B JUMP JUMPDEST PUSH1 0x40 MLOAD PUSH2 0x2A5 SWAP2 SWAP1 PUSH2 0x1136 JUMP JUMPDEST PUSH1 0x40 MLOAD DUP1 SWAP2 SUB SWAP1 RETURN JUMPDEST CALLVALUE DUP1 ISZERO PUSH2 0x2BA JUMPI PUSH1 0x0 DUP1 REVERT JUMPDEST POP PUSH2 0x2C3 PUSH2 0xA81 JUMP JUMPDEST PUSH1 0x40 MLOAD PUSH2 0x2D0 SWAP2 SWAP1 PUSH2 0x12A7 JUMP JUMPDEST PUSH1 0x40 MLOAD DUP1 SWAP2 SUB SWAP1 RETURN JUMPDEST PUSH2 0x2E1 PUSH2 0xA87 JUMP JUMPDEST STOP JUMPDEST CALLVALUE DUP1 ISZERO PUSH2 0x2EF JUMPI PUSH1 0x0 DUP1 REVERT JUMPDEST POP PUSH2 0x30A PUSH1 0x4 DUP1 CALLDATASIZE SUB DUP2 ADD SWAP1 PUSH2 0x305 SWAP2 SWAP1 PUSH2 0xEEA JUMP JUMPDEST PUSH2 0xBCF JUMP JUMPDEST STOP JUMPDEST CALLVALUE DUP1 ISZERO PUSH2 0x318 JUMPI PUSH1 0x0 DUP1 REVERT JUMPDEST POP PUSH2 0x333 PUSH1 0x4 DUP1 CALLDATASIZE SUB DUP2 ADD SWAP1 PUSH2 0x32E SWAP2 SWAP1 PUSH2 0xE50 JUMP JUMPDEST PUSH2 0xBFC JUMP JUMPDEST PUSH1 0x40 MLOAD PUSH2 0x340 SWAP2 SWAP1 PUSH2 0x12A7 JUMP JUMPDEST PUSH1 0x40 MLOAD DUP1 SWAP2 SUB SWAP1 RETURN JUMPDEST CALLVALUE DUP1 ISZERO PUSH2 0x355 JUMPI PUSH1 0x0 DUP1 REVERT JUMPDEST POP PUSH2 0x35E PUSH2 0xC14 JUMP JUMPDEST STOP JUMPDEST CALLVALUE DUP1 ISZERO PUSH2 0x36C JUMPI PUSH1 0x0 DUP1 REVERT JUMPDEST POP PUSH2 0x375 PUSH2 0xCDC JUMP JUMPDEST STOP JUMPDEST CALLVALUE DUP1 ISZERO PUSH2 0x383 JUMPI PUSH1 0x0 DUP1 REVERT JUMPDEST POP PUSH2 0x39E PUSH1 0x4 DUP1 CALLDATASIZE SUB DUP2 ADD SWAP1 PUSH2 0x399 SWAP2 SWAP1 PUSH2 0xF17 JUMP JUMPDEST PUSH2 0xDA4 JUMP JUMPDEST PUSH1 0x40 MLOAD PUSH2 0x3AB SWAP2 SWAP1 PUSH2 0x12A7 JUMP JUMPDEST PUSH1 0x40 MLOAD DUP1 SWAP2 SUB SWAP1 RETURN JUMPDEST CALLVALUE DUP1 ISZERO PUSH2 0x3C0 JUMPI PUSH1 0x0 DUP1 REVERT JUMPDEST POP PUSH2 0x3C9 PUSH2 0xDF6 JUMP JUMPDEST PUSH1 0x40 MLOAD PUSH2 0x3D6 SWAP2 SWAP1 PUSH2 0x12A7 JUMP JUMPDEST PUSH1 0x40 MLOAD DUP1 SWAP2 SUB SWAP1 RETURN JUMPDEST PUSH1 0x3 PUSH1 0x0 SWAP1 SLOAD SWAP1 PUSH2 0x100 EXP SWAP1 DIV PUSH20 0xFFFFFFFFFFFFFFFFFFFFFFFFFFFFFFFFFFFFFFFF AND PUSH20 0xFFFFFFFFFFFFFFFFFFFFFFFFFFFFFFFFFFFFFFFF AND CALLER PUSH20 0xFFFFFFFFFFFFFFFFFFFFFFFFFFFFFFFFFFFFFFFF AND EQ PUSH2 0x46F JUMPI PUSH1 0x40 MLOAD PUSH32 0x8C379A000000000000000000000000000000000000000000000000000000000 DUP2 MSTORE PUSH1 0x4 ADD PUSH2 0x466 SWAP1 PUSH2 0x11E7 JUMP JUMPDEST PUSH1 0x40 MLOAD DUP1 SWAP2 SUB SWAP1 REVERT JUMPDEST DUP1 PUSH1 0x7 PUSH1 0x0 PUSH2 0x100 EXP DUP2 SLOAD DUP2 PUSH1 0xFF MUL NOT AND SWAP1 DUP4 ISZERO ISZERO MUL OR SWAP1 SSTORE POP POP JUMP JUMPDEST PUSH1 0x4 SLOAD DUP2 JUMP JUMPDEST PUSH1 0x0 SELFBALANCE SWAP1 POP SWAP1 JUMP JUMPDEST PUSH1 0x5 PUSH1 0x20 MSTORE DUP1 PUSH1 0x0 MSTORE PUSH1 0x40 PUSH1 0x0 KECCAK256 PUSH1 0x0 SWAP2 POP SWAP1 POP SLOAD DUP2 JUMP JUMPDEST PUSH1 0x7 PUSH1 0x1 SWAP1 SLOAD SWAP1 PUSH2 0x100 EXP SWAP1 DIV PUSH1 0xFF AND DUP2 JUMP JUMPDEST DUP2 DUP2 PUSH1 0x2 PUSH1 0x0 SWAP1 SLOAD SWAP1 PUSH2 0x100 EXP SWAP1 DIV PUSH20 0xFFFFFFFFFFFFFFFFFFFFFFFFFFFFFFFFFFFFFFFF AND PUSH20 0xFFFFFFFFFFFFFFFFFFFFFFFFFFFFFFFFFFFFFFFF AND CALLER PUSH20 0xFFFFFFFFFFFFFFFFFFFFFFFFFFFFFFFFFFFFFFFF AND EQ PUSH2 0x557 JUMPI PUSH1 0x40 MLOAD PUSH32 0x8C379A000000000000000000000000000000000000000000000000000000000 DUP2 MSTORE PUSH1 0x4 ADD PUSH2 0x54E SWAP1 PUSH2 0x1287 JUMP JUMPDEST PUSH1 0x40 MLOAD DUP1 SWAP2 SUB SWAP1 REVERT JUMPDEST PUSH1 0x0 SLOAD DUP2 EQ DUP1 PUSH2 0x568 JUMPI POP PUSH1 0x1 SLOAD DUP2 EQ JUMPDEST PUSH2 0x5A7 JUMPI PUSH1 0x40 MLOAD PUSH32 0x8C379A000000000000000000000000000000000000000000000000000000000 DUP2 MSTORE PUSH1 0x4 ADD PUSH2 0x59E SWAP1 PUSH2 0x1247 JUMP JUMPDEST PUSH1 0x40 MLOAD DUP1 SWAP2 SUB SWAP1 REVERT JUMPDEST DUP1 PUSH1 0x5 PUSH1 0x0 DUP5 PUSH20 0xFFFFFFFFFFFFFFFFFFFFFFFFFFFFFFFFFFFFFFFF AND PUSH20 0xFFFFFFFFFFFFFFFFFFFFFFFFFFFFFFFFFFFFFFFF AND DUP2 MSTORE PUSH1 0x20 ADD SWAP1 DUP2 MSTORE PUSH1 0x20 ADD PUSH1 0x0 KECCAK256 SLOAD LT ISZERO PUSH2 0x629 JUMPI PUSH1 0x40 MLOAD PUSH32 0x8C379A000000000000000000000000000000000000000000000000000000000 DUP2 MSTORE PUSH1 0x4 ADD PUSH2 0x620 SWAP1 PUSH2 0x1207 JUMP JUMPDEST PUSH1 0x40 MLOAD DUP1 SWAP2 SUB SWAP1 REVERT JUMPDEST PUSH1 0x3 PUSH1 0x0 SWAP1 SLOAD SWAP1 PUSH2 0x100 EXP SWAP1 DIV PUSH20 0xFFFFFFFFFFFFFFFFFFFFFFFFFFFFFFFFFFFFFFFF AND PUSH20 0xFFFFFFFFFFFFFFFFFFFFFFFFFFFFFFFFFFFFFFFF AND CALLER PUSH20 0xFFFFFFFFFFFFFFFFFFFFFFFFFFFFFFFFFFFFFFFF AND EQ PUSH2 0x6B9 JUMPI PUSH1 0x40 MLOAD PUSH32 0x8C379A000000000000000000000000000000000000000000000000000000000 DUP2 MSTORE PUSH1 0x4 ADD PUSH2 0x6B0 SWAP1 PUSH2 0x11E7 JUMP JUMPDEST PUSH1 0x40 MLOAD DUP1 SWAP2 SUB SWAP1 REVERT JUMPDEST DUP3 SELFBALANCE LT ISZERO PUSH2 0x6FC JUMPI PUSH1 0x40 MLOAD PUSH32 0x8C379A000000000000000000000000000000000000000000000000000000000 DUP2 MSTORE PUSH1 0x4 ADD PUSH2 0x6F3 SWAP1 PUSH2 0x11C7 JUMP JUMPDEST PUSH1 0x40 MLOAD DUP1 SWAP2 SUB SWAP1 REVERT JUMPDEST DUP3 PUSH1 0x6 PUSH1 0x0 DUP7 PUSH20 0xFFFFFFFFFFFFFFFFFFFFFFFFFFFFFFFFFFFFFFFF AND PUSH20 0xFFFFFFFFFFFFFFFFFFFFFFFFFFFFFFFFFFFFFFFF AND DUP2 MSTORE PUSH1 0x20 ADD SWAP1 DUP2 MSTORE PUSH1 0x20 ADD PUSH1 0x0 KECCAK256 DUP2 SWAP1 SSTORE POP POP POP POP POP JUMP JUMPDEST PUSH1 0x2 PUSH1 0x0 SWAP1 SLOAD SWAP1 PUSH2 0x100 EXP SWAP1 DIV PUSH20 0xFFFFFFFFFFFFFFFFFFFFFFFFFFFFFFFFFFFFFFFF AND DUP2 JUMP JUMPDEST PUSH1 0x0 SLOAD CALLVALUE EQ DUP1 PUSH2 0x77D JUMPI POP PUSH1 0x1 SLOAD CALLVALUE EQ JUMPDEST PUSH2 0x7BC JUMPI PUSH1 0x40 MLOAD PUSH32 0x8C379A000000000000000000000000000000000000000000000000000000000 DUP2 MSTORE PUSH1 0x4 ADD PUSH2 0x7B3 SWAP1 PUSH2 0x1227 JUMP JUMPDEST PUSH1 0x40 MLOAD DUP1 SWAP2 SUB SWAP1 REVERT JUMPDEST PUSH1 0x0 DUP1 PUSH1 0x2 DUP2 GT ISZERO PUSH2 0x7D1 JUMPI PUSH2 0x7D0 PUSH2 0x143A JUMP JUMPDEST JUMPDEST PUSH1 0x7 PUSH1 0x1 SWAP1 SLOAD SWAP1 PUSH2 0x100 EXP SWAP1 DIV PUSH1 0xFF AND PUSH1 0x2 DUP2 GT ISZERO PUSH2 0x7F3 JUMPI PUSH2 0x7F2 PUSH2 0x143A JUMP JUMPDEST JUMPDEST EQ PUSH2 0x833 JUMPI PUSH1 0x40 MLOAD PUSH32 0x8C379A000000000000000000000000000000000000000000000000000000000 DUP2 MSTORE PUSH1 0x4 ADD PUSH2 0x82A SWAP1 PUSH2 0x1267 JUMP JUMPDEST PUSH1 0x40 MLOAD DUP1 SWAP2 SUB SWAP1 REVERT JUMPDEST PUSH1 0x4 SLOAD TIMESTAMP GT PUSH2 0x877 JUMPI PUSH1 0x40 MLOAD PUSH32 0x8C379A000000000000000000000000000000000000000000000000000000000 DUP2 MSTORE PUSH1 0x4 ADD PUSH2 0x86E SWAP1 PUSH2 0x1187 JUMP JUMPDEST PUSH1 0x40 MLOAD DUP1 SWAP2 SUB SWAP1 REVERT JUMPDEST PUSH1 0x0 ISZERO ISZERO PUSH1 0x7 PUSH1 0x0 SWAP1 SLOAD SWAP1 PUSH2 0x100 EXP SWAP1 DIV PUSH1 0xFF AND ISZERO ISZERO EQ PUSH2 0x8CD JUMPI PUSH1 0x40 MLOAD PUSH32 0x8C379A000000000000000000000000000000000000000000000000000000000 DUP2 MSTORE PUSH1 0x4 ADD PUSH2 0x8C4 SWAP1 PUSH2 0x11A7 JUMP JUMPDEST PUSH1 0x40 MLOAD DUP1 SWAP2 SUB SWAP1 REVERT JUMPDEST PUSH1 0x0 PUSH1 0x5 PUSH1 0x0 CALLER PUSH20 0xFFFFFFFFFFFFFFFFFFFFFFFFFFFFFFFFFFFFFFFF AND PUSH20 0xFFFFFFFFFFFFFFFFFFFFFFFFFFFFFFFFFFFFFFFF AND DUP2 MSTORE PUSH1 0x20 ADD SWAP1 DUP2 MSTORE PUSH1 0x20 ADD PUSH1 0x0 KECCAK256 SLOAD EQ PUSH2 0x9A7 JUMPI CALLVALUE PUSH1 0x5 PUSH1 0x0 CALLER PUSH20 0xFFFFFFFFFFFFFFFFFFFFFFFFFFFFFFFFFFFFFFFF AND PUSH20 0xFFFFFFFFFFFFFFFFFFFFFFFFFFFFFFFFFFFFFFFF AND DUP2 MSTORE PUSH1 0x20 ADD SWAP1 DUP2 MSTORE PUSH1 0x20 ADD PUSH1 0x0 KECCAK256 SLOAD PUSH2 0x95F SWAP2 SWAP1 PUSH2 0x12DE JUMP JUMPDEST PUSH1 0x5 PUSH1 0x0 CALLER PUSH20 0xFFFFFFFFFFFFFFFFFFFFFFFFFFFFFFFFFFFFFFFF AND PUSH20 0xFFFFFFFFFFFFFFFFFFFFFFFFFFFFFFFFFFFFFFFF AND DUP2 MSTORE PUSH1 0x20 ADD SWAP1 DUP2 MSTORE PUSH1 0x20 ADD PUSH1 0x0 KECCAK256 DUP2 SWAP1 SSTORE POP PUSH2 0x9EC JUMP JUMPDEST CALLVALUE PUSH1 0x5 PUSH1 0x0 CALLER PUSH20 0xFFFFFFFFFFFFFFFFFFFFFFFFFFFFFFFFFFFFFFFF AND PUSH20 0xFFFFFFFFFFFFFFFFFFFFFFFFFFFFFFFFFFFFFFFF AND DUP2 MSTORE PUSH1 0x20 ADD SWAP1 DUP2 MSTORE PUSH1 0x20 ADD PUSH1 0x0 KECCAK256 DUP2 SWAP1 SSTORE POP JUMPDEST PUSH2 0x9F6 PUSH1 0x1 PUSH2 0xBCF JUMP JUMPDEST CALLER PUSH20 0xFFFFFFFFFFFFFFFFFFFFFFFFFFFFFFFFFFFFFFFF AND PUSH32 0xC63D5E450F470DCC6536476B6FD78A0F261765EF92B25631875B0A35EAA095BF DUP4 PUSH1 0x40 MLOAD PUSH2 0xA3C SWAP2 SWAP1 PUSH2 0x12A7 JUMP JUMPDEST PUSH1 0x40 MLOAD DUP1 SWAP2 SUB SWAP1 LOG2 POP POP JUMP JUMPDEST PUSH1 0x7 PUSH1 0x0 SWAP1 SLOAD SWAP1 PUSH2 0x100 EXP SWAP1 DIV PUSH1 0xFF AND DUP2 JUMP JUMPDEST PUSH1 0x3 PUSH1 0x0 SWAP1 SLOAD SWAP1 PUSH2 0x100 EXP SWAP1 DIV PUSH20 0xFFFFFFFFFFFFFFFFFFFFFFFFFFFFFFFFFFFFFFFF AND DUP2 JUMP JUMPDEST PUSH1 0x1 SLOAD DUP2 JUMP JUMPDEST PUSH1 0x0 PUSH1 0x5 PUSH1 0x0 CALLER PUSH20 0xFFFFFFFFFFFFFFFFFFFFFFFFFFFFFFFFFFFFFFFF AND PUSH20 0xFFFFFFFFFFFFFFFFFFFFFFFFFFFFFFFFFFFFFFFF AND DUP2 MSTORE PUSH1 0x20 ADD SWAP1 DUP2 MSTORE PUSH1 0x20 ADD PUSH1 0x0 KECCAK256 SLOAD SWAP1 POP PUSH1 0x0 PUSH1 0x6 PUSH1 0x0 CALLER PUSH20 0xFFFFFFFFFFFFFFFFFFFFFFFFFFFFFFFFFFFFFFFF AND PUSH20 0xFFFFFFFFFFFFFFFFFFFFFFFFFFFFFFFFFFFFFFFF AND DUP2 MSTORE PUSH1 0x20 ADD SWAP1 DUP2 MSTORE PUSH1 0x20 ADD PUSH1 0x0 KECCAK256 DUP2 SWAP1 SSTORE POP PUSH1 0x0 PUSH1 0x5 PUSH1 0x0 CALLER PUSH20 0xFFFFFFFFFFFFFFFFFFFFFFFFFFFFFFFFFFFFFFFF AND PUSH20 0xFFFFFFFFFFFFFFFFFFFFFFFFFFFFFFFFFFFFFFFF AND DUP2 MSTORE PUSH1 0x20 ADD SWAP1 DUP2 MSTORE PUSH1 0x20 ADD PUSH1 0x0 KECCAK256 DUP2 SWAP1 SSTORE POP PUSH1 0x0 CALLER PUSH20 0xFFFFFFFFFFFFFFFFFFFFFFFFFFFFFFFFFFFFFFFF AND DUP3 PUSH1 0x40 MLOAD PUSH2 0xB7B SWAP1 PUSH2 0x10F5 JUMP JUMPDEST PUSH1 0x0 PUSH1 0x40 MLOAD DUP1 DUP4 SUB DUP2 DUP6 DUP8 GAS CALL SWAP3 POP POP POP RETURNDATASIZE DUP1 PUSH1 0x0 DUP2 EQ PUSH2 0xBB8 JUMPI PUSH1 0x40 MLOAD SWAP2 POP PUSH1 0x1F NOT PUSH1 0x3F RETURNDATASIZE ADD AND DUP3 ADD PUSH1 0x40 MSTORE RETURNDATASIZE DUP3 MSTORE RETURNDATASIZE PUSH1 0x0 PUSH1 0x20 DUP5 ADD RETURNDATACOPY PUSH2 0xBBD JUMP JUMPDEST PUSH1 0x60 SWAP2 POP JUMPDEST POP POP SWAP1 POP DUP1 PUSH2 0xBCB JUMPI PUSH1 0x0 DUP1 REVERT JUMPDEST POP POP JUMP JUMPDEST DUP1 PUSH1 0x7 PUSH1 0x1 PUSH2 0x100 EXP DUP2 SLOAD DUP2 PUSH1 0xFF MUL NOT AND SWAP1 DUP4 PUSH1 0x2 DUP2 GT ISZERO PUSH2 0xBF4 JUMPI PUSH2 0xBF3 PUSH2 0x143A JUMP JUMPDEST JUMPDEST MUL OR SWAP1 SSTORE POP POP JUMP JUMPDEST PUSH1 0x6 PUSH1 0x20 MSTORE DUP1 PUSH1 0x0 MSTORE PUSH1 0x40 PUSH1 0x0 KECCAK256 PUSH1 0x0 SWAP2 POP SWAP1 POP SLOAD DUP2 JUMP JUMPDEST PUSH1 0x1 DUP1 PUSH1 0x2 DUP2 GT ISZERO PUSH2 0xC29 JUMPI PUSH2 0xC28 PUSH2 0x143A JUMP JUMPDEST JUMPDEST PUSH1 0x7 PUSH1 0x1 SWAP1 SLOAD SWAP1 PUSH2 0x100 EXP SWAP1 DIV PUSH1 0xFF AND PUSH1 0x2 DUP2 GT ISZERO PUSH2 0xC4B JUMPI PUSH2 0xC4A PUSH2 0x143A JUMP JUMPDEST JUMPDEST EQ PUSH2 0xC8B JUMPI PUSH1 0x40 MLOAD PUSH32 0x8C379A000000000000000000000000000000000000000000000000000000000 DUP2 MSTORE PUSH1 0x4 ADD PUSH2 0xC82 SWAP1 PUSH2 0x1267 JUMP JUMPDEST PUSH1 0x40 MLOAD DUP1 SWAP2 SUB SWAP1 REVERT JUMPDEST PUSH1 0x4 SLOAD TIMESTAMP GT PUSH2 0xCCF JUMPI PUSH1 0x40 MLOAD PUSH32 0x8C379A000000000000000000000000000000000000000000000000000000000 DUP2 MSTORE PUSH1 0x4 ADD PUSH2 0xCC6 SWAP1 PUSH2 0x1187 JUMP JUMPDEST PUSH1 0x40 MLOAD DUP1 SWAP2 SUB SWAP1 REVERT JUMPDEST PUSH2 0xCD9 PUSH1 0x2 PUSH2 0xBCF JUMP JUMPDEST POP JUMP JUMPDEST PUSH1 0x2 DUP1 PUSH1 0x2 DUP2 GT ISZERO PUSH2 0xCF1 JUMPI PUSH2 0xCF0 PUSH2 0x143A JUMP JUMPDEST JUMPDEST PUSH1 0x7 PUSH1 0x1 SWAP1 SLOAD SWAP1 PUSH2 0x100 EXP SWAP1 DIV PUSH1 0xFF AND PUSH1 0x2 DUP2 GT ISZERO PUSH2 0xD13 JUMPI PUSH2 0xD12 PUSH2 0x143A JUMP JUMPDEST JUMPDEST EQ PUSH2 0xD53 JUMPI PUSH1 0x40 MLOAD PUSH32 0x8C379A000000000000000000000000000000000000000000000000000000000 DUP2 MSTORE PUSH1 0x4 ADD PUSH2 0xD4A SWAP1 PUSH2 0x1267 JUMP JUMPDEST PUSH1 0x40 MLOAD DUP1 SWAP2 SUB SWAP1 REVERT JUMPDEST PUSH1 0x4 SLOAD TIMESTAMP GT PUSH2 0xD97 JUMPI PUSH1 0x40 MLOAD PUSH32 0x8C379A000000000000000000000000000000000000000000000000000000000 DUP2 MSTORE PUSH1 0x4 ADD PUSH2 0xD8E SWAP1 PUSH2 0x1187 JUMP JUMPDEST PUSH1 0x40 MLOAD DUP1 SWAP2 SUB SWAP1 REVERT JUMPDEST PUSH2 0xDA1 PUSH1 0x0 PUSH2 0xBCF JUMP JUMPDEST POP JUMP JUMPDEST PUSH1 0x0 DUP1 PUSH1 0x1 PUSH1 0xA TIMESTAMP DUP6 PUSH1 0x40 MLOAD PUSH1 0x20 ADD PUSH2 0xDBE SWAP3 SWAP2 SWAP1 PUSH2 0x110A JUMP JUMPDEST PUSH1 0x40 MLOAD PUSH1 0x20 DUP2 DUP4 SUB SUB DUP2 MSTORE SWAP1 PUSH1 0x40 MSTORE DUP1 MLOAD SWAP1 PUSH1 0x20 ADD KECCAK256 PUSH1 0x0 SHR PUSH2 0xDE1 SWAP2 SWAP1 PUSH2 0x13AB JUMP JUMPDEST PUSH2 0xDEB SWAP2 SWAP1 PUSH2 0x12DE JUMP JUMPDEST SWAP1 POP DUP1 SWAP2 POP POP SWAP2 SWAP1 POP JUMP JUMPDEST PUSH1 0x0 SLOAD DUP2 JUMP JUMPDEST PUSH1 0x0 DUP2 CALLDATALOAD SWAP1 POP PUSH2 0xE0B DUP2 PUSH2 0x1668 JUMP JUMPDEST SWAP3 SWAP2 POP POP JUMP JUMPDEST PUSH1 0x0 DUP2 CALLDATALOAD SWAP1 POP PUSH2 0xE20 DUP2 PUSH2 0x167F JUMP JUMPDEST SWAP3 SWAP2 POP POP JUMP JUMPDEST PUSH1 0x0 DUP2 CALLDATALOAD SWAP1 POP PUSH2 0xE35 DUP2 PUSH2 0x1696 JUMP JUMPDEST SWAP3 SWAP2 POP POP JUMP JUMPDEST PUSH1 0x0 DUP2 CALLDATALOAD SWAP1 POP PUSH2 0xE4A DUP2 PUSH2 0x16A6 JUMP JUMPDEST SWAP3 SWAP2 POP POP JUMP JUMPDEST PUSH1 0x0 PUSH1 0x20 DUP3 DUP5 SUB SLT ISZERO PUSH2 0xE66 JUMPI PUSH2 0xE65 PUSH2 0x1469 JUMP JUMPDEST JUMPDEST PUSH1 0x0 PUSH2 0xE74 DUP5 DUP3 DUP6 ADD PUSH2 0xDFC JUMP JUMPDEST SWAP2 POP POP SWAP3 SWAP2 POP POP JUMP JUMPDEST PUSH1 0x0 DUP1 PUSH1 0x40 DUP4 DUP6 SUB SLT ISZERO PUSH2 0xE94 JUMPI PUSH2 0xE93 PUSH2 0x1469 JUMP JUMPDEST JUMPDEST PUSH1 0x0 PUSH2 0xEA2 DUP6 DUP3 DUP7 ADD PUSH2 0xDFC JUMP JUMPDEST SWAP3 POP POP PUSH1 0x20 PUSH2 0xEB3 DUP6 DUP3 DUP7 ADD PUSH2 0xE3B JUMP JUMPDEST SWAP2 POP POP SWAP3 POP SWAP3 SWAP1 POP JUMP JUMPDEST PUSH1 0x0 PUSH1 0x20 DUP3 DUP5 SUB SLT ISZERO PUSH2 0xED3 JUMPI PUSH2 0xED2 PUSH2 0x1469 JUMP JUMPDEST JUMPDEST PUSH1 0x0 PUSH2 0xEE1 DUP5 DUP3 DUP6 ADD PUSH2 0xE11 JUMP JUMPDEST SWAP2 POP POP SWAP3 SWAP2 POP POP JUMP JUMPDEST PUSH1 0x0 PUSH1 0x20 DUP3 DUP5 SUB SLT ISZERO PUSH2 0xF00 JUMPI PUSH2 0xEFF PUSH2 0x1469 JUMP JUMPDEST JUMPDEST PUSH1 0x0 PUSH2 0xF0E DUP5 DUP3 DUP6 ADD PUSH2 0xE26 JUMP JUMPDEST SWAP2 POP POP SWAP3 SWAP2 POP POP JUMP JUMPDEST PUSH1 0x0 PUSH1 0x20 DUP3 DUP5 SUB SLT ISZERO PUSH2 0xF2D JUMPI PUSH2 0xF2C PUSH2 0x1469 JUMP JUMPDEST JUMPDEST PUSH1 0x0 PUSH2 0xF3B DUP5 DUP3 DUP6 ADD PUSH2 0xE3B JUMP JUMPDEST SWAP2 POP POP SWAP3 SWAP2 POP POP JUMP JUMPDEST PUSH2 0xF4D DUP2 PUSH2 0x1334 JUMP JUMPDEST DUP3 MSTORE POP POP JUMP JUMPDEST PUSH2 0xF5C DUP2 PUSH2 0x1346 JUMP JUMPDEST DUP3 MSTORE POP POP JUMP JUMPDEST PUSH2 0xF6B DUP2 PUSH2 0x138F JUMP JUMPDEST DUP3 MSTORE POP POP JUMP JUMPDEST PUSH1 0x0 PUSH2 0xF7E PUSH1 0x17 DUP4 PUSH2 0x12CD JUMP JUMPDEST SWAP2 POP PUSH2 0xF89 DUP3 PUSH2 0x146E JUMP JUMPDEST PUSH1 0x20 DUP3 ADD SWAP1 POP SWAP2 SWAP1 POP JUMP JUMPDEST PUSH1 0x0 PUSH2 0xFA1 PUSH1 0x19 DUP4 PUSH2 0x12CD JUMP JUMPDEST SWAP2 POP PUSH2 0xFAC DUP3 PUSH2 0x1497 JUMP JUMPDEST PUSH1 0x20 DUP3 ADD SWAP1 POP SWAP2 SWAP1 POP JUMP JUMPDEST PUSH1 0x0 PUSH2 0xFC4 PUSH1 0x10 DUP4 PUSH2 0x12CD JUMP JUMPDEST SWAP2 POP PUSH2 0xFCF DUP3 PUSH2 0x14C0 JUMP JUMPDEST PUSH1 0x20 DUP3 ADD SWAP1 POP SWAP2 SWAP1 POP JUMP JUMPDEST PUSH1 0x0 PUSH2 0xFE7 PUSH1 0xD DUP4 PUSH2 0x12CD JUMP JUMPDEST SWAP2 POP PUSH2 0xFF2 DUP3 PUSH2 0x14E9 JUMP JUMPDEST PUSH1 0x20 DUP3 ADD SWAP1 POP SWAP2 SWAP1 POP JUMP JUMPDEST PUSH1 0x0 PUSH2 0x100A PUSH1 0x23 DUP4 PUSH2 0x12CD JUMP JUMPDEST SWAP2 POP PUSH2 0x1015 DUP3 PUSH2 0x1512 JUMP JUMPDEST PUSH1 0x40 DUP3 ADD SWAP1 POP SWAP2 SWAP1 POP JUMP JUMPDEST PUSH1 0x0 PUSH2 0x102D PUSH1 0x16 DUP4 PUSH2 0x12CD JUMP JUMPDEST SWAP2 POP PUSH2 0x1038 DUP3 PUSH2 0x1561 JUMP JUMPDEST PUSH1 0x20 DUP3 ADD SWAP1 POP SWAP2 SWAP1 POP JUMP JUMPDEST PUSH1 0x0 PUSH2 0x1050 PUSH1 0x26 DUP4 PUSH2 0x12CD JUMP JUMPDEST SWAP2 POP PUSH2 0x105B DUP3 PUSH2 0x158A JUMP JUMPDEST PUSH1 0x40 DUP3 ADD SWAP1 POP SWAP2 SWAP1 POP JUMP JUMPDEST PUSH1 0x0 PUSH2 0x1073 PUSH1 0x0 DUP4 PUSH2 0x12C2 JUMP JUMPDEST SWAP2 POP PUSH2 0x107E DUP3 PUSH2 0x15D9 JUMP JUMPDEST PUSH1 0x0 DUP3 ADD SWAP1 POP SWAP2 SWAP1 POP JUMP JUMPDEST PUSH1 0x0 PUSH2 0x1096 PUSH1 0x14 DUP4 PUSH2 0x12CD JUMP JUMPDEST SWAP2 POP PUSH2 0x10A1 DUP3 PUSH2 0x15DC JUMP JUMPDEST PUSH1 0x20 DUP3 ADD SWAP1 POP SWAP2 SWAP1 POP JUMP JUMPDEST PUSH1 0x0 PUSH2 0x10B9 PUSH1 0x2C DUP4 PUSH2 0x12CD JUMP JUMPDEST SWAP2 POP PUSH2 0x10C4 DUP3 PUSH2 0x1605 JUMP JUMPDEST PUSH1 0x40 DUP3 ADD SWAP1 POP SWAP2 SWAP1 POP JUMP JUMPDEST PUSH2 0x10D8 DUP2 PUSH2 0x1385 JUMP JUMPDEST DUP3 MSTORE POP POP JUMP JUMPDEST PUSH2 0x10EF PUSH2 0x10EA DUP3 PUSH2 0x1385 JUMP JUMPDEST PUSH2 0x13A1 JUMP JUMPDEST DUP3 MSTORE POP POP JUMP JUMPDEST PUSH1 0x0 PUSH2 0x1100 DUP3 PUSH2 0x1066 JUMP JUMPDEST SWAP2 POP DUP2 SWAP1 POP SWAP2 SWAP1 POP JUMP JUMPDEST PUSH1 0x0 PUSH2 0x1116 DUP3 DUP6 PUSH2 0x10DE JUMP JUMPDEST PUSH1 0x20 DUP3 ADD SWAP2 POP PUSH2 0x1126 DUP3 DUP5 PUSH2 0x10DE JUMP JUMPDEST PUSH1 0x20 DUP3 ADD SWAP2 POP DUP2 SWAP1 POP SWAP4 SWAP3 POP POP POP JUMP JUMPDEST PUSH1 0x0 PUSH1 0x20 DUP3 ADD SWAP1 POP PUSH2 0x114B PUSH1 0x0 DUP4 ADD DUP5 PUSH2 0xF44 JUMP JUMPDEST SWAP3 SWAP2 POP POP JUMP JUMPDEST PUSH1 0x0 PUSH1 0x20 DUP3 ADD SWAP1 POP PUSH2 0x1166 PUSH1 0x0 DUP4 ADD DUP5 PUSH2 0xF53 JUMP JUMPDEST SWAP3 SWAP2 POP POP JUMP JUMPDEST PUSH1 0x0 PUSH1 0x20 DUP3 ADD SWAP1 POP PUSH2 0x1181 PUSH1 0x0 DUP4 ADD DUP5 PUSH2 0xF62 JUMP JUMPDEST SWAP3 SWAP2 POP POP JUMP JUMPDEST PUSH1 0x0 PUSH1 0x20 DUP3 ADD SWAP1 POP DUP2 DUP2 SUB PUSH1 0x0 DUP4 ADD MSTORE PUSH2 0x11A0 DUP2 PUSH2 0xF71 JUMP JUMPDEST SWAP1 POP SWAP2 SWAP1 POP JUMP JUMPDEST PUSH1 0x0 PUSH1 0x20 DUP3 ADD SWAP1 POP DUP2 DUP2 SUB PUSH1 0x0 DUP4 ADD MSTORE PUSH2 0x11C0 DUP2 PUSH2 0xF94 JUMP JUMPDEST SWAP1 POP SWAP2 SWAP1 POP JUMP JUMPDEST PUSH1 0x0 PUSH1 0x20 DUP3 ADD SWAP1 POP DUP2 DUP2 SUB PUSH1 0x0 DUP4 ADD MSTORE PUSH2 0x11E0 DUP2 PUSH2 0xFB7 JUMP JUMPDEST SWAP1 POP SWAP2 SWAP1 POP JUMP JUMPDEST PUSH1 0x0 PUSH1 0x20 DUP3 ADD SWAP1 POP DUP2 DUP2 SUB PUSH1 0x0 DUP4 ADD MSTORE PUSH2 0x1200 DUP2 PUSH2 0xFDA JUMP JUMPDEST SWAP1 POP SWAP2 SWAP1 POP JUMP JUMPDEST PUSH1 0x0 PUSH1 0x20 DUP3 ADD SWAP1 POP DUP2 DUP2 SUB PUSH1 0x0 DUP4 ADD MSTORE PUSH2 0x1220 DUP2 PUSH2 0xFFD JUMP JUMPDEST SWAP1 POP SWAP2 SWAP1 POP JUMP JUMPDEST PUSH1 0x0 PUSH1 0x20 DUP3 ADD SWAP1 POP DUP2 DUP2 SUB PUSH1 0x0 DUP4 ADD MSTORE PUSH2 0x1240 DUP2 PUSH2 0x1020 JUMP JUMPDEST SWAP1 POP SWAP2 SWAP1 POP JUMP JUMPDEST PUSH1 0x0 PUSH1 0x20 DUP3 ADD SWAP1 POP DUP2 DUP2 SUB PUSH1 0x0 DUP4 ADD MSTORE PUSH2 0x1260 DUP2 PUSH2 0x1043 JUMP JUMPDEST SWAP1 POP SWAP2 SWAP1 POP JUMP JUMPDEST PUSH1 0x0 PUSH1 0x20 DUP3 ADD SWAP1 POP DUP2 DUP2 SUB PUSH1 0x0 DUP4 ADD MSTORE PUSH2 0x1280 DUP2 PUSH2 0x1089 JUMP JUMPDEST SWAP1 POP SWAP2 SWAP1 POP JUMP JUMPDEST PUSH1 0x0 PUSH1 0x20 DUP3 ADD SWAP1 POP DUP2 DUP2 SUB PUSH1 0x0 DUP4 ADD MSTORE PUSH2 0x12A0 DUP2 PUSH2 0x10AC JUMP JUMPDEST SWAP1 POP SWAP2 SWAP1 POP JUMP JUMPDEST PUSH1 0x0 PUSH1 0x20 DUP3 ADD SWAP1 POP PUSH2 0x12BC PUSH1 0x0 DUP4 ADD DUP5 PUSH2 0x10CF JUMP JUMPDEST SWAP3 SWAP2 POP POP JUMP JUMPDEST PUSH1 0x0 DUP2 SWAP1 POP SWAP3 SWAP2 POP POP JUMP JUMPDEST PUSH1 0x0 DUP3 DUP3 MSTORE PUSH1 0x20 DUP3 ADD SWAP1 POP SWAP3 SWAP2 POP POP JUMP JUMPDEST PUSH1 0x0 PUSH2 0x12E9 DUP3 PUSH2 0x1385 JUMP JUMPDEST SWAP2 POP PUSH2 0x12F4 DUP4 PUSH2 0x1385 JUMP JUMPDEST SWAP3 POP DUP3 PUSH32 0xFFFFFFFFFFFFFFFFFFFFFFFFFFFFFFFFFFFFFFFFFFFFFFFFFFFFFFFFFFFFFFFF SUB DUP3 GT ISZERO PUSH2 0x1329 JUMPI PUSH2 0x1328 PUSH2 0x13DC JUMP JUMPDEST JUMPDEST DUP3 DUP3 ADD SWAP1 POP SWAP3 SWAP2 POP POP JUMP JUMPDEST PUSH1 0x0 PUSH2 0x133F DUP3 PUSH2 0x1365 JUMP JUMPDEST SWAP1 POP SWAP2 SWAP1 POP JUMP JUMPDEST PUSH1 0x0 DUP2 ISZERO ISZERO SWAP1 POP SWAP2 SWAP1 POP JUMP JUMPDEST PUSH1 0x0 DUP2 SWAP1 POP PUSH2 0x1360 DUP3 PUSH2 0x1654 JUMP JUMPDEST SWAP2 SWAP1 POP JUMP JUMPDEST PUSH1 0x0 PUSH20 0xFFFFFFFFFFFFFFFFFFFFFFFFFFFFFFFFFFFFFFFF DUP3 AND SWAP1 POP SWAP2 SWAP1 POP JUMP JUMPDEST PUSH1 0x0 DUP2 SWAP1 POP SWAP2 SWAP1 POP JUMP JUMPDEST PUSH1 0x0 PUSH2 0x139A DUP3 PUSH2 0x1352 JUMP JUMPDEST SWAP1 POP SWAP2 SWAP1 POP JUMP JUMPDEST PUSH1 0x0 DUP2 SWAP1 POP SWAP2 SWAP1 POP JUMP JUMPDEST PUSH1 0x0 PUSH2 0x13B6 DUP3 PUSH2 0x1385 JUMP JUMPDEST SWAP2 POP PUSH2 0x13C1 DUP4 PUSH2 0x1385 JUMP JUMPDEST SWAP3 POP DUP3 PUSH2 0x13D1 JUMPI PUSH2 0x13D0 PUSH2 0x140B JUMP JUMPDEST JUMPDEST DUP3 DUP3 MOD SWAP1 POP SWAP3 SWAP2 POP POP JUMP JUMPDEST PUSH32 0x4E487B7100000000000000000000000000000000000000000000000000000000 PUSH1 0x0 MSTORE PUSH1 0x11 PUSH1 0x4 MSTORE PUSH1 0x24 PUSH1 0x0 REVERT JUMPDEST PUSH32 0x4E487B7100000000000000000000000000000000000000000000000000000000 PUSH1 0x0 MSTORE PUSH1 0x12 PUSH1 0x4 MSTORE PUSH1 0x24 PUSH1 0x0 REVERT JUMPDEST PUSH32 0x4E487B7100000000000000000000000000000000000000000000000000000000 PUSH1 0x0 MSTORE PUSH1 0x21 PUSH1 0x4 MSTORE PUSH1 0x24 PUSH1 0x0 REVERT JUMPDEST PUSH1 0x0 DUP1 REVERT JUMPDEST PUSH32 0x54686973206973206E6F74206F70656E65642079657421000000000000000000 PUSH1 0x0 DUP3 ADD MSTORE POP JUMP JUMPDEST PUSH32 0x436F6E747261637420697320696E207061757365206D6F646500000000000000 PUSH1 0x0 DUP3 ADD MSTORE POP JUMP JUMPDEST PUSH32 0x4E6F7420456E6F7567682046756E647300000000000000000000000000000000 PUSH1 0x0 DUP3 ADD MSTORE POP JUMP JUMPDEST PUSH32 0x4E6F7420746865206F776E657200000000000000000000000000000000000000 PUSH1 0x0 DUP3 ADD MSTORE POP JUMP JUMPDEST PUSH32 0x54686520726563656976657220646F6E74206861766520656E6F756768206675 PUSH1 0x0 DUP3 ADD MSTORE PUSH32 0x6E64730000000000000000000000000000000000000000000000000000000000 PUSH1 0x20 DUP3 ADD MSTORE POP JUMP JUMPDEST PUSH32 0x4E6F742074686520636F727265637420616D6F756E7400000000000000000000 PUSH1 0x0 DUP3 ADD MSTORE POP JUMP JUMPDEST PUSH32 0x596F752061726520747279696E6720746F20726566756E64207765726F6E6720 PUSH1 0x0 DUP3 ADD MSTORE PUSH32 0x616D6F756E740000000000000000000000000000000000000000000000000000 PUSH1 0x20 DUP3 ADD MSTORE POP JUMP JUMPDEST POP JUMP JUMPDEST PUSH32 0x4E6F7420417420436F7272656374205374616765000000000000000000000000 PUSH1 0x0 DUP3 ADD MSTORE POP JUMP JUMPDEST PUSH32 0x54686520727175657374206D75737420626520696E6974696174656420627920 PUSH1 0x0 DUP3 ADD MSTORE PUSH32 0x6D616E61676572206F6E6C790000000000000000000000000000000000000000 PUSH1 0x20 DUP3 ADD MSTORE POP JUMP JUMPDEST PUSH1 0x3 DUP2 LT PUSH2 0x1665 JUMPI PUSH2 0x1664 PUSH2 0x143A JUMP JUMPDEST JUMPDEST POP JUMP JUMPDEST PUSH2 0x1671 DUP2 PUSH2 0x1334 JUMP JUMPDEST DUP2 EQ PUSH2 0x167C JUMPI PUSH1 0x0 DUP1 REVERT JUMPDEST POP JUMP JUMPDEST PUSH2 0x1688 DUP2 PUSH2 0x1346 JUMP JUMPDEST DUP2 EQ PUSH2 0x1693 JUMPI PUSH1 0x0 DUP1 REVERT JUMPDEST POP JUMP JUMPDEST PUSH1 0x3 DUP2 LT PUSH2 0x16A3 JUMPI PUSH1 0x0 DUP1 REVERT JUMPDEST POP JUMP JUMPDEST PUSH2 0x16AF DUP2 PUSH2 0x1385 JUMP JUMPDEST DUP2 EQ PUSH2 0x16BA JUMPI PUSH1 0x0 DUP1 REVERT JUMPDEST POP JUMP INVALID LOG2 PUSH5 0x6970667358 0x22 SLT KECCAK256 0x5F PUSH30 0x6391A5DA3F3D02C8629B9EE429D77EE2D9A30463F24D9670A176E85DA1D9 PUSH5 0x736F6C6343 STOP ADDMOD SMOD STOP CALLER "
				},
				"gasEstimates": {
					"creation": {
						"codeDepositCost": "1175000",
						"executionCost": "infinite",
						"totalCost": "infinite"
					},
					"external": {
						"burgerShopStatge()": "2633",
						"buyBurger(uint256)": "infinite",
						"claimRefund()": "infinite",
						"customers(address)": "2904",
						"deluxCost()": "2474",
						"getBalance()": "407",
						"getRandomNum(uint256)": "infinite",
						"madeBurger()": "28942",
						"manager()": "2581",
						"normalCost()": "2539",
						"owner()": "2537",
						"pause(bool)": "26873",
						"paused()": "2582",
						"pickupBurger()": "28964",
						"refund(address,uint256)": "33698",
						"startDate()": "2475",
						"updateStage(uint8)": "24789",
						"userRefund(address)": "2836"
					}
				},
				"methodIdentifiers": {
					"burgerShopStatge()": "34011d28",
					"buyBurger(uint256)": "59588d52",
					"claimRefund()": "b5545a3c",
					"customers(address)": "336989ae",
					"deluxCost()": "925b8148",
					"getBalance()": "12065fe0",
					"getRandomNum(uint256)": "d1f22eef",
					"madeBurger()": "c06a56ba",
					"manager()": "481c6a75",
					"normalCost()": "f203644a",
					"owner()": "8da5cb5b",
					"pause(bool)": "02329a29",
					"paused()": "5c975abb",
					"pickupBurger()": "ce365cdf",
					"refund(address,uint256)": "410085df",
					"startDate()": "0b97bc86",
					"updateStage(uint8)": "b8e53ae7",
					"userRefund(address)": "bd083bae"
				}
			},
			"storageLayout": {
				"storage": [
					{
						"astId": 4,
						"contract": "contracts/BurgerShop.sol:BurgerShop",
						"label": "normalCost",
						"offset": 0,
						"slot": "0",
						"type": "t_uint256"
					},
					{
						"astId": 7,
						"contract": "contracts/BurgerShop.sol:BurgerShop",
						"label": "deluxCost",
						"offset": 0,
						"slot": "1",
						"type": "t_uint256"
					},
					{
						"astId": 9,
						"contract": "contracts/BurgerShop.sol:BurgerShop",
						"label": "manager",
						"offset": 0,
						"slot": "2",
						"type": "t_address"
					},
					{
						"astId": 11,
						"contract": "contracts/BurgerShop.sol:BurgerShop",
						"label": "owner",
						"offset": 0,
						"slot": "3",
						"type": "t_address"
					},
					{
						"astId": 17,
						"contract": "contracts/BurgerShop.sol:BurgerShop",
						"label": "startDate",
						"offset": 0,
						"slot": "4",
						"type": "t_uint256"
					},
					{
						"astId": 21,
						"contract": "contracts/BurgerShop.sol:BurgerShop",
						"label": "customers",
						"offset": 0,
						"slot": "5",
						"type": "t_mapping(t_address,t_uint256)"
					},
					{
						"astId": 25,
						"contract": "contracts/BurgerShop.sol:BurgerShop",
						"label": "userRefund",
						"offset": 0,
						"slot": "6",
						"type": "t_mapping(t_address,t_uint256)"
					},
					{
						"astId": 28,
						"contract": "contracts/BurgerShop.sol:BurgerShop",
						"label": "paused",
						"offset": 0,
						"slot": "7",
						"type": "t_bool"
					},
					{
						"astId": 57,
						"contract": "contracts/BurgerShop.sol:BurgerShop",
						"label": "burgerShopStatge",
						"offset": 1,
						"slot": "7",
						"type": "t_enum(Stages)52"
					}
				],
				"types": {
					"t_address": {
						"encoding": "inplace",
						"label": "address",
						"numberOfBytes": "20"
					},
					"t_bool": {
						"encoding": "inplace",
						"label": "bool",
						"numberOfBytes": "1"
					},
					"t_enum(Stages)52": {
						"encoding": "inplace",
						"label": "enum BurgerShop.Stages",
						"numberOfBytes": "1"
					},
					"t_mapping(t_address,t_uint256)": {
						"encoding": "mapping",
						"key": "t_address",
						"label": "mapping(address => uint256)",
						"numberOfBytes": "32",
						"value": "t_uint256"
					},
					"t_uint256": {
						"encoding": "inplace",
						"label": "uint256",
						"numberOfBytes": "32"
					}
				}
			},
			"userdoc": {
				"kind": "user",
				"methods": {},
				"version": 1
			}
		}
	}
}