{
	"contracts/Oracle.sol": {
		"Oracle": {
			"abi": [
				{
					"constant": false,
					"inputs": [
						{
							"internalType": "bytes32",
							"name": "_myid",
							"type": "bytes32"
						},
						{
							"internalType": "string",
							"name": "_result",
							"type": "string"
						}
					],
					"name": "__callback",
					"outputs": [],
					"payable": false,
					"stateMutability": "nonpayable",
					"type": "function"
				},
				{
					"constant": false,
					"inputs": [
						{
							"internalType": "bytes32",
							"name": "_myid",
							"type": "bytes32"
						},
						{
							"internalType": "string",
							"name": "_result",
							"type": "string"
						},
						{
							"internalType": "bytes",
							"name": "_proof",
							"type": "bytes"
						}
					],
					"name": "__callback",
					"outputs": [],
					"payable": false,
					"stateMutability": "nonpayable",
					"type": "function"
				},
				{
					"constant": true,
					"inputs": [],
					"name": "activity",
					"outputs": [
						{
							"internalType": "string",
							"name": "",
							"type": "string"
						}
					],
					"payable": false,
					"stateMutability": "view",
					"type": "function"
				},
				{
					"constant": false,
					"inputs": [],
					"name": "getActivity",
					"outputs": [],
					"payable": true,
					"stateMutability": "payable",
					"type": "function"
				}
			],
			"devdoc": {
				"methods": {}
			},
			"evm": {
				"assembly": "    /* \"contracts/Oracle.sol\":167:558  contract Oracle is usingProvable {\r... */\n  mstore(0x40, 0x80)\n  callvalue\n    /* \"--CODEGEN--\":8:17   */\n  dup1\n    /* \"--CODEGEN--\":5:7   */\n  iszero\n  tag_1\n  jumpi\n    /* \"--CODEGEN--\":30:31   */\n  0x00\n    /* \"--CODEGEN--\":27:28   */\n  dup1\n    /* \"--CODEGEN--\":20:32   */\n  revert\n    /* \"--CODEGEN--\":5:7   */\ntag_1:\n    /* \"contracts/Oracle.sol\":167:558  contract Oracle is usingProvable {\r... */\n  pop\n  dataSize(sub_0)\n  dup1\n  dataOffset(sub_0)\n  0x00\n  codecopy\n  0x00\n  return\nstop\n\nsub_0: assembly {\n        /* \"contracts/Oracle.sol\":167:558  contract Oracle is usingProvable {\r... */\n      mstore(0x40, 0x80)\n      jumpi(tag_1, lt(calldatasize, 0x04))\n      shr(0xe0, calldataload(0x00))\n      dup1\n      0x27dc297e\n      eq\n      tag_2\n      jumpi\n      dup1\n      0x38bbfa50\n      eq\n      tag_3\n      jumpi\n      dup1\n      0x5d9c7a16\n      eq\n      tag_4\n      jumpi\n      dup1\n      0xcaf51bda\n      eq\n      tag_5\n      jumpi\n    tag_1:\n      0x00\n      dup1\n      revert\n        /* \"contracts/Oracle.sol\":383:555  function __callback(bytes32 _myid, string memory _result) public {\r... */\n    tag_2:\n      callvalue\n        /* \"--CODEGEN--\":8:17   */\n      dup1\n        /* \"--CODEGEN--\":5:7   */\n      iszero\n      tag_6\n      jumpi\n        /* \"--CODEGEN--\":30:31   */\n      0x00\n        /* \"--CODEGEN--\":27:28   */\n      dup1\n        /* \"--CODEGEN--\":20:32   */\n      revert\n        /* \"--CODEGEN--\":5:7   */\n    tag_6:\n        /* \"contracts/Oracle.sol\":383:555  function __callback(bytes32 _myid, string memory _result) public {\r... */\n      pop\n      tag_7\n      0x04\n      dup1\n      calldatasize\n      sub\n        /* \"--CODEGEN--\":13:15   */\n      0x40\n        /* \"--CODEGEN--\":8:11   */\n      dup2\n        /* \"--CODEGEN--\":5:16   */\n      lt\n        /* \"--CODEGEN--\":2:4   */\n      iszero\n      tag_8\n      jumpi\n        /* \"--CODEGEN--\":29:30   */\n      0x00\n        /* \"--CODEGEN--\":26:27   */\n      dup1\n        /* \"--CODEGEN--\":19:31   */\n      revert\n        /* \"--CODEGEN--\":2:4   */\n    tag_8:\n        /* \"contracts/Oracle.sol\":383:555  function __callback(bytes32 _myid, string memory _result) public {\r... */\n      dup2\n      add\n      swap1\n      dup1\n      dup1\n      calldataload\n      swap1\n      0x20\n      add\n      swap1\n      swap3\n      swap2\n      swap1\n      dup1\n      calldataload\n      swap1\n      0x20\n      add\n      swap1\n        /* \"--CODEGEN--\":21:32   */\n      0x0100000000\n        /* \"--CODEGEN--\":8:19   */\n      dup2\n        /* \"--CODEGEN--\":5:33   */\n      gt\n        /* \"--CODEGEN--\":2:4   */\n      iszero\n      tag_9\n      jumpi\n        /* \"--CODEGEN--\":46:47   */\n      0x00\n        /* \"--CODEGEN--\":43:44   */\n      dup1\n        /* \"--CODEGEN--\":36:48   */\n      revert\n        /* \"--CODEGEN--\":2:4   */\n    tag_9:\n        /* \"contracts/Oracle.sol\":383:555  function __callback(bytes32 _myid, string memory _result) public {\r... */\n      dup3\n      add\n        /* \"--CODEGEN--\":35:44   */\n      dup4\n        /* \"--CODEGEN--\":28:32   */\n      0x20\n        /* \"--CODEGEN--\":12:26   */\n      dup3\n        /* \"--CODEGEN--\":8:33   */\n      add\n        /* \"--CODEGEN--\":5:45   */\n      gt\n        /* \"--CODEGEN--\":2:4   */\n      iszero\n      tag_10\n      jumpi\n        /* \"--CODEGEN--\":58:59   */\n      0x00\n        /* \"--CODEGEN--\":55:56   */\n      dup1\n        /* \"--CODEGEN--\":48:60   */\n      revert\n        /* \"--CODEGEN--\":2:4   */\n    tag_10:\n        /* \"contracts/Oracle.sol\":383:555  function __callback(bytes32 _myid, string memory _result) public {\r... */\n      dup1\n      calldataload\n      swap1\n      0x20\n      add\n      swap2\n        /* \"--CODEGEN--\":100:109   */\n      dup5\n        /* \"--CODEGEN--\":95:96   */\n      0x01\n        /* \"--CODEGEN--\":81:93   */\n      dup4\n        /* \"--CODEGEN--\":77:97   */\n      mul\n        /* \"--CODEGEN--\":67:75   */\n      dup5\n        /* \"--CODEGEN--\":63:98   */\n      add\n        /* \"--CODEGEN--\":60:110   */\n      gt\n        /* \"--CODEGEN--\":39:50   */\n      0x0100000000\n        /* \"--CODEGEN--\":25:37   */\n      dup4\n        /* \"--CODEGEN--\":22:51   */\n      gt\n        /* \"--CODEGEN--\":11:118   */\n      or\n        /* \"--CODEGEN--\":8:10   */\n      iszero\n      tag_11\n      jumpi\n        /* \"--CODEGEN--\":131:132   */\n      0x00\n        /* \"--CODEGEN--\":128:129   */\n      dup1\n        /* \"--CODEGEN--\":121:133   */\n      revert\n        /* \"--CODEGEN--\":8:10   */\n    tag_11:\n        /* \"contracts/Oracle.sol\":383:555  function __callback(bytes32 _myid, string memory _result) public {\r... */\n      swap2\n      swap1\n      dup1\n      dup1\n      0x1f\n      add\n      0x20\n      dup1\n      swap2\n      div\n      mul\n      0x20\n      add\n      mload(0x40)\n      swap1\n      dup2\n      add\n      0x40\n      mstore\n      dup1\n      swap4\n      swap3\n      swap2\n      swap1\n      dup2\n      dup2\n      mstore\n      0x20\n      add\n      dup4\n      dup4\n        /* \"--CODEGEN--\":30:33   */\n      dup1\n        /* \"--CODEGEN--\":22:28   */\n      dup3\n        /* \"--CODEGEN--\":14:20   */\n      dup5\n        /* \"--CODEGEN--\":1:34   */\n      calldatacopy\n        /* \"--CODEGEN--\":99:100   */\n      0x00\n        /* \"--CODEGEN--\":93:96   */\n      dup2\n        /* \"--CODEGEN--\":85:91   */\n      dup5\n        /* \"--CODEGEN--\":81:97   */\n      add\n        /* \"--CODEGEN--\":74:101   */\n      mstore\n        /* \"--CODEGEN--\":137:141   */\n      0x1f\n        /* \"--CODEGEN--\":133:142   */\n      not\n        /* \"--CODEGEN--\":126:130   */\n      0x1f\n        /* \"--CODEGEN--\":121:124   */\n      dup3\n        /* \"--CODEGEN--\":117:131   */\n      add\n        /* \"--CODEGEN--\":113:143   */\n      and\n        /* \"--CODEGEN--\":106:143   */\n      swap1\n      pop\n        /* \"--CODEGEN--\":169:172   */\n      dup1\n        /* \"--CODEGEN--\":161:167   */\n      dup4\n        /* \"--CODEGEN--\":157:173   */\n      add\n        /* \"--CODEGEN--\":147:173   */\n      swap3\n      pop\n        /* \"contracts/Oracle.sol\":383:555  function __callback(bytes32 _myid, string memory _result) public {\r... */\n      pop\n      pop\n      pop\n      pop\n      pop\n      pop\n      swap2\n      swap3\n      swap2\n      swap3\n      swap1\n      pop\n      pop\n      pop\n      tag_12\n      jump\t// in\n    tag_7:\n      stop\n        /* \"https://github.com/provable-things/ethereum-api/blob/master/provableAPI_0.5.sol\":15850:16031  function __callback(bytes32 _myid, string memory _result, bytes memory _proof) public {\r... */\n    tag_3:\n      callvalue\n        /* \"--CODEGEN--\":8:17   */\n      dup1\n        /* \"--CODEGEN--\":5:7   */\n      iszero\n      tag_13\n      jumpi\n        /* \"--CODEGEN--\":30:31   */\n      0x00\n        /* \"--CODEGEN--\":27:28   */\n      dup1\n        /* \"--CODEGEN--\":20:32   */\n      revert\n        /* \"--CODEGEN--\":5:7   */\n    tag_13:\n        /* \"https://github.com/provable-things/ethereum-api/blob/master/provableAPI_0.5.sol\":15850:16031  function __callback(bytes32 _myid, string memory _result, bytes memory _proof) public {\r... */\n      pop\n      tag_14\n      0x04\n      dup1\n      calldatasize\n      sub\n        /* \"--CODEGEN--\":13:15   */\n      0x60\n        /* \"--CODEGEN--\":8:11   */\n      dup2\n        /* \"--CODEGEN--\":5:16   */\n      lt\n        /* \"--CODEGEN--\":2:4   */\n      iszero\n      tag_15\n      jumpi\n        /* \"--CODEGEN--\":29:30   */\n      0x00\n        /* \"--CODEGEN--\":26:27   */\n      dup1\n        /* \"--CODEGEN--\":19:31   */\n      revert\n        /* \"--CODEGEN--\":2:4   */\n    tag_15:\n        /* \"https://github.com/provable-things/ethereum-api/blob/master/provableAPI_0.5.sol\":15850:16031  function __callback(bytes32 _myid, string memory _result, bytes memory _proof) public {\r... */\n      dup2\n      add\n      swap1\n      dup1\n      dup1\n      calldataload\n      swap1\n      0x20\n      add\n      swap1\n      swap3\n      swap2\n      swap1\n      dup1\n      calldataload\n      swap1\n      0x20\n      add\n      swap1\n        /* \"--CODEGEN--\":21:32   */\n      0x0100000000\n        /* \"--CODEGEN--\":8:19   */\n      dup2\n        /* \"--CODEGEN--\":5:33   */\n      gt\n        /* \"--CODEGEN--\":2:4   */\n      iszero\n      tag_16\n      jumpi\n        /* \"--CODEGEN--\":46:47   */\n      0x00\n        /* \"--CODEGEN--\":43:44   */\n      dup1\n        /* \"--CODEGEN--\":36:48   */\n      revert\n        /* \"--CODEGEN--\":2:4   */\n    tag_16:\n        /* \"https://github.com/provable-things/ethereum-api/blob/master/provableAPI_0.5.sol\":15850:16031  function __callback(bytes32 _myid, string memory _result, bytes memory _proof) public {\r... */\n      dup3\n      add\n        /* \"--CODEGEN--\":35:44   */\n      dup4\n        /* \"--CODEGEN--\":28:32   */\n      0x20\n        /* \"--CODEGEN--\":12:26   */\n      dup3\n        /* \"--CODEGEN--\":8:33   */\n      add\n        /* \"--CODEGEN--\":5:45   */\n      gt\n        /* \"--CODEGEN--\":2:4   */\n      iszero\n      tag_17\n      jumpi\n        /* \"--CODEGEN--\":58:59   */\n      0x00\n        /* \"--CODEGEN--\":55:56   */\n      dup1\n        /* \"--CODEGEN--\":48:60   */\n      revert\n        /* \"--CODEGEN--\":2:4   */\n    tag_17:\n        /* \"https://github.com/provable-things/ethereum-api/blob/master/provableAPI_0.5.sol\":15850:16031  function __callback(bytes32 _myid, string memory _result, bytes memory _proof) public {\r... */\n      dup1\n      calldataload\n      swap1\n      0x20\n      add\n      swap2\n        /* \"--CODEGEN--\":100:109   */\n      dup5\n        /* \"--CODEGEN--\":95:96   */\n      0x01\n        /* \"--CODEGEN--\":81:93   */\n      dup4\n        /* \"--CODEGEN--\":77:97   */\n      mul\n        /* \"--CODEGEN--\":67:75   */\n      dup5\n        /* \"--CODEGEN--\":63:98   */\n      add\n        /* \"--CODEGEN--\":60:110   */\n      gt\n        /* \"--CODEGEN--\":39:50   */\n      0x0100000000\n        /* \"--CODEGEN--\":25:37   */\n      dup4\n        /* \"--CODEGEN--\":22:51   */\n      gt\n        /* \"--CODEGEN--\":11:118   */\n      or\n        /* \"--CODEGEN--\":8:10   */\n      iszero\n      tag_18\n      jumpi\n        /* \"--CODEGEN--\":131:132   */\n      0x00\n        /* \"--CODEGEN--\":128:129   */\n      dup1\n        /* \"--CODEGEN--\":121:133   */\n      revert\n        /* \"--CODEGEN--\":8:10   */\n    tag_18:\n        /* \"https://github.com/provable-things/ethereum-api/blob/master/provableAPI_0.5.sol\":15850:16031  function __callback(bytes32 _myid, string memory _result, bytes memory _proof) public {\r... */\n      swap2\n      swap1\n      dup1\n      dup1\n      0x1f\n      add\n      0x20\n      dup1\n      swap2\n      div\n      mul\n      0x20\n      add\n      mload(0x40)\n      swap1\n      dup2\n      add\n      0x40\n      mstore\n      dup1\n      swap4\n      swap3\n      swap2\n      swap1\n      dup2\n      dup2\n      mstore\n      0x20\n      add\n      dup4\n      dup4\n        /* \"--CODEGEN--\":30:33   */\n      dup1\n        /* \"--CODEGEN--\":22:28   */\n      dup3\n        /* \"--CODEGEN--\":14:20   */\n      dup5\n        /* \"--CODEGEN--\":1:34   */\n      calldatacopy\n        /* \"--CODEGEN--\":99:100   */\n      0x00\n        /* \"--CODEGEN--\":93:96   */\n      dup2\n        /* \"--CODEGEN--\":85:91   */\n      dup5\n        /* \"--CODEGEN--\":81:97   */\n      add\n        /* \"--CODEGEN--\":74:101   */\n      mstore\n        /* \"--CODEGEN--\":137:141   */\n      0x1f\n        /* \"--CODEGEN--\":133:142   */\n      not\n        /* \"--CODEGEN--\":126:130   */\n      0x1f\n        /* \"--CODEGEN--\":121:124   */\n      dup3\n        /* \"--CODEGEN--\":117:131   */\n      add\n        /* \"--CODEGEN--\":113:143   */\n      and\n        /* \"--CODEGEN--\":106:143   */\n      swap1\n      pop\n        /* \"--CODEGEN--\":169:172   */\n      dup1\n        /* \"--CODEGEN--\":161:167   */\n      dup4\n        /* \"--CODEGEN--\":157:173   */\n      add\n        /* \"--CODEGEN--\":147:173   */\n      swap3\n      pop\n        /* \"https://github.com/provable-things/ethereum-api/blob/master/provableAPI_0.5.sol\":15850:16031  function __callback(bytes32 _myid, string memory _result, bytes memory _proof) public {\r... */\n      pop\n      pop\n      pop\n      pop\n      pop\n      pop\n      swap2\n      swap3\n      swap2\n      swap3\n      swap1\n      dup1\n      calldataload\n      swap1\n      0x20\n      add\n      swap1\n        /* \"--CODEGEN--\":21:32   */\n      0x0100000000\n        /* \"--CODEGEN--\":8:19   */\n      dup2\n        /* \"--CODEGEN--\":5:33   */\n      gt\n        /* \"--CODEGEN--\":2:4   */\n      iszero\n      tag_19\n      jumpi\n        /* \"--CODEGEN--\":46:47   */\n      0x00\n        /* \"--CODEGEN--\":43:44   */\n      dup1\n        /* \"--CODEGEN--\":36:48   */\n      revert\n        /* \"--CODEGEN--\":2:4   */\n    tag_19:\n        /* \"https://github.com/provable-things/ethereum-api/blob/master/provableAPI_0.5.sol\":15850:16031  function __callback(bytes32 _myid, string memory _result, bytes memory _proof) public {\r... */\n      dup3\n      add\n        /* \"--CODEGEN--\":35:44   */\n      dup4\n        /* \"--CODEGEN--\":28:32   */\n      0x20\n        /* \"--CODEGEN--\":12:26   */\n      dup3\n        /* \"--CODEGEN--\":8:33   */\n      add\n        /* \"--CODEGEN--\":5:45   */\n      gt\n        /* \"--CODEGEN--\":2:4   */\n      iszero\n      tag_20\n      jumpi\n        /* \"--CODEGEN--\":58:59   */\n      0x00\n        /* \"--CODEGEN--\":55:56   */\n      dup1\n        /* \"--CODEGEN--\":48:60   */\n      revert\n        /* \"--CODEGEN--\":2:4   */\n    tag_20:\n        /* \"https://github.com/provable-things/ethereum-api/blob/master/provableAPI_0.5.sol\":15850:16031  function __callback(bytes32 _myid, string memory _result, bytes memory _proof) public {\r... */\n      dup1\n      calldataload\n      swap1\n      0x20\n      add\n      swap2\n        /* \"--CODEGEN--\":100:109   */\n      dup5\n        /* \"--CODEGEN--\":95:96   */\n      0x01\n        /* \"--CODEGEN--\":81:93   */\n      dup4\n        /* \"--CODEGEN--\":77:97   */\n      mul\n        /* \"--CODEGEN--\":67:75   */\n      dup5\n        /* \"--CODEGEN--\":63:98   */\n      add\n        /* \"--CODEGEN--\":60:110   */\n      gt\n        /* \"--CODEGEN--\":39:50   */\n      0x0100000000\n        /* \"--CODEGEN--\":25:37   */\n      dup4\n        /* \"--CODEGEN--\":22:51   */\n      gt\n        /* \"--CODEGEN--\":11:118   */\n      or\n        /* \"--CODEGEN--\":8:10   */\n      iszero\n      tag_21\n      jumpi\n        /* \"--CODEGEN--\":131:132   */\n      0x00\n        /* \"--CODEGEN--\":128:129   */\n      dup1\n        /* \"--CODEGEN--\":121:133   */\n      revert\n        /* \"--CODEGEN--\":8:10   */\n    tag_21:\n        /* \"https://github.com/provable-things/ethereum-api/blob/master/provableAPI_0.5.sol\":15850:16031  function __callback(bytes32 _myid, string memory _result, bytes memory _proof) public {\r... */\n      swap2\n      swap1\n      dup1\n      dup1\n      0x1f\n      add\n      0x20\n      dup1\n      swap2\n      div\n      mul\n      0x20\n      add\n      mload(0x40)\n      swap1\n      dup2\n      add\n      0x40\n      mstore\n      dup1\n      swap4\n      swap3\n      swap2\n      swap1\n      dup2\n      dup2\n      mstore\n      0x20\n      add\n      dup4\n      dup4\n        /* \"--CODEGEN--\":30:33   */\n      dup1\n        /* \"--CODEGEN--\":22:28   */\n      dup3\n        /* \"--CODEGEN--\":14:20   */\n      dup5\n        /* \"--CODEGEN--\":1:34   */\n      calldatacopy\n        /* \"--CODEGEN--\":99:100   */\n      0x00\n        /* \"--CODEGEN--\":93:96   */\n      dup2\n        /* \"--CODEGEN--\":85:91   */\n      dup5\n        /* \"--CODEGEN--\":81:97   */\n      add\n        /* \"--CODEGEN--\":74:101   */\n      mstore\n        /* \"--CODEGEN--\":137:141   */\n      0x1f\n        /* \"--CODEGEN--\":133:142   */\n      not\n        /* \"--CODEGEN--\":126:130   */\n      0x1f\n        /* \"--CODEGEN--\":121:124   */\n      dup3\n        /* \"--CODEGEN--\":117:131   */\n      add\n        /* \"--CODEGEN--\":113:143   */\n      and\n        /* \"--CODEGEN--\":106:143   */\n      swap1\n      pop\n        /* \"--CODEGEN--\":169:172   */\n      dup1\n        /* \"--CODEGEN--\":161:167   */\n      dup4\n        /* \"--CODEGEN--\":157:173   */\n      add\n        /* \"--CODEGEN--\":147:173   */\n      swap3\n      pop\n        /* \"https://github.com/provable-things/ethereum-api/blob/master/provableAPI_0.5.sol\":15850:16031  function __callback(bytes32 _myid, string memory _result, bytes memory _proof) public {\r... */\n      pop\n      pop\n      pop\n      pop\n      pop\n      pop\n      swap2\n      swap3\n      swap2\n      swap3\n      swap1\n      pop\n      pop\n      pop\n      tag_22\n      jump\t// in\n    tag_14:\n      stop\n        /* \"contracts/Oracle.sol\":209:231  string public activity */\n    tag_4:\n      callvalue\n        /* \"--CODEGEN--\":8:17   */\n      dup1\n        /* \"--CODEGEN--\":5:7   */\n      iszero\n      tag_23\n      jumpi\n        /* \"--CODEGEN--\":30:31   */\n      0x00\n        /* \"--CODEGEN--\":27:28   */\n      dup1\n        /* \"--CODEGEN--\":20:32   */\n      revert\n        /* \"--CODEGEN--\":5:7   */\n    tag_23:\n        /* \"contracts/Oracle.sol\":209:231  string public activity */\n      pop\n      tag_24\n      tag_25\n      jump\t// in\n    tag_24:\n      mload(0x40)\n      dup1\n      dup1\n      0x20\n      add\n      dup3\n      dup2\n      sub\n      dup3\n      mstore\n      dup4\n      dup2\n      dup2\n      mload\n      dup2\n      mstore\n      0x20\n      add\n      swap2\n      pop\n      dup1\n      mload\n      swap1\n      0x20\n      add\n      swap1\n      dup1\n      dup4\n      dup4\n        /* \"--CODEGEN--\":23:24   */\n      0x00\n        /* \"--CODEGEN--\":8:108   */\n    tag_26:\n        /* \"--CODEGEN--\":33:36   */\n      dup4\n        /* \"--CODEGEN--\":30:31   */\n      dup2\n        /* \"--CODEGEN--\":27:37   */\n      lt\n        /* \"--CODEGEN--\":8:108   */\n      iszero\n      tag_28\n      jumpi\n        /* \"--CODEGEN--\":99:100   */\n      dup1\n        /* \"--CODEGEN--\":94:97   */\n      dup3\n        /* \"--CODEGEN--\":90:101   */\n      add\n        /* \"--CODEGEN--\":84:102   */\n      mload\n        /* \"--CODEGEN--\":80:81   */\n      dup2\n        /* \"--CODEGEN--\":75:78   */\n      dup5\n        /* \"--CODEGEN--\":71:82   */\n      add\n        /* \"--CODEGEN--\":64:103   */\n      mstore\n        /* \"--CODEGEN--\":52:54   */\n      0x20\n        /* \"--CODEGEN--\":49:50   */\n      dup2\n        /* \"--CODEGEN--\":45:55   */\n      add\n        /* \"--CODEGEN--\":40:55   */\n      swap1\n      pop\n        /* \"--CODEGEN--\":8:108   */\n      jump(tag_26)\n    tag_28:\n        /* \"--CODEGEN--\":12:26   */\n      pop\n        /* \"contracts/Oracle.sol\":209:231  string public activity */\n      pop\n      pop\n      pop\n      swap1\n      pop\n      swap1\n      dup2\n      add\n      swap1\n      0x1f\n      and\n      dup1\n      iszero\n      tag_29\n      jumpi\n      dup1\n      dup3\n      sub\n      dup1\n      mload\n      0x01\n      dup4\n      0x20\n      sub\n      0x0100\n      exp\n      sub\n      not\n      and\n      dup2\n      mstore\n      0x20\n      add\n      swap2\n      pop\n    tag_29:\n      pop\n      swap3\n      pop\n      pop\n      pop\n      mload(0x40)\n      dup1\n      swap2\n      sub\n      swap1\n      return\n        /* \"contracts/Oracle.sol\":240:374  function getActivity() payable public {\r... */\n    tag_5:\n      tag_30\n      tag_31\n      jump\t// in\n    tag_30:\n      stop\n        /* \"contracts/Oracle.sol\":383:555  function __callback(bytes32 _myid, string memory _result) public {\r... */\n    tag_12:\n        /* \"contracts/Oracle.sol\":481:501  provable_cbAddress() */\n      tag_33\n        /* \"contracts/Oracle.sol\":481:499  provable_cbAddress */\n      tag_34\n        /* \"contracts/Oracle.sol\":481:501  provable_cbAddress() */\n      jump\t// in\n    tag_33:\n        /* \"contracts/Oracle.sol\":467:501  msg.sender == provable_cbAddress() */\n      0xffffffffffffffffffffffffffffffffffffffff\n      and\n        /* \"contracts/Oracle.sol\":467:477  msg.sender */\n      caller\n        /* \"contracts/Oracle.sol\":467:501  msg.sender == provable_cbAddress() */\n      0xffffffffffffffffffffffffffffffffffffffff\n      and\n      eq\n        /* \"contracts/Oracle.sol\":459:502  require(msg.sender == provable_cbAddress()) */\n      tag_35\n      jumpi\n      0x00\n      dup1\n      revert\n    tag_35:\n        /* \"contracts/Oracle.sol\":524:531  _result */\n      dup1\n        /* \"contracts/Oracle.sol\":513:521  activity */\n      0x05\n        /* \"contracts/Oracle.sol\":513:531  activity = _result */\n      swap1\n      dup1\n      mload\n      swap1\n      0x20\n      add\n      swap1\n      tag_36\n      swap3\n      swap2\n      swap1\n      tag_37\n      jump\t// in\n    tag_36:\n      pop\n        /* \"contracts/Oracle.sol\":383:555  function __callback(bytes32 _myid, string memory _result) public {\r... */\n      pop\n      pop\n      jump\t// out\n        /* \"https://github.com/provable-things/ethereum-api/blob/master/provableAPI_0.5.sol\":15850:16031  function __callback(bytes32 _myid, string memory _result, bytes memory _proof) public {\r... */\n    tag_22:\n        /* \"https://github.com/provable-things/ethereum-api/blob/master/provableAPI_0.5.sol\":16021:16022  0 */\n      0x00\n        /* \"https://github.com/provable-things/ethereum-api/blob/master/provableAPI_0.5.sol\":16013:16023  bytes32(0) */\n      dup1\n      shl\n        /* \"https://github.com/provable-things/ethereum-api/blob/master/provableAPI_0.5.sol\":15976:15998  provable_randomDS_args */\n      0x03\n        /* \"https://github.com/provable-things/ethereum-api/blob/master/provableAPI_0.5.sol\":15976:16010  provable_randomDS_args[bytes32(0)] */\n      0x00\n        /* \"https://github.com/provable-things/ethereum-api/blob/master/provableAPI_0.5.sol\":16007:16008  0 */\n      dup1\n        /* \"https://github.com/provable-things/ethereum-api/blob/master/provableAPI_0.5.sol\":15999:16009  bytes32(0) */\n      0x00\n      shl\n        /* \"https://github.com/provable-things/ethereum-api/blob/master/provableAPI_0.5.sol\":15976:16010  provable_randomDS_args[bytes32(0)] */\n      dup2\n      mstore\n      0x20\n      add\n      swap1\n      dup2\n      mstore\n      0x20\n      add\n      0x00\n      keccak256\n        /* \"https://github.com/provable-things/ethereum-api/blob/master/provableAPI_0.5.sol\":15976:16023  provable_randomDS_args[bytes32(0)] = bytes32(0) */\n      dup2\n      swap1\n      sstore\n      pop\n        /* \"https://github.com/provable-things/ethereum-api/blob/master/provableAPI_0.5.sol\":15850:16031  function __callback(bytes32 _myid, string memory _result, bytes memory _proof) public {\r... */\n      pop\n      pop\n      pop\n      jump\t// out\n        /* \"contracts/Oracle.sol\":209:231  string public activity */\n    tag_25:\n      0x05\n      dup1\n      sload\n      0x01\n      dup2\n      0x01\n      and\n      iszero\n      0x0100\n      mul\n      sub\n      and\n      0x02\n      swap1\n      div\n      dup1\n      0x1f\n      add\n      0x20\n      dup1\n      swap2\n      div\n      mul\n      0x20\n      add\n      mload(0x40)\n      swap1\n      dup2\n      add\n      0x40\n      mstore\n      dup1\n      swap3\n      swap2\n      swap1\n      dup2\n      dup2\n      mstore\n      0x20\n      add\n      dup3\n      dup1\n      sload\n      0x01\n      dup2\n      0x01\n      and\n      iszero\n      0x0100\n      mul\n      sub\n      and\n      0x02\n      swap1\n      div\n      dup1\n      iszero\n      tag_39\n      jumpi\n      dup1\n      0x1f\n      lt\n      tag_40\n      jumpi\n      0x0100\n      dup1\n      dup4\n      sload\n      div\n      mul\n      dup4\n      mstore\n      swap2\n      0x20\n      add\n      swap2\n      jump(tag_39)\n    tag_40:\n      dup3\n      add\n      swap2\n      swap1\n      0x00\n      mstore\n      keccak256(0x00, 0x20)\n      swap1\n    tag_41:\n      dup2\n      sload\n      dup2\n      mstore\n      swap1\n      0x01\n      add\n      swap1\n      0x20\n      add\n      dup1\n      dup4\n      gt\n      tag_41\n      jumpi\n      dup3\n      swap1\n      sub\n      0x1f\n      and\n      dup3\n      add\n      swap2\n    tag_39:\n      pop\n      pop\n      pop\n      pop\n      pop\n      dup2\n      jump\t// out\n        /* \"contracts/Oracle.sol\":240:374  function getActivity() payable public {\r... */\n    tag_31:\n        /* \"contracts/Oracle.sol\":289:366  provable_query(\"URL\", \"json(https://www.boredapi.com/api/activity).activity\") */\n      tag_43\n      mload(0x40)\n      dup1\n      0x40\n      add\n      0x40\n      mstore\n      dup1\n      0x03\n      dup2\n      mstore\n      0x20\n      add\n      0x55524c0000000000000000000000000000000000000000000000000000000000\n      dup2\n      mstore\n      pop\n      mload(0x40)\n      dup1\n      0x60\n      add\n      0x40\n      mstore\n      dup1\n      0x34\n      dup2\n      mstore\n      0x20\n      add\n      data_6d3191427018b226e064c8d43206e8a134d9c05afb831ad673383d8862d69f47\n      0x34\n      swap2\n      codecopy\n        /* \"contracts/Oracle.sol\":289:303  provable_query */\n      tag_44\n        /* \"contracts/Oracle.sol\":289:366  provable_query(\"URL\", \"json(https://www.boredapi.com/api/activity).activity\") */\n      jump\t// in\n    tag_43:\n      pop\n        /* \"contracts/Oracle.sol\":240:374  function getActivity() payable public {\r... */\n      jump\t// out\n        /* \"https://github.com/provable-things/ethereum-api/blob/master/provableAPI_0.5.sol\":38056:38188  function provable_cbAddress() provableAPI internal returns (address _callbackAddress) {\r... */\n    tag_34:\n        /* \"https://github.com/provable-things/ethereum-api/blob/master/provableAPI_0.5.sol\":38116:38140  address _callbackAddress */\n      0x00\n        /* \"https://github.com/provable-things/ethereum-api/blob/master/provableAPI_0.5.sol\":12187:12188  0 */\n      dup1\n        /* \"https://github.com/provable-things/ethereum-api/blob/master/provableAPI_0.5.sol\":12163:12189  address(OAR) == address(0) */\n      0xffffffffffffffffffffffffffffffffffffffff\n      and\n        /* \"https://github.com/provable-things/ethereum-api/blob/master/provableAPI_0.5.sol\":12171:12174  OAR */\n      0x01\n      0x00\n      swap1\n      sload\n      swap1\n      0x0100\n      exp\n      swap1\n      div\n      0xffffffffffffffffffffffffffffffffffffffff\n      and\n        /* \"https://github.com/provable-things/ethereum-api/blob/master/provableAPI_0.5.sol\":12163:12189  address(OAR) == address(0) */\n      0xffffffffffffffffffffffffffffffffffffffff\n      and\n      eq\n        /* \"https://github.com/provable-things/ethereum-api/blob/master/provableAPI_0.5.sol\":12162:12226  (address(OAR) == address(0)) || (getCodeSize(address(OAR)) == 0) */\n      dup1\n      tag_46\n      jumpi\n      pop\n        /* \"https://github.com/provable-things/ethereum-api/blob/master/provableAPI_0.5.sol\":12224:12225  0 */\n      0x00\n        /* \"https://github.com/provable-things/ethereum-api/blob/master/provableAPI_0.5.sol\":12195:12220  getCodeSize(address(OAR)) */\n      tag_47\n        /* \"https://github.com/provable-things/ethereum-api/blob/master/provableAPI_0.5.sol\":12215:12218  OAR */\n      0x01\n      0x00\n      swap1\n      sload\n      swap1\n      0x0100\n      exp\n      swap1\n      div\n      0xffffffffffffffffffffffffffffffffffffffff\n      and\n        /* \"https://github.com/provable-things/ethereum-api/blob/master/provableAPI_0.5.sol\":12195:12206  getCodeSize */\n      tag_48\n        /* \"https://github.com/provable-things/ethereum-api/blob/master/provableAPI_0.5.sol\":12195:12220  getCodeSize(address(OAR)) */\n      jump\t// in\n    tag_47:\n        /* \"https://github.com/provable-things/ethereum-api/blob/master/provableAPI_0.5.sol\":12195:12225  getCodeSize(address(OAR)) == 0 */\n      eq\n        /* \"https://github.com/provable-things/ethereum-api/blob/master/provableAPI_0.5.sol\":12162:12226  (address(OAR) == address(0)) || (getCodeSize(address(OAR)) == 0) */\n    tag_46:\n        /* \"https://github.com/provable-things/ethereum-api/blob/master/provableAPI_0.5.sol\":12158:12290  if ((address(OAR) == address(0)) || (getCodeSize(address(OAR)) == 0)) {\r... */\n      iszero\n      tag_49\n      jumpi\n        /* \"https://github.com/provable-things/ethereum-api/blob/master/provableAPI_0.5.sol\":12243:12278  provable_setNetwork(networkID_auto) */\n      tag_50\n        /* \"https://github.com/provable-things/ethereum-api/blob/master/provableAPI_0.5.sol\":11809:11810  0 */\n      0x00\n        /* \"https://github.com/provable-things/ethereum-api/blob/master/provableAPI_0.5.sol\":12243:12262  provable_setNetwork */\n      tag_51\n        /* \"https://github.com/provable-things/ethereum-api/blob/master/provableAPI_0.5.sol\":12243:12278  provable_setNetwork(networkID_auto) */\n      jump\t// in\n    tag_50:\n      pop\n        /* \"https://github.com/provable-things/ethereum-api/blob/master/provableAPI_0.5.sol\":12158:12290  if ((address(OAR) == address(0)) || (getCodeSize(address(OAR)) == 0)) {\r... */\n    tag_49:\n        /* \"https://github.com/provable-things/ethereum-api/blob/master/provableAPI_0.5.sol\":12325:12328  OAR */\n      0x01\n      0x00\n      swap1\n      sload\n      swap1\n      0x0100\n      exp\n      swap1\n      div\n      0xffffffffffffffffffffffffffffffffffffffff\n      and\n        /* \"https://github.com/provable-things/ethereum-api/blob/master/provableAPI_0.5.sol\":12325:12339  OAR.getAddress */\n      0xffffffffffffffffffffffffffffffffffffffff\n      and\n      0x38cc4831\n        /* \"https://github.com/provable-things/ethereum-api/blob/master/provableAPI_0.5.sol\":12325:12341  OAR.getAddress() */\n      mload(0x40)\n      dup2\n      0xffffffff\n      and\n      0xe0\n      shl\n      dup2\n      mstore\n      0x04\n      add\n      0x20\n      mload(0x40)\n      dup1\n      dup4\n      sub\n      dup2\n      0x00\n      dup8\n      dup1\n      extcodesize\n      iszero\n        /* \"--CODEGEN--\":8:17   */\n      dup1\n        /* \"--CODEGEN--\":5:7   */\n      iszero\n      tag_52\n      jumpi\n        /* \"--CODEGEN--\":30:31   */\n      0x00\n        /* \"--CODEGEN--\":27:28   */\n      dup1\n        /* \"--CODEGEN--\":20:32   */\n      revert\n        /* \"--CODEGEN--\":5:7   */\n    tag_52:\n        /* \"https://github.com/provable-things/ethereum-api/blob/master/provableAPI_0.5.sol\":12325:12341  OAR.getAddress() */\n      pop\n      gas\n      call\n      iszero\n        /* \"--CODEGEN--\":8:17   */\n      dup1\n        /* \"--CODEGEN--\":5:7   */\n      iszero\n      tag_53\n      jumpi\n        /* \"--CODEGEN--\":45:61   */\n      returndatasize\n        /* \"--CODEGEN--\":42:43   */\n      0x00\n        /* \"--CODEGEN--\":39:40   */\n      dup1\n        /* \"--CODEGEN--\":24:62   */\n      returndatacopy\n        /* \"--CODEGEN--\":77:93   */\n      returndatasize\n        /* \"--CODEGEN--\":74:75   */\n      0x00\n        /* \"--CODEGEN--\":67:94   */\n      revert\n        /* \"--CODEGEN--\":5:7   */\n    tag_53:\n        /* \"https://github.com/provable-things/ethereum-api/blob/master/provableAPI_0.5.sol\":12325:12341  OAR.getAddress() */\n      pop\n      pop\n      pop\n      pop\n      mload(0x40)\n      returndatasize\n        /* \"--CODEGEN--\":13:15   */\n      0x20\n        /* \"--CODEGEN--\":8:11   */\n      dup2\n        /* \"--CODEGEN--\":5:16   */\n      lt\n        /* \"--CODEGEN--\":2:4   */\n      iszero\n      tag_54\n      jumpi\n        /* \"--CODEGEN--\":29:30   */\n      0x00\n        /* \"--CODEGEN--\":26:27   */\n      dup1\n        /* \"--CODEGEN--\":19:31   */\n      revert\n        /* \"--CODEGEN--\":2:4   */\n    tag_54:\n        /* \"https://github.com/provable-things/ethereum-api/blob/master/provableAPI_0.5.sol\":12325:12341  OAR.getAddress() */\n      dup2\n      add\n      swap1\n      dup1\n      dup1\n      mload\n      swap1\n      0x20\n      add\n      swap1\n      swap3\n      swap2\n      swap1\n      pop\n      pop\n      pop\n        /* \"https://github.com/provable-things/ethereum-api/blob/master/provableAPI_0.5.sol\":12304:12341  address(provable) != OAR.getAddress() */\n      0xffffffffffffffffffffffffffffffffffffffff\n      and\n        /* \"https://github.com/provable-things/ethereum-api/blob/master/provableAPI_0.5.sol\":12312:12320  provable */\n      0x00\n      dup1\n      swap1\n      sload\n      swap1\n      0x0100\n      exp\n      swap1\n      div\n      0xffffffffffffffffffffffffffffffffffffffff\n      and\n        /* \"https://github.com/provable-things/ethereum-api/blob/master/provableAPI_0.5.sol\":12304:12341  address(provable) != OAR.getAddress() */\n      0xffffffffffffffffffffffffffffffffffffffff\n      and\n      eq\n        /* \"https://github.com/provable-things/ethereum-api/blob/master/provableAPI_0.5.sol\":12300:12408  if (address(provable) != OAR.getAddress()) {\r... */\n      tag_55\n      jumpi\n        /* \"https://github.com/provable-things/ethereum-api/blob/master/provableAPI_0.5.sol\":12379:12382  OAR */\n      0x01\n      0x00\n      swap1\n      sload\n      swap1\n      0x0100\n      exp\n      swap1\n      div\n      0xffffffffffffffffffffffffffffffffffffffff\n      and\n        /* \"https://github.com/provable-things/ethereum-api/blob/master/provableAPI_0.5.sol\":12379:12393  OAR.getAddress */\n      0xffffffffffffffffffffffffffffffffffffffff\n      and\n      0x38cc4831\n        /* \"https://github.com/provable-things/ethereum-api/blob/master/provableAPI_0.5.sol\":12379:12395  OAR.getAddress() */\n      mload(0x40)\n      dup2\n      0xffffffff\n      and\n      0xe0\n      shl\n      dup2\n      mstore\n      0x04\n      add\n      0x20\n      mload(0x40)\n      dup1\n      dup4\n      sub\n      dup2\n      0x00\n      dup8\n      dup1\n      extcodesize\n      iszero\n        /* \"--CODEGEN--\":8:17   */\n      dup1\n        /* \"--CODEGEN--\":5:7   */\n      iszero\n      tag_56\n      jumpi\n        /* \"--CODEGEN--\":30:31   */\n      0x00\n        /* \"--CODEGEN--\":27:28   */\n      dup1\n        /* \"--CODEGEN--\":20:32   */\n      revert\n        /* \"--CODEGEN--\":5:7   */\n    tag_56:\n        /* \"https://github.com/provable-things/ethereum-api/blob/master/provableAPI_0.5.sol\":12379:12395  OAR.getAddress() */\n      pop\n      gas\n      call\n      iszero\n        /* \"--CODEGEN--\":8:17   */\n      dup1\n        /* \"--CODEGEN--\":5:7   */\n      iszero\n      tag_57\n      jumpi\n        /* \"--CODEGEN--\":45:61   */\n      returndatasize\n        /* \"--CODEGEN--\":42:43   */\n      0x00\n        /* \"--CODEGEN--\":39:40   */\n      dup1\n        /* \"--CODEGEN--\":24:62   */\n      returndatacopy\n        /* \"--CODEGEN--\":77:93   */\n      returndatasize\n        /* \"--CODEGEN--\":74:75   */\n      0x00\n        /* \"--CODEGEN--\":67:94   */\n      revert\n        /* \"--CODEGEN--\":5:7   */\n    tag_57:\n        /* \"https://github.com/provable-things/ethereum-api/blob/master/provableAPI_0.5.sol\":12379:12395  OAR.getAddress() */\n      pop\n      pop\n      pop\n      pop\n      mload(0x40)\n      returndatasize\n        /* \"--CODEGEN--\":13:15   */\n      0x20\n        /* \"--CODEGEN--\":8:11   */\n      dup2\n        /* \"--CODEGEN--\":5:16   */\n      lt\n        /* \"--CODEGEN--\":2:4   */\n      iszero\n      tag_58\n      jumpi\n        /* \"--CODEGEN--\":29:30   */\n      0x00\n        /* \"--CODEGEN--\":26:27   */\n      dup1\n        /* \"--CODEGEN--\":19:31   */\n      revert\n        /* \"--CODEGEN--\":2:4   */\n    tag_58:\n        /* \"https://github.com/provable-things/ethereum-api/blob/master/provableAPI_0.5.sol\":12379:12395  OAR.getAddress() */\n      dup2\n      add\n      swap1\n      dup1\n      dup1\n      mload\n      swap1\n      0x20\n      add\n      swap1\n      swap3\n      swap2\n      swap1\n      pop\n      pop\n      pop\n        /* \"https://github.com/provable-things/ethereum-api/blob/master/provableAPI_0.5.sol\":12358:12366  provable */\n      0x00\n      dup1\n        /* \"https://github.com/provable-things/ethereum-api/blob/master/provableAPI_0.5.sol\":12358:12396  provable = ProvableI(OAR.getAddress()) */\n      0x0100\n      exp\n      dup2\n      sload\n      dup2\n      0xffffffffffffffffffffffffffffffffffffffff\n      mul\n      not\n      and\n      swap1\n      dup4\n      0xffffffffffffffffffffffffffffffffffffffff\n      and\n      mul\n      or\n      swap1\n      sstore\n      pop\n        /* \"https://github.com/provable-things/ethereum-api/blob/master/provableAPI_0.5.sol\":12300:12408  if (address(provable) != OAR.getAddress()) {\r... */\n    tag_55:\n        /* \"https://github.com/provable-things/ethereum-api/blob/master/provableAPI_0.5.sol\":38160:38168  provable */\n      0x00\n      dup1\n      swap1\n      sload\n      swap1\n      0x0100\n      exp\n      swap1\n      div\n      0xffffffffffffffffffffffffffffffffffffffff\n      and\n        /* \"https://github.com/provable-things/ethereum-api/blob/master/provableAPI_0.5.sol\":38160:38178  provable.cbAddress */\n      0xffffffffffffffffffffffffffffffffffffffff\n      and\n      0xc281d19e\n        /* \"https://github.com/provable-things/ethereum-api/blob/master/provableAPI_0.5.sol\":38160:38180  provable.cbAddress() */\n      mload(0x40)\n      dup2\n      0xffffffff\n      and\n      0xe0\n      shl\n      dup2\n      mstore\n      0x04\n      add\n      0x20\n      mload(0x40)\n      dup1\n      dup4\n      sub\n      dup2\n      dup7\n      dup1\n      extcodesize\n      iszero\n        /* \"--CODEGEN--\":8:17   */\n      dup1\n        /* \"--CODEGEN--\":5:7   */\n      iszero\n      tag_60\n      jumpi\n        /* \"--CODEGEN--\":30:31   */\n      0x00\n        /* \"--CODEGEN--\":27:28   */\n      dup1\n        /* \"--CODEGEN--\":20:32   */\n      revert\n        /* \"--CODEGEN--\":5:7   */\n    tag_60:\n        /* \"https://github.com/provable-things/ethereum-api/blob/master/provableAPI_0.5.sol\":38160:38180  provable.cbAddress() */\n      pop\n      gas\n      staticcall\n      iszero\n        /* \"--CODEGEN--\":8:17   */\n      dup1\n        /* \"--CODEGEN--\":5:7   */\n      iszero\n      tag_61\n      jumpi\n        /* \"--CODEGEN--\":45:61   */\n      returndatasize\n        /* \"--CODEGEN--\":42:43   */\n      0x00\n        /* \"--CODEGEN--\":39:40   */\n      dup1\n        /* \"--CODEGEN--\":24:62   */\n      returndatacopy\n        /* \"--CODEGEN--\":77:93   */\n      returndatasize\n        /* \"--CODEGEN--\":74:75   */\n      0x00\n        /* \"--CODEGEN--\":67:94   */\n      revert\n        /* \"--CODEGEN--\":5:7   */\n    tag_61:\n        /* \"https://github.com/provable-things/ethereum-api/blob/master/provableAPI_0.5.sol\":38160:38180  provable.cbAddress() */\n      pop\n      pop\n      pop\n      pop\n      mload(0x40)\n      returndatasize\n        /* \"--CODEGEN--\":13:15   */\n      0x20\n        /* \"--CODEGEN--\":8:11   */\n      dup2\n        /* \"--CODEGEN--\":5:16   */\n      lt\n        /* \"--CODEGEN--\":2:4   */\n      iszero\n      tag_62\n      jumpi\n        /* \"--CODEGEN--\":29:30   */\n      0x00\n        /* \"--CODEGEN--\":26:27   */\n      dup1\n        /* \"--CODEGEN--\":19:31   */\n      revert\n        /* \"--CODEGEN--\":2:4   */\n    tag_62:\n        /* \"https://github.com/provable-things/ethereum-api/blob/master/provableAPI_0.5.sol\":38160:38180  provable.cbAddress() */\n      dup2\n      add\n      swap1\n      dup1\n      dup1\n      mload\n      swap1\n      0x20\n      add\n      swap1\n      swap3\n      swap2\n      swap1\n      pop\n      pop\n      pop\n        /* \"https://github.com/provable-things/ethereum-api/blob/master/provableAPI_0.5.sol\":38153:38180  return provable.cbAddress() */\n      swap1\n      pop\n        /* \"https://github.com/provable-things/ethereum-api/blob/master/provableAPI_0.5.sol\":38056:38188  function provable_cbAddress() provableAPI internal returns (address _callbackAddress) {\r... */\n      swap1\n      jump\t// out\n        /* \"https://github.com/provable-things/ethereum-api/blob/master/provableAPI_0.5.sol\":16398:16757  function provable_query(string memory _datasource, string memory _arg) provableAPI internal returns (bytes32 _id) {\r... */\n    tag_44:\n        /* \"https://github.com/provable-things/ethereum-api/blob/master/provableAPI_0.5.sol\":16499:16510  bytes32 _id */\n      0x00\n        /* \"https://github.com/provable-things/ethereum-api/blob/master/provableAPI_0.5.sol\":12187:12188  0 */\n      dup1\n        /* \"https://github.com/provable-things/ethereum-api/blob/master/provableAPI_0.5.sol\":12163:12189  address(OAR) == address(0) */\n      0xffffffffffffffffffffffffffffffffffffffff\n      and\n        /* \"https://github.com/provable-things/ethereum-api/blob/master/provableAPI_0.5.sol\":12171:12174  OAR */\n      0x01\n      0x00\n      swap1\n      sload\n      swap1\n      0x0100\n      exp\n      swap1\n      div\n      0xffffffffffffffffffffffffffffffffffffffff\n      and\n        /* \"https://github.com/provable-things/ethereum-api/blob/master/provableAPI_0.5.sol\":12163:12189  address(OAR) == address(0) */\n      0xffffffffffffffffffffffffffffffffffffffff\n      and\n      eq\n        /* \"https://github.com/provable-things/ethereum-api/blob/master/provableAPI_0.5.sol\":12162:12226  (address(OAR) == address(0)) || (getCodeSize(address(OAR)) == 0) */\n      dup1\n      tag_64\n      jumpi\n      pop\n        /* \"https://github.com/provable-things/ethereum-api/blob/master/provableAPI_0.5.sol\":12224:12225  0 */\n      0x00\n        /* \"https://github.com/provable-things/ethereum-api/blob/master/provableAPI_0.5.sol\":12195:12220  getCodeSize(address(OAR)) */\n      tag_65\n        /* \"https://github.com/provable-things/ethereum-api/blob/master/provableAPI_0.5.sol\":12215:12218  OAR */\n      0x01\n      0x00\n      swap1\n      sload\n      swap1\n      0x0100\n      exp\n      swap1\n      div\n      0xffffffffffffffffffffffffffffffffffffffff\n      and\n        /* \"https://github.com/provable-things/ethereum-api/blob/master/provableAPI_0.5.sol\":12195:12206  getCodeSize */\n      tag_48\n        /* \"https://github.com/provable-things/ethereum-api/blob/master/provableAPI_0.5.sol\":12195:12220  getCodeSize(address(OAR)) */\n      jump\t// in\n    tag_65:\n        /* \"https://github.com/provable-things/ethereum-api/blob/master/provableAPI_0.5.sol\":12195:12225  getCodeSize(address(OAR)) == 0 */\n      eq\n        /* \"https://github.com/provable-things/ethereum-api/blob/master/provableAPI_0.5.sol\":12162:12226  (address(OAR) == address(0)) || (getCodeSize(address(OAR)) == 0) */\n    tag_64:\n        /* \"https://github.com/provable-things/ethereum-api/blob/master/provableAPI_0.5.sol\":12158:12290  if ((address(OAR) == address(0)) || (getCodeSize(address(OAR)) == 0)) {\r... */\n      iszero\n      tag_66\n      jumpi\n        /* \"https://github.com/provable-things/ethereum-api/blob/master/provableAPI_0.5.sol\":12243:12278  provable_setNetwork(networkID_auto) */\n      tag_67\n        /* \"https://github.com/provable-things/ethereum-api/blob/master/provableAPI_0.5.sol\":11809:11810  0 */\n      0x00\n        /* \"https://github.com/provable-things/ethereum-api/blob/master/provableAPI_0.5.sol\":12243:12262  provable_setNetwork */\n      tag_51\n        /* \"https://github.com/provable-things/ethereum-api/blob/master/provableAPI_0.5.sol\":12243:12278  provable_setNetwork(networkID_auto) */\n      jump\t// in\n    tag_67:\n      pop\n        /* \"https://github.com/provable-things/ethereum-api/blob/master/provableAPI_0.5.sol\":12158:12290  if ((address(OAR) == address(0)) || (getCodeSize(address(OAR)) == 0)) {\r... */\n    tag_66:\n        /* \"https://github.com/provable-things/ethereum-api/blob/master/provableAPI_0.5.sol\":12325:12328  OAR */\n      0x01\n      0x00\n      swap1\n      sload\n      swap1\n      0x0100\n      exp\n      swap1\n      div\n      0xffffffffffffffffffffffffffffffffffffffff\n      and\n        /* \"https://github.com/provable-things/ethereum-api/blob/master/provableAPI_0.5.sol\":12325:12339  OAR.getAddress */\n      0xffffffffffffffffffffffffffffffffffffffff\n      and\n      0x38cc4831\n        /* \"https://github.com/provable-things/ethereum-api/blob/master/provableAPI_0.5.sol\":12325:12341  OAR.getAddress() */\n      mload(0x40)\n      dup2\n      0xffffffff\n      and\n      0xe0\n      shl\n      dup2\n      mstore\n      0x04\n      add\n      0x20\n      mload(0x40)\n      dup1\n      dup4\n      sub\n      dup2\n      0x00\n      dup8\n      dup1\n      extcodesize\n      iszero\n        /* \"--CODEGEN--\":8:17   */\n      dup1\n        /* \"--CODEGEN--\":5:7   */\n      iszero\n      tag_68\n      jumpi\n        /* \"--CODEGEN--\":30:31   */\n      0x00\n        /* \"--CODEGEN--\":27:28   */\n      dup1\n        /* \"--CODEGEN--\":20:32   */\n      revert\n        /* \"--CODEGEN--\":5:7   */\n    tag_68:\n        /* \"https://github.com/provable-things/ethereum-api/blob/master/provableAPI_0.5.sol\":12325:12341  OAR.getAddress() */\n      pop\n      gas\n      call\n      iszero\n        /* \"--CODEGEN--\":8:17   */\n      dup1\n        /* \"--CODEGEN--\":5:7   */\n      iszero\n      tag_69\n      jumpi\n        /* \"--CODEGEN--\":45:61   */\n      returndatasize\n        /* \"--CODEGEN--\":42:43   */\n      0x00\n        /* \"--CODEGEN--\":39:40   */\n      dup1\n        /* \"--CODEGEN--\":24:62   */\n      returndatacopy\n        /* \"--CODEGEN--\":77:93   */\n      returndatasize\n        /* \"--CODEGEN--\":74:75   */\n      0x00\n        /* \"--CODEGEN--\":67:94   */\n      revert\n        /* \"--CODEGEN--\":5:7   */\n    tag_69:\n        /* \"https://github.com/provable-things/ethereum-api/blob/master/provableAPI_0.5.sol\":12325:12341  OAR.getAddress() */\n      pop\n      pop\n      pop\n      pop\n      mload(0x40)\n      returndatasize\n        /* \"--CODEGEN--\":13:15   */\n      0x20\n        /* \"--CODEGEN--\":8:11   */\n      dup2\n        /* \"--CODEGEN--\":5:16   */\n      lt\n        /* \"--CODEGEN--\":2:4   */\n      iszero\n      tag_70\n      jumpi\n        /* \"--CODEGEN--\":29:30   */\n      0x00\n        /* \"--CODEGEN--\":26:27   */\n      dup1\n        /* \"--CODEGEN--\":19:31   */\n      revert\n        /* \"--CODEGEN--\":2:4   */\n    tag_70:\n        /* \"https://github.com/provable-things/ethereum-api/blob/master/provableAPI_0.5.sol\":12325:12341  OAR.getAddress() */\n      dup2\n      add\n      swap1\n      dup1\n      dup1\n      mload\n      swap1\n      0x20\n      add\n      swap1\n      swap3\n      swap2\n      swap1\n      pop\n      pop\n      pop\n        /* \"https://github.com/provable-things/ethereum-api/blob/master/provableAPI_0.5.sol\":12304:12341  address(provable) != OAR.getAddress() */\n      0xffffffffffffffffffffffffffffffffffffffff\n      and\n        /* \"https://github.com/provable-things/ethereum-api/blob/master/provableAPI_0.5.sol\":12312:12320  provable */\n      0x00\n      dup1\n      swap1\n      sload\n      swap1\n      0x0100\n      exp\n      swap1\n      div\n      0xffffffffffffffffffffffffffffffffffffffff\n      and\n        /* \"https://github.com/provable-things/ethereum-api/blob/master/provableAPI_0.5.sol\":12304:12341  address(provable) != OAR.getAddress() */\n      0xffffffffffffffffffffffffffffffffffffffff\n      and\n      eq\n        /* \"https://github.com/provable-things/ethereum-api/blob/master/provableAPI_0.5.sol\":12300:12408  if (address(provable) != OAR.getAddress()) {\r... */\n      tag_71\n      jumpi\n        /* \"https://github.com/provable-things/ethereum-api/blob/master/provableAPI_0.5.sol\":12379:12382  OAR */\n      0x01\n      0x00\n      swap1\n      sload\n      swap1\n      0x0100\n      exp\n      swap1\n      div\n      0xffffffffffffffffffffffffffffffffffffffff\n      and\n        /* \"https://github.com/provable-things/ethereum-api/blob/master/provableAPI_0.5.sol\":12379:12393  OAR.getAddress */\n      0xffffffffffffffffffffffffffffffffffffffff\n      and\n      0x38cc4831\n        /* \"https://github.com/provable-things/ethereum-api/blob/master/provableAPI_0.5.sol\":12379:12395  OAR.getAddress() */\n      mload(0x40)\n      dup2\n      0xffffffff\n      and\n      0xe0\n      shl\n      dup2\n      mstore\n      0x04\n      add\n      0x20\n      mload(0x40)\n      dup1\n      dup4\n      sub\n      dup2\n      0x00\n      dup8\n      dup1\n      extcodesize\n      iszero\n        /* \"--CODEGEN--\":8:17   */\n      dup1\n        /* \"--CODEGEN--\":5:7   */\n      iszero\n      tag_72\n      jumpi\n        /* \"--CODEGEN--\":30:31   */\n      0x00\n        /* \"--CODEGEN--\":27:28   */\n      dup1\n        /* \"--CODEGEN--\":20:32   */\n      revert\n        /* \"--CODEGEN--\":5:7   */\n    tag_72:\n        /* \"https://github.com/provable-things/ethereum-api/blob/master/provableAPI_0.5.sol\":12379:12395  OAR.getAddress() */\n      pop\n      gas\n      call\n      iszero\n        /* \"--CODEGEN--\":8:17   */\n      dup1\n        /* \"--CODEGEN--\":5:7   */\n      iszero\n      tag_73\n      jumpi\n        /* \"--CODEGEN--\":45:61   */\n      returndatasize\n        /* \"--CODEGEN--\":42:43   */\n      0x00\n        /* \"--CODEGEN--\":39:40   */\n      dup1\n        /* \"--CODEGEN--\":24:62   */\n      returndatacopy\n        /* \"--CODEGEN--\":77:93   */\n      returndatasize\n        /* \"--CODEGEN--\":74:75   */\n      0x00\n        /* \"--CODEGEN--\":67:94   */\n      revert\n        /* \"--CODEGEN--\":5:7   */\n    tag_73:\n        /* \"https://github.com/provable-things/ethereum-api/blob/master/provableAPI_0.5.sol\":12379:12395  OAR.getAddress() */\n      pop\n      pop\n      pop\n      pop\n      mload(0x40)\n      returndatasize\n        /* \"--CODEGEN--\":13:15   */\n      0x20\n        /* \"--CODEGEN--\":8:11   */\n      dup2\n        /* \"--CODEGEN--\":5:16   */\n      lt\n        /* \"--CODEGEN--\":2:4   */\n      iszero\n      tag_74\n      jumpi\n        /* \"--CODEGEN--\":29:30   */\n      0x00\n        /* \"--CODEGEN--\":26:27   */\n      dup1\n        /* \"--CODEGEN--\":19:31   */\n      revert\n        /* \"--CODEGEN--\":2:4   */\n    tag_74:\n        /* \"https://github.com/provable-things/ethereum-api/blob/master/provableAPI_0.5.sol\":12379:12395  OAR.getAddress() */\n      dup2\n      add\n      swap1\n      dup1\n      dup1\n      mload\n      swap1\n      0x20\n      add\n      swap1\n      swap3\n      swap2\n      swap1\n      pop\n      pop\n      pop\n        /* \"https://github.com/provable-things/ethereum-api/blob/master/provableAPI_0.5.sol\":12358:12366  provable */\n      0x00\n      dup1\n        /* \"https://github.com/provable-things/ethereum-api/blob/master/provableAPI_0.5.sol\":12358:12396  provable = ProvableI(OAR.getAddress()) */\n      0x0100\n      exp\n      dup2\n      sload\n      dup2\n      0xffffffffffffffffffffffffffffffffffffffff\n      mul\n      not\n      and\n      swap1\n      dup4\n      0xffffffffffffffffffffffffffffffffffffffff\n      and\n      mul\n      or\n      swap1\n      sstore\n      pop\n        /* \"https://github.com/provable-things/ethereum-api/blob/master/provableAPI_0.5.sol\":12300:12408  if (address(provable) != OAR.getAddress()) {\r... */\n    tag_71:\n        /* \"https://github.com/provable-things/ethereum-api/blob/master/provableAPI_0.5.sol\":16523:16533  uint price */\n      0x00\n        /* \"https://github.com/provable-things/ethereum-api/blob/master/provableAPI_0.5.sol\":16536:16544  provable */\n      dup1\n      0x00\n      swap1\n      sload\n      swap1\n      0x0100\n      exp\n      swap1\n      div\n      0xffffffffffffffffffffffffffffffffffffffff\n      and\n        /* \"https://github.com/provable-things/ethereum-api/blob/master/provableAPI_0.5.sol\":16536:16553  provable.getPrice */\n      0xffffffffffffffffffffffffffffffffffffffff\n      and\n      0x524f3889\n        /* \"https://github.com/provable-things/ethereum-api/blob/master/provableAPI_0.5.sol\":16554:16565  _datasource */\n      dup6\n        /* \"https://github.com/provable-things/ethereum-api/blob/master/provableAPI_0.5.sol\":16536:16566  provable.getPrice(_datasource) */\n      mload(0x40)\n      dup3\n      0xffffffff\n      and\n      0xe0\n      shl\n      dup2\n      mstore\n      0x04\n      add\n      dup1\n      dup1\n      0x20\n      add\n      dup3\n      dup2\n      sub\n      dup3\n      mstore\n      dup4\n      dup2\n      dup2\n      mload\n      dup2\n      mstore\n      0x20\n      add\n      swap2\n      pop\n      dup1\n      mload\n      swap1\n      0x20\n      add\n      swap1\n      dup1\n      dup4\n      dup4\n        /* \"--CODEGEN--\":23:24   */\n      0x00\n        /* \"--CODEGEN--\":8:108   */\n    tag_76:\n        /* \"--CODEGEN--\":33:36   */\n      dup4\n        /* \"--CODEGEN--\":30:31   */\n      dup2\n        /* \"--CODEGEN--\":27:37   */\n      lt\n        /* \"--CODEGEN--\":8:108   */\n      iszero\n      tag_78\n      jumpi\n        /* \"--CODEGEN--\":99:100   */\n      dup1\n        /* \"--CODEGEN--\":94:97   */\n      dup3\n        /* \"--CODEGEN--\":90:101   */\n      add\n        /* \"--CODEGEN--\":84:102   */\n      mload\n        /* \"--CODEGEN--\":80:81   */\n      dup2\n        /* \"--CODEGEN--\":75:78   */\n      dup5\n        /* \"--CODEGEN--\":71:82   */\n      add\n        /* \"--CODEGEN--\":64:103   */\n      mstore\n        /* \"--CODEGEN--\":52:54   */\n      0x20\n        /* \"--CODEGEN--\":49:50   */\n      dup2\n        /* \"--CODEGEN--\":45:55   */\n      add\n        /* \"--CODEGEN--\":40:55   */\n      swap1\n      pop\n        /* \"--CODEGEN--\":8:108   */\n      jump(tag_76)\n    tag_78:\n        /* \"--CODEGEN--\":12:26   */\n      pop\n        /* \"https://github.com/provable-things/ethereum-api/blob/master/provableAPI_0.5.sol\":16536:16566  provable.getPrice(_datasource) */\n      pop\n      pop\n      pop\n      swap1\n      pop\n      swap1\n      dup2\n      add\n      swap1\n      0x1f\n      and\n      dup1\n      iszero\n      tag_79\n      jumpi\n      dup1\n      dup3\n      sub\n      dup1\n      mload\n      0x01\n      dup4\n      0x20\n      sub\n      0x0100\n      exp\n      sub\n      not\n      and\n      dup2\n      mstore\n      0x20\n      add\n      swap2\n      pop\n    tag_79:\n      pop\n      swap3\n      pop\n      pop\n      pop\n      0x20\n      mload(0x40)\n      dup1\n      dup4\n      sub\n      dup2\n      0x00\n      dup8\n      dup1\n      extcodesize\n      iszero\n        /* \"--CODEGEN--\":8:17   */\n      dup1\n        /* \"--CODEGEN--\":5:7   */\n      iszero\n      tag_80\n      jumpi\n        /* \"--CODEGEN--\":30:31   */\n      0x00\n        /* \"--CODEGEN--\":27:28   */\n      dup1\n        /* \"--CODEGEN--\":20:32   */\n      revert\n        /* \"--CODEGEN--\":5:7   */\n    tag_80:\n        /* \"https://github.com/provable-things/ethereum-api/blob/master/provableAPI_0.5.sol\":16536:16566  provable.getPrice(_datasource) */\n      pop\n      gas\n      call\n      iszero\n        /* \"--CODEGEN--\":8:17   */\n      dup1\n        /* \"--CODEGEN--\":5:7   */\n      iszero\n      tag_81\n      jumpi\n        /* \"--CODEGEN--\":45:61   */\n      returndatasize\n        /* \"--CODEGEN--\":42:43   */\n      0x00\n        /* \"--CODEGEN--\":39:40   */\n      dup1\n        /* \"--CODEGEN--\":24:62   */\n      returndatacopy\n        /* \"--CODEGEN--\":77:93   */\n      returndatasize\n        /* \"--CODEGEN--\":74:75   */\n      0x00\n        /* \"--CODEGEN--\":67:94   */\n      revert\n        /* \"--CODEGEN--\":5:7   */\n    tag_81:\n        /* \"https://github.com/provable-things/ethereum-api/blob/master/provableAPI_0.5.sol\":16536:16566  provable.getPrice(_datasource) */\n      pop\n      pop\n      pop\n      pop\n      mload(0x40)\n      returndatasize\n        /* \"--CODEGEN--\":13:15   */\n      0x20\n        /* \"--CODEGEN--\":8:11   */\n      dup2\n        /* \"--CODEGEN--\":5:16   */\n      lt\n        /* \"--CODEGEN--\":2:4   */\n      iszero\n      tag_82\n      jumpi\n        /* \"--CODEGEN--\":29:30   */\n      0x00\n        /* \"--CODEGEN--\":26:27   */\n      dup1\n        /* \"--CODEGEN--\":19:31   */\n      revert\n        /* \"--CODEGEN--\":2:4   */\n    tag_82:\n        /* \"https://github.com/provable-things/ethereum-api/blob/master/provableAPI_0.5.sol\":16536:16566  provable.getPrice(_datasource) */\n      dup2\n      add\n      swap1\n      dup1\n      dup1\n      mload\n      swap1\n      0x20\n      add\n      swap1\n      swap3\n      swap2\n      swap1\n      pop\n      pop\n      pop\n        /* \"https://github.com/provable-things/ethereum-api/blob/master/provableAPI_0.5.sol\":16523:16566  uint price = provable.getPrice(_datasource) */\n      swap1\n      pop\n        /* \"https://github.com/provable-things/ethereum-api/blob/master/provableAPI_0.5.sol\":16613:16619  200000 */\n      0x030d40\n        /* \"https://github.com/provable-things/ethereum-api/blob/master/provableAPI_0.5.sol\":16599:16610  tx.gasprice */\n      gasprice\n        /* \"https://github.com/provable-things/ethereum-api/blob/master/provableAPI_0.5.sol\":16599:16619  tx.gasprice * 200000 */\n      mul\n        /* \"https://github.com/provable-things/ethereum-api/blob/master/provableAPI_0.5.sol\":16589:16596  1 ether */\n      0x0de0b6b3a7640000\n        /* \"https://github.com/provable-things/ethereum-api/blob/master/provableAPI_0.5.sol\":16589:16619  1 ether + tx.gasprice * 200000 */\n      add\n        /* \"https://github.com/provable-things/ethereum-api/blob/master/provableAPI_0.5.sol\":16581:16586  price */\n      dup2\n        /* \"https://github.com/provable-things/ethereum-api/blob/master/provableAPI_0.5.sol\":16581:16619  price > 1 ether + tx.gasprice * 200000 */\n      gt\n        /* \"https://github.com/provable-things/ethereum-api/blob/master/provableAPI_0.5.sol\":16577:16683  if (price > 1 ether + tx.gasprice * 200000) {\r... */\n      iszero\n      tag_83\n      jumpi\n        /* \"https://github.com/provable-things/ethereum-api/blob/master/provableAPI_0.5.sol\":16643:16644  0 */\n      0x00\n        /* \"https://github.com/provable-things/ethereum-api/blob/master/provableAPI_0.5.sol\":16636:16644  return 0 */\n      dup1\n      shl\n      swap2\n      pop\n      pop\n      jump(tag_75)\n        /* \"https://github.com/provable-things/ethereum-api/blob/master/provableAPI_0.5.sol\":16577:16683  if (price > 1 ether + tx.gasprice * 200000) {\r... */\n    tag_83:\n        /* \"https://github.com/provable-things/ethereum-api/blob/master/provableAPI_0.5.sol\":16700:16708  provable */\n      0x00\n      dup1\n      swap1\n      sload\n      swap1\n      0x0100\n      exp\n      swap1\n      div\n      0xffffffffffffffffffffffffffffffffffffffff\n      and\n        /* \"https://github.com/provable-things/ethereum-api/blob/master/provableAPI_0.5.sol\":16700:16714  provable.query */\n      0xffffffffffffffffffffffffffffffffffffffff\n      and\n      0xadf59f99\n        /* \"https://github.com/provable-things/ethereum-api/blob/master/provableAPI_0.5.sol\":16721:16726  price */\n      dup3\n        /* \"https://github.com/provable-things/ethereum-api/blob/master/provableAPI_0.5.sol\":16728:16729  0 */\n      0x00\n        /* \"https://github.com/provable-things/ethereum-api/blob/master/provableAPI_0.5.sol\":16731:16742  _datasource */\n      dup8\n        /* \"https://github.com/provable-things/ethereum-api/blob/master/provableAPI_0.5.sol\":16744:16748  _arg */\n      dup8\n        /* \"https://github.com/provable-things/ethereum-api/blob/master/provableAPI_0.5.sol\":16700:16749  provable.query.value(price)(0, _datasource, _arg) */\n      mload(0x40)\n      dup6\n      0xffffffff\n      and\n      0xe0\n      shl\n      dup2\n      mstore\n      0x04\n      add\n      dup1\n      dup5\n      dup2\n      mstore\n      0x20\n      add\n      dup1\n      0x20\n      add\n      dup1\n      0x20\n      add\n      dup4\n      dup2\n      sub\n      dup4\n      mstore\n      dup6\n      dup2\n      dup2\n      mload\n      dup2\n      mstore\n      0x20\n      add\n      swap2\n      pop\n      dup1\n      mload\n      swap1\n      0x20\n      add\n      swap1\n      dup1\n      dup4\n      dup4\n        /* \"--CODEGEN--\":23:24   */\n      0x00\n        /* \"--CODEGEN--\":8:108   */\n    tag_84:\n        /* \"--CODEGEN--\":33:36   */\n      dup4\n        /* \"--CODEGEN--\":30:31   */\n      dup2\n        /* \"--CODEGEN--\":27:37   */\n      lt\n        /* \"--CODEGEN--\":8:108   */\n      iszero\n      tag_86\n      jumpi\n        /* \"--CODEGEN--\":99:100   */\n      dup1\n        /* \"--CODEGEN--\":94:97   */\n      dup3\n        /* \"--CODEGEN--\":90:101   */\n      add\n        /* \"--CODEGEN--\":84:102   */\n      mload\n        /* \"--CODEGEN--\":80:81   */\n      dup2\n        /* \"--CODEGEN--\":75:78   */\n      dup5\n        /* \"--CODEGEN--\":71:82   */\n      add\n        /* \"--CODEGEN--\":64:103   */\n      mstore\n        /* \"--CODEGEN--\":52:54   */\n      0x20\n        /* \"--CODEGEN--\":49:50   */\n      dup2\n        /* \"--CODEGEN--\":45:55   */\n      add\n        /* \"--CODEGEN--\":40:55   */\n      swap1\n      pop\n        /* \"--CODEGEN--\":8:108   */\n      jump(tag_84)\n    tag_86:\n        /* \"--CODEGEN--\":12:26   */\n      pop\n        /* \"https://github.com/provable-things/ethereum-api/blob/master/provableAPI_0.5.sol\":16700:16749  provable.query.value(price)(0, _datasource, _arg) */\n      pop\n      pop\n      pop\n      swap1\n      pop\n      swap1\n      dup2\n      add\n      swap1\n      0x1f\n      and\n      dup1\n      iszero\n      tag_87\n      jumpi\n      dup1\n      dup3\n      sub\n      dup1\n      mload\n      0x01\n      dup4\n      0x20\n      sub\n      0x0100\n      exp\n      sub\n      not\n      and\n      dup2\n      mstore\n      0x20\n      add\n      swap2\n      pop\n    tag_87:\n      pop\n      dup4\n      dup2\n      sub\n      dup3\n      mstore\n      dup5\n      dup2\n      dup2\n      mload\n      dup2\n      mstore\n      0x20\n      add\n      swap2\n      pop\n      dup1\n      mload\n      swap1\n      0x20\n      add\n      swap1\n      dup1\n      dup4\n      dup4\n        /* \"--CODEGEN--\":23:24   */\n      0x00\n        /* \"--CODEGEN--\":8:108   */\n    tag_88:\n        /* \"--CODEGEN--\":33:36   */\n      dup4\n        /* \"--CODEGEN--\":30:31   */\n      dup2\n        /* \"--CODEGEN--\":27:37   */\n      lt\n        /* \"--CODEGEN--\":8:108   */\n      iszero\n      tag_90\n      jumpi\n        /* \"--CODEGEN--\":99:100   */\n      dup1\n        /* \"--CODEGEN--\":94:97   */\n      dup3\n        /* \"--CODEGEN--\":90:101   */\n      add\n        /* \"--CODEGEN--\":84:102   */\n      mload\n        /* \"--CODEGEN--\":80:81   */\n      dup2\n        /* \"--CODEGEN--\":75:78   */\n      dup5\n        /* \"--CODEGEN--\":71:82   */\n      add\n        /* \"--CODEGEN--\":64:103   */\n      mstore\n        /* \"--CODEGEN--\":52:54   */\n      0x20\n        /* \"--CODEGEN--\":49:50   */\n      dup2\n        /* \"--CODEGEN--\":45:55   */\n      add\n        /* \"--CODEGEN--\":40:55   */\n      swap1\n      pop\n        /* \"--CODEGEN--\":8:108   */\n      jump(tag_88)\n    tag_90:\n        /* \"--CODEGEN--\":12:26   */\n      pop\n        /* \"https://github.com/provable-things/ethereum-api/blob/master/provableAPI_0.5.sol\":16700:16749  provable.query.value(price)(0, _datasource, _arg) */\n      pop\n      pop\n      pop\n      swap1\n      pop\n      swap1\n      dup2\n      add\n      swap1\n      0x1f\n      and\n      dup1\n      iszero\n      tag_91\n      jumpi\n      dup1\n      dup3\n      sub\n      dup1\n      mload\n      0x01\n      dup4\n      0x20\n      sub\n      0x0100\n      exp\n      sub\n      not\n      and\n      dup2\n      mstore\n      0x20\n      add\n      swap2\n      pop\n    tag_91:\n      pop\n      swap6\n      pop\n      pop\n      pop\n      pop\n      pop\n      pop\n      0x20\n      mload(0x40)\n      dup1\n      dup4\n      sub\n      dup2\n      dup6\n      dup9\n      dup1\n      extcodesize\n      iszero\n        /* \"--CODEGEN--\":8:17   */\n      dup1\n        /* \"--CODEGEN--\":5:7   */\n      iszero\n      tag_92\n      jumpi\n        /* \"--CODEGEN--\":30:31   */\n      0x00\n        /* \"--CODEGEN--\":27:28   */\n      dup1\n        /* \"--CODEGEN--\":20:32   */\n      revert\n        /* \"--CODEGEN--\":5:7   */\n    tag_92:\n        /* \"https://github.com/provable-things/ethereum-api/blob/master/provableAPI_0.5.sol\":16700:16749  provable.query.value(price)(0, _datasource, _arg) */\n      pop\n      gas\n      call\n      iszero\n        /* \"--CODEGEN--\":8:17   */\n      dup1\n        /* \"--CODEGEN--\":5:7   */\n      iszero\n      tag_93\n      jumpi\n        /* \"--CODEGEN--\":45:61   */\n      returndatasize\n        /* \"--CODEGEN--\":42:43   */\n      0x00\n        /* \"--CODEGEN--\":39:40   */\n      dup1\n        /* \"--CODEGEN--\":24:62   */\n      returndatacopy\n        /* \"--CODEGEN--\":77:93   */\n      returndatasize\n        /* \"--CODEGEN--\":74:75   */\n      0x00\n        /* \"--CODEGEN--\":67:94   */\n      revert\n        /* \"--CODEGEN--\":5:7   */\n    tag_93:\n        /* \"https://github.com/provable-things/ethereum-api/blob/master/provableAPI_0.5.sol\":16700:16749  provable.query.value(price)(0, _datasource, _arg) */\n      pop\n      pop\n      pop\n      pop\n      pop\n      mload(0x40)\n      returndatasize\n        /* \"--CODEGEN--\":13:15   */\n      0x20\n        /* \"--CODEGEN--\":8:11   */\n      dup2\n        /* \"--CODEGEN--\":5:16   */\n      lt\n        /* \"--CODEGEN--\":2:4   */\n      iszero\n      tag_94\n      jumpi\n        /* \"--CODEGEN--\":29:30   */\n      0x00\n        /* \"--CODEGEN--\":26:27   */\n      dup1\n        /* \"--CODEGEN--\":19:31   */\n      revert\n        /* \"--CODEGEN--\":2:4   */\n    tag_94:\n        /* \"https://github.com/provable-things/ethereum-api/blob/master/provableAPI_0.5.sol\":16700:16749  provable.query.value(price)(0, _datasource, _arg) */\n      dup2\n      add\n      swap1\n      dup1\n      dup1\n      mload\n      swap1\n      0x20\n      add\n      swap1\n      swap3\n      swap2\n      swap1\n      pop\n      pop\n      pop\n        /* \"https://github.com/provable-things/ethereum-api/blob/master/provableAPI_0.5.sol\":16693:16749  return provable.query.value(price)(0, _datasource, _arg) */\n      swap2\n      pop\n      pop\n        /* \"https://github.com/provable-things/ethereum-api/blob/master/provableAPI_0.5.sol\":12418:12419  _ */\n    tag_75:\n        /* \"https://github.com/provable-things/ethereum-api/blob/master/provableAPI_0.5.sol\":16398:16757  function provable_query(string memory _datasource, string memory _arg) provableAPI internal returns (bytes32 _id) {\r... */\n      swap3\n      swap2\n      pop\n      pop\n      jump\t// out\n        /* \"https://github.com/provable-things/ethereum-api/blob/master/provableAPI_0.5.sol\":38196:38347  function getCodeSize(address _addr) view internal returns (uint _size) {\r... */\n    tag_48:\n        /* \"https://github.com/provable-things/ethereum-api/blob/master/provableAPI_0.5.sol\":38255:38265  uint _size */\n      0x00\n        /* \"https://github.com/provable-things/ethereum-api/blob/master/provableAPI_0.5.sol\":38323:38328  _addr */\n      dup2\n        /* \"https://github.com/provable-things/ethereum-api/blob/master/provableAPI_0.5.sol\":38311:38329  extcodesize(_addr) */\n      extcodesize\n        /* \"https://github.com/provable-things/ethereum-api/blob/master/provableAPI_0.5.sol\":38302:38329  _size := extcodesize(_addr) */\n      swap1\n      pop\n        /* \"https://github.com/provable-things/ethereum-api/blob/master/provableAPI_0.5.sol\":38287:38340  {\r... */\n      swap2\n      swap1\n      pop\n      jump\t// out\n        /* \"https://github.com/provable-things/ethereum-api/blob/master/provableAPI_0.5.sol\":12912:13120  function provable_setNetwork(uint8 _networkID) internal returns (bool _networkSet) {\r... */\n    tag_51:\n        /* \"https://github.com/provable-things/ethereum-api/blob/master/provableAPI_0.5.sol\":12977:12993  bool _networkSet */\n      0x00\n        /* \"https://github.com/provable-things/ethereum-api/blob/master/provableAPI_0.5.sol\":13091:13112  provable_setNetwork() */\n      tag_97\n        /* \"https://github.com/provable-things/ethereum-api/blob/master/provableAPI_0.5.sol\":13091:13110  provable_setNetwork */\n      tag_98\n        /* \"https://github.com/provable-things/ethereum-api/blob/master/provableAPI_0.5.sol\":13091:13112  provable_setNetwork() */\n      jump\t// in\n    tag_97:\n        /* \"https://github.com/provable-things/ethereum-api/blob/master/provableAPI_0.5.sol\":13084:13112  return provable_setNetwork() */\n      swap1\n      pop\n        /* \"https://github.com/provable-things/ethereum-api/blob/master/provableAPI_0.5.sol\":12912:13120  function provable_setNetwork(uint8 _networkID) internal returns (bool _networkSet) {\r... */\n      swap2\n      swap1\n      pop\n      jump\t// out\n        /* \"https://github.com/provable-things/ethereum-api/blob/master/provableAPI_0.5.sol\":13404:15474  function provable_setNetwork() internal returns (bool _networkSet) {\r... */\n    tag_98:\n        /* \"https://github.com/provable-things/ethereum-api/blob/master/provableAPI_0.5.sol\":13453:13469  bool _networkSet */\n      0x00\n        /* \"https://github.com/provable-things/ethereum-api/blob/master/provableAPI_0.5.sol\":13544:13545  0 */\n      dup1\n        /* \"https://github.com/provable-things/ethereum-api/blob/master/provableAPI_0.5.sol\":13486:13541  getCodeSize(0x1d3B2638a7cC9f2CB3D298A3DA7a90B67E5506ed) */\n      tag_100\n        /* \"https://github.com/provable-things/ethereum-api/blob/master/provableAPI_0.5.sol\":13498:13540  0x1d3B2638a7cC9f2CB3D298A3DA7a90B67E5506ed */\n      0x1d3b2638a7cc9f2cb3d298a3da7a90b67e5506ed\n        /* \"https://github.com/provable-things/ethereum-api/blob/master/provableAPI_0.5.sol\":13486:13497  getCodeSize */\n      tag_48\n        /* \"https://github.com/provable-things/ethereum-api/blob/master/provableAPI_0.5.sol\":13486:13541  getCodeSize(0x1d3B2638a7cC9f2CB3D298A3DA7a90B67E5506ed) */\n      jump\t// in\n    tag_100:\n        /* \"https://github.com/provable-things/ethereum-api/blob/master/provableAPI_0.5.sol\":13486:13545  getCodeSize(0x1d3B2638a7cC9f2CB3D298A3DA7a90B67E5506ed) > 0 */\n      gt\n        /* \"https://github.com/provable-things/ethereum-api/blob/master/provableAPI_0.5.sol\":13482:13732  if (getCodeSize(0x1d3B2638a7cC9f2CB3D298A3DA7a90B67E5506ed) > 0) { //mainnet\r... */\n      iszero\n      tag_101\n      jumpi\n        /* \"https://github.com/provable-things/ethereum-api/blob/master/provableAPI_0.5.sol\":13598:13640  0x1d3B2638a7cC9f2CB3D298A3DA7a90B67E5506ed */\n      0x1d3b2638a7cc9f2cb3d298a3da7a90b67e5506ed\n        /* \"https://github.com/provable-things/ethereum-api/blob/master/provableAPI_0.5.sol\":13572:13575  OAR */\n      0x01\n      0x00\n        /* \"https://github.com/provable-things/ethereum-api/blob/master/provableAPI_0.5.sol\":13572:13641  OAR = OracleAddrResolverI(0x1d3B2638a7cC9f2CB3D298A3DA7a90B67E5506ed) */\n      0x0100\n      exp\n      dup2\n      sload\n      dup2\n      0xffffffffffffffffffffffffffffffffffffffff\n      mul\n      not\n      and\n      swap1\n      dup4\n      0xffffffffffffffffffffffffffffffffffffffff\n      and\n      mul\n      or\n      swap1\n      sstore\n      pop\n        /* \"https://github.com/provable-things/ethereum-api/blob/master/provableAPI_0.5.sol\":13656:13694  provable_setNetworkName(\"eth_mainnet\") */\n      tag_102\n      mload(0x40)\n      dup1\n      0x40\n      add\n      0x40\n      mstore\n      dup1\n      0x0b\n      dup2\n      mstore\n      0x20\n      add\n      0x6574685f6d61696e6e6574000000000000000000000000000000000000000000\n      dup2\n      mstore\n      pop\n        /* \"https://github.com/provable-things/ethereum-api/blob/master/provableAPI_0.5.sol\":13656:13679  provable_setNetworkName */\n      tag_103\n        /* \"https://github.com/provable-things/ethereum-api/blob/master/provableAPI_0.5.sol\":13656:13694  provable_setNetworkName(\"eth_mainnet\") */\n      jump\t// in\n    tag_102:\n        /* \"https://github.com/provable-things/ethereum-api/blob/master/provableAPI_0.5.sol\":13716:13720  true */\n      0x01\n        /* \"https://github.com/provable-things/ethereum-api/blob/master/provableAPI_0.5.sol\":13709:13720  return true */\n      swap1\n      pop\n      jump(tag_99)\n        /* \"https://github.com/provable-things/ethereum-api/blob/master/provableAPI_0.5.sol\":13482:13732  if (getCodeSize(0x1d3B2638a7cC9f2CB3D298A3DA7a90B67E5506ed) > 0) { //mainnet\r... */\n    tag_101:\n        /* \"https://github.com/provable-things/ethereum-api/blob/master/provableAPI_0.5.sol\":13804:13805  0 */\n      0x00\n        /* \"https://github.com/provable-things/ethereum-api/blob/master/provableAPI_0.5.sol\":13746:13801  getCodeSize(0xc03A2615D5efaf5F49F60B7BB6583eaec212fdf1) */\n      tag_104\n        /* \"https://github.com/provable-things/ethereum-api/blob/master/provableAPI_0.5.sol\":13758:13800  0xc03A2615D5efaf5F49F60B7BB6583eaec212fdf1 */\n      0xc03a2615d5efaf5f49f60b7bb6583eaec212fdf1\n        /* \"https://github.com/provable-things/ethereum-api/blob/master/provableAPI_0.5.sol\":13746:13757  getCodeSize */\n      tag_48\n        /* \"https://github.com/provable-things/ethereum-api/blob/master/provableAPI_0.5.sol\":13746:13801  getCodeSize(0xc03A2615D5efaf5F49F60B7BB6583eaec212fdf1) */\n      jump\t// in\n    tag_104:\n        /* \"https://github.com/provable-things/ethereum-api/blob/master/provableAPI_0.5.sol\":13746:13805  getCodeSize(0xc03A2615D5efaf5F49F60B7BB6583eaec212fdf1) > 0 */\n      gt\n        /* \"https://github.com/provable-things/ethereum-api/blob/master/provableAPI_0.5.sol\":13742:14001  if (getCodeSize(0xc03A2615D5efaf5F49F60B7BB6583eaec212fdf1) > 0) { //ropsten testnet\r... */\n      iszero\n      tag_105\n      jumpi\n        /* \"https://github.com/provable-things/ethereum-api/blob/master/provableAPI_0.5.sol\":13866:13908  0xc03A2615D5efaf5F49F60B7BB6583eaec212fdf1 */\n      0xc03a2615d5efaf5f49f60b7bb6583eaec212fdf1\n        /* \"https://github.com/provable-things/ethereum-api/blob/master/provableAPI_0.5.sol\":13840:13843  OAR */\n      0x01\n      0x00\n        /* \"https://github.com/provable-things/ethereum-api/blob/master/provableAPI_0.5.sol\":13840:13909  OAR = OracleAddrResolverI(0xc03A2615D5efaf5F49F60B7BB6583eaec212fdf1) */\n      0x0100\n      exp\n      dup2\n      sload\n      dup2\n      0xffffffffffffffffffffffffffffffffffffffff\n      mul\n      not\n      and\n      swap1\n      dup4\n      0xffffffffffffffffffffffffffffffffffffffff\n      and\n      mul\n      or\n      swap1\n      sstore\n      pop\n        /* \"https://github.com/provable-things/ethereum-api/blob/master/provableAPI_0.5.sol\":13924:13963  provable_setNetworkName(\"eth_ropsten3\") */\n      tag_106\n      mload(0x40)\n      dup1\n      0x40\n      add\n      0x40\n      mstore\n      dup1\n      0x0c\n      dup2\n      mstore\n      0x20\n      add\n      0x6574685f726f707374656e330000000000000000000000000000000000000000\n      dup2\n      mstore\n      pop\n        /* \"https://github.com/provable-things/ethereum-api/blob/master/provableAPI_0.5.sol\":13924:13947  provable_setNetworkName */\n      tag_103\n        /* \"https://github.com/provable-things/ethereum-api/blob/master/provableAPI_0.5.sol\":13924:13963  provable_setNetworkName(\"eth_ropsten3\") */\n      jump\t// in\n    tag_106:\n        /* \"https://github.com/provable-things/ethereum-api/blob/master/provableAPI_0.5.sol\":13985:13989  true */\n      0x01\n        /* \"https://github.com/provable-things/ethereum-api/blob/master/provableAPI_0.5.sol\":13978:13989  return true */\n      swap1\n      pop\n      jump(tag_99)\n        /* \"https://github.com/provable-things/ethereum-api/blob/master/provableAPI_0.5.sol\":13742:14001  if (getCodeSize(0xc03A2615D5efaf5F49F60B7BB6583eaec212fdf1) > 0) { //ropsten testnet\r... */\n    tag_105:\n        /* \"https://github.com/provable-things/ethereum-api/blob/master/provableAPI_0.5.sol\":14073:14074  0 */\n      0x00\n        /* \"https://github.com/provable-things/ethereum-api/blob/master/provableAPI_0.5.sol\":14015:14070  getCodeSize(0xB7A07BcF2Ba2f2703b24C0691b5278999C59AC7e) */\n      tag_107\n        /* \"https://github.com/provable-things/ethereum-api/blob/master/provableAPI_0.5.sol\":14027:14069  0xB7A07BcF2Ba2f2703b24C0691b5278999C59AC7e */\n      0xb7a07bcf2ba2f2703b24c0691b5278999c59ac7e\n        /* \"https://github.com/provable-things/ethereum-api/blob/master/provableAPI_0.5.sol\":14015:14026  getCodeSize */\n      tag_48\n        /* \"https://github.com/provable-things/ethereum-api/blob/master/provableAPI_0.5.sol\":14015:14070  getCodeSize(0xB7A07BcF2Ba2f2703b24C0691b5278999C59AC7e) */\n      jump\t// in\n    tag_107:\n        /* \"https://github.com/provable-things/ethereum-api/blob/master/provableAPI_0.5.sol\":14015:14074  getCodeSize(0xB7A07BcF2Ba2f2703b24C0691b5278999C59AC7e) > 0 */\n      gt\n        /* \"https://github.com/provable-things/ethereum-api/blob/master/provableAPI_0.5.sol\":14011:14265  if (getCodeSize(0xB7A07BcF2Ba2f2703b24C0691b5278999C59AC7e) > 0) { //kovan testnet\r... */\n      iszero\n      tag_108\n      jumpi\n        /* \"https://github.com/provable-things/ethereum-api/blob/master/provableAPI_0.5.sol\":14133:14175  0xB7A07BcF2Ba2f2703b24C0691b5278999C59AC7e */\n      0xb7a07bcf2ba2f2703b24c0691b5278999c59ac7e\n        /* \"https://github.com/provable-things/ethereum-api/blob/master/provableAPI_0.5.sol\":14107:14110  OAR */\n      0x01\n      0x00\n        /* \"https://github.com/provable-things/ethereum-api/blob/master/provableAPI_0.5.sol\":14107:14176  OAR = OracleAddrResolverI(0xB7A07BcF2Ba2f2703b24C0691b5278999C59AC7e) */\n      0x0100\n      exp\n      dup2\n      sload\n      dup2\n      0xffffffffffffffffffffffffffffffffffffffff\n      mul\n      not\n      and\n      swap1\n      dup4\n      0xffffffffffffffffffffffffffffffffffffffff\n      and\n      mul\n      or\n      swap1\n      sstore\n      pop\n        /* \"https://github.com/provable-things/ethereum-api/blob/master/provableAPI_0.5.sol\":14191:14227  provable_setNetworkName(\"eth_kovan\") */\n      tag_109\n      mload(0x40)\n      dup1\n      0x40\n      add\n      0x40\n      mstore\n      dup1\n      0x09\n      dup2\n      mstore\n      0x20\n      add\n      0x6574685f6b6f76616e0000000000000000000000000000000000000000000000\n      dup2\n      mstore\n      pop\n        /* \"https://github.com/provable-things/ethereum-api/blob/master/provableAPI_0.5.sol\":14191:14214  provable_setNetworkName */\n      tag_103\n        /* \"https://github.com/provable-things/ethereum-api/blob/master/provableAPI_0.5.sol\":14191:14227  provable_setNetworkName(\"eth_kovan\") */\n      jump\t// in\n    tag_109:\n        /* \"https://github.com/provable-things/ethereum-api/blob/master/provableAPI_0.5.sol\":14249:14253  true */\n      0x01\n        /* \"https://github.com/provable-things/ethereum-api/blob/master/provableAPI_0.5.sol\":14242:14253  return true */\n      swap1\n      pop\n      jump(tag_99)\n        /* \"https://github.com/provable-things/ethereum-api/blob/master/provableAPI_0.5.sol\":14011:14265  if (getCodeSize(0xB7A07BcF2Ba2f2703b24C0691b5278999C59AC7e) > 0) { //kovan testnet\r... */\n    tag_108:\n        /* \"https://github.com/provable-things/ethereum-api/blob/master/provableAPI_0.5.sol\":14337:14338  0 */\n      0x00\n        /* \"https://github.com/provable-things/ethereum-api/blob/master/provableAPI_0.5.sol\":14279:14334  getCodeSize(0x146500cfd35B22E4A392Fe0aDc06De1a1368Ed48) */\n      tag_110\n        /* \"https://github.com/provable-things/ethereum-api/blob/master/provableAPI_0.5.sol\":14291:14333  0x146500cfd35B22E4A392Fe0aDc06De1a1368Ed48 */\n      0x146500cfd35b22e4a392fe0adc06de1a1368ed48\n        /* \"https://github.com/provable-things/ethereum-api/blob/master/provableAPI_0.5.sol\":14279:14290  getCodeSize */\n      tag_48\n        /* \"https://github.com/provable-things/ethereum-api/blob/master/provableAPI_0.5.sol\":14279:14334  getCodeSize(0x146500cfd35B22E4A392Fe0aDc06De1a1368Ed48) */\n      jump\t// in\n    tag_110:\n        /* \"https://github.com/provable-things/ethereum-api/blob/master/provableAPI_0.5.sol\":14279:14338  getCodeSize(0x146500cfd35B22E4A392Fe0aDc06De1a1368Ed48) > 0 */\n      gt\n        /* \"https://github.com/provable-things/ethereum-api/blob/master/provableAPI_0.5.sol\":14275:14533  if (getCodeSize(0x146500cfd35B22E4A392Fe0aDc06De1a1368Ed48) > 0) { //rinkeby testnet\r... */\n      iszero\n      tag_111\n      jumpi\n        /* \"https://github.com/provable-things/ethereum-api/blob/master/provableAPI_0.5.sol\":14399:14441  0x146500cfd35B22E4A392Fe0aDc06De1a1368Ed48 */\n      0x146500cfd35b22e4a392fe0adc06de1a1368ed48\n        /* \"https://github.com/provable-things/ethereum-api/blob/master/provableAPI_0.5.sol\":14373:14376  OAR */\n      0x01\n      0x00\n        /* \"https://github.com/provable-things/ethereum-api/blob/master/provableAPI_0.5.sol\":14373:14442  OAR = OracleAddrResolverI(0x146500cfd35B22E4A392Fe0aDc06De1a1368Ed48) */\n      0x0100\n      exp\n      dup2\n      sload\n      dup2\n      0xffffffffffffffffffffffffffffffffffffffff\n      mul\n      not\n      and\n      swap1\n      dup4\n      0xffffffffffffffffffffffffffffffffffffffff\n      and\n      mul\n      or\n      swap1\n      sstore\n      pop\n        /* \"https://github.com/provable-things/ethereum-api/blob/master/provableAPI_0.5.sol\":14457:14495  provable_setNetworkName(\"eth_rinkeby\") */\n      tag_112\n      mload(0x40)\n      dup1\n      0x40\n      add\n      0x40\n      mstore\n      dup1\n      0x0b\n      dup2\n      mstore\n      0x20\n      add\n      0x6574685f72696e6b656279000000000000000000000000000000000000000000\n      dup2\n      mstore\n      pop\n        /* \"https://github.com/provable-things/ethereum-api/blob/master/provableAPI_0.5.sol\":14457:14480  provable_setNetworkName */\n      tag_103\n        /* \"https://github.com/provable-things/ethereum-api/blob/master/provableAPI_0.5.sol\":14457:14495  provable_setNetworkName(\"eth_rinkeby\") */\n      jump\t// in\n    tag_112:\n        /* \"https://github.com/provable-things/ethereum-api/blob/master/provableAPI_0.5.sol\":14517:14521  true */\n      0x01\n        /* \"https://github.com/provable-things/ethereum-api/blob/master/provableAPI_0.5.sol\":14510:14521  return true */\n      swap1\n      pop\n      jump(tag_99)\n        /* \"https://github.com/provable-things/ethereum-api/blob/master/provableAPI_0.5.sol\":14275:14533  if (getCodeSize(0x146500cfd35B22E4A392Fe0aDc06De1a1368Ed48) > 0) { //rinkeby testnet\r... */\n    tag_111:\n        /* \"https://github.com/provable-things/ethereum-api/blob/master/provableAPI_0.5.sol\":14605:14606  0 */\n      0x00\n        /* \"https://github.com/provable-things/ethereum-api/blob/master/provableAPI_0.5.sol\":14547:14602  getCodeSize(0xa2998EFD205FB9D4B4963aFb70778D6354ad3A41) */\n      tag_113\n        /* \"https://github.com/provable-things/ethereum-api/blob/master/provableAPI_0.5.sol\":14559:14601  0xa2998EFD205FB9D4B4963aFb70778D6354ad3A41 */\n      0xa2998efd205fb9d4b4963afb70778d6354ad3a41\n        /* \"https://github.com/provable-things/ethereum-api/blob/master/provableAPI_0.5.sol\":14547:14558  getCodeSize */\n      tag_48\n        /* \"https://github.com/provable-things/ethereum-api/blob/master/provableAPI_0.5.sol\":14547:14602  getCodeSize(0xa2998EFD205FB9D4B4963aFb70778D6354ad3A41) */\n      jump\t// in\n    tag_113:\n        /* \"https://github.com/provable-things/ethereum-api/blob/master/provableAPI_0.5.sol\":14547:14606  getCodeSize(0xa2998EFD205FB9D4B4963aFb70778D6354ad3A41) > 0 */\n      gt\n        /* \"https://github.com/provable-things/ethereum-api/blob/master/provableAPI_0.5.sol\":14543:14799  if (getCodeSize(0xa2998EFD205FB9D4B4963aFb70778D6354ad3A41) > 0) { //goerli testnet\r... */\n      iszero\n      tag_114\n      jumpi\n        /* \"https://github.com/provable-things/ethereum-api/blob/master/provableAPI_0.5.sol\":14666:14708  0xa2998EFD205FB9D4B4963aFb70778D6354ad3A41 */\n      0xa2998efd205fb9d4b4963afb70778d6354ad3a41\n        /* \"https://github.com/provable-things/ethereum-api/blob/master/provableAPI_0.5.sol\":14640:14643  OAR */\n      0x01\n      0x00\n        /* \"https://github.com/provable-things/ethereum-api/blob/master/provableAPI_0.5.sol\":14640:14709  OAR = OracleAddrResolverI(0xa2998EFD205FB9D4B4963aFb70778D6354ad3A41) */\n      0x0100\n      exp\n      dup2\n      sload\n      dup2\n      0xffffffffffffffffffffffffffffffffffffffff\n      mul\n      not\n      and\n      swap1\n      dup4\n      0xffffffffffffffffffffffffffffffffffffffff\n      and\n      mul\n      or\n      swap1\n      sstore\n      pop\n        /* \"https://github.com/provable-things/ethereum-api/blob/master/provableAPI_0.5.sol\":14724:14761  provable_setNetworkName(\"eth_goerli\") */\n      tag_115\n      mload(0x40)\n      dup1\n      0x40\n      add\n      0x40\n      mstore\n      dup1\n      0x0a\n      dup2\n      mstore\n      0x20\n      add\n      0x6574685f676f65726c6900000000000000000000000000000000000000000000\n      dup2\n      mstore\n      pop\n        /* \"https://github.com/provable-things/ethereum-api/blob/master/provableAPI_0.5.sol\":14724:14747  provable_setNetworkName */\n      tag_103\n        /* \"https://github.com/provable-things/ethereum-api/blob/master/provableAPI_0.5.sol\":14724:14761  provable_setNetworkName(\"eth_goerli\") */\n      jump\t// in\n    tag_115:\n        /* \"https://github.com/provable-things/ethereum-api/blob/master/provableAPI_0.5.sol\":14783:14787  true */\n      0x01\n        /* \"https://github.com/provable-things/ethereum-api/blob/master/provableAPI_0.5.sol\":14776:14787  return true */\n      swap1\n      pop\n      jump(tag_99)\n        /* \"https://github.com/provable-things/ethereum-api/blob/master/provableAPI_0.5.sol\":14543:14799  if (getCodeSize(0xa2998EFD205FB9D4B4963aFb70778D6354ad3A41) > 0) { //goerli testnet\r... */\n    tag_114:\n        /* \"https://github.com/provable-things/ethereum-api/blob/master/provableAPI_0.5.sol\":14871:14872  0 */\n      0x00\n        /* \"https://github.com/provable-things/ethereum-api/blob/master/provableAPI_0.5.sol\":14813:14868  getCodeSize(0x6f485C8BF6fc43eA212E93BBF8ce046C7f1cb475) */\n      tag_116\n        /* \"https://github.com/provable-things/ethereum-api/blob/master/provableAPI_0.5.sol\":14825:14867  0x6f485C8BF6fc43eA212E93BBF8ce046C7f1cb475 */\n      0x6f485c8bf6fc43ea212e93bbf8ce046c7f1cb475\n        /* \"https://github.com/provable-things/ethereum-api/blob/master/provableAPI_0.5.sol\":14813:14824  getCodeSize */\n      tag_48\n        /* \"https://github.com/provable-things/ethereum-api/blob/master/provableAPI_0.5.sol\":14813:14868  getCodeSize(0x6f485C8BF6fc43eA212E93BBF8ce046C7f1cb475) */\n      jump\t// in\n    tag_116:\n        /* \"https://github.com/provable-things/ethereum-api/blob/master/provableAPI_0.5.sol\":14813:14872  getCodeSize(0x6f485C8BF6fc43eA212E93BBF8ce046C7f1cb475) > 0 */\n      gt\n        /* \"https://github.com/provable-things/ethereum-api/blob/master/provableAPI_0.5.sol\":14809:15014  if (getCodeSize(0x6f485C8BF6fc43eA212E93BBF8ce046C7f1cb475) > 0) { //ethereum-bridge\r... */\n      iszero\n      tag_117\n      jumpi\n        /* \"https://github.com/provable-things/ethereum-api/blob/master/provableAPI_0.5.sol\":14933:14975  0x6f485C8BF6fc43eA212E93BBF8ce046C7f1cb475 */\n      0x6f485c8bf6fc43ea212e93bbf8ce046c7f1cb475\n        /* \"https://github.com/provable-things/ethereum-api/blob/master/provableAPI_0.5.sol\":14907:14910  OAR */\n      0x01\n      0x00\n        /* \"https://github.com/provable-things/ethereum-api/blob/master/provableAPI_0.5.sol\":14907:14976  OAR = OracleAddrResolverI(0x6f485C8BF6fc43eA212E93BBF8ce046C7f1cb475) */\n      0x0100\n      exp\n      dup2\n      sload\n      dup2\n      0xffffffffffffffffffffffffffffffffffffffff\n      mul\n      not\n      and\n      swap1\n      dup4\n      0xffffffffffffffffffffffffffffffffffffffff\n      and\n      mul\n      or\n      swap1\n      sstore\n      pop\n        /* \"https://github.com/provable-things/ethereum-api/blob/master/provableAPI_0.5.sol\":14998:15002  true */\n      0x01\n        /* \"https://github.com/provable-things/ethereum-api/blob/master/provableAPI_0.5.sol\":14991:15002  return true */\n      swap1\n      pop\n      jump(tag_99)\n        /* \"https://github.com/provable-things/ethereum-api/blob/master/provableAPI_0.5.sol\":14809:15014  if (getCodeSize(0x6f485C8BF6fc43eA212E93BBF8ce046C7f1cb475) > 0) { //ethereum-bridge\r... */\n    tag_117:\n        /* \"https://github.com/provable-things/ethereum-api/blob/master/provableAPI_0.5.sol\":15086:15087  0 */\n      0x00\n        /* \"https://github.com/provable-things/ethereum-api/blob/master/provableAPI_0.5.sol\":15028:15083  getCodeSize(0x20e12A1F859B3FeaE5Fb2A0A32C18F5a65555bBF) */\n      tag_118\n        /* \"https://github.com/provable-things/ethereum-api/blob/master/provableAPI_0.5.sol\":15040:15082  0x20e12A1F859B3FeaE5Fb2A0A32C18F5a65555bBF */\n      0x20e12a1f859b3feae5fb2a0a32c18f5a65555bbf\n        /* \"https://github.com/provable-things/ethereum-api/blob/master/provableAPI_0.5.sol\":15028:15039  getCodeSize */\n      tag_48\n        /* \"https://github.com/provable-things/ethereum-api/blob/master/provableAPI_0.5.sol\":15028:15083  getCodeSize(0x20e12A1F859B3FeaE5Fb2A0A32C18F5a65555bBF) */\n      jump\t// in\n    tag_118:\n        /* \"https://github.com/provable-things/ethereum-api/blob/master/provableAPI_0.5.sol\":15028:15087  getCodeSize(0x20e12A1F859B3FeaE5Fb2A0A32C18F5a65555bBF) > 0 */\n      gt\n        /* \"https://github.com/provable-things/ethereum-api/blob/master/provableAPI_0.5.sol\":15024:15228  if (getCodeSize(0x20e12A1F859B3FeaE5Fb2A0A32C18F5a65555bBF) > 0) { //ether.camp ide\r... */\n      iszero\n      tag_119\n      jumpi\n        /* \"https://github.com/provable-things/ethereum-api/blob/master/provableAPI_0.5.sol\":15147:15189  0x20e12A1F859B3FeaE5Fb2A0A32C18F5a65555bBF */\n      0x20e12a1f859b3feae5fb2a0a32c18f5a65555bbf\n        /* \"https://github.com/provable-things/ethereum-api/blob/master/provableAPI_0.5.sol\":15121:15124  OAR */\n      0x01\n      0x00\n        /* \"https://github.com/provable-things/ethereum-api/blob/master/provableAPI_0.5.sol\":15121:15190  OAR = OracleAddrResolverI(0x20e12A1F859B3FeaE5Fb2A0A32C18F5a65555bBF) */\n      0x0100\n      exp\n      dup2\n      sload\n      dup2\n      0xffffffffffffffffffffffffffffffffffffffff\n      mul\n      not\n      and\n      swap1\n      dup4\n      0xffffffffffffffffffffffffffffffffffffffff\n      and\n      mul\n      or\n      swap1\n      sstore\n      pop\n        /* \"https://github.com/provable-things/ethereum-api/blob/master/provableAPI_0.5.sol\":15212:15216  true */\n      0x01\n        /* \"https://github.com/provable-things/ethereum-api/blob/master/provableAPI_0.5.sol\":15205:15216  return true */\n      swap1\n      pop\n      jump(tag_99)\n        /* \"https://github.com/provable-things/ethereum-api/blob/master/provableAPI_0.5.sol\":15024:15228  if (getCodeSize(0x20e12A1F859B3FeaE5Fb2A0A32C18F5a65555bBF) > 0) { //ether.camp ide\r... */\n    tag_119:\n        /* \"https://github.com/provable-things/ethereum-api/blob/master/provableAPI_0.5.sol\":15300:15301  0 */\n      0x00\n        /* \"https://github.com/provable-things/ethereum-api/blob/master/provableAPI_0.5.sol\":15242:15297  getCodeSize(0x51efaF4c8B3C9AfBD5aB9F4bbC82784Ab6ef8fAA) */\n      tag_120\n        /* \"https://github.com/provable-things/ethereum-api/blob/master/provableAPI_0.5.sol\":15254:15296  0x51efaF4c8B3C9AfBD5aB9F4bbC82784Ab6ef8fAA */\n      0x51efaf4c8b3c9afbd5ab9f4bbc82784ab6ef8faa\n        /* \"https://github.com/provable-things/ethereum-api/blob/master/provableAPI_0.5.sol\":15242:15253  getCodeSize */\n      tag_48\n        /* \"https://github.com/provable-things/ethereum-api/blob/master/provableAPI_0.5.sol\":15242:15297  getCodeSize(0x51efaF4c8B3C9AfBD5aB9F4bbC82784Ab6ef8fAA) */\n      jump\t// in\n    tag_120:\n        /* \"https://github.com/provable-things/ethereum-api/blob/master/provableAPI_0.5.sol\":15242:15301  getCodeSize(0x51efaF4c8B3C9AfBD5aB9F4bbC82784Ab6ef8fAA) > 0 */\n      gt\n        /* \"https://github.com/provable-things/ethereum-api/blob/master/provableAPI_0.5.sol\":15238:15444  if (getCodeSize(0x51efaF4c8B3C9AfBD5aB9F4bbC82784Ab6ef8fAA) > 0) { //browser-solidity\r... */\n      iszero\n      tag_121\n      jumpi\n        /* \"https://github.com/provable-things/ethereum-api/blob/master/provableAPI_0.5.sol\":15363:15405  0x51efaF4c8B3C9AfBD5aB9F4bbC82784Ab6ef8fAA */\n      0x51efaf4c8b3c9afbd5ab9f4bbc82784ab6ef8faa\n        /* \"https://github.com/provable-things/ethereum-api/blob/master/provableAPI_0.5.sol\":15337:15340  OAR */\n      0x01\n      0x00\n        /* \"https://github.com/provable-things/ethereum-api/blob/master/provableAPI_0.5.sol\":15337:15406  OAR = OracleAddrResolverI(0x51efaF4c8B3C9AfBD5aB9F4bbC82784Ab6ef8fAA) */\n      0x0100\n      exp\n      dup2\n      sload\n      dup2\n      0xffffffffffffffffffffffffffffffffffffffff\n      mul\n      not\n      and\n      swap1\n      dup4\n      0xffffffffffffffffffffffffffffffffffffffff\n      and\n      mul\n      or\n      swap1\n      sstore\n      pop\n        /* \"https://github.com/provable-things/ethereum-api/blob/master/provableAPI_0.5.sol\":15428:15432  true */\n      0x01\n        /* \"https://github.com/provable-things/ethereum-api/blob/master/provableAPI_0.5.sol\":15421:15432  return true */\n      swap1\n      pop\n      jump(tag_99)\n        /* \"https://github.com/provable-things/ethereum-api/blob/master/provableAPI_0.5.sol\":15238:15444  if (getCodeSize(0x51efaF4c8B3C9AfBD5aB9F4bbC82784Ab6ef8fAA) > 0) { //browser-solidity\r... */\n    tag_121:\n        /* \"https://github.com/provable-things/ethereum-api/blob/master/provableAPI_0.5.sol\":15461:15466  false */\n      0x00\n        /* \"https://github.com/provable-things/ethereum-api/blob/master/provableAPI_0.5.sol\":15454:15466  return false */\n      swap1\n      pop\n        /* \"https://github.com/provable-things/ethereum-api/blob/master/provableAPI_0.5.sol\":13404:15474  function provable_setNetwork() internal returns (bool _networkSet) {\r... */\n    tag_99:\n      swap1\n      jump\t// out\n        /* \"https://github.com/provable-things/ethereum-api/blob/master/provableAPI_0.5.sol\":13128:13255  function provable_setNetworkName(string memory _network_name) internal {\r... */\n    tag_103:\n        /* \"https://github.com/provable-things/ethereum-api/blob/master/provableAPI_0.5.sol\":13234:13247  _network_name */\n      dup1\n        /* \"https://github.com/provable-things/ethereum-api/blob/master/provableAPI_0.5.sol\":13210:13231  provable_network_name */\n      0x02\n        /* \"https://github.com/provable-things/ethereum-api/blob/master/provableAPI_0.5.sol\":13210:13247  provable_network_name = _network_name */\n      swap1\n      dup1\n      mload\n      swap1\n      0x20\n      add\n      swap1\n      tag_123\n      swap3\n      swap2\n      swap1\n      tag_37\n      jump\t// in\n    tag_123:\n      pop\n        /* \"https://github.com/provable-things/ethereum-api/blob/master/provableAPI_0.5.sol\":13128:13255  function provable_setNetworkName(string memory _network_name) internal {\r... */\n      pop\n      jump\t// out\n        /* \"contracts/Oracle.sol\":167:558  contract Oracle is usingProvable {\r... */\n    tag_37:\n      dup3\n      dup1\n      sload\n      0x01\n      dup2\n      0x01\n      and\n      iszero\n      0x0100\n      mul\n      sub\n      and\n      0x02\n      swap1\n      div\n      swap1\n      0x00\n      mstore\n      keccak256(0x00, 0x20)\n      swap1\n      0x1f\n      add\n      0x20\n      swap1\n      div\n      dup2\n      add\n      swap3\n      dup3\n      0x1f\n      lt\n      tag_125\n      jumpi\n      dup1\n      mload\n      not(0xff)\n      and\n      dup4\n      dup1\n      add\n      or\n      dup6\n      sstore\n      jump(tag_124)\n    tag_125:\n      dup3\n      dup1\n      add\n      0x01\n      add\n      dup6\n      sstore\n      dup3\n      iszero\n      tag_124\n      jumpi\n      swap2\n      dup3\n      add\n    tag_126:\n      dup3\n      dup2\n      gt\n      iszero\n      tag_127\n      jumpi\n      dup3\n      mload\n      dup3\n      sstore\n      swap2\n      0x20\n      add\n      swap2\n      swap1\n      0x01\n      add\n      swap1\n      jump(tag_126)\n    tag_127:\n    tag_124:\n      pop\n      swap1\n      pop\n      tag_128\n      swap2\n      swap1\n      tag_129\n      jump\t// in\n    tag_128:\n      pop\n      swap1\n      jump\t// out\n    tag_129:\n      tag_130\n      swap2\n      swap1\n    tag_131:\n      dup1\n      dup3\n      gt\n      iszero\n      tag_132\n      jumpi\n      0x00\n      dup2\n      0x00\n      swap1\n      sstore\n      pop\n      0x01\n      add\n      jump(tag_131)\n    tag_132:\n      pop\n      swap1\n      jump\n    tag_130:\n      swap1\n      jump\t// out\n    stop\n    data_6d3191427018b226e064c8d43206e8a134d9c05afb831ad673383d8862d69f47 6a736f6e2868747470733a2f2f7777772e626f7265646170692e636f6d2f6170692f6163746976697479292e6163746976697479\n\n    auxdata: 0xa265627a7a723158207a8f1f769c5e52de8572ff65b5a07dd40d82a21324b56080d6ed895a224323aa64736f6c63430005110032\n}\n",
				"bytecode": {
					"linkReferences": {},
					"object": "608060405234801561001057600080fd5b5061138c806100206000396000f3fe60806040526004361061003f5760003560e01c806327dc297e1461004457806338bbfa50146101165780635d9c7a161461027f578063caf51bda1461030f575b600080fd5b34801561005057600080fd5b506101146004803603604081101561006757600080fd5b81019080803590602001909291908035906020019064010000000081111561008e57600080fd5b8201836020820111156100a057600080fd5b803590602001918460018302840111640100000000831117156100c257600080fd5b91908080601f016020809104026020016040519081016040528093929190818152602001838380828437600081840152601f19601f820116905080830192505050505050509192919290505050610319565b005b34801561012257600080fd5b5061027d6004803603606081101561013957600080fd5b81019080803590602001909291908035906020019064010000000081111561016057600080fd5b82018360208201111561017257600080fd5b8035906020019184600183028401116401000000008311171561019457600080fd5b91908080601f016020809104026020016040519081016040528093929190818152602001838380828437600081840152601f19601f820116905080830192505050505050509192919290803590602001906401000000008111156101f757600080fd5b82018360208201111561020957600080fd5b8035906020019184600183028401116401000000008311171561022b57600080fd5b91908080601f016020809104026020016040519081016040528093929190818152602001838380828437600081840152601f19601f820116905080830192505050505050509192919290505050610373565b005b34801561028b57600080fd5b50610294610396565b6040518080602001828103825283818151815260200191508051906020019080838360005b838110156102d45780820151818401526020810190506102b9565b50505050905090810190601f1680156103015780820380516001836020036101000a031916815260200191505b509250505060405180910390f35b610317610434565b005b61032161048e565b73ffffffffffffffffffffffffffffffffffffffff163373ffffffffffffffffffffffffffffffffffffffff161461035857600080fd5b806005908051906020019061036e92919061127e565b505050565b6000801b600360008060001b815260200190815260200160002081905550505050565b60058054600181600116156101000203166002900480601f01602080910402602001604051908101604052809291908181526020018280546001816001161561010002031660029004801561042c5780601f106104015761010080835404028352916020019161042c565b820191906000526020600020905b81548152906001019060200180831161040f57829003601f168201915b505050505081565b61048b6040518060400160405280600381526020017f55524c0000000000000000000000000000000000000000000000000000000000815250604051806060016040528060348152602001611324603491396107ab565b50565b60008073ffffffffffffffffffffffffffffffffffffffff16600160009054906101000a900473ffffffffffffffffffffffffffffffffffffffff1673ffffffffffffffffffffffffffffffffffffffff16148061051657506000610514600160009054906101000a900473ffffffffffffffffffffffffffffffffffffffff16610cf1565b145b15610527576105256000610cfc565b505b600160009054906101000a900473ffffffffffffffffffffffffffffffffffffffff1673ffffffffffffffffffffffffffffffffffffffff166338cc48316040518163ffffffff1660e01b8152600401602060405180830381600087803b15801561059157600080fd5b505af11580156105a5573d6000803e3d6000fd5b505050506040513d60208110156105bb57600080fd5b810190808051906020019092919050505073ffffffffffffffffffffffffffffffffffffffff166000809054906101000a900473ffffffffffffffffffffffffffffffffffffffff1673ffffffffffffffffffffffffffffffffffffffff161461070457600160009054906101000a900473ffffffffffffffffffffffffffffffffffffffff1673ffffffffffffffffffffffffffffffffffffffff166338cc48316040518163ffffffff1660e01b8152600401602060405180830381600087803b15801561068957600080fd5b505af115801561069d573d6000803e3d6000fd5b505050506040513d60208110156106b357600080fd5b81019080805190602001909291905050506000806101000a81548173ffffffffffffffffffffffffffffffffffffffff021916908373ffffffffffffffffffffffffffffffffffffffff1602179055505b6000809054906101000a900473ffffffffffffffffffffffffffffffffffffffff1673ffffffffffffffffffffffffffffffffffffffff1663c281d19e6040518163ffffffff1660e01b815260040160206040518083038186803b15801561076b57600080fd5b505afa15801561077f573d6000803e3d6000fd5b505050506040513d602081101561079557600080fd5b8101908080519060200190929190505050905090565b60008073ffffffffffffffffffffffffffffffffffffffff16600160009054906101000a900473ffffffffffffffffffffffffffffffffffffffff1673ffffffffffffffffffffffffffffffffffffffff16148061083357506000610831600160009054906101000a900473ffffffffffffffffffffffffffffffffffffffff16610cf1565b145b15610844576108426000610cfc565b505b600160009054906101000a900473ffffffffffffffffffffffffffffffffffffffff1673ffffffffffffffffffffffffffffffffffffffff166338cc48316040518163ffffffff1660e01b8152600401602060405180830381600087803b1580156108ae57600080fd5b505af11580156108c2573d6000803e3d6000fd5b505050506040513d60208110156108d857600080fd5b810190808051906020019092919050505073ffffffffffffffffffffffffffffffffffffffff166000809054906101000a900473ffffffffffffffffffffffffffffffffffffffff1673ffffffffffffffffffffffffffffffffffffffff1614610a2157600160009054906101000a900473ffffffffffffffffffffffffffffffffffffffff1673ffffffffffffffffffffffffffffffffffffffff166338cc48316040518163ffffffff1660e01b8152600401602060405180830381600087803b1580156109a657600080fd5b505af11580156109ba573d6000803e3d6000fd5b505050506040513d60208110156109d057600080fd5b81019080805190602001909291905050506000806101000a81548173ffffffffffffffffffffffffffffffffffffffff021916908373ffffffffffffffffffffffffffffffffffffffff1602179055505b60008060009054906101000a900473ffffffffffffffffffffffffffffffffffffffff1673ffffffffffffffffffffffffffffffffffffffff1663524f3889856040518263ffffffff1660e01b81526004018080602001828103825283818151815260200191508051906020019080838360005b83811015610ab0578082015181840152602081019050610a95565b50505050905090810190601f168015610add5780820380516001836020036101000a031916815260200191505b5092505050602060405180830381600087803b158015610afc57600080fd5b505af1158015610b10573d6000803e3d6000fd5b505050506040513d6020811015610b2657600080fd5b8101908080519060200190929190505050905062030d403a02670de0b6b3a764000001811115610b5c576000801b915050610ceb565b6000809054906101000a900473ffffffffffffffffffffffffffffffffffffffff1673ffffffffffffffffffffffffffffffffffffffff1663adf59f9982600087876040518563ffffffff1660e01b8152600401808481526020018060200180602001838103835285818151815260200191508051906020019080838360005b83811015610bf7578082015181840152602081019050610bdc565b50505050905090810190601f168015610c245780820380516001836020036101000a031916815260200191505b50838103825284818151815260200191508051906020019080838360005b83811015610c5d578082015181840152602081019050610c42565b50505050905090810190601f168015610c8a5780820380516001836020036101000a031916815260200191505b50955050505050506020604051808303818588803b158015610cab57600080fd5b505af1158015610cbf573d6000803e3d6000fd5b50505050506040513d6020811015610cd657600080fd5b81019080805190602001909291905050509150505b92915050565b6000813b9050919050565b6000610d06610d0d565b9050919050565b600080610d2d731d3b2638a7cc9f2cb3d298a3da7a90b67e5506ed610cf1565b1115610dcf57731d3b2638a7cc9f2cb3d298a3da7a90b67e5506ed600160006101000a81548173ffffffffffffffffffffffffffffffffffffffff021916908373ffffffffffffffffffffffffffffffffffffffff160217905550610dc66040518060400160405280600b81526020017f6574685f6d61696e6e6574000000000000000000000000000000000000000000815250611264565b60019050611261565b6000610dee73c03a2615d5efaf5f49f60b7bb6583eaec212fdf1610cf1565b1115610e905773c03a2615d5efaf5f49f60b7bb6583eaec212fdf1600160006101000a81548173ffffffffffffffffffffffffffffffffffffffff021916908373ffffffffffffffffffffffffffffffffffffffff160217905550610e876040518060400160405280600c81526020017f6574685f726f707374656e330000000000000000000000000000000000000000815250611264565b60019050611261565b6000610eaf73b7a07bcf2ba2f2703b24c0691b5278999c59ac7e610cf1565b1115610f515773b7a07bcf2ba2f2703b24c0691b5278999c59ac7e600160006101000a81548173ffffffffffffffffffffffffffffffffffffffff021916908373ffffffffffffffffffffffffffffffffffffffff160217905550610f486040518060400160405280600981526020017f6574685f6b6f76616e0000000000000000000000000000000000000000000000815250611264565b60019050611261565b6000610f7073146500cfd35b22e4a392fe0adc06de1a1368ed48610cf1565b11156110125773146500cfd35b22e4a392fe0adc06de1a1368ed48600160006101000a81548173ffffffffffffffffffffffffffffffffffffffff021916908373ffffffffffffffffffffffffffffffffffffffff1602179055506110096040518060400160405280600b81526020017f6574685f72696e6b656279000000000000000000000000000000000000000000815250611264565b60019050611261565b600061103173a2998efd205fb9d4b4963afb70778d6354ad3a41610cf1565b11156110d35773a2998efd205fb9d4b4963afb70778d6354ad3a41600160006101000a81548173ffffffffffffffffffffffffffffffffffffffff021916908373ffffffffffffffffffffffffffffffffffffffff1602179055506110ca6040518060400160405280600a81526020017f6574685f676f65726c6900000000000000000000000000000000000000000000815250611264565b60019050611261565b60006110f2736f485c8bf6fc43ea212e93bbf8ce046c7f1cb475610cf1565b111561115657736f485c8bf6fc43ea212e93bbf8ce046c7f1cb475600160006101000a81548173ffffffffffffffffffffffffffffffffffffffff021916908373ffffffffffffffffffffffffffffffffffffffff16021790555060019050611261565b60006111757320e12a1f859b3feae5fb2a0a32c18f5a65555bbf610cf1565b11156111d9577320e12a1f859b3feae5fb2a0a32c18f5a65555bbf600160006101000a81548173ffffffffffffffffffffffffffffffffffffffff021916908373ffffffffffffffffffffffffffffffffffffffff16021790555060019050611261565b60006111f87351efaf4c8b3c9afbd5ab9f4bbc82784ab6ef8faa610cf1565b111561125c577351efaf4c8b3c9afbd5ab9f4bbc82784ab6ef8faa600160006101000a81548173ffffffffffffffffffffffffffffffffffffffff021916908373ffffffffffffffffffffffffffffffffffffffff16021790555060019050611261565b600090505b90565b806002908051906020019061127a92919061127e565b5050565b828054600181600116156101000203166002900490600052602060002090601f016020900481019282601f106112bf57805160ff19168380011785556112ed565b828001600101855582156112ed579182015b828111156112ec5782518255916020019190600101906112d1565b5b5090506112fa91906112fe565b5090565b61132091905b8082111561131c576000816000905550600101611304565b5090565b9056fe6a736f6e2868747470733a2f2f7777772e626f7265646170692e636f6d2f6170692f6163746976697479292e6163746976697479a265627a7a723158207a8f1f769c5e52de8572ff65b5a07dd40d82a21324b56080d6ed895a224323aa64736f6c63430005110032",
					"opcodes": "PUSH1 0x80 PUSH1 0x40 MSTORE CALLVALUE DUP1 ISZERO PUSH2 0x10 JUMPI PUSH1 0x0 DUP1 REVERT JUMPDEST POP PUSH2 0x138C DUP1 PUSH2 0x20 PUSH1 0x0 CODECOPY PUSH1 0x0 RETURN INVALID PUSH1 0x80 PUSH1 0x40 MSTORE PUSH1 0x4 CALLDATASIZE LT PUSH2 0x3F JUMPI PUSH1 0x0 CALLDATALOAD PUSH1 0xE0 SHR DUP1 PUSH4 0x27DC297E EQ PUSH2 0x44 JUMPI DUP1 PUSH4 0x38BBFA50 EQ PUSH2 0x116 JUMPI DUP1 PUSH4 0x5D9C7A16 EQ PUSH2 0x27F JUMPI DUP1 PUSH4 0xCAF51BDA EQ PUSH2 0x30F JUMPI JUMPDEST PUSH1 0x0 DUP1 REVERT JUMPDEST CALLVALUE DUP1 ISZERO PUSH2 0x50 JUMPI PUSH1 0x0 DUP1 REVERT JUMPDEST POP PUSH2 0x114 PUSH1 0x4 DUP1 CALLDATASIZE SUB PUSH1 0x40 DUP2 LT ISZERO PUSH2 0x67 JUMPI PUSH1 0x0 DUP1 REVERT JUMPDEST DUP2 ADD SWAP1 DUP1 DUP1 CALLDATALOAD SWAP1 PUSH1 0x20 ADD SWAP1 SWAP3 SWAP2 SWAP1 DUP1 CALLDATALOAD SWAP1 PUSH1 0x20 ADD SWAP1 PUSH5 0x100000000 DUP2 GT ISZERO PUSH2 0x8E JUMPI PUSH1 0x0 DUP1 REVERT JUMPDEST DUP3 ADD DUP4 PUSH1 0x20 DUP3 ADD GT ISZERO PUSH2 0xA0 JUMPI PUSH1 0x0 DUP1 REVERT JUMPDEST DUP1 CALLDATALOAD SWAP1 PUSH1 0x20 ADD SWAP2 DUP5 PUSH1 0x1 DUP4 MUL DUP5 ADD GT PUSH5 0x100000000 DUP4 GT OR ISZERO PUSH2 0xC2 JUMPI PUSH1 0x0 DUP1 REVERT JUMPDEST SWAP2 SWAP1 DUP1 DUP1 PUSH1 0x1F ADD PUSH1 0x20 DUP1 SWAP2 DIV MUL PUSH1 0x20 ADD PUSH1 0x40 MLOAD SWAP1 DUP2 ADD PUSH1 0x40 MSTORE DUP1 SWAP4 SWAP3 SWAP2 SWAP1 DUP2 DUP2 MSTORE PUSH1 0x20 ADD DUP4 DUP4 DUP1 DUP3 DUP5 CALLDATACOPY PUSH1 0x0 DUP2 DUP5 ADD MSTORE PUSH1 0x1F NOT PUSH1 0x1F DUP3 ADD AND SWAP1 POP DUP1 DUP4 ADD SWAP3 POP POP POP POP POP POP POP SWAP2 SWAP3 SWAP2 SWAP3 SWAP1 POP POP POP PUSH2 0x319 JUMP JUMPDEST STOP JUMPDEST CALLVALUE DUP1 ISZERO PUSH2 0x122 JUMPI PUSH1 0x0 DUP1 REVERT JUMPDEST POP PUSH2 0x27D PUSH1 0x4 DUP1 CALLDATASIZE SUB PUSH1 0x60 DUP2 LT ISZERO PUSH2 0x139 JUMPI PUSH1 0x0 DUP1 REVERT JUMPDEST DUP2 ADD SWAP1 DUP1 DUP1 CALLDATALOAD SWAP1 PUSH1 0x20 ADD SWAP1 SWAP3 SWAP2 SWAP1 DUP1 CALLDATALOAD SWAP1 PUSH1 0x20 ADD SWAP1 PUSH5 0x100000000 DUP2 GT ISZERO PUSH2 0x160 JUMPI PUSH1 0x0 DUP1 REVERT JUMPDEST DUP3 ADD DUP4 PUSH1 0x20 DUP3 ADD GT ISZERO PUSH2 0x172 JUMPI PUSH1 0x0 DUP1 REVERT JUMPDEST DUP1 CALLDATALOAD SWAP1 PUSH1 0x20 ADD SWAP2 DUP5 PUSH1 0x1 DUP4 MUL DUP5 ADD GT PUSH5 0x100000000 DUP4 GT OR ISZERO PUSH2 0x194 JUMPI PUSH1 0x0 DUP1 REVERT JUMPDEST SWAP2 SWAP1 DUP1 DUP1 PUSH1 0x1F ADD PUSH1 0x20 DUP1 SWAP2 DIV MUL PUSH1 0x20 ADD PUSH1 0x40 MLOAD SWAP1 DUP2 ADD PUSH1 0x40 MSTORE DUP1 SWAP4 SWAP3 SWAP2 SWAP1 DUP2 DUP2 MSTORE PUSH1 0x20 ADD DUP4 DUP4 DUP1 DUP3 DUP5 CALLDATACOPY PUSH1 0x0 DUP2 DUP5 ADD MSTORE PUSH1 0x1F NOT PUSH1 0x1F DUP3 ADD AND SWAP1 POP DUP1 DUP4 ADD SWAP3 POP POP POP POP POP POP POP SWAP2 SWAP3 SWAP2 SWAP3 SWAP1 DUP1 CALLDATALOAD SWAP1 PUSH1 0x20 ADD SWAP1 PUSH5 0x100000000 DUP2 GT ISZERO PUSH2 0x1F7 JUMPI PUSH1 0x0 DUP1 REVERT JUMPDEST DUP3 ADD DUP4 PUSH1 0x20 DUP3 ADD GT ISZERO PUSH2 0x209 JUMPI PUSH1 0x0 DUP1 REVERT JUMPDEST DUP1 CALLDATALOAD SWAP1 PUSH1 0x20 ADD SWAP2 DUP5 PUSH1 0x1 DUP4 MUL DUP5 ADD GT PUSH5 0x100000000 DUP4 GT OR ISZERO PUSH2 0x22B JUMPI PUSH1 0x0 DUP1 REVERT JUMPDEST SWAP2 SWAP1 DUP1 DUP1 PUSH1 0x1F ADD PUSH1 0x20 DUP1 SWAP2 DIV MUL PUSH1 0x20 ADD PUSH1 0x40 MLOAD SWAP1 DUP2 ADD PUSH1 0x40 MSTORE DUP1 SWAP4 SWAP3 SWAP2 SWAP1 DUP2 DUP2 MSTORE PUSH1 0x20 ADD DUP4 DUP4 DUP1 DUP3 DUP5 CALLDATACOPY PUSH1 0x0 DUP2 DUP5 ADD MSTORE PUSH1 0x1F NOT PUSH1 0x1F DUP3 ADD AND SWAP1 POP DUP1 DUP4 ADD SWAP3 POP POP POP POP POP POP POP SWAP2 SWAP3 SWAP2 SWAP3 SWAP1 POP POP POP PUSH2 0x373 JUMP JUMPDEST STOP JUMPDEST CALLVALUE DUP1 ISZERO PUSH2 0x28B JUMPI PUSH1 0x0 DUP1 REVERT JUMPDEST POP PUSH2 0x294 PUSH2 0x396 JUMP JUMPDEST PUSH1 0x40 MLOAD DUP1 DUP1 PUSH1 0x20 ADD DUP3 DUP2 SUB DUP3 MSTORE DUP4 DUP2 DUP2 MLOAD DUP2 MSTORE PUSH1 0x20 ADD SWAP2 POP DUP1 MLOAD SWAP1 PUSH1 0x20 ADD SWAP1 DUP1 DUP4 DUP4 PUSH1 0x0 JUMPDEST DUP4 DUP2 LT ISZERO PUSH2 0x2D4 JUMPI DUP1 DUP3 ADD MLOAD DUP2 DUP5 ADD MSTORE PUSH1 0x20 DUP2 ADD SWAP1 POP PUSH2 0x2B9 JUMP JUMPDEST POP POP POP POP SWAP1 POP SWAP1 DUP2 ADD SWAP1 PUSH1 0x1F AND DUP1 ISZERO PUSH2 0x301 JUMPI DUP1 DUP3 SUB DUP1 MLOAD PUSH1 0x1 DUP4 PUSH1 0x20 SUB PUSH2 0x100 EXP SUB NOT AND DUP2 MSTORE PUSH1 0x20 ADD SWAP2 POP JUMPDEST POP SWAP3 POP POP POP PUSH1 0x40 MLOAD DUP1 SWAP2 SUB SWAP1 RETURN JUMPDEST PUSH2 0x317 PUSH2 0x434 JUMP JUMPDEST STOP JUMPDEST PUSH2 0x321 PUSH2 0x48E JUMP JUMPDEST PUSH20 0xFFFFFFFFFFFFFFFFFFFFFFFFFFFFFFFFFFFFFFFF AND CALLER PUSH20 0xFFFFFFFFFFFFFFFFFFFFFFFFFFFFFFFFFFFFFFFF AND EQ PUSH2 0x358 JUMPI PUSH1 0x0 DUP1 REVERT JUMPDEST DUP1 PUSH1 0x5 SWAP1 DUP1 MLOAD SWAP1 PUSH1 0x20 ADD SWAP1 PUSH2 0x36E SWAP3 SWAP2 SWAP1 PUSH2 0x127E JUMP JUMPDEST POP POP POP JUMP JUMPDEST PUSH1 0x0 DUP1 SHL PUSH1 0x3 PUSH1 0x0 DUP1 PUSH1 0x0 SHL DUP2 MSTORE PUSH1 0x20 ADD SWAP1 DUP2 MSTORE PUSH1 0x20 ADD PUSH1 0x0 KECCAK256 DUP2 SWAP1 SSTORE POP POP POP POP JUMP JUMPDEST PUSH1 0x5 DUP1 SLOAD PUSH1 0x1 DUP2 PUSH1 0x1 AND ISZERO PUSH2 0x100 MUL SUB AND PUSH1 0x2 SWAP1 DIV DUP1 PUSH1 0x1F ADD PUSH1 0x20 DUP1 SWAP2 DIV MUL PUSH1 0x20 ADD PUSH1 0x40 MLOAD SWAP1 DUP2 ADD PUSH1 0x40 MSTORE DUP1 SWAP3 SWAP2 SWAP1 DUP2 DUP2 MSTORE PUSH1 0x20 ADD DUP3 DUP1 SLOAD PUSH1 0x1 DUP2 PUSH1 0x1 AND ISZERO PUSH2 0x100 MUL SUB AND PUSH1 0x2 SWAP1 DIV DUP1 ISZERO PUSH2 0x42C JUMPI DUP1 PUSH1 0x1F LT PUSH2 0x401 JUMPI PUSH2 0x100 DUP1 DUP4 SLOAD DIV MUL DUP4 MSTORE SWAP2 PUSH1 0x20 ADD SWAP2 PUSH2 0x42C JUMP JUMPDEST DUP3 ADD SWAP2 SWAP1 PUSH1 0x0 MSTORE PUSH1 0x20 PUSH1 0x0 KECCAK256 SWAP1 JUMPDEST DUP2 SLOAD DUP2 MSTORE SWAP1 PUSH1 0x1 ADD SWAP1 PUSH1 0x20 ADD DUP1 DUP4 GT PUSH2 0x40F JUMPI DUP3 SWAP1 SUB PUSH1 0x1F AND DUP3 ADD SWAP2 JUMPDEST POP POP POP POP POP DUP2 JUMP JUMPDEST PUSH2 0x48B PUSH1 0x40 MLOAD DUP1 PUSH1 0x40 ADD PUSH1 0x40 MSTORE DUP1 PUSH1 0x3 DUP2 MSTORE PUSH1 0x20 ADD PUSH32 0x55524C0000000000000000000000000000000000000000000000000000000000 DUP2 MSTORE POP PUSH1 0x40 MLOAD DUP1 PUSH1 0x60 ADD PUSH1 0x40 MSTORE DUP1 PUSH1 0x34 DUP2 MSTORE PUSH1 0x20 ADD PUSH2 0x1324 PUSH1 0x34 SWAP2 CODECOPY PUSH2 0x7AB JUMP JUMPDEST POP JUMP JUMPDEST PUSH1 0x0 DUP1 PUSH20 0xFFFFFFFFFFFFFFFFFFFFFFFFFFFFFFFFFFFFFFFF AND PUSH1 0x1 PUSH1 0x0 SWAP1 SLOAD SWAP1 PUSH2 0x100 EXP SWAP1 DIV PUSH20 0xFFFFFFFFFFFFFFFFFFFFFFFFFFFFFFFFFFFFFFFF AND PUSH20 0xFFFFFFFFFFFFFFFFFFFFFFFFFFFFFFFFFFFFFFFF AND EQ DUP1 PUSH2 0x516 JUMPI POP PUSH1 0x0 PUSH2 0x514 PUSH1 0x1 PUSH1 0x0 SWAP1 SLOAD SWAP1 PUSH2 0x100 EXP SWAP1 DIV PUSH20 0xFFFFFFFFFFFFFFFFFFFFFFFFFFFFFFFFFFFFFFFF AND PUSH2 0xCF1 JUMP JUMPDEST EQ JUMPDEST ISZERO PUSH2 0x527 JUMPI PUSH2 0x525 PUSH1 0x0 PUSH2 0xCFC JUMP JUMPDEST POP JUMPDEST PUSH1 0x1 PUSH1 0x0 SWAP1 SLOAD SWAP1 PUSH2 0x100 EXP SWAP1 DIV PUSH20 0xFFFFFFFFFFFFFFFFFFFFFFFFFFFFFFFFFFFFFFFF AND PUSH20 0xFFFFFFFFFFFFFFFFFFFFFFFFFFFFFFFFFFFFFFFF AND PUSH4 0x38CC4831 PUSH1 0x40 MLOAD DUP2 PUSH4 0xFFFFFFFF AND PUSH1 0xE0 SHL DUP2 MSTORE PUSH1 0x4 ADD PUSH1 0x20 PUSH1 0x40 MLOAD DUP1 DUP4 SUB DUP2 PUSH1 0x0 DUP8 DUP1 EXTCODESIZE ISZERO DUP1 ISZERO PUSH2 0x591 JUMPI PUSH1 0x0 DUP1 REVERT JUMPDEST POP GAS CALL ISZERO DUP1 ISZERO PUSH2 0x5A5 JUMPI RETURNDATASIZE PUSH1 0x0 DUP1 RETURNDATACOPY RETURNDATASIZE PUSH1 0x0 REVERT JUMPDEST POP POP POP POP PUSH1 0x40 MLOAD RETURNDATASIZE PUSH1 0x20 DUP2 LT ISZERO PUSH2 0x5BB JUMPI PUSH1 0x0 DUP1 REVERT JUMPDEST DUP2 ADD SWAP1 DUP1 DUP1 MLOAD SWAP1 PUSH1 0x20 ADD SWAP1 SWAP3 SWAP2 SWAP1 POP POP POP PUSH20 0xFFFFFFFFFFFFFFFFFFFFFFFFFFFFFFFFFFFFFFFF AND PUSH1 0x0 DUP1 SWAP1 SLOAD SWAP1 PUSH2 0x100 EXP SWAP1 DIV PUSH20 0xFFFFFFFFFFFFFFFFFFFFFFFFFFFFFFFFFFFFFFFF AND PUSH20 0xFFFFFFFFFFFFFFFFFFFFFFFFFFFFFFFFFFFFFFFF AND EQ PUSH2 0x704 JUMPI PUSH1 0x1 PUSH1 0x0 SWAP1 SLOAD SWAP1 PUSH2 0x100 EXP SWAP1 DIV PUSH20 0xFFFFFFFFFFFFFFFFFFFFFFFFFFFFFFFFFFFFFFFF AND PUSH20 0xFFFFFFFFFFFFFFFFFFFFFFFFFFFFFFFFFFFFFFFF AND PUSH4 0x38CC4831 PUSH1 0x40 MLOAD DUP2 PUSH4 0xFFFFFFFF AND PUSH1 0xE0 SHL DUP2 MSTORE PUSH1 0x4 ADD PUSH1 0x20 PUSH1 0x40 MLOAD DUP1 DUP4 SUB DUP2 PUSH1 0x0 DUP8 DUP1 EXTCODESIZE ISZERO DUP1 ISZERO PUSH2 0x689 JUMPI PUSH1 0x0 DUP1 REVERT JUMPDEST POP GAS CALL ISZERO DUP1 ISZERO PUSH2 0x69D JUMPI RETURNDATASIZE PUSH1 0x0 DUP1 RETURNDATACOPY RETURNDATASIZE PUSH1 0x0 REVERT JUMPDEST POP POP POP POP PUSH1 0x40 MLOAD RETURNDATASIZE PUSH1 0x20 DUP2 LT ISZERO PUSH2 0x6B3 JUMPI PUSH1 0x0 DUP1 REVERT JUMPDEST DUP2 ADD SWAP1 DUP1 DUP1 MLOAD SWAP1 PUSH1 0x20 ADD SWAP1 SWAP3 SWAP2 SWAP1 POP POP POP PUSH1 0x0 DUP1 PUSH2 0x100 EXP DUP2 SLOAD DUP2 PUSH20 0xFFFFFFFFFFFFFFFFFFFFFFFFFFFFFFFFFFFFFFFF MUL NOT AND SWAP1 DUP4 PUSH20 0xFFFFFFFFFFFFFFFFFFFFFFFFFFFFFFFFFFFFFFFF AND MUL OR SWAP1 SSTORE POP JUMPDEST PUSH1 0x0 DUP1 SWAP1 SLOAD SWAP1 PUSH2 0x100 EXP SWAP1 DIV PUSH20 0xFFFFFFFFFFFFFFFFFFFFFFFFFFFFFFFFFFFFFFFF AND PUSH20 0xFFFFFFFFFFFFFFFFFFFFFFFFFFFFFFFFFFFFFFFF AND PUSH4 0xC281D19E PUSH1 0x40 MLOAD DUP2 PUSH4 0xFFFFFFFF AND PUSH1 0xE0 SHL DUP2 MSTORE PUSH1 0x4 ADD PUSH1 0x20 PUSH1 0x40 MLOAD DUP1 DUP4 SUB DUP2 DUP7 DUP1 EXTCODESIZE ISZERO DUP1 ISZERO PUSH2 0x76B JUMPI PUSH1 0x0 DUP1 REVERT JUMPDEST POP GAS STATICCALL ISZERO DUP1 ISZERO PUSH2 0x77F JUMPI RETURNDATASIZE PUSH1 0x0 DUP1 RETURNDATACOPY RETURNDATASIZE PUSH1 0x0 REVERT JUMPDEST POP POP POP POP PUSH1 0x40 MLOAD RETURNDATASIZE PUSH1 0x20 DUP2 LT ISZERO PUSH2 0x795 JUMPI PUSH1 0x0 DUP1 REVERT JUMPDEST DUP2 ADD SWAP1 DUP1 DUP1 MLOAD SWAP1 PUSH1 0x20 ADD SWAP1 SWAP3 SWAP2 SWAP1 POP POP POP SWAP1 POP SWAP1 JUMP JUMPDEST PUSH1 0x0 DUP1 PUSH20 0xFFFFFFFFFFFFFFFFFFFFFFFFFFFFFFFFFFFFFFFF AND PUSH1 0x1 PUSH1 0x0 SWAP1 SLOAD SWAP1 PUSH2 0x100 EXP SWAP1 DIV PUSH20 0xFFFFFFFFFFFFFFFFFFFFFFFFFFFFFFFFFFFFFFFF AND PUSH20 0xFFFFFFFFFFFFFFFFFFFFFFFFFFFFFFFFFFFFFFFF AND EQ DUP1 PUSH2 0x833 JUMPI POP PUSH1 0x0 PUSH2 0x831 PUSH1 0x1 PUSH1 0x0 SWAP1 SLOAD SWAP1 PUSH2 0x100 EXP SWAP1 DIV PUSH20 0xFFFFFFFFFFFFFFFFFFFFFFFFFFFFFFFFFFFFFFFF AND PUSH2 0xCF1 JUMP JUMPDEST EQ JUMPDEST ISZERO PUSH2 0x844 JUMPI PUSH2 0x842 PUSH1 0x0 PUSH2 0xCFC JUMP JUMPDEST POP JUMPDEST PUSH1 0x1 PUSH1 0x0 SWAP1 SLOAD SWAP1 PUSH2 0x100 EXP SWAP1 DIV PUSH20 0xFFFFFFFFFFFFFFFFFFFFFFFFFFFFFFFFFFFFFFFF AND PUSH20 0xFFFFFFFFFFFFFFFFFFFFFFFFFFFFFFFFFFFFFFFF AND PUSH4 0x38CC4831 PUSH1 0x40 MLOAD DUP2 PUSH4 0xFFFFFFFF AND PUSH1 0xE0 SHL DUP2 MSTORE PUSH1 0x4 ADD PUSH1 0x20 PUSH1 0x40 MLOAD DUP1 DUP4 SUB DUP2 PUSH1 0x0 DUP8 DUP1 EXTCODESIZE ISZERO DUP1 ISZERO PUSH2 0x8AE JUMPI PUSH1 0x0 DUP1 REVERT JUMPDEST POP GAS CALL ISZERO DUP1 ISZERO PUSH2 0x8C2 JUMPI RETURNDATASIZE PUSH1 0x0 DUP1 RETURNDATACOPY RETURNDATASIZE PUSH1 0x0 REVERT JUMPDEST POP POP POP POP PUSH1 0x40 MLOAD RETURNDATASIZE PUSH1 0x20 DUP2 LT ISZERO PUSH2 0x8D8 JUMPI PUSH1 0x0 DUP1 REVERT JUMPDEST DUP2 ADD SWAP1 DUP1 DUP1 MLOAD SWAP1 PUSH1 0x20 ADD SWAP1 SWAP3 SWAP2 SWAP1 POP POP POP PUSH20 0xFFFFFFFFFFFFFFFFFFFFFFFFFFFFFFFFFFFFFFFF AND PUSH1 0x0 DUP1 SWAP1 SLOAD SWAP1 PUSH2 0x100 EXP SWAP1 DIV PUSH20 0xFFFFFFFFFFFFFFFFFFFFFFFFFFFFFFFFFFFFFFFF AND PUSH20 0xFFFFFFFFFFFFFFFFFFFFFFFFFFFFFFFFFFFFFFFF AND EQ PUSH2 0xA21 JUMPI PUSH1 0x1 PUSH1 0x0 SWAP1 SLOAD SWAP1 PUSH2 0x100 EXP SWAP1 DIV PUSH20 0xFFFFFFFFFFFFFFFFFFFFFFFFFFFFFFFFFFFFFFFF AND PUSH20 0xFFFFFFFFFFFFFFFFFFFFFFFFFFFFFFFFFFFFFFFF AND PUSH4 0x38CC4831 PUSH1 0x40 MLOAD DUP2 PUSH4 0xFFFFFFFF AND PUSH1 0xE0 SHL DUP2 MSTORE PUSH1 0x4 ADD PUSH1 0x20 PUSH1 0x40 MLOAD DUP1 DUP4 SUB DUP2 PUSH1 0x0 DUP8 DUP1 EXTCODESIZE ISZERO DUP1 ISZERO PUSH2 0x9A6 JUMPI PUSH1 0x0 DUP1 REVERT JUMPDEST POP GAS CALL ISZERO DUP1 ISZERO PUSH2 0x9BA JUMPI RETURNDATASIZE PUSH1 0x0 DUP1 RETURNDATACOPY RETURNDATASIZE PUSH1 0x0 REVERT JUMPDEST POP POP POP POP PUSH1 0x40 MLOAD RETURNDATASIZE PUSH1 0x20 DUP2 LT ISZERO PUSH2 0x9D0 JUMPI PUSH1 0x0 DUP1 REVERT JUMPDEST DUP2 ADD SWAP1 DUP1 DUP1 MLOAD SWAP1 PUSH1 0x20 ADD SWAP1 SWAP3 SWAP2 SWAP1 POP POP POP PUSH1 0x0 DUP1 PUSH2 0x100 EXP DUP2 SLOAD DUP2 PUSH20 0xFFFFFFFFFFFFFFFFFFFFFFFFFFFFFFFFFFFFFFFF MUL NOT AND SWAP1 DUP4 PUSH20 0xFFFFFFFFFFFFFFFFFFFFFFFFFFFFFFFFFFFFFFFF AND MUL OR SWAP1 SSTORE POP JUMPDEST PUSH1 0x0 DUP1 PUSH1 0x0 SWAP1 SLOAD SWAP1 PUSH2 0x100 EXP SWAP1 DIV PUSH20 0xFFFFFFFFFFFFFFFFFFFFFFFFFFFFFFFFFFFFFFFF AND PUSH20 0xFFFFFFFFFFFFFFFFFFFFFFFFFFFFFFFFFFFFFFFF AND PUSH4 0x524F3889 DUP6 PUSH1 0x40 MLOAD DUP3 PUSH4 0xFFFFFFFF AND PUSH1 0xE0 SHL DUP2 MSTORE PUSH1 0x4 ADD DUP1 DUP1 PUSH1 0x20 ADD DUP3 DUP2 SUB DUP3 MSTORE DUP4 DUP2 DUP2 MLOAD DUP2 MSTORE PUSH1 0x20 ADD SWAP2 POP DUP1 MLOAD SWAP1 PUSH1 0x20 ADD SWAP1 DUP1 DUP4 DUP4 PUSH1 0x0 JUMPDEST DUP4 DUP2 LT ISZERO PUSH2 0xAB0 JUMPI DUP1 DUP3 ADD MLOAD DUP2 DUP5 ADD MSTORE PUSH1 0x20 DUP2 ADD SWAP1 POP PUSH2 0xA95 JUMP JUMPDEST POP POP POP POP SWAP1 POP SWAP1 DUP2 ADD SWAP1 PUSH1 0x1F AND DUP1 ISZERO PUSH2 0xADD JUMPI DUP1 DUP3 SUB DUP1 MLOAD PUSH1 0x1 DUP4 PUSH1 0x20 SUB PUSH2 0x100 EXP SUB NOT AND DUP2 MSTORE PUSH1 0x20 ADD SWAP2 POP JUMPDEST POP SWAP3 POP POP POP PUSH1 0x20 PUSH1 0x40 MLOAD DUP1 DUP4 SUB DUP2 PUSH1 0x0 DUP8 DUP1 EXTCODESIZE ISZERO DUP1 ISZERO PUSH2 0xAFC JUMPI PUSH1 0x0 DUP1 REVERT JUMPDEST POP GAS CALL ISZERO DUP1 ISZERO PUSH2 0xB10 JUMPI RETURNDATASIZE PUSH1 0x0 DUP1 RETURNDATACOPY RETURNDATASIZE PUSH1 0x0 REVERT JUMPDEST POP POP POP POP PUSH1 0x40 MLOAD RETURNDATASIZE PUSH1 0x20 DUP2 LT ISZERO PUSH2 0xB26 JUMPI PUSH1 0x0 DUP1 REVERT JUMPDEST DUP2 ADD SWAP1 DUP1 DUP1 MLOAD SWAP1 PUSH1 0x20 ADD SWAP1 SWAP3 SWAP2 SWAP1 POP POP POP SWAP1 POP PUSH3 0x30D40 GASPRICE MUL PUSH8 0xDE0B6B3A7640000 ADD DUP2 GT ISZERO PUSH2 0xB5C JUMPI PUSH1 0x0 DUP1 SHL SWAP2 POP POP PUSH2 0xCEB JUMP JUMPDEST PUSH1 0x0 DUP1 SWAP1 SLOAD SWAP1 PUSH2 0x100 EXP SWAP1 DIV PUSH20 0xFFFFFFFFFFFFFFFFFFFFFFFFFFFFFFFFFFFFFFFF AND PUSH20 0xFFFFFFFFFFFFFFFFFFFFFFFFFFFFFFFFFFFFFFFF AND PUSH4 0xADF59F99 DUP3 PUSH1 0x0 DUP8 DUP8 PUSH1 0x40 MLOAD DUP6 PUSH4 0xFFFFFFFF AND PUSH1 0xE0 SHL DUP2 MSTORE PUSH1 0x4 ADD DUP1 DUP5 DUP2 MSTORE PUSH1 0x20 ADD DUP1 PUSH1 0x20 ADD DUP1 PUSH1 0x20 ADD DUP4 DUP2 SUB DUP4 MSTORE DUP6 DUP2 DUP2 MLOAD DUP2 MSTORE PUSH1 0x20 ADD SWAP2 POP DUP1 MLOAD SWAP1 PUSH1 0x20 ADD SWAP1 DUP1 DUP4 DUP4 PUSH1 0x0 JUMPDEST DUP4 DUP2 LT ISZERO PUSH2 0xBF7 JUMPI DUP1 DUP3 ADD MLOAD DUP2 DUP5 ADD MSTORE PUSH1 0x20 DUP2 ADD SWAP1 POP PUSH2 0xBDC JUMP JUMPDEST POP POP POP POP SWAP1 POP SWAP1 DUP2 ADD SWAP1 PUSH1 0x1F AND DUP1 ISZERO PUSH2 0xC24 JUMPI DUP1 DUP3 SUB DUP1 MLOAD PUSH1 0x1 DUP4 PUSH1 0x20 SUB PUSH2 0x100 EXP SUB NOT AND DUP2 MSTORE PUSH1 0x20 ADD SWAP2 POP JUMPDEST POP DUP4 DUP2 SUB DUP3 MSTORE DUP5 DUP2 DUP2 MLOAD DUP2 MSTORE PUSH1 0x20 ADD SWAP2 POP DUP1 MLOAD SWAP1 PUSH1 0x20 ADD SWAP1 DUP1 DUP4 DUP4 PUSH1 0x0 JUMPDEST DUP4 DUP2 LT ISZERO PUSH2 0xC5D JUMPI DUP1 DUP3 ADD MLOAD DUP2 DUP5 ADD MSTORE PUSH1 0x20 DUP2 ADD SWAP1 POP PUSH2 0xC42 JUMP JUMPDEST POP POP POP POP SWAP1 POP SWAP1 DUP2 ADD SWAP1 PUSH1 0x1F AND DUP1 ISZERO PUSH2 0xC8A JUMPI DUP1 DUP3 SUB DUP1 MLOAD PUSH1 0x1 DUP4 PUSH1 0x20 SUB PUSH2 0x100 EXP SUB NOT AND DUP2 MSTORE PUSH1 0x20 ADD SWAP2 POP JUMPDEST POP SWAP6 POP POP POP POP POP POP PUSH1 0x20 PUSH1 0x40 MLOAD DUP1 DUP4 SUB DUP2 DUP6 DUP9 DUP1 EXTCODESIZE ISZERO DUP1 ISZERO PUSH2 0xCAB JUMPI PUSH1 0x0 DUP1 REVERT JUMPDEST POP GAS CALL ISZERO DUP1 ISZERO PUSH2 0xCBF JUMPI RETURNDATASIZE PUSH1 0x0 DUP1 RETURNDATACOPY RETURNDATASIZE PUSH1 0x0 REVERT JUMPDEST POP POP POP POP POP PUSH1 0x40 MLOAD RETURNDATASIZE PUSH1 0x20 DUP2 LT ISZERO PUSH2 0xCD6 JUMPI PUSH1 0x0 DUP1 REVERT JUMPDEST DUP2 ADD SWAP1 DUP1 DUP1 MLOAD SWAP1 PUSH1 0x20 ADD SWAP1 SWAP3 SWAP2 SWAP1 POP POP POP SWAP2 POP POP JUMPDEST SWAP3 SWAP2 POP POP JUMP JUMPDEST PUSH1 0x0 DUP2 EXTCODESIZE SWAP1 POP SWAP2 SWAP1 POP JUMP JUMPDEST PUSH1 0x0 PUSH2 0xD06 PUSH2 0xD0D JUMP JUMPDEST SWAP1 POP SWAP2 SWAP1 POP JUMP JUMPDEST PUSH1 0x0 DUP1 PUSH2 0xD2D PUSH20 0x1D3B2638A7CC9F2CB3D298A3DA7A90B67E5506ED PUSH2 0xCF1 JUMP JUMPDEST GT ISZERO PUSH2 0xDCF JUMPI PUSH20 0x1D3B2638A7CC9F2CB3D298A3DA7A90B67E5506ED PUSH1 0x1 PUSH1 0x0 PUSH2 0x100 EXP DUP2 SLOAD DUP2 PUSH20 0xFFFFFFFFFFFFFFFFFFFFFFFFFFFFFFFFFFFFFFFF MUL NOT AND SWAP1 DUP4 PUSH20 0xFFFFFFFFFFFFFFFFFFFFFFFFFFFFFFFFFFFFFFFF AND MUL OR SWAP1 SSTORE POP PUSH2 0xDC6 PUSH1 0x40 MLOAD DUP1 PUSH1 0x40 ADD PUSH1 0x40 MSTORE DUP1 PUSH1 0xB DUP2 MSTORE PUSH1 0x20 ADD PUSH32 0x6574685F6D61696E6E6574000000000000000000000000000000000000000000 DUP2 MSTORE POP PUSH2 0x1264 JUMP JUMPDEST PUSH1 0x1 SWAP1 POP PUSH2 0x1261 JUMP JUMPDEST PUSH1 0x0 PUSH2 0xDEE PUSH20 0xC03A2615D5EFAF5F49F60B7BB6583EAEC212FDF1 PUSH2 0xCF1 JUMP JUMPDEST GT ISZERO PUSH2 0xE90 JUMPI PUSH20 0xC03A2615D5EFAF5F49F60B7BB6583EAEC212FDF1 PUSH1 0x1 PUSH1 0x0 PUSH2 0x100 EXP DUP2 SLOAD DUP2 PUSH20 0xFFFFFFFFFFFFFFFFFFFFFFFFFFFFFFFFFFFFFFFF MUL NOT AND SWAP1 DUP4 PUSH20 0xFFFFFFFFFFFFFFFFFFFFFFFFFFFFFFFFFFFFFFFF AND MUL OR SWAP1 SSTORE POP PUSH2 0xE87 PUSH1 0x40 MLOAD DUP1 PUSH1 0x40 ADD PUSH1 0x40 MSTORE DUP1 PUSH1 0xC DUP2 MSTORE PUSH1 0x20 ADD PUSH32 0x6574685F726F707374656E330000000000000000000000000000000000000000 DUP2 MSTORE POP PUSH2 0x1264 JUMP JUMPDEST PUSH1 0x1 SWAP1 POP PUSH2 0x1261 JUMP JUMPDEST PUSH1 0x0 PUSH2 0xEAF PUSH20 0xB7A07BCF2BA2F2703B24C0691B5278999C59AC7E PUSH2 0xCF1 JUMP JUMPDEST GT ISZERO PUSH2 0xF51 JUMPI PUSH20 0xB7A07BCF2BA2F2703B24C0691B5278999C59AC7E PUSH1 0x1 PUSH1 0x0 PUSH2 0x100 EXP DUP2 SLOAD DUP2 PUSH20 0xFFFFFFFFFFFFFFFFFFFFFFFFFFFFFFFFFFFFFFFF MUL NOT AND SWAP1 DUP4 PUSH20 0xFFFFFFFFFFFFFFFFFFFFFFFFFFFFFFFFFFFFFFFF AND MUL OR SWAP1 SSTORE POP PUSH2 0xF48 PUSH1 0x40 MLOAD DUP1 PUSH1 0x40 ADD PUSH1 0x40 MSTORE DUP1 PUSH1 0x9 DUP2 MSTORE PUSH1 0x20 ADD PUSH32 0x6574685F6B6F76616E0000000000000000000000000000000000000000000000 DUP2 MSTORE POP PUSH2 0x1264 JUMP JUMPDEST PUSH1 0x1 SWAP1 POP PUSH2 0x1261 JUMP JUMPDEST PUSH1 0x0 PUSH2 0xF70 PUSH20 0x146500CFD35B22E4A392FE0ADC06DE1A1368ED48 PUSH2 0xCF1 JUMP JUMPDEST GT ISZERO PUSH2 0x1012 JUMPI PUSH20 0x146500CFD35B22E4A392FE0ADC06DE1A1368ED48 PUSH1 0x1 PUSH1 0x0 PUSH2 0x100 EXP DUP2 SLOAD DUP2 PUSH20 0xFFFFFFFFFFFFFFFFFFFFFFFFFFFFFFFFFFFFFFFF MUL NOT AND SWAP1 DUP4 PUSH20 0xFFFFFFFFFFFFFFFFFFFFFFFFFFFFFFFFFFFFFFFF AND MUL OR SWAP1 SSTORE POP PUSH2 0x1009 PUSH1 0x40 MLOAD DUP1 PUSH1 0x40 ADD PUSH1 0x40 MSTORE DUP1 PUSH1 0xB DUP2 MSTORE PUSH1 0x20 ADD PUSH32 0x6574685F72696E6B656279000000000000000000000000000000000000000000 DUP2 MSTORE POP PUSH2 0x1264 JUMP JUMPDEST PUSH1 0x1 SWAP1 POP PUSH2 0x1261 JUMP JUMPDEST PUSH1 0x0 PUSH2 0x1031 PUSH20 0xA2998EFD205FB9D4B4963AFB70778D6354AD3A41 PUSH2 0xCF1 JUMP JUMPDEST GT ISZERO PUSH2 0x10D3 JUMPI PUSH20 0xA2998EFD205FB9D4B4963AFB70778D6354AD3A41 PUSH1 0x1 PUSH1 0x0 PUSH2 0x100 EXP DUP2 SLOAD DUP2 PUSH20 0xFFFFFFFFFFFFFFFFFFFFFFFFFFFFFFFFFFFFFFFF MUL NOT AND SWAP1 DUP4 PUSH20 0xFFFFFFFFFFFFFFFFFFFFFFFFFFFFFFFFFFFFFFFF AND MUL OR SWAP1 SSTORE POP PUSH2 0x10CA PUSH1 0x40 MLOAD DUP1 PUSH1 0x40 ADD PUSH1 0x40 MSTORE DUP1 PUSH1 0xA DUP2 MSTORE PUSH1 0x20 ADD PUSH32 0x6574685F676F65726C6900000000000000000000000000000000000000000000 DUP2 MSTORE POP PUSH2 0x1264 JUMP JUMPDEST PUSH1 0x1 SWAP1 POP PUSH2 0x1261 JUMP JUMPDEST PUSH1 0x0 PUSH2 0x10F2 PUSH20 0x6F485C8BF6FC43EA212E93BBF8CE046C7F1CB475 PUSH2 0xCF1 JUMP JUMPDEST GT ISZERO PUSH2 0x1156 JUMPI PUSH20 0x6F485C8BF6FC43EA212E93BBF8CE046C7F1CB475 PUSH1 0x1 PUSH1 0x0 PUSH2 0x100 EXP DUP2 SLOAD DUP2 PUSH20 0xFFFFFFFFFFFFFFFFFFFFFFFFFFFFFFFFFFFFFFFF MUL NOT AND SWAP1 DUP4 PUSH20 0xFFFFFFFFFFFFFFFFFFFFFFFFFFFFFFFFFFFFFFFF AND MUL OR SWAP1 SSTORE POP PUSH1 0x1 SWAP1 POP PUSH2 0x1261 JUMP JUMPDEST PUSH1 0x0 PUSH2 0x1175 PUSH20 0x20E12A1F859B3FEAE5FB2A0A32C18F5A65555BBF PUSH2 0xCF1 JUMP JUMPDEST GT ISZERO PUSH2 0x11D9 JUMPI PUSH20 0x20E12A1F859B3FEAE5FB2A0A32C18F5A65555BBF PUSH1 0x1 PUSH1 0x0 PUSH2 0x100 EXP DUP2 SLOAD DUP2 PUSH20 0xFFFFFFFFFFFFFFFFFFFFFFFFFFFFFFFFFFFFFFFF MUL NOT AND SWAP1 DUP4 PUSH20 0xFFFFFFFFFFFFFFFFFFFFFFFFFFFFFFFFFFFFFFFF AND MUL OR SWAP1 SSTORE POP PUSH1 0x1 SWAP1 POP PUSH2 0x1261 JUMP JUMPDEST PUSH1 0x0 PUSH2 0x11F8 PUSH20 0x51EFAF4C8B3C9AFBD5AB9F4BBC82784AB6EF8FAA PUSH2 0xCF1 JUMP JUMPDEST GT ISZERO PUSH2 0x125C JUMPI PUSH20 0x51EFAF4C8B3C9AFBD5AB9F4BBC82784AB6EF8FAA PUSH1 0x1 PUSH1 0x0 PUSH2 0x100 EXP DUP2 SLOAD DUP2 PUSH20 0xFFFFFFFFFFFFFFFFFFFFFFFFFFFFFFFFFFFFFFFF MUL NOT AND SWAP1 DUP4 PUSH20 0xFFFFFFFFFFFFFFFFFFFFFFFFFFFFFFFFFFFFFFFF AND MUL OR SWAP1 SSTORE POP PUSH1 0x1 SWAP1 POP PUSH2 0x1261 JUMP JUMPDEST PUSH1 0x0 SWAP1 POP JUMPDEST SWAP1 JUMP JUMPDEST DUP1 PUSH1 0x2 SWAP1 DUP1 MLOAD SWAP1 PUSH1 0x20 ADD SWAP1 PUSH2 0x127A SWAP3 SWAP2 SWAP1 PUSH2 0x127E JUMP JUMPDEST POP POP JUMP JUMPDEST DUP3 DUP1 SLOAD PUSH1 0x1 DUP2 PUSH1 0x1 AND ISZERO PUSH2 0x100 MUL SUB AND PUSH1 0x2 SWAP1 DIV SWAP1 PUSH1 0x0 MSTORE PUSH1 0x20 PUSH1 0x0 KECCAK256 SWAP1 PUSH1 0x1F ADD PUSH1 0x20 SWAP1 DIV DUP2 ADD SWAP3 DUP3 PUSH1 0x1F LT PUSH2 0x12BF JUMPI DUP1 MLOAD PUSH1 0xFF NOT AND DUP4 DUP1 ADD OR DUP6 SSTORE PUSH2 0x12ED JUMP JUMPDEST DUP3 DUP1 ADD PUSH1 0x1 ADD DUP6 SSTORE DUP3 ISZERO PUSH2 0x12ED JUMPI SWAP2 DUP3 ADD JUMPDEST DUP3 DUP2 GT ISZERO PUSH2 0x12EC JUMPI DUP3 MLOAD DUP3 SSTORE SWAP2 PUSH1 0x20 ADD SWAP2 SWAP1 PUSH1 0x1 ADD SWAP1 PUSH2 0x12D1 JUMP JUMPDEST JUMPDEST POP SWAP1 POP PUSH2 0x12FA SWAP2 SWAP1 PUSH2 0x12FE JUMP JUMPDEST POP SWAP1 JUMP JUMPDEST PUSH2 0x1320 SWAP2 SWAP1 JUMPDEST DUP1 DUP3 GT ISZERO PUSH2 0x131C JUMPI PUSH1 0x0 DUP2 PUSH1 0x0 SWAP1 SSTORE POP PUSH1 0x1 ADD PUSH2 0x1304 JUMP JUMPDEST POP SWAP1 JUMP JUMPDEST SWAP1 JUMP INVALID PUSH11 0x736F6E2868747470733A2F 0x2F PUSH24 0x77772E626F7265646170692E636F6D2F6170692F61637469 PUSH23 0x697479292E6163746976697479A265627A7A723158207A DUP16 0x1F PUSH23 0x9C5E52DE8572FF65B5A07DD40D82A21324B56080D6ED89 GAS 0x22 NUMBER 0x23 0xAA PUSH5 0x736F6C6343 STOP SDIV GT STOP ORIGIN "
				},
				"gasEstimates": {
					"creation": {
						"codeDepositCost": "1000800",
						"executionCost": "1041",
						"totalCost": "1001841"
					},
					"external": {
						"__callback(bytes32,string)": "infinite",
						"__callback(bytes32,string,bytes)": "infinite",
						"activity()": "infinite",
						"getActivity()": "infinite"
					}
				},
				"methodIdentifiers": {
					"__callback(bytes32,string)": "27dc297e",
					"__callback(bytes32,string,bytes)": "38bbfa50",
					"activity()": "5d9c7a16",
					"getActivity()": "caf51bda"
				}
			},
			"storageLayout": {
				"storage": [
					{
						"astId": 698,
						"contract": "contracts/Oracle.sol:Oracle",
						"label": "provable",
						"offset": 0,
						"slot": "0",
						"type": "t_contract(ProvableI)156"
					},
					{
						"astId": 700,
						"contract": "contracts/Oracle.sol:Oracle",
						"label": "OAR",
						"offset": 0,
						"slot": "1",
						"type": "t_contract(OracleAddrResolverI)162"
					},
					{
						"astId": 745,
						"contract": "contracts/Oracle.sol:Oracle",
						"label": "provable_network_name",
						"offset": 0,
						"slot": "2",
						"type": "t_string_storage"
					},
					{
						"astId": 764,
						"contract": "contracts/Oracle.sol:Oracle",
						"label": "provable_randomDS_args",
						"offset": 0,
						"slot": "3",
						"type": "t_mapping(t_bytes32,t_bytes32)"
					},
					{
						"astId": 768,
						"contract": "contracts/Oracle.sol:Oracle",
						"label": "provable_randomDS_sessionKeysHashVerified",
						"offset": 0,
						"slot": "4",
						"type": "t_mapping(t_bytes32,t_bool)"
					},
					{
						"astId": 6,
						"contract": "contracts/Oracle.sol:Oracle",
						"label": "activity",
						"offset": 0,
						"slot": "5",
						"type": "t_string_storage"
					}
				],
				"types": {
					"t_bool": {
						"encoding": "inplace",
						"label": "bool",
						"numberOfBytes": "1"
					},
					"t_bytes32": {
						"encoding": "inplace",
						"label": "bytes32",
						"numberOfBytes": "32"
					},
					"t_contract(OracleAddrResolverI)162": {
						"encoding": "inplace",
						"label": "contract OracleAddrResolverI",
						"numberOfBytes": "20"
					},
					"t_contract(ProvableI)156": {
						"encoding": "inplace",
						"label": "contract ProvableI",
						"numberOfBytes": "20"
					},
					"t_mapping(t_bytes32,t_bool)": {
						"encoding": "mapping",
						"key": "t_bytes32",
						"label": "mapping(bytes32 => bool)",
						"numberOfBytes": "32",
						"value": "t_bool"
					},
					"t_mapping(t_bytes32,t_bytes32)": {
						"encoding": "mapping",
						"key": "t_bytes32",
						"label": "mapping(bytes32 => bytes32)",
						"numberOfBytes": "32",
						"value": "t_bytes32"
					},
					"t_string_storage": {
						"encoding": "bytes",
						"label": "string",
						"numberOfBytes": "32"
					}
				}
			},
			"userdoc": {
				"methods": {}
			}
		}
	}
}